###############################################################################
#                                                                             #
# IAR C/C++ Compiler V7.51A/W32 for 8051                04/Sep/2013  16:31:30 #
# Copyright 2004-2009 IAR Systems AB.                                         #
#                                                                             #
#    Core               =  plain                                              #
#    Code model         =  banked                                             #
#    Data model         =  large                                              #
#    Calling convention =  xdata reentrant                                    #
#    Constant location  =  data_rom                                           #
#    Dptr setup         =  1,16                                               #
#    Source file        =  D:\GitHub\z-stack\Sensor Network                   #
#                          Example\Components\stack\zdo\ZDSecMgr.c            #
#    Command line       =  -f "D:\GitHub\z-stack\Sensor Network               #
#                          Example\Projects\zstack\Sensor Network             #
#                          Application\ZIGBEE Coordinator &                   #
#                          Router\CC2530DB\..\..\..\Tools\CC2530DB\f8wCoord.c #
#                          fg" (-DCPU32MHZ -DROOT=__near_func                 #
#                          -DMAC_CFG_APP_PENDING_QUEUE=TRUE                   #
#                          -DZDO_COORDINATOR -DRTR_NWK -DBLINK_LEDS) -f       #
#                          "D:\GitHub\z-stack\Sensor Network                  #
#                          Example\Projects\zstack\Sensor Network             #
#                          Application\ZIGBEE Coordinator &                   #
#                          Router\CC2530DB\..\..\..\Tools\CC2530DB\f8wConfig. #
#                          cfg" (-DSECURE=0 -DZG_SECURE_DYNAMIC=0             #
#                          -DREFLECTOR -DDEFAULT_CHANLIST=0x00000800          #
#                          -DZDAPP_CONFIG_PAN_ID=0xFFFF                       #
#                          -DNWK_START_DELAY=100 -DEXTENDED_JOINING_RANDOM_MA #
#                          SK=0x007F -DBEACON_REQUEST_DELAY=100               #
#                          -DBEACON_REQ_DELAY_MASK=0x00FF                     #
#                          -DROUTE_EXPIRY_TIME=30 -DAPSC_ACK_WAIT_DURATION_PO #
#                          LLED=3000 -DNWK_INDIRECT_MSG_TIMEOUT=7             #
#                          -DMAX_RREQ_ENTRIES=8 -DAPSC_MAX_FRAME_RETRIES=3    #
#                          -DNWK_MAX_DATA_RETRIES=2                           #
#                          -DMAX_POLL_FAILURE_RETRIES=2 -DMAX_BCAST=9         #
#                          -DAPS_MAX_GROUPS=16 -DMAX_RTG_ENTRIES=40           #
#                          -DNWK_MAX_BINDING_ENTRIES=4                        #
#                          -DMAX_BINDING_CLUSTER_IDS=4 "-DDEFAULT_KEY={0x01,  #
#                          0x03, 0x05, 0x07, 0x09, 0x0B, 0x0D, 0x0F, 0x00,    #
#                          0x02, 0x04, 0x06, 0x08, 0x0A, 0x0C, 0x0D}"         #
#                          -DMAC_MAX_FRAME_SIZE=116 "-DCONST=const __code"    #
#                          -DGENERIC=__generic -DRFD_RCVC_ALWAYS_ON=TRUE      #
#                          -DPOLL_RATE=1000 -DQUEUED_POLL_RATE=100            #
#                          -DRESPONSE_POLL_RATE=100 -DREJOIN_POLL_RATE=440)   #
#                          -f "D:\GitHub\z-stack\Sensor Network               #
#                          Example\Projects\zstack\Sensor Network             #
#                          Application\ZIGBEE Coordinator &                   #
#                          Router\CC2530DB\..\..\..\Tools\CC2530DB\f8wZCL.cfg #
#                          " (-DZCL_READ -DZCL_WRITE -DZCL_BASIC              #
#                          -DZCL_IDENTIFY -DZCL_ON_OFF -DZCL_KEY_ESTABLISH    #
#                          -DZCL_LOAD_CONTROL -DZCL_SIMPLE_METERING           #
#                          -DZCL_PRICING) -DZCL_MESSAGE                       #
#                          "D:\GitHub\z-stack\Sensor Network                  #
#                          Example\Components\stack\zdo\ZDSecMgr.c" -D        #
#                          CC2530 -D ZTOOL_P1 -D MT_TASK -D MT_APP_FUNC -D    #
#                          MT_SYS_FUNC -D MT_ZDO_FUNC -D LCD_SUPPORTED=DEBUG  #
#                          -D Coor_receiver -D xHAL_KEYPAD -D xPA2591 -lC     #
#                          "D:\GitHub\z-stack\Sensor Network                  #
#                          Example\Projects\zstack\Sensor Network             #
#                          Application\ZIGBEE Coordinator &                   #
#                          Router\CC2530DB\Coordinator_KB_PA\List\" -lA       #
#                          "D:\GitHub\z-stack\Sensor Network                  #
#                          Example\Projects\zstack\Sensor Network             #
#                          Application\ZIGBEE Coordinator &                   #
#                          Router\CC2530DB\Coordinator_KB_PA\List\"           #
#                          --diag_suppress Pe001,Pa010 -o                     #
#                          "D:\GitHub\z-stack\Sensor Network                  #
#                          Example\Projects\zstack\Sensor Network             #
#                          Application\ZIGBEE Coordinator &                   #
#                          Router\CC2530DB\Coordinator_KB_PA\Obj\" -e         #
#                          --require_prototypes --debug --core=plain          #
#                          --dptr=16,1 --data_model=large                     #
#                          --code_model=banked --calling_convention=xdata_ree #
#                          ntrant --place_constants=data_rom                  #
#                          --nr_virtual_regs 16 -I "D:\GitHub\z-stack\Sensor  #
#                          Network Example\Projects\zstack\Sensor Network     #
#                          Application\ZIGBEE Coordinator &                   #
#                          Router\CC2530DB\" -I "D:\GitHub\z-stack\Sensor     #
#                          Network Example\Projects\zstack\Sensor Network     #
#                          Application\ZIGBEE Coordinator &                   #
#                          Router\CC2530DB\..\SOURCE\" -I                     #
#                          "D:\GitHub\z-stack\Sensor Network                  #
#                          Example\Projects\zstack\Sensor Network             #
#                          Application\ZIGBEE Coordinator &                   #
#                          Router\CC2530DB\..\..\SOURCE\" -I                  #
#                          "D:\GitHub\z-stack\Sensor Network                  #
#                          Example\Projects\zstack\Sensor Network             #
#                          Application\ZIGBEE Coordinator &                   #
#                          Router\CC2530DB\..\..\..\ZMAIN\TI2530DB\" -I       #
#                          "D:\GitHub\z-stack\Sensor Network                  #
#                          Example\Projects\zstack\Sensor Network             #
#                          Application\ZIGBEE Coordinator &                   #
#                          Router\CC2530DB\..\..\..\..\..\COMPONENTS\MT\" -I  #
#                          "D:\GitHub\z-stack\Sensor Network                  #
#                          Example\Projects\zstack\Sensor Network             #
#                          Application\ZIGBEE Coordinator &                   #
#                          Router\CC2530DB\..\..\..\..\..\COMPONENTS\HAL\INCL #
#                          UDE\" -I "D:\GitHub\z-stack\Sensor Network         #
#                          Example\Projects\zstack\Sensor Network             #
#                          Application\ZIGBEE Coordinator &                   #
#                          Router\CC2530DB\..\..\..\..\..\COMPONENTS\HAL\TARG #
#                          ET\CC2530KB\" -I "D:\GitHub\z-stack\Sensor         #
#                          Network Example\Projects\zstack\Sensor Network     #
#                          Application\ZIGBEE Coordinator &                   #
#                          Router\CC2530DB\..\..\..\..\..\COMPONENTS\OSAL\MCU #
#                          \CCSOC\" -I "D:\GitHub\z-stack\Sensor Network      #
#                          Example\Projects\zstack\Sensor Network             #
#                          Application\ZIGBEE Coordinator &                   #
#                          Router\CC2530DB\..\..\..\..\..\COMPONENTS\OSAL\INC #
#                          LUDE\" -I "D:\GitHub\z-stack\Sensor Network        #
#                          Example\Projects\zstack\Sensor Network             #
#                          Application\ZIGBEE Coordinator &                   #
#                          Router\CC2530DB\..\..\..\..\..\COMPONENTS\STACK\AF #
#                          \" -I "D:\GitHub\z-stack\Sensor Network            #
#                          Example\Projects\zstack\Sensor Network             #
#                          Application\ZIGBEE Coordinator &                   #
#                          Router\CC2530DB\..\..\..\..\..\COMPONENTS\STACK\NW #
#                          K\" -I "D:\GitHub\z-stack\Sensor Network           #
#                          Example\Projects\zstack\Sensor Network             #
#                          Application\ZIGBEE Coordinator &                   #
#                          Router\CC2530DB\..\..\..\..\..\COMPONENTS\STACK\SE #
#                          C\" -I "D:\GitHub\z-stack\Sensor Network           #
#                          Example\Projects\zstack\Sensor Network             #
#                          Application\ZIGBEE Coordinator &                   #
#                          Router\CC2530DB\..\..\..\..\..\COMPONENTS\STACK\SA #
#                          PI\" -I "D:\GitHub\z-stack\Sensor Network          #
#                          Example\Projects\zstack\Sensor Network             #
#                          Application\ZIGBEE Coordinator &                   #
#                          Router\CC2530DB\..\..\..\..\..\COMPONENTS\STACK\SY #
#                          S\" -I "D:\GitHub\z-stack\Sensor Network           #
#                          Example\Projects\zstack\Sensor Network             #
#                          Application\ZIGBEE Coordinator &                   #
#                          Router\CC2530DB\..\..\..\..\..\COMPONENTS\STACK\ZC #
#                          L\" -I "D:\GitHub\z-stack\Sensor Network           #
#                          Example\Projects\zstack\Sensor Network             #
#                          Application\ZIGBEE Coordinator &                   #
#                          Router\CC2530DB\..\..\..\..\..\COMPONENTS\STACK\ZD #
#                          O\" -I "D:\GitHub\z-stack\Sensor Network           #
#                          Example\Projects\zstack\Sensor Network             #
#                          Application\ZIGBEE Coordinator &                   #
#                          Router\CC2530DB\..\..\..\..\..\COMPONENTS\ZMAC\F8W #
#                          \" -I "D:\GitHub\z-stack\Sensor Network            #
#                          Example\Projects\zstack\Sensor Network             #
#                          Application\ZIGBEE Coordinator &                   #
#                          Router\CC2530DB\..\..\..\..\..\COMPONENTS\ZMAC\"   #
#                          -I "D:\GitHub\z-stack\Sensor Network               #
#                          Example\Projects\zstack\Sensor Network             #
#                          Application\ZIGBEE Coordinator &                   #
#                          Router\CC2530DB\..\..\..\..\..\COMPONENTS\SERVICES #
#                          \SADDR\" -I "D:\GitHub\z-stack\Sensor Network      #
#                          Example\Projects\zstack\Sensor Network             #
#                          Application\ZIGBEE Coordinator &                   #
#                          Router\CC2530DB\..\..\..\..\..\COMPONENTS\SERVICES #
#                          \SDATA\" -I "D:\GitHub\z-stack\Sensor Network      #
#                          Example\Projects\zstack\Sensor Network             #
#                          Application\ZIGBEE Coordinator &                   #
#                          Router\CC2530DB\..\..\..\..\..\COMPONENTS\MAC\INCL #
#                          UDE\" -I "D:\GitHub\z-stack\Sensor Network         #
#                          Example\Projects\zstack\Sensor Network             #
#                          Application\ZIGBEE Coordinator &                   #
#                          Router\CC2530DB\..\..\..\..\..\COMPONENTS\MAC\HIGH #
#                          _LEVEL\" -I "D:\GitHub\z-stack\Sensor Network      #
#                          Example\Projects\zstack\Sensor Network             #
#                          Application\ZIGBEE Coordinator &                   #
#                          Router\CC2530DB\..\..\..\..\..\COMPONENTS\MAC\LOW_ #
#                          LEVEL\srf04\" -I "D:\GitHub\z-stack\Sensor         #
#                          Network Example\Projects\zstack\Sensor Network     #
#                          Application\ZIGBEE Coordinator &                   #
#                          Router\CC2530DB\..\..\..\..\..\COMPONENTS\MAC\LOW_ #
#                          LEVEL\srf04\SINGLE_CHIP\" -I "C:\Program Files     #
#                          (x86)\IAR Systems\Embedded Workbench               #
#                          5.3\8051\INC\" -I "C:\Program Files (x86)\IAR      #
#                          Systems\Embedded Workbench 5.3\8051\INC\CLIB\"     #
#                          -Ohz                                               #
#    List file          =  D:\GitHub\z-stack\Sensor Network                   #
#                          Example\Projects\zstack\Sensor Network             #
#                          Application\ZIGBEE Coordinator &                   #
#                          Router\CC2530DB\Coordinator_KB_PA\List\ZDSecMgr.ls #
#                          t                                                  #
#    Object file        =  D:\GitHub\z-stack\Sensor Network                   #
#                          Example\Projects\zstack\Sensor Network             #
#                          Application\ZIGBEE Coordinator &                   #
#                          Router\CC2530DB\Coordinator_KB_PA\Obj\ZDSecMgr.r51 #
#                                                                             #
#                                                                             #
###############################################################################

D:\GitHub\z-stack\Sensor Network Example\Components\stack\zdo\ZDSecMgr.c
      1          #ifdef __cplusplus
      2          extern "C"
      3          {
      4          #endif
      5          
      6          #include "ZComdef.h"
      7          #include "OSAL.h"
      8          #include "OSAL_NV.h"
      9          #include "ZGlobals.h"
     10          #include "ssp.h"
     11          #include "nwk_globals.h"
     12          #include "nwk.h"
     13          #include "NLMEDE.h"
     14          #include "AddrMgr.h"
     15          #include "AssocList.h"
     16          #include "APSMEDE.h"
     17          #include "AF.h"
     18          #include "ZDConfig.h"
     19          #include "ZDApp.h"
     20          #include "ZDSecMgr.h"
     21          
     22          // maximum number of devices managed by this Security Manager
     23          #if !defined ( ZDSECMGR_DEVICE_MAX )
     24            #define ZDSECMGR_DEVICE_MAX 3
     25          #endif
     26          
     27          // total number of preconfigured devices (EXT address, MASTER key)
     28          //devtag.pro.security
     29          //#define ZDSECMGR_PRECONFIG_MAX ZDSECMGR_DEVICE_MAX
     30          #define ZDSECMGR_PRECONFIG_MAX 0
     31          
     32          // maximum number of MASTER keys this device may hold
     33          #define ZDSECMGR_MASTERKEY_MAX ZDSECMGR_DEVICE_MAX
     34          
     35          // maximum number of LINK keys this device may store
     36          #define ZDSECMGR_ENTRY_MAX ZDSECMGR_DEVICE_MAX
     37          
     38          // total number of devices under control - authentication, SKKE, etc.
     39          #define ZDSECMGR_CTRL_MAX ZDSECMGR_DEVICE_MAX
     40          
     41          // total number of stored devices
     42          #if !defined ( ZDSECMGR_STORED_DEVICES )
     43            #define ZDSECMGR_STORED_DEVICES 3
     44          #endif
     45            
     46          // Total number of preconfigured trust center link key
     47          #if !defined ( ZDSECMGR_TC_DEVICE_MAX )
     48            #define ZDSECMGR_TC_DEVICE_MAX 1
     49          #endif
     50            
     51          #if ( ZDSECMGR_TC_DEVICE_MAX < 1 ) || ( ZDSECMGR_TC_DEVICE_MAX > 255 )
     52            #error "ZDSECMGR_TC_DEVICE_MAX shall be between 1 and 255 !"
     53          #endif
     54            
     55          #define ZDSECMGR_CTRL_NONE       0
     56          #define ZDSECMGR_CTRL_INIT       1
     57          #define ZDSECMGR_CTRL_TK_MASTER  2
     58          #define ZDSECMGR_CTRL_SKKE_INIT  3
     59          #define ZDSECMGR_CTRL_SKKE_WAIT  4
     60          #define ZDSECMGR_CTRL_SKKE_DONE  5
     61          #define ZDSECMGR_CTRL_SKKE_FAIL  6
     62          #define ZDSECMGR_CTRL_TK_NWK     7
     63          
     64          #define ZDSECMGR_CTRL_BASE_CNTR      1
     65          #define ZDSECMGR_CTRL_SKKE_INIT_CNTR 1
     66          #define ZDSECMGR_CTRL_TK_NWK_CNTR    1
     67          
     68          // set SKA slot maximum
     69          #define ZDSECMGR_SKA_SLOT_MAX 1
     70          
     71          // APSME Stub Implementations
     72          #define ZDSecMgrMasterKeyGet   APSME_MasterKeyGet
     73          #define ZDSecMgrLinkKeySet     APSME_LinkKeySet
     74          #define ZDSecMgrLinkKeyDataGet APSME_LinkKeyDataGet
     75          #define ZDSecMgrKeyFwdToChild  APSME_KeyFwdToChild
     76          
     77          #if !defined( MAX_APS_FRAMECOUNTER_CHANGES )
     78            // The number of times the frame counter can change before
     79            // saving to NV
     80            #define MAX_APS_FRAMECOUNTER_CHANGES    10
     81          #endif
     82          
     83          /******************************************************************************
     84           * TYPEDEFS
     85           */
     86          typedef struct
     87          {
     88            uint8 extAddr[Z_EXTADDR_LEN];
     89            uint8 key[SEC_KEY_LEN];
     90          } ZDSecMgrPreConfigData_t;
     91          
     92          typedef struct
     93          {
     94            uint16 ami;
     95            uint8  key[SEC_KEY_LEN];
     96          } ZDSecMgrMasterKeyData_t;
     97          
     98          //should match APSME_LinkKeyData_t;
     99          typedef struct
    100          {
    101            uint8               key[SEC_KEY_LEN];
    102            APSME_LinkKeyData_t apsmelkd;
    103          } ZDSecMgrLinkKeyData_t;
    104          
    105          typedef struct
    106          {
    107            uint16                ami;
    108            ZDSecMgrLinkKeyData_t lkd;
    109            ZDSecMgr_Authentication_Option authenticateOption;
    110          } ZDSecMgrEntry_t;
    111          
    112          typedef struct
    113          {
    114            ZDSecMgrEntry_t* entry;
    115            uint16           parentAddr;
    116            uint8            secure;
    117            uint8            state;
    118            uint8            cntr;
    119            //uint8          next;
    120          } ZDSecMgrCtrl_t;
    121          
    122          typedef struct
    123          {
    124            uint16          nwkAddr;
    125            uint8*          extAddr;
    126            uint16          parentAddr;
    127            uint8           secure;
    128            uint8           devStatus;
    129            ZDSecMgrCtrl_t* ctrl;
    130          } ZDSecMgrDevice_t;
    131          
    132          /******************************************************************************
    133           * LOCAL VARIABLES
    134           */
    135          #if 0 // Taken out because the following functionality is only used for test
    136                // purpose. A more efficient (above) way is used. It can be put
    137                // back in if customers request for a white/black list feature.
    138          uint8 ZDSecMgrStoredDeviceList[ZDSECMGR_STORED_DEVICES][Z_EXTADDR_LEN] =
    139          {
    140            { 0x01, 0x00, 0x00, 0x00, 0x00, 0x00, 0x00, 0x00 },
    141            { 0x00, 0x00, 0x00, 0x00, 0x00, 0x00, 0x00, 0x01 },
    142            { 0x00, 0x00, 0x00, 0x00, 0x00, 0x00, 0x00, 0x00 },
    143          };
    144          #endif
    145          

   \                                 In  segment XDATA_Z, align 1, keep-with-next
    146          uint8 ZDSecMgrTCExtAddr[Z_EXTADDR_LEN]=
   \                     ZDSecMgrTCExtAddr:
   \   000000                DS 8
   \   000008                REQUIRE __INIT_XDATA_Z
    147            { 0x00, 0x00, 0x00, 0x00, 0x00, 0x00, 0x00, 0x00 };
    148          

   \                                 In  segment XDATA_I, align 1, keep-with-next
    149          uint8 ZDSecMgrTCMasterKey[SEC_KEY_LEN] =
   \                     ZDSecMgrTCMasterKey:
   \   000000                DS 16
   \   000010                REQUIRE `?<Initializer for ZDSecMgrTCMasterKey>`
   \   000010                REQUIRE __INIT_XDATA_I
    150            {0x00,0x00,0x00,0x00,0x00,0x00,0x00,0x00,
    151             0x89,0x67,0x45,0x23,0x01,0xEF,0xCD,0xAB};
    152          

   \                                 In  segment XDATA_Z, align 1, keep-with-next
    153          uint8 ZDSecMgrTCAuthenticated = FALSE;
   \                     ZDSecMgrTCAuthenticated:
   \   000000                DS 1
   \   000001                REQUIRE __INIT_XDATA_Z

   \                                 In  segment XDATA_Z, align 1, keep-with-next
    154          uint8 ZDSecMgrTCDataLoaded    = FALSE;
   \                     ZDSecMgrTCDataLoaded:
   \   000000                DS 1
   \   000001                REQUIRE __INIT_XDATA_Z
    155          
    156          //devtag.pro.security - remove this
    157          #if ( ZDSECMGR_PRECONFIG_MAX != 0 )
    158          const ZDSecMgrPreConfigData_t ZDSecMgrPreConfigData[ZDSECMGR_PRECONFIG_MAX] =
    159          {
    160            //---------------------------------------------------------------------------
    161            // DEVICE A
    162            //---------------------------------------------------------------------------
    163            {
    164              // extAddr
    165              {0x7C,0x01,0x12,0x13,0x14,0x15,0x16,0x17},
    166          
    167              // key
    168              {0x00,0x00,0x00,0x00,0x00,0x00,0x00,0x00,
    169               0x00,0x00,0x00,0x00,0x00,0x00,0x00,0x00}
    170            },
    171            //---------------------------------------------------------------------------
    172            // DEVICE B
    173            //---------------------------------------------------------------------------
    174            {
    175              // extAddr
    176              {0x84,0x03,0x00,0x00,0x00,0x4B,0x12,0x00},
    177          
    178              // key
    179              {0x00,0x00,0x00,0x00,0x00,0x00,0x00,0x00,
    180               0x00,0x00,0x00,0x00,0x00,0x00,0x00,0x00}
    181            },
    182            //---------------------------------------------------------------------------
    183            // DEVICE C
    184            //---------------------------------------------------------------------------
    185            {
    186              // extAddr
    187              {0x3E,0x01,0x12,0x13,0x14,0x15,0x16,0x17},
    188          
    189              // key
    190              {0x00,0x00,0x00,0x00,0x00,0x00,0x00,0x00,
    191               0x00,0x00,0x00,0x00,0x00,0x00,0x00,0x00}
    192            },
    193          };
    194          #endif // ( ZDSECMGR_PRECONFIG_MAX != 0 )
    195          

   \                                 In  segment XDATA_Z, align 1, keep-with-next
    196          ZDSecMgrMasterKeyData_t* ZDSecMgrMasterKeyData = NULL;
   \                     ZDSecMgrMasterKeyData:
   \   000000                DS 2
   \   000002                REQUIRE __INIT_XDATA_Z

   \                                 In  segment XDATA_Z, align 1, keep-with-next
    197          ZDSecMgrEntry_t*         ZDSecMgrEntries       = NULL;
   \                     ZDSecMgrEntries:
   \   000000                DS 2
   \   000002                REQUIRE __INIT_XDATA_Z

   \                                 In  segment XDATA_Z, align 1, keep-with-next
    198          ZDSecMgrCtrl_t*          ZDSecMgrCtrlData      = NULL;
   \                     ZDSecMgrCtrlData:
   \   000000                DS 2
   \   000002                REQUIRE __INIT_XDATA_Z
    199          void ZDSecMgrAddrMgrUpdate( uint16 ami, uint16 nwkAddr );
    200          void ZDSecMgrAddrMgrCB( uint8 update, AddrMgrEntry_t* newEntry, AddrMgrEntry_t* oldEntry );
    201          

   \                                 In  segment XDATA_Z, align 1, keep-with-next
    202          uint8 ZDSecMgrPermitJoiningEnabled;
   \                     ZDSecMgrPermitJoiningEnabled:
   \   000000                DS 1
   \   000001                REQUIRE __INIT_XDATA_Z

   \                                 In  segment XDATA_Z, align 1, keep-with-next
    203          uint8 ZDSecMgrPermitJoiningTimed;
   \                     ZDSecMgrPermitJoiningTimed:
   \   000000                DS 1
   \   000001                REQUIRE __INIT_XDATA_Z
    204          

   \                                 In  segment XDATA_Z, align 1, keep-with-next
    205          APSME_TCLinkKey_t TrustCenterLinkKey;
   \                     TrustCenterLinkKey:
   \   000000                DS 32
   \   000020                REQUIRE __INIT_XDATA_Z
    206          
    207          /******************************************************************************
    208           * PRIVATE FUNCTIONS
    209           *
    210           *   ZDSecMgrMasterKeyInit
    211           *   ZDSecMgrAddrStore
    212           *   ZDSecMgrExtAddrStore
    213           *   ZDSecMgrExtAddrLookup
    214           *   ZDSecMgrMasterKeyLookup
    215           *   ZDSecMgrMasterKeyStore
    216           *   ZDSecMgrEntryInit
    217           *   ZDSecMgrEntryLookup
    218           *   ZDSecMgrEntryLookupAMI
    219           *   ZDSecMgrEntryLookupExt
    220           *   ZDSecMgrEntryFree
    221           *   ZDSecMgrEntryNew
    222           *   ZDSecMgrCtrlInit
    223           *   ZDSecMgrCtrlRelease
    224           *   ZDSecMgrCtrlLookup
    225           *   ZDSecMgrCtrlSet
    226           *   ZDSecMgrCtrlAdd
    227           *   ZDSecMgrCtrlTerm
    228           *   ZDSecMgrCtrlReset
    229           *   ZDSecMgrMasterKeyLoad
    230           *   ZDSecMgrAppKeyGet
    231           *   ZDSecMgrAppKeyReq
    232           *   ZDSecMgrEstablishKey
    233           *   ZDSecMgrSendMasterKey
    234           *   ZDSecMgrSendNwkKey
    235           *   ZDSecMgrDeviceEntryRemove
    236           *   ZDSecMgrDeviceEntryAdd
    237           *   ZDSecMgrDeviceCtrlHandler
    238           *   ZDSecMgrDeviceCtrlSetup
    239           *   ZDSecMgrDeviceCtrlUpdate
    240           *   ZDSecMgrDeviceRemove
    241           *   ZDSecMgrDeviceValidateSKKE
    242           *   ZDSecMgrDeviceValidateRM
    243           *   ZDSecMgrDeviceValidateCM
    244           *   ZDSecMgrDeviceValidate
    245           *   ZDSecMgrDeviceJoin
    246           *   ZDSecMgrDeviceJoinDirect
    247           *   ZDSecMgrDeviceJoinFwd
    248           *   ZDSecMgrDeviceNew
    249           *   ZDSecMgrAssocDeviceAuth
    250           *   ZDSecMgrAuthInitiate
    251           *   ZDSecMgrAuthNwkKey
    252           *   APSME_TCLinkKeyInit
    253           *   APSME_IsDefaultTCLK
    254           */
    255          //-----------------------------------------------------------------------------
    256          // master key data
    257          //-----------------------------------------------------------------------------
    258          void ZDSecMgrMasterKeyInit( void );
    259          
    260          //-----------------------------------------------------------------------------
    261          // address management
    262          //-----------------------------------------------------------------------------
    263          ZStatus_t ZDSecMgrAddrStore( uint16 nwkAddr, uint8* extAddr, uint16* ami );
    264          ZStatus_t ZDSecMgrExtAddrStore( uint16 nwkAddr, uint8* extAddr, uint16* ami );
    265          ZStatus_t ZDSecMgrExtAddrLookup( uint8* extAddr, uint16* ami );
    266          
    267          //-----------------------------------------------------------------------------
    268          // MASTER key data
    269          //-----------------------------------------------------------------------------
    270          ZStatus_t ZDSecMgrMasterKeyLookup( uint16 ami, uint8** key );
    271          ZStatus_t ZDSecMgrMasterKeyStore( uint16 ami, uint8* key );
    272          
    273          //-----------------------------------------------------------------------------
    274          // entry data
    275          //-----------------------------------------------------------------------------
    276          void ZDSecMgrEntryInit(uint8 state);
    277          ZStatus_t ZDSecMgrEntryLookup( uint16 nwkAddr, ZDSecMgrEntry_t** entry );
    278          ZStatus_t ZDSecMgrEntryLookupAMI( uint16 ami, ZDSecMgrEntry_t** entry );
    279          ZStatus_t ZDSecMgrEntryLookupExt( uint8* extAddr, ZDSecMgrEntry_t** entry );
    280          void ZDSecMgrEntryFree( ZDSecMgrEntry_t* entry );
    281          ZStatus_t ZDSecMgrEntryNew( ZDSecMgrEntry_t** entry );
    282          ZStatus_t ZDSecMgrAuthenticationSet( uint8* extAddr, ZDSecMgr_Authentication_Option option );
    283          
    284          //-----------------------------------------------------------------------------
    285          // control data
    286          //-----------------------------------------------------------------------------
    287          void ZDSecMgrCtrlInit( void );
    288          void ZDSecMgrCtrlRelease( ZDSecMgrCtrl_t* ctrl );
    289          void ZDSecMgrCtrlLookup( ZDSecMgrEntry_t* entry, ZDSecMgrCtrl_t** ctrl );
    290          void ZDSecMgrCtrlSet( ZDSecMgrDevice_t* device,
    291                                ZDSecMgrEntry_t*  entry,
    292                                ZDSecMgrCtrl_t*   ctrl );
    293          ZStatus_t ZDSecMgrCtrlAdd( ZDSecMgrDevice_t* device, ZDSecMgrEntry_t*  entry );
    294          void ZDSecMgrCtrlTerm( ZDSecMgrEntry_t* entry );
    295          ZStatus_t ZDSecMgrCtrlReset( ZDSecMgrDevice_t* device,
    296                                       ZDSecMgrEntry_t*  entry );
    297          
    298          //-----------------------------------------------------------------------------
    299          // key support
    300          //-----------------------------------------------------------------------------
    301          ZStatus_t ZDSecMgrMasterKeyLoad( uint8* extAddr, uint8* key );
    302          ZStatus_t ZDSecMgrAppKeyGet( uint16  initNwkAddr,
    303                                       uint8*  initExtAddr,
    304                                       uint16  partNwkAddr,
    305                                       uint8*  partExtAddr,
    306                                       uint8** key,
    307                                       uint8*  keyType );
    308          void ZDSecMgrAppKeyReq( ZDO_RequestKeyInd_t* ind );
    309          ZStatus_t ZDSecMgrEstablishKey( ZDSecMgrDevice_t* device );
    310          ZStatus_t ZDSecMgrSendMasterKey( ZDSecMgrDevice_t* device );
    311          ZStatus_t ZDSecMgrSendNwkKey( ZDSecMgrDevice_t* device );
    312          
    313          //-----------------------------------------------------------------------------
    314          // device entry
    315          //-----------------------------------------------------------------------------
    316          void ZDSecMgrDeviceEntryRemove( ZDSecMgrEntry_t* entry );
    317          ZStatus_t ZDSecMgrDeviceEntryAdd( ZDSecMgrDevice_t* device, uint16 ami );
    318          #if defined NV_RESTORE
    319          static void ZDSecMgrWriteNV(void);
    320          static void ZDSecMgrRestoreFromNV(void);
    321          #endif
    322          
    323          //-----------------------------------------------------------------------------
    324          // device control
    325          //-----------------------------------------------------------------------------
    326          void ZDSecMgrDeviceCtrlHandler( ZDSecMgrDevice_t* device );
    327          void ZDSecMgrDeviceCtrlSetup( ZDSecMgrDevice_t* device );
    328          void ZDSecMgrDeviceCtrlUpdate( uint8* extAddr, uint8 state );
    329          
    330          //-----------------------------------------------------------------------------
    331          // device management
    332          //-----------------------------------------------------------------------------
    333          void ZDSecMgrDeviceRemove( ZDSecMgrDevice_t* device );
    334          ZStatus_t ZDSecMgrDeviceValidateSKKE( ZDSecMgrDevice_t* device );
    335          ZStatus_t ZDSecMgrDeviceValidateRM( ZDSecMgrDevice_t* device );
    336          ZStatus_t ZDSecMgrDeviceValidateCM( ZDSecMgrDevice_t* device );
    337          ZStatus_t ZDSecMgrDeviceValidate( ZDSecMgrDevice_t* device );
    338          ZStatus_t ZDSecMgrDeviceJoin( ZDSecMgrDevice_t* device );
    339          ZStatus_t ZDSecMgrDeviceJoinDirect( ZDSecMgrDevice_t* device );
    340          ZStatus_t ZDSecMgrDeviceJoinFwd( ZDSecMgrDevice_t* device );
    341          ZStatus_t ZDSecMgrDeviceNew( ZDSecMgrDevice_t* device );
    342          
    343          //-----------------------------------------------------------------------------
    344          // association management
    345          //-----------------------------------------------------------------------------
    346          void ZDSecMgrAssocDeviceAuth( associated_devices_t* assoc );
    347          
    348          //-----------------------------------------------------------------------------
    349          // authentication management
    350          //-----------------------------------------------------------------------------
    351          void ZDSecMgrAuthInitiate( uint8* responder );
    352          void ZDSecMgrAuthNwkKey( void );
    353          
    354          //-----------------------------------------------------------------------------
    355          // APSME function
    356          //-----------------------------------------------------------------------------
    357          void APSME_TCLinkKeyInit( void );
    358          uint8 APSME_IsDefaultTCLK( uint8 *extAddr );
    359          
    360          /******************************************************************************
    361           * @fn          ZDSecMgrMasterKeyInit                     ]
    362           *
    363           * @brief       Initialize master key data.
    364           *
    365           * @param       none
    366           *
    367           * @return      none
    368           */

   \                                 In  segment BANKED_CODE, align 1, keep-with-next
    369          void ZDSecMgrMasterKeyInit( void )
   \                     ZDSecMgrMasterKeyInit:
    370          {
   \   000000   C082         PUSH    DPL
   \   000002   C083         PUSH    DPH
   \   000004                ; Saved register size: 2
   \   000004                ; Auto size: 0
    371            uint16 index;
    372            uint16 size;
    373          
    374            // allocate MASTER key data
    375            size = (short)( sizeof(ZDSecMgrMasterKeyData_t) * ZDSECMGR_MASTERKEY_MAX );
    376          
    377            ZDSecMgrMasterKeyData = osal_mem_alloc( size );
   \   000004                ; Setup parameters for call to function osal_mem_alloc
   \   000004   7A36         MOV     R2,#0x36
   \   000006   7B00         MOV     R3,#0x0
   \   000008   12....       LCALL   ??osal_mem_alloc?relay
   \   00000B   90....       MOV     DPTR,#ZDSecMgrMasterKeyData
   \   00000E   12....       LCALL   ?Subroutine13 & 0xFFFF
    378          
    379            // initialize MASTER key data
    380            if ( ZDSecMgrMasterKeyData != NULL )
   \                     ??CrossCallReturnLabel_15:
   \   000011   90....       MOV     DPTR,#ZDSecMgrMasterKeyData
   \   000014   E0           MOVX    A,@DPTR
   \   000015   7002         JNZ     ??ZDSecMgrMasterKeyInit_0
   \   000017   A3           INC     DPTR
   \   000018   E0           MOVX    A,@DPTR
   \                     ??ZDSecMgrMasterKeyInit_0:
   \   000019   601F         JZ      ??ZDSecMgrMasterKeyInit_1
    381            {
    382              for ( index = 0; index < ZDSECMGR_MASTERKEY_MAX; index++ )
   \   00001B   7800         MOV     R0,#0x0
   \   00001D   7900         MOV     R1,#0x0
    383              {
    384                ZDSecMgrMasterKeyData[index].ami = INVALID_NODE_ADDR;
   \                     ??ZDSecMgrMasterKeyInit_2:
   \   00001F   E8           MOV     A,R0
   \   000020   FA           MOV     R2,A
   \   000021   E9           MOV     A,R1
   \   000022   FB           MOV     R3,A
   \   000023   EA           MOV     A,R2
   \   000024   75F012       MOV     B,#0x12
   \   000027   A4           MUL     AB
   \   000028   FA           MOV     R2,A
   \   000029   ACF0         MOV     R4,B
   \   00002B   75F012       MOV     B,#0x12
   \   00002E   EB           MOV     A,R3
   \   00002F   A4           MUL     AB
   \   000030   2C           ADD     A,R4
   \   000031   FB           MOV     R3,A
   \   000032   90....       MOV     DPTR,#ZDSecMgrMasterKeyData
   \   000035   12....       LCALL   ?Subroutine1 & 0xFFFF
    385              }
    386            }
   \                     ??CrossCallReturnLabel_120:
   \   000038   40E5         JC      ??ZDSecMgrMasterKeyInit_2
    387          }
   \                     ??ZDSecMgrMasterKeyInit_1:
   \   00003A   02....       LJMP    ??Subroutine100_0 & 0xFFFF

   \                                 In  segment BANKED_CODE, align 1, keep-with-next
   \                     ?Subroutine1:
   \   000000   12....       LCALL   ?Subroutine57 & 0xFFFF
   \                     ??CrossCallReturnLabel_95:
   \   000003   74FE         MOV     A,#-0x2
   \   000005   F0           MOVX    @DPTR,A
   \   000006   A3           INC     DPTR
   \   000007   74FF         MOV     A,#-0x1
   \   000009                REQUIRE ??Subroutine85_0
   \   000009                ; // Fall through to label ??Subroutine85_0

   \                                 In  segment BANKED_CODE, align 1, keep-with-next
   \                     ??Subroutine85_0:
   \   000000   F0           MOVX    @DPTR,A
   \   000001   12....       LCALL   ?Subroutine67 & 0xFFFF
   \                     ??CrossCallReturnLabel_123:
   \   000004   22           RET

   \                                 In  segment BANKED_CODE, align 1, keep-with-next
   \                     ?Subroutine57:
   \   000000   E0           MOVX    A,@DPTR
   \   000001   2A           ADD     A,R2
   \   000002   FC           MOV     R4,A
   \   000003   A3           INC     DPTR
   \   000004   E0           MOVX    A,@DPTR
   \   000005   3B           ADDC    A,R3
   \   000006   8C82         MOV     DPL,R4
   \   000008   F583         MOV     DPH,A
   \   00000A   22           RET

   \                                 In  segment BANKED_CODE, align 1, keep-with-next
   \                     ?Subroutine13:
   \   000000   EA           MOV     A,R2
   \   000001   F0           MOVX    @DPTR,A
   \   000002   A3           INC     DPTR
   \   000003   EB           MOV     A,R3
   \   000004   F0           MOVX    @DPTR,A
   \   000005   22           RET

   \                                 In  segment BANKED_CODE, align 1, keep-with-next
   \                     ?Subroutine67:
   \   000000   E8           MOV     A,R0
   \   000001   2401         ADD     A,#0x1
   \   000003   08           INC     R0
   \   000004   E9           MOV     A,R1
   \   000005   3400         ADDC    A,#0x0
   \   000007   F9           MOV     R1,A
   \   000008   C3           CLR     C
   \   000009   E8           MOV     A,R0
   \   00000A   9403         SUBB    A,#0x3
   \   00000C   E9           MOV     A,R1
   \   00000D   9400         SUBB    A,#0x0
   \   00000F   22           RET

   \                                 In  segment BANKED_CODE, align 1, keep-with-next
   \                     ??Subroutine100_0:
   \   000000   D083         POP     DPH
   \   000002   D082         POP     DPL
   \   000004   02....       LJMP    ?BRET
    388          //devtag.pro.security
    389          #if 0
    390          void ZDSecMgrMasterKeyInit( void )
    391          {
    392            uint16         index;
    393            uint16         size;
    394            AddrMgrEntry_t entry;
    395          
    396          
    397            // allocate MASTER key data
    398            size = (short)( sizeof(ZDSecMgrMasterKeyData_t) * ZDSECMGR_MASTERKEY_MAX );
    399          
    400            ZDSecMgrMasterKeyData = osal_mem_alloc( size );
    401          
    402            // initialize MASTER key data
    403            if ( ZDSecMgrMasterKeyData != NULL )
    404            {
    405              for ( index = 0; index < ZDSECMGR_MASTERKEY_MAX; index++ )
    406              {
    407                ZDSecMgrMasterKeyData[index].ami = INVALID_NODE_ADDR;
    408              }
    409          
    410              // check if preconfigured keys are enabled
    411              //-------------------------------------------------------------------------
    412              #if ( ZDSECMGR_PRECONFIG_MAX != 0 )
    413              //-------------------------------------------------------------------------
    414              if ( zgPreConfigKeys == TRUE )
    415              {
    416                // sync configured data
    417                entry.user = ADDRMGR_USER_SECURITY;
    418          
    419                for ( index = 0; index < ZDSECMGR_PRECONFIG_MAX; index++ )
    420                {
    421                  // check for Address Manager entry
    422                  AddrMgrExtAddrSet( entry.extAddr,
    423                                     (uint8*)ZDSecMgrPreConfigData[index].extAddr );
    424          
    425                  if ( AddrMgrEntryLookupExt( &entry ) != TRUE )
    426                  {
    427                    // update Address Manager
    428                    AddrMgrEntryUpdate( &entry );
    429                  }
    430          
    431                  if ( entry.index != INVALID_NODE_ADDR )
    432                  {
    433                    // sync MASTER keys with Address Manager index
    434                    ZDSecMgrMasterKeyData[index].ami = entry.index;
    435          
    436                    osal_memcpy( ZDSecMgrMasterKeyData[index].key,
    437                             (void*)ZDSecMgrPreConfigData[index].key, SEC_KEY_LEN );
    438                  }
    439                }
    440              }
    441              //-------------------------------------------------------------------------
    442              #endif // ( ZDSECMGR_PRECONFIG_MAX != 0 )
    443              //-------------------------------------------------------------------------
    444            }
    445          }
    446          #endif
    447          
    448          /******************************************************************************
    449           * @fn          ZDSecMgrAddrStore
    450           *
    451           * @brief       Store device addresses.
    452           *
    453           * @param       nwkAddr - [in] NWK address
    454           * @param       extAddr - [in] EXT address
    455           * @param       ami     - [out] Address Manager index
    456           *
    457           * @return      ZStatus_t
    458           */

   \                                 In  segment BANKED_CODE, align 1, keep-with-next
    459          ZStatus_t ZDSecMgrAddrStore( uint16 nwkAddr, uint8* extAddr, uint16* ami )
   \                     ZDSecMgrAddrStore:
    460          {
   \   000000   74F7         MOV     A,#-0x9
   \   000002   12....       LCALL   ?BANKED_ENTER_XDATA
   \   000005                ; Saved register size: 9
   \   000005                ; Auto size: 13
   \   000005   74F3         MOV     A,#-0xd
   \   000007   12....       LCALL   ?ALLOC_XSTACK8
   \   00000A   7416         MOV     A,#0x16
   \   00000C   12....       LCALL   ?XSTACK_DISP0_8
   \   00000F   12....       LCALL   ?Subroutine20 & 0xFFFF
    461            ZStatus_t      status;
    462            AddrMgrEntry_t entry;
    463          
    464          
    465            // add entry
    466            entry.user    = ADDRMGR_USER_SECURITY;
    467            entry.nwkAddr = nwkAddr;
   \                     ??CrossCallReturnLabel_29:
   \   000012   12....       LCALL   ?XSTACK_DISP0_8
   \   000015   12....       LCALL   ?Subroutine13 & 0xFFFF
    468            AddrMgrExtAddrSet( entry.extAddr, extAddr );
   \                     ??CrossCallReturnLabel_16:
   \   000018                ; Setup parameters for call to function AddrMgrExtAddrSet
   \   000018   7403         MOV     A,#0x3
   \   00001A   12....       LCALL   ?XSTACK_DISP0_8
   \   00001D   12....       LCALL   ?Subroutine53 & 0xFFFF
    469          
    470            if ( AddrMgrEntryUpdate( &entry ) == TRUE )
   \                     ??CrossCallReturnLabel_87:
   \   000020   700A         JNZ     ??ZDSecMgrAddrStore_0
    471            {
    472              // return successful results
    473              *ami   = entry.index;
   \   000022   740B         MOV     A,#0xb
   \   000024   12....       LCALL   ?XSTACK_DISP0_8
   \   000027   12....       LCALL   ?Subroutine8 & 0xFFFF
    474              status = ZSuccess;
    475            }
   \                     ??CrossCallReturnLabel_125:
   \   00002A   8008         SJMP    ??CrossCallReturnLabel_24
    476            else
    477            {
    478              // return failed results
    479              *ami   = entry.index;
   \                     ??ZDSecMgrAddrStore_0:
   \   00002C   740B         MOV     A,#0xb
   \   00002E   12....       LCALL   ?XSTACK_DISP0_8
   \   000031   12....       LCALL   ?Subroutine15 & 0xFFFF
    480              status = ZNwkUnknownDevice;
    481            }
    482          
    483            return status;
   \                     ??CrossCallReturnLabel_24:
   \   000034   02....       LJMP    ?Subroutine82 & 0xFFFF
    484          }

   \                                 In  segment BANKED_CODE, align 1, keep-with-next
   \                     ?Subroutine53:
   \   000000   12....       LCALL   ?Subroutine68 & 0xFFFF
   \                     ??CrossCallReturnLabel_206:
   \   000003   12....       LCALL   ??AddrMgrEntryUpdate?relay
   \   000006   E9           MOV     A,R1
   \   000007   6401         XRL     A,#0x1
   \   000009   22           RET

   \                                 In  segment BANKED_CODE, align 1, keep-with-next
   \                     ?Subroutine20:
   \   000000   12....       LCALL   ??Subroutine106_0 & 0xFFFF
   \                     ??CrossCallReturnLabel_184:
   \   000003   E8           MOV     A,R0
   \   000004   FE           MOV     R6,A
   \   000005   E9           MOV     A,R1
   \   000006   FF           MOV     R7,A
   \   000007   7402         MOV     A,#0x2
   \   000009   85..82       MOV     DPL,?XSP + 0
   \   00000C   85..83       MOV     DPH,?XSP + 1
   \   00000F   F0           MOVX    @DPTR,A
   \   000010   7401         MOV     A,#0x1
   \   000012   22           RET

   \                                 In  segment BANKED_CODE, align 1, keep-with-next
   \                     ?Subroutine15:
   \   000000   12....       LCALL   ?Subroutine58 & 0xFFFF
   \                     ??CrossCallReturnLabel_97:
   \   000003   12....       LCALL   ?Subroutine66 & 0xFFFF
   \                     ??CrossCallReturnLabel_215:
   \   000006   79C8         MOV     R1,#-0x38
   \   000008   22           RET

   \                                 In  segment BANKED_CODE, align 1, keep-with-next
   \                     ?Subroutine8:
   \   000000   12....       LCALL   ?Subroutine58 & 0xFFFF
   \                     ??CrossCallReturnLabel_96:
   \   000003                REQUIRE ??Subroutine86_0
   \   000003                ; // Fall through to label ??Subroutine86_0

   \                                 In  segment BANKED_CODE, align 1, keep-with-next
   \                     ??Subroutine86_0:
   \   000000   12....       LCALL   ?Subroutine66 & 0xFFFF
   \                     ??CrossCallReturnLabel_216:
   \   000003   7900         MOV     R1,#0x0
   \   000005   22           RET

   \                                 In  segment BANKED_CODE, align 1, keep-with-next
   \                     ?Subroutine58:
   \   000000   E0           MOVX    A,@DPTR
   \   000001   F8           MOV     R0,A
   \   000002   A3           INC     DPTR
   \   000003   E0           MOVX    A,@DPTR
   \   000004   F9           MOV     R1,A
   \   000005   8E82         MOV     DPL,R6
   \   000007   8F83         MOV     DPH,R7
   \   000009   22           RET

   \                                 In  segment BANKED_CODE, align 1, keep-with-next
   \                     ?Subroutine82:
   \   000000   740D         MOV     A,#0xd
   \   000002   02....       LJMP    ??Subroutine96_0 & 0xFFFF

   \                                 In  segment BANKED_CODE, align 1, keep-with-next
   \                     ?Subroutine68:
   \   000000   AA82         MOV     R2,DPL
   \   000002   AB83         MOV     R3,DPH
   \   000004   12....       LCALL   ??AddrMgrExtAddrSet?relay
   \   000007                ; Setup parameters for call to function AddrMgrEntryUpdate
   \   000007                ; Setup parameters for call to function AddrMgrEntryUpdate
   \   000007                ; Setup parameters for call to function AddrMgrEntryLookupExt
   \   000007                REQUIRE ?Subroutine73
   \   000007                ; // Fall through to label ?Subroutine73

   \                                 In  segment BANKED_CODE, align 1, keep-with-next
   \                     ?Subroutine73:
   \   000000   85..82       MOV     DPL,?XSP + 0
   \   000003   85..83       MOV     DPH,?XSP + 1
   \   000006   AA82         MOV     R2,DPL
   \   000008   AB83         MOV     R3,DPH
   \   00000A   22           RET

   \                                 In  segment BANKED_CODE, align 1, keep-with-next
   \                     ??Subroutine96_0:
   \   000000   12....       LCALL   ?DEALLOC_XSTACK8
   \   000003                REQUIRE ??Subroutine97_0
   \   000003                ; // Fall through to label ??Subroutine97_0

   \                                 In  segment BANKED_CODE, align 1, keep-with-next
   \                     ??Subroutine97_0:
   \   000000   7F01         MOV     R7,#0x1
   \   000002   02....       LJMP    ?BANKED_LEAVE_XDATA

   \                                 In  segment BANKED_CODE, align 1, keep-with-next
   \                     ?Subroutine66:
   \   000000   E8           MOV     A,R0
   \   000001   F0           MOVX    @DPTR,A
   \   000002   A3           INC     DPTR
   \   000003   E9           MOV     A,R1
   \   000004   F0           MOVX    @DPTR,A
   \   000005   22           RET

   \                                 In  segment BANKED_CODE, align 1, keep-with-next
   \                     ??Subroutine106_0:
   \   000000   E0           MOVX    A,@DPTR
   \   000001   F8           MOV     R0,A
   \   000002   A3           INC     DPTR
   \   000003   E0           MOVX    A,@DPTR
   \   000004   F9           MOV     R1,A
   \   000005   22           RET
    485          
    486          /******************************************************************************
    487           * @fn          ZDSecMgrExtAddrStore
    488           *
    489           * @brief       Store EXT address.
    490           *
    491           * @param       extAddr - [in] EXT address
    492           * @param       ami     - [out] Address Manager index
    493           *
    494           * @return      ZStatus_t
    495           */

   \                                 In  segment BANKED_CODE, align 1, keep-with-next
    496          ZStatus_t ZDSecMgrExtAddrStore( uint16 nwkAddr, uint8* extAddr, uint16* ami )
   \                     ZDSecMgrExtAddrStore:
    497          {
   \   000000   74F7         MOV     A,#-0x9
   \   000002   12....       LCALL   ?BANKED_ENTER_XDATA
   \   000005                ; Saved register size: 9
   \   000005                ; Auto size: 13
   \   000005   74F3         MOV     A,#-0xd
   \   000007   12....       LCALL   ?ALLOC_XSTACK8
   \   00000A   7416         MOV     A,#0x16
   \   00000C   12....       LCALL   ?XSTACK_DISP0_8
   \   00000F   12....       LCALL   ?Subroutine20 & 0xFFFF
    498            ZStatus_t      status;
    499            AddrMgrEntry_t entry;
    500          
    501          
    502            // add entry
    503            entry.user    = ADDRMGR_USER_SECURITY;
    504            entry.nwkAddr = nwkAddr;
   \                     ??CrossCallReturnLabel_30:
   \   000012   12....       LCALL   ?XSTACK_DISP0_8
   \   000015   12....       LCALL   ?Subroutine13 & 0xFFFF
    505            AddrMgrExtAddrSet( entry.extAddr, extAddr );
   \                     ??CrossCallReturnLabel_17:
   \   000018                ; Setup parameters for call to function AddrMgrExtAddrSet
   \   000018   7403         MOV     A,#0x3
   \   00001A   12....       LCALL   ?XSTACK_DISP0_8
   \   00001D   12....       LCALL   ?Subroutine53 & 0xFFFF
    506          
    507            if ( AddrMgrEntryUpdate( &entry ) == TRUE )
   \                     ??CrossCallReturnLabel_88:
   \   000020   700A         JNZ     ??ZDSecMgrExtAddrStore_0
    508            {
    509              // return successful results
    510              *ami   = entry.index;
   \   000022   740B         MOV     A,#0xb
   \   000024   12....       LCALL   ?XSTACK_DISP0_8
   \   000027   12....       LCALL   ?Subroutine8 & 0xFFFF
    511              status = ZSuccess;
    512            }
   \                     ??CrossCallReturnLabel_126:
   \   00002A   8008         SJMP    ??CrossCallReturnLabel_25
    513            else
    514            {
    515              // return failed results
    516              *ami   = entry.index;
   \                     ??ZDSecMgrExtAddrStore_0:
   \   00002C   740B         MOV     A,#0xb
   \   00002E   12....       LCALL   ?XSTACK_DISP0_8
   \   000031   12....       LCALL   ?Subroutine15 & 0xFFFF
    517              status = ZNwkUnknownDevice;
    518            }
    519          
    520            return status;
   \                     ??CrossCallReturnLabel_25:
   \   000034   80..         SJMP    ?Subroutine82
    521          }
    522          
    523          /******************************************************************************
    524           * @fn          ZDSecMgrExtAddrLookup
    525           *
    526           * @brief       Lookup index for specified EXT address.
    527           *
    528           * @param       extAddr - [in] EXT address
    529           * @param       ami     - [out] Address Manager index
    530           *
    531           * @return      ZStatus_t
    532           */

   \                                 In  segment BANKED_CODE, align 1, keep-with-next
    533          ZStatus_t ZDSecMgrExtAddrLookup( uint8* extAddr, uint16* ami )
   \                     ZDSecMgrExtAddrLookup:
    534          {
   \   000000   74F7         MOV     A,#-0x9
   \   000002   12....       LCALL   ?BANKED_ENTER_XDATA
   \   000005                ; Saved register size: 9
   \   000005                ; Auto size: 13
   \   000005   74F3         MOV     A,#-0xd
   \   000007   12....       LCALL   ?ALLOC_XSTACK8
   \   00000A   EC           MOV     A,R4
   \   00000B   FE           MOV     R6,A
   \   00000C   ED           MOV     A,R5
   \   00000D   FF           MOV     R7,A
    535            ZStatus_t      status;
    536            AddrMgrEntry_t entry;
    537          
    538          
    539            // lookup entry
    540            entry.user = ADDRMGR_USER_SECURITY;
   \   00000E   7402         MOV     A,#0x2
   \   000010   85..82       MOV     DPL,?XSP + 0
   \   000013   85..83       MOV     DPH,?XSP + 1
   \   000016   F0           MOVX    @DPTR,A
    541            AddrMgrExtAddrSet( entry.extAddr, extAddr );
   \   000017                ; Setup parameters for call to function AddrMgrExtAddrSet
   \   000017   EA           MOV     A,R2
   \   000018   FC           MOV     R4,A
   \   000019   EB           MOV     A,R3
   \   00001A   FD           MOV     R5,A
   \   00001B   7403         MOV     A,#0x3
   \   00001D   12....       LCALL   ?XSTACK_DISP0_8
   \   000020   12....       LCALL   ?Subroutine68 & 0xFFFF
    542          
    543            if ( AddrMgrEntryLookupExt( &entry ) == TRUE )
   \                     ??CrossCallReturnLabel_207:
   \   000023   12....       LCALL   ??AddrMgrEntryLookupExt?relay
   \   000026   E9           MOV     A,R1
   \   000027   6401         XRL     A,#0x1
   \   000029   700A         JNZ     ??ZDSecMgrExtAddrLookup_0
    544            {
    545              // return successful results
    546              *ami   = entry.index;
   \   00002B   740B         MOV     A,#0xb
   \   00002D   12....       LCALL   ?XSTACK_DISP0_8
   \   000030   12....       LCALL   ?Subroutine8 & 0xFFFF
    547              status = ZSuccess;
    548            }
   \                     ??CrossCallReturnLabel_127:
   \   000033   8008         SJMP    ??CrossCallReturnLabel_26
    549            else
    550            {
    551              // return failed results
    552              *ami   = entry.index;
   \                     ??ZDSecMgrExtAddrLookup_0:
   \   000035   740B         MOV     A,#0xb
   \   000037   12....       LCALL   ?XSTACK_DISP0_8
   \   00003A   12....       LCALL   ?Subroutine15 & 0xFFFF
    553              status = ZNwkUnknownDevice;
    554            }
    555          
    556            return status;
   \                     ??CrossCallReturnLabel_26:
   \   00003D                REQUIRE ?Subroutine82
   \   00003D                ; // Fall through to label ?Subroutine82
    557          }
    558          
    559          /******************************************************************************
    560           * @fn          ZDSecMgrMasterKeyLookup
    561           *
    562           * @brief       Lookup MASTER key for specified address index.
    563           *
    564           * @param       ami - [in] Address Manager index
    565           * @param       key - [out] valid MASTER key
    566           *
    567           * @return      ZStatus_t
    568           */

   \                                 In  segment BANKED_CODE, align 1, keep-with-next
    569          ZStatus_t ZDSecMgrMasterKeyLookup( uint16 ami, uint8** key )
   \                     ZDSecMgrMasterKeyLookup:
    570          {
   \   000000   74F5         MOV     A,#-0xb
   \   000002   12....       LCALL   ?BANKED_ENTER_XDATA
   \   000005                ; Saved register size: 11
   \   000005                ; Auto size: 0
    571            ZStatus_t status;
    572            uint16    index;
    573          
    574          
    575            // initialize results
    576            *key   = NULL;
   \   000005   8C82         MOV     DPL,R4
   \   000007   8D83         MOV     DPH,R5
   \   000009   E4           CLR     A
   \   00000A   F0           MOVX    @DPTR,A
   \   00000B   A3           INC     DPTR
   \   00000C   F0           MOVX    @DPTR,A
    577            status = ZNwkUnknownDevice;
   \   00000D   79C8         MOV     R1,#-0x38
    578          
    579            // verify data is available
    580            if ( ZDSecMgrMasterKeyData != NULL )
   \   00000F   90....       MOV     DPTR,#ZDSecMgrMasterKeyData
   \   000012   E0           MOVX    A,@DPTR
   \   000013   7002         JNZ     ??ZDSecMgrMasterKeyLookup_0
   \   000015   A3           INC     DPTR
   \   000016   E0           MOVX    A,@DPTR
   \                     ??ZDSecMgrMasterKeyLookup_0:
   \   000017   6042         JZ      ??ZDSecMgrMasterKeyLookup_1
    581            {
    582              for ( index = 0; index < ZDSECMGR_MASTERKEY_MAX ; index++ )
   \   000019   7E00         MOV     R6,#0x0
   \   00001B   7F00         MOV     R7,#0x0
    583              {
    584                if ( ZDSecMgrMasterKeyData[index].ami == ami )
   \                     ??ZDSecMgrMasterKeyLookup_2:
   \   00001D   8E..         MOV     ?V0 + 0,R6
   \   00001F   8F..         MOV     ?V0 + 1,R7
   \   000021   E5..         MOV     A,?V0 + 0
   \   000023   75F012       MOV     B,#0x12
   \   000026   A4           MUL     AB
   \   000027   F5..         MOV     ?V0 + 0,A
   \   000029   A8F0         MOV     R0,B
   \   00002B   75F012       MOV     B,#0x12
   \   00002E   E5..         MOV     A,?V0 + 1
   \   000030   A4           MUL     AB
   \   000031   28           ADD     A,R0
   \   000032   F5..         MOV     ?V0 + 1,A
   \   000034   90....       MOV     DPTR,#ZDSecMgrMasterKeyData
   \   000037   12....       LCALL   ?Subroutine22 & 0xFFFF
   \                     ??CrossCallReturnLabel_33:
   \   00003A   7003         JNZ     ??ZDSecMgrMasterKeyLookup_3
   \   00003C   A3           INC     DPTR
   \   00003D   E0           MOVX    A,@DPTR
   \   00003E   6B           XRL     A,R3
   \                     ??ZDSecMgrMasterKeyLookup_3:
   \   00003F   7015         JNZ     ??ZDSecMgrMasterKeyLookup_4
    585                {
    586                  // return successful results
    587                  *key   = ZDSecMgrMasterKeyData[index].key;
   \   000041   E5..         MOV     A,?V0 + 0
   \   000043   2402         ADD     A,#0x2
   \   000045   F8           MOV     R0,A
   \   000046   E5..         MOV     A,?V0 + 1
   \   000048   3400         ADDC    A,#0x0
   \   00004A   F9           MOV     R1,A
   \   00004B   8C82         MOV     DPL,R4
   \   00004D   8D83         MOV     DPH,R5
   \   00004F   12....       LCALL   ??Subroutine86_0 & 0xFFFF
    588                  status = ZSuccess;
    589          
    590                  // break from loop
    591                  index  = ZDSECMGR_MASTERKEY_MAX;
   \                     ??CrossCallReturnLabel_128:
   \   000052   7E03         MOV     R6,#0x3
   \   000054   7F00         MOV     R7,#0x0
    592                }
    593              }
   \                     ??ZDSecMgrMasterKeyLookup_4:
   \   000056   12....       LCALL   ?Subroutine46 & 0xFFFF
    594            }
   \                     ??CrossCallReturnLabel_75:
   \   000059   40C2         JC      ??ZDSecMgrMasterKeyLookup_2
    595          
    596            return status;
   \                     ??ZDSecMgrMasterKeyLookup_1:
   \   00005B   80..         SJMP    ??Subroutine87_0
    597          }

   \                                 In  segment BANKED_CODE, align 1, keep-with-next
   \                     ??Subroutine87_0:
   \   000000   7F03         MOV     R7,#0x3
   \   000002   02....       LJMP    ?BANKED_LEAVE_XDATA

   \                                 In  segment BANKED_CODE, align 1, keep-with-next
   \                     ?Subroutine22:
   \   000000   E0           MOVX    A,@DPTR
   \   000001   25..         ADD     A,?V0 + 0
   \   000003   F5..         MOV     ?V0 + 0,A
   \   000005   A3           INC     DPTR
   \   000006   E0           MOVX    A,@DPTR
   \   000007   35..         ADDC    A,?V0 + 1
   \   000009   F5..         MOV     ?V0 + 1,A
   \   00000B   85..82       MOV     DPL,?V0 + 0
   \   00000E   F583         MOV     DPH,A
   \   000010   E0           MOVX    A,@DPTR
   \   000011   6A           XRL     A,R2
   \   000012   22           RET

   \                                 In  segment BANKED_CODE, align 1, keep-with-next
   \                     ?Subroutine46:
   \   000000   EE           MOV     A,R6
   \   000001   2401         ADD     A,#0x1
   \   000003   0E           INC     R6
   \   000004   EF           MOV     A,R7
   \   000005   3400         ADDC    A,#0x0
   \   000007   FF           MOV     R7,A
   \   000008   C3           CLR     C
   \   000009   EE           MOV     A,R6
   \   00000A   9403         SUBB    A,#0x3
   \   00000C   EF           MOV     A,R7
   \   00000D   9400         SUBB    A,#0x0
   \   00000F   22           RET
    598          
    599          /******************************************************************************
    600           * @fn          ZDSecMgrMasterKeyStore
    601           *
    602           * @brief       Store MASTER key for specified address index.
    603           *
    604           * @param       ami - [in] Address Manager index
    605           * @param       key - [in] valid key to store
    606           *
    607           * @return      ZStatus_t
    608           */

   \                                 In  segment BANKED_CODE, align 1, keep-with-next
    609          ZStatus_t ZDSecMgrMasterKeyStore( uint16 ami, uint8* key )
   \                     ZDSecMgrMasterKeyStore:
    610          {
   \   000000   74F1         MOV     A,#-0xf
   \   000002   12....       LCALL   ?BANKED_ENTER_XDATA
   \   000005                ; Saved register size: 15
   \   000005                ; Auto size: 0
   \   000005   8A..         MOV     ?V0 + 0,R2
   \   000007   8B..         MOV     ?V0 + 1,R3
   \   000009   EC           MOV     A,R4
   \   00000A   FE           MOV     R6,A
   \   00000B   ED           MOV     A,R5
   \   00000C   FF           MOV     R7,A
    611            ZStatus_t status;
    612            uint16    index;
    613            uint8*    entry;
    614          
    615          
    616            // initialize results
    617            status = ZNwkUnknownDevice;
   \   00000D   79C8         MOV     R1,#-0x38
    618          
    619            // verify data is available
    620            if ( ZDSecMgrMasterKeyData != NULL )
   \   00000F   90....       MOV     DPTR,#ZDSecMgrMasterKeyData
   \   000012   E0           MOVX    A,@DPTR
   \   000013   7002         JNZ     ??ZDSecMgrMasterKeyStore_0
   \   000015   A3           INC     DPTR
   \   000016   E0           MOVX    A,@DPTR
   \                     ??ZDSecMgrMasterKeyStore_0:
   \   000017   606D         JZ      ??ZDSecMgrMasterKeyStore_1
    621            {
    622              for ( index = 0; index < ZDSECMGR_MASTERKEY_MAX ; index++ )
   \   000019   7A00         MOV     R2,#0x0
   \   00001B   7B00         MOV     R3,#0x0
    623              {
    624                if ( ZDSecMgrMasterKeyData[index].ami == INVALID_NODE_ADDR )
   \                     ??ZDSecMgrMasterKeyStore_2:
   \   00001D   EA           MOV     A,R2
   \   00001E   FC           MOV     R4,A
   \   00001F   EB           MOV     A,R3
   \   000020   FD           MOV     R5,A
   \   000021   EC           MOV     A,R4
   \   000022   75F012       MOV     B,#0x12
   \   000025   A4           MUL     AB
   \   000026   FC           MOV     R4,A
   \   000027   A8F0         MOV     R0,B
   \   000029   75F012       MOV     B,#0x12
   \   00002C   ED           MOV     A,R5
   \   00002D   A4           MUL     AB
   \   00002E   28           ADD     A,R0
   \   00002F   FD           MOV     R5,A
   \   000030   90....       MOV     DPTR,#ZDSecMgrMasterKeyData
   \   000033   E0           MOVX    A,@DPTR
   \   000034   2C           ADD     A,R4
   \   000035   FC           MOV     R4,A
   \   000036   A3           INC     DPTR
   \   000037   E0           MOVX    A,@DPTR
   \   000038   3D           ADDC    A,R5
   \   000039   FD           MOV     R5,A
   \   00003A   8C82         MOV     DPL,R4
   \   00003C   8D83         MOV     DPH,R5
   \   00003E   E0           MOVX    A,@DPTR
   \   00003F   64FE         XRL     A,#0xfe
   \   000041   7004         JNZ     ??ZDSecMgrMasterKeyStore_3
   \   000043   A3           INC     DPTR
   \   000044   E0           MOVX    A,@DPTR
   \   000045   64FF         XRL     A,#0xff
   \                     ??ZDSecMgrMasterKeyStore_3:
   \   000047   7038         JNZ     ??ZDSecMgrMasterKeyStore_4
    625                {
    626                  // store EXT address index
    627                  ZDSecMgrMasterKeyData[index].ami = ami;
   \   000049   12....       LCALL   ?Subroutine10 & 0xFFFF
    628          
    629                  entry = ZDSecMgrMasterKeyData[index].key;
   \                     ??CrossCallReturnLabel_230:
   \   00004C   EC           MOV     A,R4
   \   00004D   2402         ADD     A,#0x2
   \   00004F   FA           MOV     R2,A
   \   000050   ED           MOV     A,R5
   \   000051   3400         ADDC    A,#0x0
   \   000053   FB           MOV     R3,A
    630          
    631                  if ( key != NULL )
   \   000054   EE           MOV     A,R6
   \   000055   7001         JNZ     ??ZDSecMgrMasterKeyStore_5
   \   000057   EF           MOV     A,R7
   \                     ??ZDSecMgrMasterKeyStore_5:
   \   000058   6018         JZ      ??ZDSecMgrMasterKeyStore_6
    632                  {
    633                    osal_memcpy( entry, key,  SEC_KEY_LEN );
   \   00005A                ; Setup parameters for call to function osal_memcpy
   \   00005A   8E..         MOV     ?V0 + 4,R6
   \   00005C   8F..         MOV     ?V0 + 5,R7
   \   00005E   75..00       MOV     ?V0 + 6,#0x0
   \   000061   78..         MOV     R0,#?V0 + 4
   \   000063   12....       LCALL   ?PUSH_XSTACK_I_THREE
   \   000066   7C10         MOV     R4,#0x10
   \   000068   7D00         MOV     R5,#0x0
   \   00006A   12....       LCALL   ?Subroutine70 & 0xFFFF
    634                  }
   \                     ??CrossCallReturnLabel_238:
   \   00006D   12....       LCALL   ?DEALLOC_XSTACK8
   \   000070   8009         SJMP    ??ZDSecMgrMasterKeyStore_7
    635                  else
    636                  {
    637                    osal_memset( entry, 0, SEC_KEY_LEN );
   \                     ??ZDSecMgrMasterKeyStore_6:
   \   000072                ; Setup parameters for call to function osal_memset
   \   000072   7C10         MOV     R4,#0x10
   \   000074   7D00         MOV     R5,#0x0
   \   000076   7900         MOV     R1,#0x0
   \   000078   12....       LCALL   ??osal_memset?relay
    638                  }
    639          
    640                  // return successful results
    641                  status = ZSuccess;
   \                     ??ZDSecMgrMasterKeyStore_7:
   \   00007B   7900         MOV     R1,#0x0
    642          
    643                  // break from loop
    644                  index  = ZDSECMGR_MASTERKEY_MAX;
   \   00007D   7A03         MOV     R2,#0x3
   \   00007F   7B00         MOV     R3,#0x0
    645                }
    646              }
   \                     ??ZDSecMgrMasterKeyStore_4:
   \   000081   12....       LCALL   ?Subroutine48 & 0xFFFF
    647            }
   \                     ??CrossCallReturnLabel_81:
   \   000084   4097         JC      ??ZDSecMgrMasterKeyStore_2
    648          
    649            return status;
   \                     ??ZDSecMgrMasterKeyStore_1:
   \   000086   7F07         MOV     R7,#0x7
   \   000088   02....       LJMP    ?BANKED_LEAVE_XDATA
    650          }

   \                                 In  segment BANKED_CODE, align 1, keep-with-next
   \                     ?Subroutine48:
   \   000000   EA           MOV     A,R2
   \   000001   2401         ADD     A,#0x1
   \   000003   0A           INC     R2
   \   000004   EB           MOV     A,R3
   \   000005   3400         ADDC    A,#0x0
   \   000007   FB           MOV     R3,A
   \   000008   C3           CLR     C
   \   000009   EA           MOV     A,R2
   \   00000A   9403         SUBB    A,#0x3
   \   00000C   EB           MOV     A,R3
   \   00000D   9400         SUBB    A,#0x0
   \   00000F   22           RET

   \                                 In  segment BANKED_CODE, align 1, keep-with-next
   \                     ?Subroutine10:
   \   000000   8C82         MOV     DPL,R4
   \   000002   8D83         MOV     DPH,R5
   \   000004                REQUIRE ??Subroutine110_0
   \   000004                ; // Fall through to label ??Subroutine110_0

   \                                 In  segment BANKED_CODE, align 1, keep-with-next
   \                     ??Subroutine110_0:
   \   000000   E5..         MOV     A,?V0 + 0
   \   000002   F0           MOVX    @DPTR,A
   \   000003   A3           INC     DPTR
   \   000004   E5..         MOV     A,?V0 + 1
   \   000006   F0           MOVX    @DPTR,A
   \   000007   22           RET

   \                                 In  segment BANKED_CODE, align 1, keep-with-next
   \                     ?Subroutine70:
   \   000000   12....       LCALL   ??osal_memcpy?relay
   \   000003   7403         MOV     A,#0x3
   \   000005   22           RET
    651          
    652          /******************************************************************************
    653           * @fn          ZDSecMgrEntryInit
    654           *
    655           * @brief       Initialize entry sub module
    656           *
    657           * @param       state - device initialization state
    658           *
    659           * @return      none
    660           */

   \                                 In  segment BANKED_CODE, align 1, keep-with-next
    661          void ZDSecMgrEntryInit(uint8 state)
   \                     ZDSecMgrEntryInit:
    662          {
   \   000000   C082         PUSH    DPL
   \   000002   C083         PUSH    DPH
   \   000004                ; Saved register size: 2
   \   000004                ; Auto size: 0
    663            if (ZDSecMgrEntries == NULL)
   \   000004   90....       MOV     DPTR,#ZDSecMgrEntries
   \   000007   E0           MOVX    A,@DPTR
   \   000008   7002         JNZ     ??ZDSecMgrEntryInit_0
   \   00000A   A3           INC     DPTR
   \   00000B   E0           MOVX    A,@DPTR
   \                     ??ZDSecMgrEntryInit_0:
   \   00000C   7036         JNZ     ??ZDSecMgrEntryInit_1
    664            {
    665              uint16 index;
    666          
    667              if ((ZDSecMgrEntries = osal_mem_alloc(sizeof(ZDSecMgrEntry_t) * ZDSECMGR_ENTRY_MAX)) == NULL)
   \   00000E                ; Setup parameters for call to function osal_mem_alloc
   \   00000E   7A57         MOV     R2,#0x57
   \   000010   7B00         MOV     R3,#0x0
   \   000012   12....       LCALL   ??osal_mem_alloc?relay
   \   000015   90....       MOV     DPTR,#ZDSecMgrEntries
   \   000018   12....       LCALL   ?Subroutine13 & 0xFFFF
   \                     ??CrossCallReturnLabel_18:
   \   00001B   90....       MOV     DPTR,#ZDSecMgrEntries
   \   00001E   E0           MOVX    A,@DPTR
   \   00001F   7002         JNZ     ??ZDSecMgrEntryInit_2
   \   000021   A3           INC     DPTR
   \   000022   E0           MOVX    A,@DPTR
   \                     ??ZDSecMgrEntryInit_2:
   \   000023   601F         JZ      ??ZDSecMgrEntryInit_1
    668              {
    669                return;
    670              }
    671          
    672              for (index = 0; index < ZDSECMGR_ENTRY_MAX; index++)
   \   000025   7800         MOV     R0,#0x0
   \   000027   7900         MOV     R1,#0x0
    673              {
    674                ZDSecMgrEntries[index].ami = INVALID_NODE_ADDR;
   \                     ??ZDSecMgrEntryInit_3:
   \   000029   E8           MOV     A,R0
   \   00002A   FA           MOV     R2,A
   \   00002B   E9           MOV     A,R1
   \   00002C   FB           MOV     R3,A
   \   00002D   EA           MOV     A,R2
   \   00002E   75F01D       MOV     B,#0x1d
   \   000031   A4           MUL     AB
   \   000032   FA           MOV     R2,A
   \   000033   ACF0         MOV     R4,B
   \   000035   75F01D       MOV     B,#0x1d
   \   000038   EB           MOV     A,R3
   \   000039   A4           MUL     AB
   \   00003A   2C           ADD     A,R4
   \   00003B   FB           MOV     R3,A
   \   00003C   90....       MOV     DPTR,#ZDSecMgrEntries
   \   00003F   12....       LCALL   ?Subroutine1 & 0xFFFF
    675              }
    676            }
   \                     ??CrossCallReturnLabel_121:
   \   000042   40E5         JC      ??ZDSecMgrEntryInit_3
   \                     ??ZDSecMgrEntryInit_1:
   \   000044   02....       LJMP    ??Subroutine100_0 & 0xFFFF
    677          
    678          #if defined NV_RESTORE
    679            if (state == ZDO_INITDEV_RESTORED_NETWORK_STATE)
    680            {
    681              ZDSecMgrRestoreFromNV();
    682            }
    683          #else
    684            (void)state;
    685          #endif
    686          }
    687          
    688          /******************************************************************************
    689           * @fn          ZDSecMgrEntryLookup
    690           *
    691           * @brief       Lookup entry index using specified NWK address.
    692           *
    693           * @param       nwkAddr - [in] NWK address
    694           * @param       entry   - [out] valid entry
    695           *
    696           * @return      ZStatus_t
    697           */

   \                                 In  segment BANKED_CODE, align 1, keep-with-next
    698          ZStatus_t ZDSecMgrEntryLookup( uint16 nwkAddr, ZDSecMgrEntry_t** entry )
   \                     ZDSecMgrEntryLookup:
    699          {
   \   000000   74F6         MOV     A,#-0xa
   \   000002   12....       LCALL   ?BANKED_ENTER_XDATA
   \   000005                ; Saved register size: 10
   \   000005                ; Auto size: 13
   \   000005   74F3         MOV     A,#-0xd
   \   000007   12....       LCALL   ?ALLOC_XSTACK8
   \   00000A   EC           MOV     A,R4
   \   00000B   FE           MOV     R6,A
   \   00000C   ED           MOV     A,R5
   \   00000D   FF           MOV     R7,A
    700            ZStatus_t      status;
    701            uint16         index;
    702            AddrMgrEntry_t addrMgrEntry;
    703          
    704          
    705            // initialize results
    706            *entry = NULL;
   \   00000E   8E82         MOV     DPL,R6
   \   000010   8F83         MOV     DPH,R7
   \   000012   E4           CLR     A
   \   000013   F0           MOVX    @DPTR,A
   \   000014   A3           INC     DPTR
   \   000015   F0           MOVX    @DPTR,A
    707            status = ZNwkUnknownDevice;
   \   000016   75..C8       MOV     ?V0 + 0,#-0x38
    708          
    709            // verify data is available
    710            if ( ZDSecMgrEntries != NULL )
   \   000019   90....       MOV     DPTR,#ZDSecMgrEntries
   \   00001C   E0           MOVX    A,@DPTR
   \   00001D   7002         JNZ     ??ZDSecMgrEntryLookup_0
   \   00001F   A3           INC     DPTR
   \   000020   E0           MOVX    A,@DPTR
   \                     ??ZDSecMgrEntryLookup_0:
   \   000021   6066         JZ      ??ZDSecMgrEntryLookup_1
    711            {
    712              addrMgrEntry.user    = ADDRMGR_USER_SECURITY;
   \   000023   7402         MOV     A,#0x2
   \   000025   85..82       MOV     DPL,?XSP + 0
   \   000028   85..83       MOV     DPH,?XSP + 1
   \   00002B   F0           MOVX    @DPTR,A
    713              addrMgrEntry.nwkAddr = nwkAddr;
   \   00002C   7401         MOV     A,#0x1
   \   00002E   12....       LCALL   ?XSTACK_DISP0_8
   \   000031   12....       LCALL   ?Subroutine5 & 0xFFFF
    714          
    715              if ( AddrMgrEntryLookupNwk( &addrMgrEntry ) == TRUE )
   \                     ??CrossCallReturnLabel_192:
   \   000034   12....       LCALL   ??AddrMgrEntryLookupNwk?relay
   \   000037   E9           MOV     A,R1
   \   000038   6401         XRL     A,#0x1
   \   00003A   704D         JNZ     ??ZDSecMgrEntryLookup_1
    716              {
    717                for ( index = 0; index < ZDSECMGR_ENTRY_MAX ; index++ )
   \   00003C   7800         MOV     R0,#0x0
   \   00003E   7900         MOV     R1,#0x0
    718                {
    719                  if ( addrMgrEntry.index == ZDSecMgrEntries[index].ami )
   \                     ??ZDSecMgrEntryLookup_2:
   \   000040   E8           MOV     A,R0
   \   000041   FA           MOV     R2,A
   \   000042   E9           MOV     A,R1
   \   000043   FB           MOV     R3,A
   \   000044   EA           MOV     A,R2
   \   000045   75F01D       MOV     B,#0x1d
   \   000048   A4           MUL     AB
   \   000049   FA           MOV     R2,A
   \   00004A   ACF0         MOV     R4,B
   \   00004C   75F01D       MOV     B,#0x1d
   \   00004F   EB           MOV     A,R3
   \   000050   A4           MUL     AB
   \   000051   2C           ADD     A,R4
   \   000052   FB           MOV     R3,A
   \   000053   90....       MOV     DPTR,#ZDSecMgrEntries
   \   000056   E0           MOVX    A,@DPTR
   \   000057   2A           ADD     A,R2
   \   000058   FA           MOV     R2,A
   \   000059   A3           INC     DPTR
   \   00005A   E0           MOVX    A,@DPTR
   \   00005B   3B           ADDC    A,R3
   \   00005C   FB           MOV     R3,A
   \   00005D   740B         MOV     A,#0xb
   \   00005F   12....       LCALL   ?XSTACK_DISP0_8
   \   000062   12....       LCALL   ?Subroutine60 & 0xFFFF
   \                     ??CrossCallReturnLabel_98:
   \   000065   8A82         MOV     DPL,R2
   \   000067   8B83         MOV     DPH,R3
   \   000069   E0           MOVX    A,@DPTR
   \   00006A   6C           XRL     A,R4
   \   00006B   7003         JNZ     ??ZDSecMgrEntryLookup_3
   \   00006D   A3           INC     DPTR
   \   00006E   E0           MOVX    A,@DPTR
   \   00006F   6D           XRL     A,R5
   \                     ??ZDSecMgrEntryLookup_3:
   \   000070   7012         JNZ     ??ZDSecMgrEntryLookup_4
    720                  {
    721                    // return successful results
    722                    *entry = &ZDSecMgrEntries[index];
   \   000072   EA           MOV     A,R2
   \   000073   F8           MOV     R0,A
   \   000074   EB           MOV     A,R3
   \   000075   F9           MOV     R1,A
   \   000076   8E82         MOV     DPL,R6
   \   000078   8F83         MOV     DPH,R7
   \   00007A   12....       LCALL   ??Subroutine105_0 & 0xFFFF
    723                    status = ZSuccess;
   \                     ??CrossCallReturnLabel_163:
   \   00007D   75..00       MOV     ?V0 + 0,#0x0
    724          
    725                    // break from loop
    726                    index = ZDSECMGR_ENTRY_MAX;
   \   000080   7803         MOV     R0,#0x3
   \   000082   7900         MOV     R1,#0x0
    727                  }
    728                }
   \                     ??ZDSecMgrEntryLookup_4:
   \   000084   12....       LCALL   ?Subroutine49 & 0xFFFF
    729              }
    730            }
   \                     ??CrossCallReturnLabel_83:
   \   000087   40B7         JC      ??ZDSecMgrEntryLookup_2
    731          
    732            return status;
   \                     ??ZDSecMgrEntryLookup_1:
   \   000089   A9..         MOV     R1,?V0 + 0
   \   00008B   02....       LJMP    ?Subroutine78 & 0xFFFF
    733          }

   \                                 In  segment BANKED_CODE, align 1, keep-with-next
   \                     ?Subroutine49:
   \   000000   12....       LCALL   ?Subroutine67 & 0xFFFF
   \                     ??CrossCallReturnLabel_124:
   \   000003   22           RET

   \                                 In  segment BANKED_CODE, align 1, keep-with-next
   \                     ?Subroutine78:
   \   000000   740D         MOV     A,#0xd
   \   000002                REQUIRE ??Subroutine92_0
   \   000002                ; // Fall through to label ??Subroutine92_0

   \                                 In  segment BANKED_CODE, align 1, keep-with-next
   \                     ??Subroutine92_0:
   \   000000   12....       LCALL   ?DEALLOC_XSTACK8
   \   000003                REQUIRE ??Subroutine93_0
   \   000003                ; // Fall through to label ??Subroutine93_0

   \                                 In  segment BANKED_CODE, align 1, keep-with-next
   \                     ??Subroutine93_0:
   \   000000   7F02         MOV     R7,#0x2
   \   000002   02....       LJMP    ?BANKED_LEAVE_XDATA

   \                                 In  segment BANKED_CODE, align 1, keep-with-next
   \                     ?Subroutine60:
   \   000000   E0           MOVX    A,@DPTR
   \   000001   FC           MOV     R4,A
   \   000002   A3           INC     DPTR
   \   000003   E0           MOVX    A,@DPTR
   \   000004   FD           MOV     R5,A
   \   000005   22           RET

   \                                 In  segment BANKED_CODE, align 1, keep-with-next
   \                     ??Subroutine105_0:
   \   000000   12....       LCALL   ?Subroutine66 & 0xFFFF
   \                     ??CrossCallReturnLabel_219:
   \   000003   22           RET

   \                                 In  segment BANKED_CODE, align 1, keep-with-next
   \                     ?Subroutine5:
   \   000000   EA           MOV     A,R2
   \   000001   F0           MOVX    @DPTR,A
   \   000002   A3           INC     DPTR
   \   000003   EB           MOV     A,R3
   \   000004                REQUIRE ??Subroutine107_0
   \   000004                ; // Fall through to label ??Subroutine107_0

   \                                 In  segment BANKED_CODE, align 1, keep-with-next
   \                     ??Subroutine107_0:
   \   000000   12....       LCALL   ?Subroutine65 & 0xFFFF
   \                     ??CrossCallReturnLabel_203:
   \   000003   22           RET

   \                                 In  segment BANKED_CODE, align 1, keep-with-next
   \                     ?Subroutine65:
   \   000000   F0           MOVX    @DPTR,A
   \   000001                ; Setup parameters for call to function AddrMgrEntryLookupNwk
   \   000001                ; Setup parameters for call to function AddrMgrEntryGet
   \   000001                ; Setup parameters for call to function APSME_EstablishKeyReq
   \   000001                ; Setup parameters for call to function AddrMgrEntryUpdate
   \   000001                ; Setup parameters for call to function NLME_LeaveReq
   \   000001                ; Setup parameters for call to function APSME_UpdateDeviceReq
   \   000001                ; Setup parameters for call to function APSME_AuthenticateReq
   \   000001                ; Setup parameters for call to function ZDSecMgrDeviceNew
   \   000001                ; Setup parameters for call to function APSME_EstablishKeyRsp
   \   000001                ; Setup parameters for call to function ZDSecMgrDeviceRemove
   \   000001                ; Setup parameters for call to function APSME_SwitchKeyReq
   \   000001                ; Setup parameters for call to function ZDSecMgrDeviceCtrlHandler
   \   000001                ; Setup parameters for call to function ZDSecMgrDeviceJoin
   \   000001                ; Setup parameters for call to function APSME_AuthenticateReq
   \   000001                ; Setup parameters for call to function ZDSecMgrDeviceRemove
   \   000001                ; Setup parameters for call to function APSME_TransportKeyReq
   \   000001                ; Setup parameters for call to function APSME_TransportKeyReq
   \   000001   02....       LJMP    ?Subroutine73 & 0xFFFF
    734          
    735          /******************************************************************************
    736           * @fn          ZDSecMgrEntryLookupAMI
    737           *
    738           * @brief       Lookup entry using specified address index
    739           *
    740           * @param       ami   - [in] Address Manager index
    741           * @param       entry - [out] valid entry
    742           *
    743           * @return      ZStatus_t
    744           */

   \                                 In  segment BANKED_CODE, align 1, keep-with-next
    745          ZStatus_t ZDSecMgrEntryLookupAMI( uint16 ami, ZDSecMgrEntry_t** entry )
   \                     ZDSecMgrEntryLookupAMI:
    746          {
   \   000000   74F5         MOV     A,#-0xb
   \   000002   12....       LCALL   ?BANKED_ENTER_XDATA
   \   000005                ; Saved register size: 11
   \   000005                ; Auto size: 0
    747            ZStatus_t status;
    748            uint16    index;
    749          
    750          
    751            // initialize results
    752            *entry = NULL;
   \   000005   8C82         MOV     DPL,R4
   \   000007   8D83         MOV     DPH,R5
   \   000009   12....       LCALL   ?Subroutine16 & 0xFFFF
    753            status = ZNwkUnknownDevice;
    754          
    755            // verify data is available
    756            if ( ZDSecMgrEntries != NULL )
   \                     ??CrossCallReturnLabel_27:
   \   00000C   7002         JNZ     ??ZDSecMgrEntryLookupAMI_0
   \   00000E   A3           INC     DPTR
   \   00000F   E0           MOVX    A,@DPTR
   \                     ??ZDSecMgrEntryLookupAMI_0:
   \   000010   6036         JZ      ??ZDSecMgrEntryLookupAMI_1
    757            {
    758              for ( index = 0; index < ZDSECMGR_ENTRY_MAX ; index++ )
   \   000012   7E00         MOV     R6,#0x0
   \   000014   7F00         MOV     R7,#0x0
    759              {
    760                if ( ZDSecMgrEntries[index].ami == ami )
   \                     ??ZDSecMgrEntryLookupAMI_2:
   \   000016   8E..         MOV     ?V0 + 0,R6
   \   000018   8F..         MOV     ?V0 + 1,R7
   \   00001A   E5..         MOV     A,?V0 + 0
   \   00001C   75F01D       MOV     B,#0x1d
   \   00001F   A4           MUL     AB
   \   000020   F5..         MOV     ?V0 + 0,A
   \   000022   A8F0         MOV     R0,B
   \   000024   75F01D       MOV     B,#0x1d
   \   000027   E5..         MOV     A,?V0 + 1
   \   000029   A4           MUL     AB
   \   00002A   28           ADD     A,R0
   \   00002B   F5..         MOV     ?V0 + 1,A
   \   00002D   90....       MOV     DPTR,#ZDSecMgrEntries
   \   000030   12....       LCALL   ?Subroutine22 & 0xFFFF
   \                     ??CrossCallReturnLabel_34:
   \   000033   7003         JNZ     ??ZDSecMgrEntryLookupAMI_3
   \   000035   A3           INC     DPTR
   \   000036   E0           MOVX    A,@DPTR
   \   000037   6B           XRL     A,R3
   \                     ??ZDSecMgrEntryLookupAMI_3:
   \   000038   7009         JNZ     ??ZDSecMgrEntryLookupAMI_4
    761                {
    762                  // return successful results
    763                  *entry = &ZDSecMgrEntries[index];
   \   00003A   12....       LCALL   ?Subroutine10 & 0xFFFF
    764                  status = ZSuccess;
   \                     ??CrossCallReturnLabel_231:
   \   00003D   7900         MOV     R1,#0x0
    765          
    766                  // break from loop
    767                  index = ZDSECMGR_ENTRY_MAX;
   \   00003F   7E03         MOV     R6,#0x3
   \   000041   7F00         MOV     R7,#0x0
    768                }
    769              }
   \                     ??ZDSecMgrEntryLookupAMI_4:
   \   000043   12....       LCALL   ?Subroutine46 & 0xFFFF
    770            }
   \                     ??CrossCallReturnLabel_76:
   \   000046   40CE         JC      ??ZDSecMgrEntryLookupAMI_2
    771          
    772            return status;
   \                     ??ZDSecMgrEntryLookupAMI_1:
   \   000048   02....       LJMP    ??Subroutine87_0 & 0xFFFF
    773          }

   \                                 In  segment BANKED_CODE, align 1, keep-with-next
   \                     ?Subroutine16:
   \   000000   E4           CLR     A
   \   000001   F0           MOVX    @DPTR,A
   \   000002   A3           INC     DPTR
   \   000003   F0           MOVX    @DPTR,A
   \   000004   79C8         MOV     R1,#-0x38
   \   000006   90....       MOV     DPTR,#ZDSecMgrEntries
   \   000009   E0           MOVX    A,@DPTR
   \   00000A   22           RET
    774          
    775          /******************************************************************************
    776           * @fn          ZDSecMgrEntryLookupExt
    777           *
    778           * @brief       Lookup entry index using specified EXT address.
    779           *
    780           * @param       extAddr - [in] EXT address
    781           * @param       entry   - [out] valid entry
    782           *
    783           * @return      ZStatus_t
    784           */

   \                                 In  segment BANKED_CODE, align 1, keep-with-next
    785          ZStatus_t ZDSecMgrEntryLookupExt( uint8* extAddr, ZDSecMgrEntry_t** entry )
   \                     ZDSecMgrEntryLookupExt:
    786          {
   \   000000   74F7         MOV     A,#-0x9
   \   000002   12....       LCALL   ?BANKED_ENTER_XDATA
   \   000005                ; Saved register size: 9
   \   000005                ; Auto size: 2
   \   000005   74FE         MOV     A,#-0x2
   \   000007   12....       LCALL   ?ALLOC_XSTACK8
   \   00000A   EC           MOV     A,R4
   \   00000B   FE           MOV     R6,A
   \   00000C   ED           MOV     A,R5
   \   00000D   FF           MOV     R7,A
    787            ZStatus_t status;
    788            uint16    ami;
    789          
    790          
    791            // initialize results
    792            *entry = NULL;
   \   00000E   8E82         MOV     DPL,R6
   \   000010   8F83         MOV     DPH,R7
   \   000012   E4           CLR     A
   \   000013   F0           MOVX    @DPTR,A
   \   000014   A3           INC     DPTR
   \   000015   F0           MOVX    @DPTR,A
    793            status = ZNwkUnknownDevice;
   \   000016   75..C8       MOV     ?V0 + 0,#-0x38
    794          
    795            // lookup address index
    796            if ( ZDSecMgrExtAddrLookup( extAddr, &ami ) == ZSuccess )
   \   000019                ; Setup parameters for call to function ZDSecMgrExtAddrLookup
   \   000019   85..82       MOV     DPL,?XSP + 0
   \   00001C   85..83       MOV     DPH,?XSP + 1
   \   00001F   AC82         MOV     R4,DPL
   \   000021   AD83         MOV     R5,DPH
   \   000023   12....       LCALL   ??ZDSecMgrExtAddrLookup?relay
   \   000026   E9           MOV     A,R1
   \   000027   7010         JNZ     ??ZDSecMgrEntryLookupExt_0
    797            {
    798              status = ZDSecMgrEntryLookupAMI( ami, entry );
   \   000029                ; Setup parameters for call to function ZDSecMgrEntryLookupAMI
   \   000029   EE           MOV     A,R6
   \   00002A   FC           MOV     R4,A
   \   00002B   EF           MOV     A,R7
   \   00002C   FD           MOV     R5,A
   \   00002D   85..82       MOV     DPL,?XSP + 0
   \   000030   85..83       MOV     DPH,?XSP + 1
   \   000033   12....       LCALL   ?Subroutine37 & 0xFFFF
    799            }
   \                     ??CrossCallReturnLabel_60:
   \   000036   E9           MOV     A,R1
   \   000037   F5..         MOV     ?V0 + 0,A
    800          
    801            return status;
   \                     ??ZDSecMgrEntryLookupExt_0:
   \   000039   02....       LJMP    ?Subroutine76 & 0xFFFF
    802          }

   \                                 In  segment BANKED_CODE, align 1, keep-with-next
   \                     ?Subroutine76:
   \   000000   A9..         MOV     R1,?V0 + 0
   \   000002                REQUIRE ??Subroutine95_0
   \   000002                ; // Fall through to label ??Subroutine95_0

   \                                 In  segment BANKED_CODE, align 1, keep-with-next
   \                     ??Subroutine95_0:
   \   000000   7402         MOV     A,#0x2
   \   000002                REQUIRE ??Subroutine96_0
   \   000002                ; // Fall through to label ??Subroutine96_0

   \                                 In  segment BANKED_CODE, align 1, keep-with-next
   \                     ?Subroutine37:
   \   000000   12....       LCALL   ??Subroutine112_0 & 0xFFFF
   \                     ??CrossCallReturnLabel_243:
   \   000003   12....       LCALL   ??ZDSecMgrEntryLookupAMI?relay
   \   000006   22           RET

   \                                 In  segment BANKED_CODE, align 1, keep-with-next
   \                     ??Subroutine112_0:
   \   000000   E0           MOVX    A,@DPTR
   \   000001   FA           MOV     R2,A
   \   000002   A3           INC     DPTR
   \   000003   E0           MOVX    A,@DPTR
   \   000004   FB           MOV     R3,A
   \   000005   22           RET
    803          
    804          /******************************************************************************
    805           * @fn          ZDSecMgrEntryFree
    806           *
    807           * @brief       Free entry.
    808           *
    809           * @param       entry - [in] valid entry
    810           *
    811           * @return      ZStatus_t
    812           */

   \                                 In  segment BANKED_CODE, align 1, keep-with-next
    813          void ZDSecMgrEntryFree( ZDSecMgrEntry_t* entry )
   \                     ZDSecMgrEntryFree:
    814          {
   \   000000   C082         PUSH    DPL
   \   000002   C083         PUSH    DPH
   \   000004                ; Saved register size: 2
   \   000004                ; Auto size: 0
    815            entry->ami = INVALID_NODE_ADDR;
   \   000004   8A82         MOV     DPL,R2
   \   000006   8B83         MOV     DPH,R3
   \   000008   74FE         MOV     A,#-0x2
   \   00000A   F0           MOVX    @DPTR,A
   \   00000B   A3           INC     DPTR
   \   00000C   74FF         MOV     A,#-0x1
   \   00000E   F0           MOVX    @DPTR,A
    816          }
   \   00000F   02....       LJMP    ??Subroutine100_0 & 0xFFFF
    817          
    818          /******************************************************************************
    819           * @fn          ZDSecMgrEntryNew
    820           *
    821           * @brief       Get a new entry.
    822           *
    823           * @param       entry - [out] valid entry
    824           *
    825           * @return      ZStatus_t
    826           */

   \                                 In  segment BANKED_CODE, align 1, keep-with-next
    827          ZStatus_t ZDSecMgrEntryNew( ZDSecMgrEntry_t** entry )
   \                     ZDSecMgrEntryNew:
    828          {
   \   000000   74F5         MOV     A,#-0xb
   \   000002   12....       LCALL   ?BANKED_ENTER_XDATA
   \   000005                ; Saved register size: 11
   \   000005                ; Auto size: 0
    829            ZStatus_t status;
    830            uint16    index;
    831          
    832          
    833            // initialize results
    834            *entry = NULL;
   \   000005   8A82         MOV     DPL,R2
   \   000007   8B83         MOV     DPH,R3
   \   000009   12....       LCALL   ?Subroutine16 & 0xFFFF
    835            status = ZNwkUnknownDevice;
    836          
    837            // verify data is available
    838            if ( ZDSecMgrEntries != NULL )
   \                     ??CrossCallReturnLabel_28:
   \   00000C   7002         JNZ     ??ZDSecMgrEntryNew_0
   \   00000E   A3           INC     DPTR
   \   00000F   E0           MOVX    A,@DPTR
   \                     ??ZDSecMgrEntryNew_0:
   \   000010   6059         JZ      ??ZDSecMgrEntryNew_1
    839            {
    840              // find available entry
    841              for ( index = 0; index < ZDSECMGR_ENTRY_MAX ; index++ )
   \   000012   7E00         MOV     R6,#0x0
   \   000014   7F00         MOV     R7,#0x0
    842              {
    843                if ( ZDSecMgrEntries[index].ami == INVALID_NODE_ADDR )
   \                     ??ZDSecMgrEntryNew_2:
   \   000016   EE           MOV     A,R6
   \   000017   FC           MOV     R4,A
   \   000018   EF           MOV     A,R7
   \   000019   FD           MOV     R5,A
   \   00001A   EC           MOV     A,R4
   \   00001B   75F01D       MOV     B,#0x1d
   \   00001E   A4           MUL     AB
   \   00001F   FC           MOV     R4,A
   \   000020   A8F0         MOV     R0,B
   \   000022   75F01D       MOV     B,#0x1d
   \   000025   ED           MOV     A,R5
   \   000026   A4           MUL     AB
   \   000027   28           ADD     A,R0
   \   000028   FD           MOV     R5,A
   \   000029   90....       MOV     DPTR,#ZDSecMgrEntries
   \   00002C   E0           MOVX    A,@DPTR
   \   00002D   2C           ADD     A,R4
   \   00002E   F5..         MOV     ?V0 + 0,A
   \   000030   A3           INC     DPTR
   \   000031   E0           MOVX    A,@DPTR
   \   000032   3D           ADDC    A,R5
   \   000033   F5..         MOV     ?V0 + 1,A
   \   000035   85..82       MOV     DPL,?V0 + 0
   \   000038   F583         MOV     DPH,A
   \   00003A   E0           MOVX    A,@DPTR
   \   00003B   64FE         XRL     A,#0xfe
   \   00003D   7004         JNZ     ??ZDSecMgrEntryNew_3
   \   00003F   A3           INC     DPTR
   \   000040   E0           MOVX    A,@DPTR
   \   000041   64FF         XRL     A,#0xff
   \                     ??ZDSecMgrEntryNew_3:
   \   000043   7021         JNZ     ??ZDSecMgrEntryNew_4
    844                {
    845                  // return successful result
    846                  *entry = &ZDSecMgrEntries[index];
   \   000045   8A82         MOV     DPL,R2
   \   000047   8B83         MOV     DPH,R3
   \   000049   12....       LCALL   ??Subroutine110_0 & 0xFFFF
    847                  status = ZSuccess;
   \                     ??CrossCallReturnLabel_227:
   \   00004C   7900         MOV     R1,#0x0
    848          
    849                  // Set the authentication option to default
    850                  ZDSecMgrEntries[index].authenticateOption = ZDSecMgr_Not_Authenticated;
   \   00004E   90....       MOV     DPTR,#ZDSecMgrEntries
   \   000051   E0           MOVX    A,@DPTR
   \   000052   2C           ADD     A,R4
   \   000053   FC           MOV     R4,A
   \   000054   A3           INC     DPTR
   \   000055   E0           MOVX    A,@DPTR
   \   000056   3D           ADDC    A,R5
   \   000057   FD           MOV     R5,A
   \   000058   741C         MOV     A,#0x1c
   \   00005A   2C           ADD     A,R4
   \   00005B   F582         MOV     DPL,A
   \   00005D   E4           CLR     A
   \   00005E   3D           ADDC    A,R5
   \   00005F   F583         MOV     DPH,A
   \   000061   E4           CLR     A
   \   000062   F0           MOVX    @DPTR,A
    851          
    852                  // break from loop
    853                  index = ZDSECMGR_ENTRY_MAX;
   \   000063   7E03         MOV     R6,#0x3
   \   000065   FF           MOV     R7,A
    854                }
    855              }
   \                     ??ZDSecMgrEntryNew_4:
   \   000066   12....       LCALL   ?Subroutine46 & 0xFFFF
    856            }
   \                     ??CrossCallReturnLabel_77:
   \   000069   40AB         JC      ??ZDSecMgrEntryNew_2
    857          
    858            return status;
   \                     ??ZDSecMgrEntryNew_1:
   \   00006B   02....       LJMP    ??Subroutine87_0 & 0xFFFF
    859          }
    860          
    861          /******************************************************************************
    862           * @fn          ZDSecMgrCtrlInit
    863           *
    864           * @brief       Initialize control sub module
    865           *
    866           * @param       none
    867           *
    868           * @return      none
    869           */

   \                                 In  segment BANKED_CODE, align 1, keep-with-next
    870          void ZDSecMgrCtrlInit( void )
   \                     ZDSecMgrCtrlInit:
    871          {
   \   000000   C082         PUSH    DPL
   \   000002   C083         PUSH    DPH
   \   000004                ; Saved register size: 2
   \   000004                ; Auto size: 0
    872            uint16 size;
    873            uint16 index;
    874          
    875            // allocate entry data
    876            size = (short)( sizeof(ZDSecMgrCtrl_t) * ZDSECMGR_CTRL_MAX );
    877          
    878            ZDSecMgrCtrlData = osal_mem_alloc( size );
   \   000004                ; Setup parameters for call to function osal_mem_alloc
   \   000004   7A15         MOV     R2,#0x15
   \   000006   7B00         MOV     R3,#0x0
   \   000008   12....       LCALL   ??osal_mem_alloc?relay
   \   00000B   90....       MOV     DPTR,#ZDSecMgrCtrlData
   \   00000E   12....       LCALL   ?Subroutine13 & 0xFFFF
    879          
    880            // initialize data
    881            if ( ZDSecMgrCtrlData != NULL )
   \                     ??CrossCallReturnLabel_19:
   \   000011   90....       MOV     DPTR,#ZDSecMgrCtrlData
   \   000014   E0           MOVX    A,@DPTR
   \   000015   7002         JNZ     ??ZDSecMgrCtrlInit_0
   \   000017   A3           INC     DPTR
   \   000018   E0           MOVX    A,@DPTR
   \                     ??ZDSecMgrCtrlInit_0:
   \   000019   6028         JZ      ??ZDSecMgrCtrlInit_1
    882            {
    883              for( index = 0; index < ZDSECMGR_CTRL_MAX; index++ )
   \   00001B   7800         MOV     R0,#0x0
   \   00001D   7900         MOV     R1,#0x0
    884              {
    885                ZDSecMgrCtrlData[index].state = ZDSECMGR_CTRL_NONE;
   \                     ??ZDSecMgrCtrlInit_2:
   \   00001F   E8           MOV     A,R0
   \   000020   FA           MOV     R2,A
   \   000021   E9           MOV     A,R1
   \   000022   FB           MOV     R3,A
   \   000023   EA           MOV     A,R2
   \   000024   75F007       MOV     B,#0x7
   \   000027   A4           MUL     AB
   \   000028   FA           MOV     R2,A
   \   000029   ACF0         MOV     R4,B
   \   00002B   75F007       MOV     B,#0x7
   \   00002E   EB           MOV     A,R3
   \   00002F   A4           MUL     AB
   \   000030   2C           ADD     A,R4
   \   000031   FB           MOV     R3,A
   \   000032   90....       MOV     DPTR,#ZDSecMgrCtrlData
   \   000035   12....       LCALL   ?Subroutine57 & 0xFFFF
    886              }
    887            }
   \                     ??CrossCallReturnLabel_94:
   \   000038   A3           INC     DPTR
   \   000039   A3           INC     DPTR
   \   00003A   A3           INC     DPTR
   \   00003B   A3           INC     DPTR
   \   00003C   A3           INC     DPTR
   \   00003D   E4           CLR     A
   \   00003E   12....       LCALL   ??Subroutine85_0 & 0xFFFF
   \                     ??CrossCallReturnLabel_122:
   \   000041   40DC         JC      ??ZDSecMgrCtrlInit_2
    888          }
   \                     ??ZDSecMgrCtrlInit_1:
   \   000043   02....       LJMP    ??Subroutine100_0 & 0xFFFF
    889          
    890          /******************************************************************************
    891           * @fn          ZDSecMgrCtrlRelease
    892           *
    893           * @brief       Release control data.
    894           *
    895           * @param       ctrl - [in] valid control data
    896           *
    897           * @return      none
    898           */

   \                                 In  segment BANKED_CODE, align 1, keep-with-next
    899          void ZDSecMgrCtrlRelease( ZDSecMgrCtrl_t* ctrl )
   \                     ZDSecMgrCtrlRelease:
    900          {
   \   000000   C082         PUSH    DPL
   \   000002   C083         PUSH    DPH
   \   000004                ; Saved register size: 2
   \   000004                ; Auto size: 0
    901            // should always be enough entry control data
    902            ctrl->state = ZDSECMGR_CTRL_NONE;
   \   000004   E4           CLR     A
   \   000005   8A82         MOV     DPL,R2
   \   000007   8B83         MOV     DPH,R3
   \   000009   A3           INC     DPTR
   \   00000A   A3           INC     DPTR
   \   00000B   A3           INC     DPTR
   \   00000C   A3           INC     DPTR
   \   00000D   A3           INC     DPTR
   \   00000E   F0           MOVX    @DPTR,A
    903          }
   \   00000F   02....       LJMP    ??Subroutine100_0 & 0xFFFF
    904          
    905          /******************************************************************************
    906           * @fn          ZDSecMgrCtrlLookup
    907           *
    908           * @brief       Lookup control data.
    909           *
    910           * @param       entry - [in] valid entry data
    911           * @param       ctrl  - [out] control data - NULL if not found
    912           *
    913           * @return      none
    914           */

   \                                 In  segment BANKED_CODE, align 1, keep-with-next
    915          void ZDSecMgrCtrlLookup( ZDSecMgrEntry_t* entry, ZDSecMgrCtrl_t** ctrl )
   \                     ZDSecMgrCtrlLookup:
    916          {
   \   000000   74F6         MOV     A,#-0xa
   \   000002   12....       LCALL   ?BANKED_ENTER_XDATA
   \   000005                ; Saved register size: 10
   \   000005                ; Auto size: 0
   \   000005   EA           MOV     A,R2
   \   000006   FE           MOV     R6,A
   \   000007   EB           MOV     A,R3
   \   000008   FF           MOV     R7,A
    917            uint16 index;
    918          
    919          
    920            // initialize search results
    921            *ctrl = NULL;
   \   000009   8C82         MOV     DPL,R4
   \   00000B   8D83         MOV     DPH,R5
   \   00000D   E4           CLR     A
   \   00000E   F0           MOVX    @DPTR,A
   \   00000F   A3           INC     DPTR
   \   000010   F0           MOVX    @DPTR,A
    922          
    923            // verify data is available
    924            if ( ZDSecMgrCtrlData != NULL )
   \   000011   90....       MOV     DPTR,#ZDSecMgrCtrlData
   \   000014   E0           MOVX    A,@DPTR
   \   000015   7002         JNZ     ??ZDSecMgrCtrlLookup_0
   \   000017   A3           INC     DPTR
   \   000018   E0           MOVX    A,@DPTR
   \                     ??ZDSecMgrCtrlLookup_0:
   \   000019   6058         JZ      ??ZDSecMgrCtrlLookup_1
    925            {
    926              for ( index = 0; index < ZDSECMGR_CTRL_MAX; index++ )
   \   00001B   7800         MOV     R0,#0x0
   \   00001D   7900         MOV     R1,#0x0
    927              {
    928                // make sure control data is in use
    929                if ( ZDSecMgrCtrlData[index].state != ZDSECMGR_CTRL_NONE )
   \                     ??ZDSecMgrCtrlLookup_2:
   \   00001F   E8           MOV     A,R0
   \   000020   FA           MOV     R2,A
   \   000021   E9           MOV     A,R1
   \   000022   FB           MOV     R3,A
   \   000023   EA           MOV     A,R2
   \   000024   75F007       MOV     B,#0x7
   \   000027   A4           MUL     AB
   \   000028   FA           MOV     R2,A
   \   000029   85F0..       MOV     ?V0 + 0,B
   \   00002C   75F007       MOV     B,#0x7
   \   00002F   EB           MOV     A,R3
   \   000030   A4           MUL     AB
   \   000031   25..         ADD     A,?V0 + 0
   \   000033   FB           MOV     R3,A
   \   000034   90....       MOV     DPTR,#ZDSecMgrCtrlData
   \   000037   E0           MOVX    A,@DPTR
   \   000038   2A           ADD     A,R2
   \   000039   FA           MOV     R2,A
   \   00003A   A3           INC     DPTR
   \   00003B   E0           MOVX    A,@DPTR
   \   00003C   3B           ADDC    A,R3
   \   00003D   FB           MOV     R3,A
   \   00003E   8A82         MOV     DPL,R2
   \   000040   8B83         MOV     DPH,R3
   \   000042   A3           INC     DPTR
   \   000043   A3           INC     DPTR
   \   000044   A3           INC     DPTR
   \   000045   A3           INC     DPTR
   \   000046   A3           INC     DPTR
   \   000047   E0           MOVX    A,@DPTR
   \   000048   6024         JZ      ??ZDSecMgrCtrlLookup_3
    930                {
    931                  // check for entry match
    932                  if ( ZDSecMgrCtrlData[index].entry == entry )
   \   00004A   8A82         MOV     DPL,R2
   \   00004C   8B83         MOV     DPH,R3
   \   00004E   E0           MOVX    A,@DPTR
   \   00004F   F5..         MOV     ?V0 + 0,A
   \   000051   A3           INC     DPTR
   \   000052   E0           MOVX    A,@DPTR
   \   000053   F5..         MOV     ?V0 + 1,A
   \   000055   EE           MOV     A,R6
   \   000056   65..         XRL     A,?V0 + 0
   \   000058   7003         JNZ     ??ZDSecMgrCtrlLookup_4
   \   00005A   EF           MOV     A,R7
   \   00005B   65..         XRL     A,?V0 + 1
   \                     ??ZDSecMgrCtrlLookup_4:
   \   00005D   700F         JNZ     ??ZDSecMgrCtrlLookup_3
    933                  {
    934                    // return this control data
    935                    *ctrl = &ZDSecMgrCtrlData[index];
   \   00005F   EA           MOV     A,R2
   \   000060   F8           MOV     R0,A
   \   000061   EB           MOV     A,R3
   \   000062   F9           MOV     R1,A
   \   000063   8C82         MOV     DPL,R4
   \   000065   8D83         MOV     DPH,R5
   \   000067   12....       LCALL   ??Subroutine105_0 & 0xFFFF
    936          
    937                    // break from loop
    938                    index = ZDSECMGR_CTRL_MAX;
   \                     ??CrossCallReturnLabel_164:
   \   00006A   7803         MOV     R0,#0x3
   \   00006C   7900         MOV     R1,#0x0
    939                  }
    940                }
    941              }
   \                     ??ZDSecMgrCtrlLookup_3:
   \   00006E   12....       LCALL   ?Subroutine49 & 0xFFFF
    942            }
   \                     ??CrossCallReturnLabel_84:
   \   000071   40AC         JC      ??ZDSecMgrCtrlLookup_2
    943          }
   \                     ??ZDSecMgrCtrlLookup_1:
   \   000073   02....       LJMP    ??Subroutine93_0 & 0xFFFF
    944          
    945          /******************************************************************************
    946           * @fn          ZDSecMgrCtrlSet
    947           *
    948           * @brief       Set control data.
    949           *
    950           * @param       device - [in] valid device data
    951           * @param       entry  - [in] valid entry data
    952           * @param       ctrl   - [in] valid control data
    953           *
    954           * @return      none
    955           */

   \                                 In  segment BANKED_CODE, align 1, keep-with-next
    956          void ZDSecMgrCtrlSet( ZDSecMgrDevice_t* device,
   \                     ZDSecMgrCtrlSet:
    957                                ZDSecMgrEntry_t*  entry,
    958                                ZDSecMgrCtrl_t*   ctrl )
    959          {
   \   000000   74F7         MOV     A,#-0x9
   \   000002   12....       LCALL   ?BANKED_ENTER_XDATA
   \   000005                ; Saved register size: 9
   \   000005                ; Auto size: 0
   \   000005   7409         MOV     A,#0x9
   \   000007   12....       LCALL   ?XSTACK_DISP0_8
   \   00000A   12....       LCALL   ??Subroutine103_0 & 0xFFFF
    960            // set control date
    961            ctrl->parentAddr = device->parentAddr;
   \                     ??CrossCallReturnLabel_154:
   \   00000D   8A82         MOV     DPL,R2
   \   00000F   8B83         MOV     DPH,R3
   \   000011   A3           INC     DPTR
   \   000012   A3           INC     DPTR
   \   000013   A3           INC     DPTR
   \   000014   A3           INC     DPTR
   \   000015   E0           MOVX    A,@DPTR
   \   000016   FE           MOV     R6,A
   \   000017   A3           INC     DPTR
   \   000018   E0           MOVX    A,@DPTR
   \   000019   FF           MOV     R7,A
   \   00001A   8882         MOV     DPL,R0
   \   00001C   8983         MOV     DPH,R1
   \   00001E   A3           INC     DPTR
   \   00001F   A3           INC     DPTR
   \   000020   EE           MOV     A,R6
   \   000021   F0           MOVX    @DPTR,A
   \   000022   A3           INC     DPTR
   \   000023   EF           MOV     A,R7
   \   000024   12....       LCALL   ?Subroutine11 & 0xFFFF
    962            ctrl->secure     = device->secure;
   \                     ??CrossCallReturnLabel_115:
   \   000027   E0           MOVX    A,@DPTR
   \   000028   8882         MOV     DPL,R0
   \   00002A   8983         MOV     DPH,R1
   \   00002C   A3           INC     DPTR
   \   00002D   A3           INC     DPTR
   \   00002E   A3           INC     DPTR
   \   00002F   A3           INC     DPTR
   \   000030   F0           MOVX    @DPTR,A
    963            ctrl->entry      = entry;
   \   000031   8882         MOV     DPL,R0
   \   000033   8983         MOV     DPH,R1
   \   000035   EC           MOV     A,R4
   \   000036   F0           MOVX    @DPTR,A
   \   000037   A3           INC     DPTR
   \   000038   ED           MOV     A,R5
   \   000039   F0           MOVX    @DPTR,A
    964            ctrl->state      = ZDSECMGR_CTRL_INIT;
   \   00003A   7401         MOV     A,#0x1
   \   00003C   8882         MOV     DPL,R0
   \   00003E   8983         MOV     DPH,R1
   \   000040   A3           INC     DPTR
   \   000041   A3           INC     DPTR
   \   000042   A3           INC     DPTR
   \   000043   A3           INC     DPTR
   \   000044   A3           INC     DPTR
   \   000045   F0           MOVX    @DPTR,A
    965            ctrl->cntr       = 0;
   \   000046   E4           CLR     A
   \   000047   8882         MOV     DPL,R0
   \   000049   8983         MOV     DPH,R1
   \   00004B   A3           INC     DPTR
   \   00004C   A3           INC     DPTR
   \   00004D   A3           INC     DPTR
   \   00004E   A3           INC     DPTR
   \   00004F   A3           INC     DPTR
   \   000050   A3           INC     DPTR
   \   000051   12....       LCALL   ?Subroutine11 & 0xFFFF
    966          
    967            // set device pointer
    968            device->ctrl = ctrl;
   \                     ??CrossCallReturnLabel_116:
   \   000054   A3           INC     DPTR
   \   000055   A3           INC     DPTR
   \   000056   12....       LCALL   ??Subroutine105_0 & 0xFFFF
    969          }
   \                     ??CrossCallReturnLabel_165:
   \   000059   02....       LJMP    ??Subroutine97_0 & 0xFFFF

   \                                 In  segment BANKED_CODE, align 1, keep-with-next
   \                     ?Subroutine11:
   \   000000   F0           MOVX    @DPTR,A
   \   000001   8A82         MOV     DPL,R2
   \   000003   8B83         MOV     DPH,R3
   \   000005   A3           INC     DPTR
   \   000006                REQUIRE ?Subroutine75
   \   000006                ; // Fall through to label ?Subroutine75

   \                                 In  segment BANKED_CODE, align 1, keep-with-next
   \                     ?Subroutine75:
   \   000000   A3           INC     DPTR
   \   000001   A3           INC     DPTR
   \   000002   A3           INC     DPTR
   \   000003   A3           INC     DPTR
   \   000004   A3           INC     DPTR
   \   000005   22           RET

   \                                 In  segment BANKED_CODE, align 1, keep-with-next
   \                     ??Subroutine103_0:
   \   000000   12....       LCALL   ??Subroutine106_0 & 0xFFFF
   \                     ??CrossCallReturnLabel_191:
   \   000003   22           RET
    970          
    971          /******************************************************************************
    972           * @fn          ZDSecMgrCtrlAdd
    973           *
    974           * @brief       Add control data.
    975           *
    976           * @param       device - [in] valid device data
    977           * @param       entry  - [in] valid entry data
    978           *
    979           * @return      ZStatus_t
    980           */

   \                                 In  segment BANKED_CODE, align 1, keep-with-next
    981          ZStatus_t ZDSecMgrCtrlAdd( ZDSecMgrDevice_t* device, ZDSecMgrEntry_t*  entry )
   \                     ZDSecMgrCtrlAdd:
    982          {
   \   000000   74F4         MOV     A,#-0xc
   \   000002   12....       LCALL   ?BANKED_ENTER_XDATA
   \   000005                ; Saved register size: 12
   \   000005                ; Auto size: 0
   \   000005   EA           MOV     A,R2
   \   000006   FE           MOV     R6,A
   \   000007   EB           MOV     A,R3
   \   000008   FF           MOV     R7,A
   \   000009   8C..         MOV     ?V0 + 0,R4
   \   00000B   8D..         MOV     ?V0 + 1,R5
    983            ZStatus_t status;
    984            uint16    index;
    985          
    986          
    987            // initialize results
    988            status = ZNwkUnknownDevice;
   \   00000D   79C8         MOV     R1,#-0x38
    989          
    990            // verify data is available
    991            if ( ZDSecMgrCtrlData != NULL )
   \   00000F   90....       MOV     DPTR,#ZDSecMgrCtrlData
   \   000012   E0           MOVX    A,@DPTR
   \   000013   7002         JNZ     ??ZDSecMgrCtrlAdd_0
   \   000015   A3           INC     DPTR
   \   000016   E0           MOVX    A,@DPTR
   \                     ??ZDSecMgrCtrlAdd_0:
   \   000017   6050         JZ      ??ZDSecMgrCtrlAdd_1
    992            {
    993              // look for an empty slot
    994              for ( index = 0; index < ZDSECMGR_CTRL_MAX; index++ )
   \   000019   7A00         MOV     R2,#0x0
   \   00001B   7B00         MOV     R3,#0x0
    995              {
    996                if ( ZDSecMgrCtrlData[index].state == ZDSECMGR_CTRL_NONE )
   \                     ??ZDSecMgrCtrlAdd_2:
   \   00001D   EA           MOV     A,R2
   \   00001E   FC           MOV     R4,A
   \   00001F   EB           MOV     A,R3
   \   000020   FD           MOV     R5,A
   \   000021   EC           MOV     A,R4
   \   000022   75F007       MOV     B,#0x7
   \   000025   A4           MUL     AB
   \   000026   FC           MOV     R4,A
   \   000027   A8F0         MOV     R0,B
   \   000029   75F007       MOV     B,#0x7
   \   00002C   ED           MOV     A,R5
   \   00002D   A4           MUL     AB
   \   00002E   28           ADD     A,R0
   \   00002F   FD           MOV     R5,A
   \   000030   90....       MOV     DPTR,#ZDSecMgrCtrlData
   \   000033   E0           MOVX    A,@DPTR
   \   000034   2C           ADD     A,R4
   \   000035   F5..         MOV     ?V0 + 2,A
   \   000037   A3           INC     DPTR
   \   000038   E0           MOVX    A,@DPTR
   \   000039   3D           ADDC    A,R5
   \   00003A   F5..         MOV     ?V0 + 3,A
   \   00003C   85..82       MOV     DPL,?V0 + 2
   \   00003F   F583         MOV     DPH,A
   \   000041   A3           INC     DPTR
   \   000042   A3           INC     DPTR
   \   000043   A3           INC     DPTR
   \   000044   A3           INC     DPTR
   \   000045   A3           INC     DPTR
   \   000046   E0           MOVX    A,@DPTR
   \   000047   701B         JNZ     ??ZDSecMgrCtrlAdd_3
    997                {
    998                  // return successful results
    999                  ZDSecMgrCtrlSet( device, entry, &ZDSecMgrCtrlData[index] );
   \   000049                ; Setup parameters for call to function ZDSecMgrCtrlSet
   \   000049   78..         MOV     R0,#?V0 + 2
   \   00004B   12....       LCALL   ?PUSH_XSTACK_I_TWO
   \   00004E   AC..         MOV     R4,?V0 + 0
   \   000050   AD..         MOV     R5,?V0 + 1
   \   000052   EE           MOV     A,R6
   \   000053   FA           MOV     R2,A
   \   000054   EF           MOV     A,R7
   \   000055   FB           MOV     R3,A
   \   000056   12....       LCALL   ??ZDSecMgrCtrlSet?relay
   \   000059   7402         MOV     A,#0x2
   \   00005B   12....       LCALL   ?DEALLOC_XSTACK8
   1000          
   1001                  status = ZSuccess;
   \   00005E   7900         MOV     R1,#0x0
   1002          
   1003                  // break from loop
   1004                  index = ZDSECMGR_CTRL_MAX;
   \   000060   7A03         MOV     R2,#0x3
   \   000062   7B00         MOV     R3,#0x0
   1005                }
   1006              }
   \                     ??ZDSecMgrCtrlAdd_3:
   \   000064   12....       LCALL   ?Subroutine48 & 0xFFFF
   1007            }
   \                     ??CrossCallReturnLabel_82:
   \   000067   40B4         JC      ??ZDSecMgrCtrlAdd_2
   1008          
   1009            return status;
   \                     ??ZDSecMgrCtrlAdd_1:
   \   000069   02....       LJMP    ??Subroutine102_0 & 0xFFFF
   1010          }

   \                                 In  segment BANKED_CODE, align 1, keep-with-next
   \                     ??Subroutine102_0:
   \   000000   7F04         MOV     R7,#0x4
   \   000002   02....       LJMP    ?BANKED_LEAVE_XDATA
   1011          
   1012          /******************************************************************************
   1013           * @fn          ZDSecMgrCtrlTerm
   1014           *
   1015           * @brief       Terminate device control.
   1016           *
   1017           * @param       entry - [in] valid entry data
   1018           *
   1019           * @return      none
   1020           */

   \                                 In  segment BANKED_CODE, align 1, keep-with-next
   1021          void ZDSecMgrCtrlTerm( ZDSecMgrEntry_t* entry )
   \                     ZDSecMgrCtrlTerm:
   1022          {
   \   000000   C082         PUSH    DPL
   \   000002   C083         PUSH    DPH
   \   000004                ; Saved register size: 2
   \   000004                ; Auto size: 2
   \   000004   74FE         MOV     A,#-0x2
   \   000006   12....       LCALL   ?ALLOC_XSTACK8
   1023            ZDSecMgrCtrl_t* ctrl;
   1024          
   1025            // remove device from control data
   1026            ZDSecMgrCtrlLookup ( entry, &ctrl );
   \   000009                ; Setup parameters for call to function ZDSecMgrCtrlLookup
   \   000009   85..82       MOV     DPL,?XSP + 0
   \   00000C   85..83       MOV     DPH,?XSP + 1
   \   00000F   AC82         MOV     R4,DPL
   \   000011   AD83         MOV     R5,DPH
   \   000013   12....       LCALL   ?Subroutine54 & 0xFFFF
   1027          
   1028            if ( ctrl != NULL )
   \                     ??CrossCallReturnLabel_89:
   \   000016   7002         JNZ     ??ZDSecMgrCtrlTerm_0
   \   000018   A3           INC     DPTR
   \   000019   E0           MOVX    A,@DPTR
   \                     ??ZDSecMgrCtrlTerm_0:
   \   00001A   6009         JZ      ??CrossCallReturnLabel_40
   1029            {
   1030              ZDSecMgrCtrlRelease ( ctrl );
   \   00001C   85..82       MOV     DPL,?XSP + 0
   \   00001F   85..83       MOV     DPH,?XSP + 1
   \   000022   12....       LCALL   ?Subroutine26 & 0xFFFF
   1031            }
   1032          }
   \                     ??CrossCallReturnLabel_40:
   \   000025   7402         MOV     A,#0x2
   \   000027   80..         SJMP    ??Subroutine88_0

   \                                 In  segment BANKED_CODE, align 1, keep-with-next
   \                     ??Subroutine88_0:
   \   000000   12....       LCALL   ?DEALLOC_XSTACK8
   \   000003   02....       LJMP    ??Subroutine100_0 & 0xFFFF

   \                                 In  segment BANKED_CODE, align 1, keep-with-next
   \                     ?Subroutine54:
   \   000000   12....       LCALL   ??ZDSecMgrCtrlLookup?relay
   \   000003   85..82       MOV     DPL,?XSP + 0
   \   000006   85..83       MOV     DPH,?XSP + 1
   \   000009   E0           MOVX    A,@DPTR
   \   00000A   22           RET
   1033          
   1034          /******************************************************************************
   1035           * @fn          ZDSecMgrCtrlReset
   1036           *
   1037           * @brief       Reset control data.
   1038           *
   1039           * @param       device - [in] valid device data
   1040           * @param       entry  - [in] valid entry data
   1041           *
   1042           * @return      ZStatus_t
   1043           */

   \                                 In  segment BANKED_CODE, align 1, keep-with-next
   1044          ZStatus_t ZDSecMgrCtrlReset( ZDSecMgrDevice_t* device, ZDSecMgrEntry_t* entry )
   \                     ZDSecMgrCtrlReset:
   1045          {
   \   000000   74F6         MOV     A,#-0xa
   \   000002   12....       LCALL   ?BANKED_ENTER_XDATA
   \   000005                ; Saved register size: 10
   \   000005                ; Auto size: 2
   \   000005   74FE         MOV     A,#-0x2
   \   000007   12....       LCALL   ?ALLOC_XSTACK8
   \   00000A   8A..         MOV     ?V0 + 0,R2
   \   00000C   8B..         MOV     ?V0 + 1,R3
   \   00000E   EC           MOV     A,R4
   \   00000F   FE           MOV     R6,A
   \   000010   ED           MOV     A,R5
   \   000011   FF           MOV     R7,A
   1046            ZStatus_t       status;
   1047            ZDSecMgrCtrl_t* ctrl;
   1048          
   1049          
   1050            // initialize results
   1051            status = ZNwkUnknownDevice;
   1052          
   1053            // look for a match for the entry
   1054            ZDSecMgrCtrlLookup( entry, &ctrl );
   \   000012                ; Setup parameters for call to function ZDSecMgrCtrlLookup
   \   000012   85..82       MOV     DPL,?XSP + 0
   \   000015   85..83       MOV     DPH,?XSP + 1
   \   000018   AC82         MOV     R4,DPL
   \   00001A   AD83         MOV     R5,DPH
   \   00001C   EE           MOV     A,R6
   \   00001D   FA           MOV     R2,A
   \   00001E   EF           MOV     A,R7
   \   00001F   FB           MOV     R3,A
   \   000020   12....       LCALL   ?Subroutine54 & 0xFFFF
   1055          
   1056            if ( ctrl != NULL )
   \                     ??CrossCallReturnLabel_90:
   \   000023   7002         JNZ     ??ZDSecMgrCtrlReset_0
   \   000025   A3           INC     DPTR
   \   000026   E0           MOVX    A,@DPTR
   \                     ??ZDSecMgrCtrlReset_0:
   \   000027   601D         JZ      ??ZDSecMgrCtrlReset_1
   1057            {
   1058              ZDSecMgrCtrlSet( device, entry, ctrl );
   \   000029                ; Setup parameters for call to function ZDSecMgrCtrlSet
   \   000029   85..82       MOV     DPL,?XSP + 0
   \   00002C   85..83       MOV     DPH,?XSP + 1
   \   00002F   12....       LCALL   ?PUSH_XSTACK8_X_TWO
   \   000032   EE           MOV     A,R6
   \   000033   FC           MOV     R4,A
   \   000034   EF           MOV     A,R7
   \   000035   FD           MOV     R5,A
   \   000036   AA..         MOV     R2,?V0 + 0
   \   000038   AB..         MOV     R3,?V0 + 1
   \   00003A   12....       LCALL   ??ZDSecMgrCtrlSet?relay
   \   00003D   7402         MOV     A,#0x2
   \   00003F   12....       LCALL   ?DEALLOC_XSTACK8
   1059          
   1060              status = ZSuccess;
   \   000042   7900         MOV     R1,#0x0
   \   000044   800B         SJMP    ??ZDSecMgrCtrlReset_2
   1061            }
   1062            else
   1063            {
   1064              status = ZDSecMgrCtrlAdd( device, entry );
   \                     ??ZDSecMgrCtrlReset_1:
   \   000046                ; Setup parameters for call to function ZDSecMgrCtrlAdd
   \   000046   EE           MOV     A,R6
   \   000047   FC           MOV     R4,A
   \   000048   EF           MOV     A,R7
   \   000049   FD           MOV     R5,A
   \   00004A   AA..         MOV     R2,?V0 + 0
   \   00004C   AB..         MOV     R3,?V0 + 1
   \   00004E   12....       LCALL   ??ZDSecMgrCtrlAdd?relay
   1065            }
   1066          
   1067            return status;
   \                     ??ZDSecMgrCtrlReset_2:
   \   000051                REQUIRE ?Subroutine84
   \   000051                ; // Fall through to label ?Subroutine84
   1068          }

   \                                 In  segment BANKED_CODE, align 1, keep-with-next
   \                     ?Subroutine84:
   \   000000   7402         MOV     A,#0x2
   \   000002   02....       LJMP    ??Subroutine92_0 & 0xFFFF
   1069          
   1070          /******************************************************************************
   1071           * @fn          ZDSecMgrMasterKeyLoad
   1072           *
   1073           * @brief       Load the MASTER key for device with specified EXT
   1074           *              address.
   1075           *
   1076           * @param       extAddr - [in] EXT address of device
   1077           * @param       key     - [in] MASTER key shared with device
   1078           *
   1079           * @return      ZStatus_t
   1080           */

   \                                 In  segment BANKED_CODE, align 1, keep-with-next
   1081          ZStatus_t ZDSecMgrMasterKeyLoad( uint8* extAddr, uint8* key )
   \                     ZDSecMgrMasterKeyLoad:
   1082          {
   \   000000   74F4         MOV     A,#-0xc
   \   000002   12....       LCALL   ?BANKED_ENTER_XDATA
   \   000005                ; Saved register size: 12
   \   000005                ; Auto size: 4
   \   000005   74FC         MOV     A,#-0x4
   \   000007   12....       LCALL   ?ALLOC_XSTACK8
   \   00000A   EC           MOV     A,R4
   \   00000B   FE           MOV     R6,A
   \   00000C   ED           MOV     A,R5
   \   00000D   FF           MOV     R7,A
   1083            ZStatus_t status;
   1084            uint8*    loaded;
   1085            uint16    ami;
   1086          
   1087          
   1088            // set status based on policy
   1089            status = ZDSecMgrExtAddrLookup( extAddr, &ami );
   \   00000E                ; Setup parameters for call to function ZDSecMgrExtAddrLookup
   \   00000E   85..82       MOV     DPL,?XSP + 0
   \   000011   85..83       MOV     DPH,?XSP + 1
   \   000014   AC82         MOV     R4,DPL
   \   000016   AD83         MOV     R5,DPH
   \   000018   12....       LCALL   ??ZDSecMgrExtAddrLookup?relay
   \   00001B   E9           MOV     A,R1
   \   00001C   F5..         MOV     ?V0 + 3,A
   1090          
   1091            if ( status == ZSuccess )
   \   00001E   7031         JNZ     ??ZDSecMgrMasterKeyLoad_0
   1092            {
   1093              // get the address index
   1094              if ( ZDSecMgrMasterKeyLookup( ami, &loaded ) == ZSuccess )
   \   000020                ; Setup parameters for call to function ZDSecMgrMasterKeyLookup
   \   000020   7402         MOV     A,#0x2
   \   000022   12....       LCALL   ?XSTACK_DISP0_8
   \   000025   12....       LCALL   ?Subroutine25 & 0xFFFF
   \                     ??CrossCallReturnLabel_37:
   \   000028   701D         JNZ     ??ZDSecMgrMasterKeyLoad_1
   1095              {
   1096                // overwrite old key
   1097                osal_memcpy( loaded, key, SEC_KEY_LEN );
   \   00002A                ; Setup parameters for call to function osal_memcpy
   \   00002A   8E..         MOV     ?V0 + 0,R6
   \   00002C   8F..         MOV     ?V0 + 1,R7
   \   00002E   75..00       MOV     ?V0 + 2,#0x0
   \   000031   78..         MOV     R0,#?V0 + 0
   \   000033   12....       LCALL   ?PUSH_XSTACK_I_THREE
   \   000036   7C10         MOV     R4,#0x10
   \   000038   7D00         MOV     R5,#0x0
   \   00003A   7405         MOV     A,#0x5
   \   00003C   12....       LCALL   ?XSTACK_DISP0_8
   \   00003F   12....       LCALL   ??Subroutine113_0 & 0xFFFF
   1098              }
   \                     ??CrossCallReturnLabel_237:
   \   000042   12....       LCALL   ?DEALLOC_XSTACK8
   \   000045   800A         SJMP    ??ZDSecMgrMasterKeyLoad_0
   1099              else
   1100              {
   1101                // store new key -- NULL will zero key
   1102                status = ZDSecMgrMasterKeyStore( ami, key );
   \                     ??ZDSecMgrMasterKeyLoad_1:
   \   000047                ; Setup parameters for call to function ZDSecMgrMasterKeyStore
   \   000047   EE           MOV     A,R6
   \   000048   FC           MOV     R4,A
   \   000049   EF           MOV     A,R7
   \   00004A   FD           MOV     R5,A
   \   00004B   12....       LCALL   ?Subroutine40 & 0xFFFF
   1103              }
   1104            }
   \                     ??CrossCallReturnLabel_65:
   \   00004E   E9           MOV     A,R1
   \   00004F   F5..         MOV     ?V0 + 3,A
   1105          
   1106            return status;
   \                     ??ZDSecMgrMasterKeyLoad_0:
   \   000051   A9..         MOV     R1,?V0 + 3
   \   000053   02....       LJMP    ?Subroutine79 & 0xFFFF
   1107          }

   \                                 In  segment BANKED_CODE, align 1, keep-with-next
   \                     ?Subroutine25:
   \   000000   AC82         MOV     R4,DPL
   \   000002   AD83         MOV     R5,DPH
   \   000004   85..82       MOV     DPL,?XSP + 0
   \   000007   85..83       MOV     DPH,?XSP + 1
   \   00000A   12....       LCALL   ?Subroutine61 & 0xFFFF
   \                     ??CrossCallReturnLabel_102:
   \   00000D   E9           MOV     A,R1
   \   00000E   22           RET

   \                                 In  segment BANKED_CODE, align 1, keep-with-next
   \                     ?Subroutine79:
   \   000000   7404         MOV     A,#0x4
   \   000002                REQUIRE ??Subroutine101_0
   \   000002                ; // Fall through to label ??Subroutine101_0

   \                                 In  segment BANKED_CODE, align 1, keep-with-next
   \                     ??Subroutine101_0:
   \   000000   12....       LCALL   ?DEALLOC_XSTACK8
   \   000003                REQUIRE ??Subroutine102_0
   \   000003                ; // Fall through to label ??Subroutine102_0

   \                                 In  segment BANKED_CODE, align 1, keep-with-next
   \                     ?Subroutine40:
   \   000000   12....       LCALL   ?Subroutine62 & 0xFFFF
   \                     ??CrossCallReturnLabel_245:
   \   000003   12....       LCALL   ??ZDSecMgrMasterKeyStore?relay
   \   000006   22           RET

   \                                 In  segment BANKED_CODE, align 1, keep-with-next
   \                     ?Subroutine61:
   \   000000   E0           MOVX    A,@DPTR
   \   000001   FA           MOV     R2,A
   \   000002   A3           INC     DPTR
   \   000003   E0           MOVX    A,@DPTR
   \   000004   FB           MOV     R3,A
   \   000005   12....       LCALL   ??ZDSecMgrMasterKeyLookup?relay
   \   000008   22           RET

   \                                 In  segment BANKED_CODE, align 1, keep-with-next
   \                     ?Subroutine62:
   \   000000   85..82       MOV     DPL,?XSP + 0
   \   000003   85..83       MOV     DPH,?XSP + 1
   \   000006                REQUIRE ??Subroutine112_0
   \   000006                ; // Fall through to label ??Subroutine112_0

   \                                 In  segment BANKED_CODE, align 1, keep-with-next
   \                     ??Subroutine113_0:
   \   000000   12....       LCALL   ??Subroutine112_0 & 0xFFFF
   \                     ??CrossCallReturnLabel_248:
   \   000003   12....       LCALL   ?Subroutine70 & 0xFFFF
   \                     ??CrossCallReturnLabel_241:
   \   000006   22           RET
   1108          
   1109          /******************************************************************************
   1110           * @fn          ZDSecMgrAppKeyGet
   1111           *
   1112           * @brief       get an APP key - option APP(MASTER or LINK) key
   1113           *
   1114           * @param       initNwkAddr - [in] NWK address of initiator device
   1115           * @param       initExtAddr - [in] EXT address of initiator device
   1116           * @param       partNwkAddr - [in] NWK address of partner device
   1117           * @param       partExtAddr - [in] EXT address of partner device
   1118           * @param       key         - [out] APP(MASTER or LINK) key
   1119           * @param       keyType     - [out] APP(MASTER or LINK) key type
   1120           *
   1121           * @return      ZStatus_t
   1122           */

   \                                 In  segment XDATA_I, align 1, keep-with-next
   1123          uint8 ZDSecMgrAppKeyType = KEY_TYPE_APP_LINK;    // Set the default key type
   \                     ZDSecMgrAppKeyType:
   \   000000                DS 1
   \   000001                REQUIRE `?<Initializer for ZDSecMgrAppKeyType>`
   \   000001                REQUIRE __INIT_XDATA_I
   1124                                                           // to KEY_TYPE_APP_LINK since
   1125                                                           // only specific requirement
   1126                                                           // right now comes from SE profile
   1127          

   \                                 In  segment BANKED_CODE, align 1, keep-with-next
   1128          ZStatus_t ZDSecMgrAppKeyGet( uint16  initNwkAddr,
   \                     ZDSecMgrAppKeyGet:
   1129                                       uint8*  initExtAddr,
   1130                                       uint16  partNwkAddr,
   1131                                       uint8*  partExtAddr,
   1132                                       uint8** key,
   1133                                       uint8*  keyType )
   1134          {
   \   000000   74F7         MOV     A,#-0x9
   \   000002   12....       LCALL   ?BANKED_ENTER_XDATA
   \   000005                ; Saved register size: 9
   \   000005                ; Auto size: 0
   \   000005   740D         MOV     A,#0xd
   \   000007   12....       LCALL   ?XSTACK_DISP0_8
   \   00000A   12....       LCALL   ?Subroutine38 & 0xFFFF
   \                     ??CrossCallReturnLabel_62:
   \   00000D   FA           MOV     R2,A
   \   00000E   E9           MOV     A,R1
   \   00000F   FB           MOV     R3,A
   \   000010   740F         MOV     A,#0xf
   \   000012   12....       LCALL   ?XSTACK_DISP0_8
   \   000015   12....       LCALL   ?Subroutine38 & 0xFFFF
   \                     ??CrossCallReturnLabel_63:
   \   000018   FE           MOV     R6,A
   \   000019   E9           MOV     A,R1
   \   00001A   FF           MOV     R7,A
   1135            // Intentionally unreferenced parameters
   1136            (void)initNwkAddr;
   1137            (void)initExtAddr;
   1138            (void)partNwkAddr;
   1139            (void)partExtAddr;
   1140            
   1141            //---------------------------------------------------------------------------
   1142            // note:
   1143            // should use a robust mechanism to generate keys, for example
   1144            // combine EXT addresses and call a hash function
   1145            //---------------------------------------------------------------------------
   1146            SSP_GetTrueRand( SEC_KEY_LEN, *key );
   \   00001B                ; Setup parameters for call to function SSP_GetTrueRand
   \   00001B   12....       LCALL   ?Subroutine44 & 0xFFFF
   \                     ??CrossCallReturnLabel_147:
   \   00001E   7910         MOV     R1,#0x10
   \   000020   12....       LCALL   ??SSP_GetTrueRand?relay
   1147          
   1148            *keyType = ZDSecMgrAppKeyType;
   \   000023   90....       MOV     DPTR,#ZDSecMgrAppKeyType
   \   000026   E0           MOVX    A,@DPTR
   \   000027   8E82         MOV     DPL,R6
   \   000029   8F83         MOV     DPH,R7
   \   00002B   F0           MOVX    @DPTR,A
   1149          
   1150            return ZSuccess;
   \   00002C   7900         MOV     R1,#0x0
   \   00002E   02....       LJMP    ??Subroutine97_0 & 0xFFFF
   1151          }

   \                                 In  segment BANKED_CODE, align 1, keep-with-next
   \                     ?Subroutine38:
   \   000000   12....       LCALL   ??Subroutine106_0 & 0xFFFF
   \                     ??CrossCallReturnLabel_187:
   \   000003   E8           MOV     A,R0
   \   000004   22           RET

   \                                 In  segment BANKED_CODE, align 1, keep-with-next
   \                     ?Subroutine44:
   \   000000   8A82         MOV     DPL,R2
   \   000002   8B83         MOV     DPH,R3
   \   000004                REQUIRE ??Subroutine98_0
   \   000004                ; // Fall through to label ??Subroutine98_0

   \                                 In  segment BANKED_CODE, align 1, keep-with-next
   \                     ??Subroutine98_0:
   \   000000   12....       LCALL   ??Subroutine112_0 & 0xFFFF
   \                     ??CrossCallReturnLabel_247:
   \   000003   22           RET
   1152          
   1153          /******************************************************************************
   1154           * @fn          ZDSecMgrAppKeyReq
   1155           *
   1156           * @brief       Process request for APP key between two devices.
   1157           *
   1158           * @param       device - [in] ZDO_RequestKeyInd_t, request info
   1159           *
   1160           * @return      none
   1161           */

   \                                 In  segment BANKED_CODE, align 1, keep-with-next
   1162          void ZDSecMgrAppKeyReq( ZDO_RequestKeyInd_t* ind )
   \                     ZDSecMgrAppKeyReq:
   1163          {
   \   000000   74F6         MOV     A,#-0xa
   \   000002   12....       LCALL   ?BANKED_ENTER_XDATA
   \   000005                ; Saved register size: 10
   \   000005                ; Auto size: 39
   \   000005   74D9         MOV     A,#-0x27
   \   000007   12....       LCALL   ?ALLOC_XSTACK8
   \   00000A   8A..         MOV     ?V0 + 0,R2
   \   00000C   8B..         MOV     ?V0 + 1,R3
   1164            APSME_TransportKeyReq_t req;
   1165            uint8                   initExtAddr[Z_EXTADDR_LEN];
   1166            uint16                  partNwkAddr;
   1167            uint8                   key[SEC_KEY_LEN];
   1168          
   1169          
   1170            // validate initiator and partner
   1171            if ( ( APSME_LookupNwkAddr( ind->partExtAddr, &partNwkAddr ) == TRUE ) &&
   1172                 ( APSME_LookupExtAddr( ind->srcAddr, initExtAddr ) == TRUE      )   )
   \   00000E   EA           MOV     A,R2
   \   00000F   2405         ADD     A,#0x5
   \   000011   12....       LCALL   ?Subroutine47 & 0xFFFF
   \                     ??CrossCallReturnLabel_79:
   \   000014   6003         JZ      $+5
   \   000016   02....       LJMP    ??ZDSecMgrAppKeyReq_0 & 0xFFFF
   \   000019   E5..         MOV     A,?V0 + 0
   \   00001B   2402         ADD     A,#0x2
   \   00001D   F8           MOV     R0,A
   \   00001E   E5..         MOV     A,?V0 + 1
   \   000020   12....       LCALL   ??Subroutine91_0 & 0xFFFF
   \                     ??CrossCallReturnLabel_135:
   \   000023                ; Setup parameters for call to function APSME_LookupExtAddr
   \   000023   740F         MOV     A,#0xf
   \   000025   12....       LCALL   ?XSTACK_DISP0_8
   \   000028   AC82         MOV     R4,DPL
   \   00002A   AD83         MOV     R5,DPH
   \   00002C   8882         MOV     DPL,R0
   \   00002E   8983         MOV     DPH,R1
   \   000030   12....       LCALL   ??Subroutine98_0 & 0xFFFF
   \                     ??CrossCallReturnLabel_141:
   \   000033   12....       LCALL   ??APSME_LookupExtAddr?relay
   \   000036   E9           MOV     A,R1
   \   000037   6401         XRL     A,#0x1
   \   000039   6003         JZ      $+5
   \   00003B   02....       LJMP    ??ZDSecMgrAppKeyReq_0 & 0xFFFF
   1173            {
   1174              // point the key to some memory
   1175              req.key = key;
   \   00003E   7417         MOV     A,#0x17
   \   000040   12....       LCALL   ?XSTACK_DISP0_8
   \   000043   A882         MOV     R0,DPL
   \   000045   A983         MOV     R1,DPH
   \   000047   7406         MOV     A,#0x6
   \   000049   12....       LCALL   ?XSTACK_DISP0_8
   \   00004C   12....       LCALL   ??Subroutine105_0 & 0xFFFF
   1176          
   1177              // get an APP key - option APP (MASTER or LINK) key
   1178              if ( ZDSecMgrAppKeyGet( ind->srcAddr,
   1179                                      initExtAddr,
   1180                                      partNwkAddr,
   1181                                      ind->partExtAddr,
   1182                                      &req.key,
   1183                                      &req.keyType ) == ZSuccess )
   \                     ??CrossCallReturnLabel_166:
   \   00004F                ; Setup parameters for call to function SSP_GetTrueRand
   \   00004F   7417         MOV     A,#0x17
   \   000051   12....       LCALL   ?XSTACK_DISP0_8
   \   000054   AA82         MOV     R2,DPL
   \   000056   AB83         MOV     R3,DPH
   \   000058   7910         MOV     R1,#0x10
   \   00005A   12....       LCALL   ??SSP_GetTrueRand?relay
   \   00005D   90....       MOV     DPTR,#ZDSecMgrAppKeyType
   \   000060   E0           MOVX    A,@DPTR
   \   000061   C0E0         PUSH    A
   \   000063   7404         MOV     A,#0x4
   \   000065   12....       LCALL   ?XSTACK_DISP0_8
   \   000068   D0E0         POP     A
   \   00006A   F0           MOVX    @DPTR,A
   1184              {
   1185                // always secure
   1186                req.nwkSecure = TRUE;
   \   00006B   740C         MOV     A,#0xc
   \   00006D   12....       LCALL   ?XSTACK_DISP0_8
   \   000070   7401         MOV     A,#0x1
   \   000072   F0           MOVX    @DPTR,A
   1187                req.apsSecure = TRUE;
   \   000073   740B         MOV     A,#0xb
   \   000075   12....       LCALL   ?XSTACK_DISP0_8
   \   000078   7401         MOV     A,#0x1
   \   00007A   F0           MOVX    @DPTR,A
   1188                req.tunnel    = NULL;
   \   00007B   740D         MOV     A,#0xd
   \   00007D   12....       LCALL   ?XSTACK_DISP0_8
   \   000080   E4           CLR     A
   \   000081   F0           MOVX    @DPTR,A
   \   000082   A3           INC     DPTR
   \   000083   12....       LCALL   ?Subroutine7 & 0xFFFF
   1189          
   1190                // send key to initiator device
   1191                req.dstAddr   = ind->srcAddr;
   \                     ??CrossCallReturnLabel_10:
   \   000086   F8           MOV     R0,A
   \   000087   A3           INC     DPTR
   \   000088   E0           MOVX    A,@DPTR
   \   000089   F9           MOV     R1,A
   \   00008A   7402         MOV     A,#0x2
   \   00008C   12....       LCALL   ?XSTACK_DISP0_8
   \   00008F   12....       LCALL   ??Subroutine105_0 & 0xFFFF
   1192                req.extAddr   = ind->partExtAddr;
   \                     ??CrossCallReturnLabel_167:
   \   000092   7408         MOV     A,#0x8
   \   000094   12....       LCALL   ?XSTACK_DISP0_8
   \   000097   EE           MOV     A,R6
   \   000098   F0           MOVX    @DPTR,A
   \   000099   A3           INC     DPTR
   \   00009A   EF           MOV     A,R7
   \   00009B   F0           MOVX    @DPTR,A
   1193                req.initiator = TRUE;
   \   00009C   740A         MOV     A,#0xa
   \   00009E   12....       LCALL   ?XSTACK_DISP0_8
   \   0000A1   7401         MOV     A,#0x1
   \   0000A3   F0           MOVX    @DPTR,A
   1194                APSME_TransportKeyReq( &req );
   \   0000A4                ; Setup parameters for call to function APSME_TransportKeyReq
   \   0000A4   7402         MOV     A,#0x2
   \   0000A6   12....       LCALL   ?XSTACK_DISP0_8
   \   0000A9   AA82         MOV     R2,DPL
   \   0000AB   AB83         MOV     R3,DPH
   \   0000AD   12....       LCALL   ??APSME_TransportKeyReq?relay
   1195          
   1196                // send key to partner device
   1197                req.dstAddr   = partNwkAddr;
   \   0000B0   85..82       MOV     DPL,?XSP + 0
   \   0000B3   85..83       MOV     DPH,?XSP + 1
   \   0000B6   12....       LCALL   ?Subroutine31 & 0xFFFF
   \                     ??CrossCallReturnLabel_51:
   \   0000B9   12....       LCALL   ?XSTACK_DISP0_8
   \   0000BC   12....       LCALL   ??Subroutine105_0 & 0xFFFF
   1198                req.extAddr   = initExtAddr;
   \                     ??CrossCallReturnLabel_168:
   \   0000BF   740F         MOV     A,#0xf
   \   0000C1   12....       LCALL   ?XSTACK_DISP0_8
   \   0000C4   A882         MOV     R0,DPL
   \   0000C6   A983         MOV     R1,DPH
   \   0000C8   7408         MOV     A,#0x8
   \   0000CA   12....       LCALL   ?XSTACK_DISP0_8
   \   0000CD   12....       LCALL   ??Subroutine108_0 & 0xFFFF
   1199                req.initiator = FALSE;
   \                     ??CrossCallReturnLabel_210:
   \   0000D0   12....       LCALL   ?XSTACK_DISP0_8
   \   0000D3   E4           CLR     A
   \   0000D4   F0           MOVX    @DPTR,A
   1200          
   1201                APSME_TransportKeyReq( &req );
   \   0000D5                ; Setup parameters for call to function APSME_TransportKeyReq
   \   0000D5   7402         MOV     A,#0x2
   \   0000D7   12....       LCALL   ?XSTACK_DISP0_8
   \   0000DA   AA82         MOV     R2,DPL
   \   0000DC   AB83         MOV     R3,DPH
   \   0000DE   12....       LCALL   ??APSME_TransportKeyReq?relay
   1202              }
   1203            }
   1204          }
   \                     ??ZDSecMgrAppKeyReq_0:
   \   0000E1   7427         MOV     A,#0x27
   \   0000E3   02....       LJMP    ??Subroutine92_0 & 0xFFFF

   \                                 In  segment BANKED_CODE, align 1, keep-with-next
   \                     ?Subroutine31:
   \   000000   12....       LCALL   ??Subroutine106_0 & 0xFFFF
   \                     ??CrossCallReturnLabel_185:
   \   000003   7402         MOV     A,#0x2
   \   000005   22           RET

   \                                 In  segment BANKED_CODE, align 1, keep-with-next
   \                     ??Subroutine91_0:
   \   000000   3400         ADDC    A,#0x0
   \   000002   F9           MOV     R1,A
   \   000003   88..         MOV     ?V0 + 0,R0
   \   000005   89..         MOV     ?V0 + 1,R1
   \   000007   22           RET

   \                                 In  segment BANKED_CODE, align 1, keep-with-next
   \                     ?Subroutine7:
   \   000000   F0           MOVX    @DPTR,A
   \   000001                ; Setup parameters for call to function ZDSecMgrAddrMgrUpdate
   \   000001   85..82       MOV     DPL,?V0 + 0
   \   000004   85..83       MOV     DPH,?V0 + 1
   \   000007   E0           MOVX    A,@DPTR
   \   000008   22           RET

   \                                 In  segment BANKED_CODE, align 1, keep-with-next
   \                     ??Subroutine108_0:
   \   000000   12....       LCALL   ?Subroutine66 & 0xFFFF
   \                     ??CrossCallReturnLabel_220:
   \   000003                ; Setup parameters for call to function AddrMgrEntryGet
   \   000003                ; Setup parameters for call to function AddrMgrEntryGet
   \   000003   740A         MOV     A,#0xa
   \   000005   22           RET

   \                                 In  segment BANKED_CODE, align 1, keep-with-next
   \                     ?Subroutine47:
   \   000000   FE           MOV     R6,A
   \   000001   EB           MOV     A,R3
   \   000002   3400         ADDC    A,#0x0
   \   000004   FF           MOV     R7,A
   \   000005                ; Setup parameters for call to function APSME_LookupNwkAddr
   \   000005                ; Setup parameters for call to function APSME_LookupNwkAddr
   \   000005   85..82       MOV     DPL,?XSP + 0
   \   000008   85..83       MOV     DPH,?XSP + 1
   \   00000B   AC82         MOV     R4,DPL
   \   00000D   AD83         MOV     R5,DPH
   \   00000F   EE           MOV     A,R6
   \   000010   FA           MOV     R2,A
   \   000011   EF           MOV     A,R7
   \   000012   FB           MOV     R3,A
   \   000013   12....       LCALL   ??APSME_LookupNwkAddr?relay
   \   000016   E9           MOV     A,R1
   \   000017   6401         XRL     A,#0x1
   \   000019   22           RET
   1205          
   1206          /******************************************************************************
   1207           * @fn          ZDSecMgrEstablishKey
   1208           *
   1209           * @brief       Start SKKE with device joining network.
   1210           *
   1211           * @param       device - [in] ZDSecMgrDevice_t, device info
   1212           *
   1213           * @return      ZStatus_t
   1214           */

   \                                 In  segment BANKED_CODE, align 1, keep-with-next
   1215          ZStatus_t ZDSecMgrEstablishKey( ZDSecMgrDevice_t* device )
   \                     ZDSecMgrEstablishKey:
   1216          {
   \   000000   74F6         MOV     A,#-0xa
   \   000002   12....       LCALL   ?BANKED_ENTER_XDATA
   \   000005                ; Saved register size: 10
   \   000005                ; Auto size: 7
   \   000005   74F9         MOV     A,#-0x7
   \   000007   12....       LCALL   ?ALLOC_XSTACK8
   \   00000A   EA           MOV     A,R2
   \   00000B   FE           MOV     R6,A
   \   00000C   EB           MOV     A,R3
   \   00000D   FF           MOV     R7,A
   1217            ZStatus_t               status;
   1218            APSME_EstablishKeyReq_t req;
   1219          
   1220          
   1221            req.respExtAddr = device->extAddr;
   \   00000E   8E82         MOV     DPL,R6
   \   000010   8F83         MOV     DPH,R7
   \   000012   A3           INC     DPTR
   \   000013   A3           INC     DPTR
   \   000014   12....       LCALL   ?Subroutine31 & 0xFFFF
   \                     ??CrossCallReturnLabel_52:
   \   000017   12....       LCALL   ?XSTACK_DISP0_8
   \   00001A   12....       LCALL   ??Subroutine105_0 & 0xFFFF
   1222            req.method      = APSME_SKKE_METHOD;
   \                     ??CrossCallReturnLabel_169:
   \   00001D   7404         MOV     A,#0x4
   \   00001F   12....       LCALL   ?XSTACK_DISP0_8
   \   000022   E4           CLR     A
   \   000023   F0           MOVX    @DPTR,A
   1223          
   1224            if ( device->parentAddr == NLME_GetShortAddr() )
   \   000024                ; Setup parameters for call to function NLME_GetShortAddr
   \   000024   12....       LCALL   ?Subroutine32 & 0xFFFF
   \                     ??CrossCallReturnLabel_129:
   \   000027   7002         JNZ     ??ZDSecMgrEstablishKey_0
   \   000029   EB           MOV     A,R3
   \   00002A   69           XRL     A,R1
   \                     ??ZDSecMgrEstablishKey_0:
   \   00002B   7017         JNZ     ??ZDSecMgrEstablishKey_1
   1225            {
   1226              req.dstAddr   = device->nwkAddr;
   \   00002D   8E82         MOV     DPL,R6
   \   00002F   8F83         MOV     DPH,R7
   \   000031   12....       LCALL   ??Subroutine103_0 & 0xFFFF
   \                     ??CrossCallReturnLabel_155:
   \   000034   12....       LCALL   ?Subroutine17 & 0xFFFF
   1227              //devtag.0604.todo - remove obsolete
   1228              req.apsSecure = FALSE;
   \                     ??CrossCallReturnLabel_132:
   \   000037   12....       LCALL   ?XSTACK_DISP0_8
   \   00003A   E4           CLR     A
   \   00003B   F0           MOVX    @DPTR,A
   1229              req.nwkSecure = FALSE;
   \   00003C   7406         MOV     A,#0x6
   \   00003E   12....       LCALL   ?XSTACK_DISP0_8
   \   000041   E4           CLR     A
   \   000042   8010         SJMP    ??ZDSecMgrEstablishKey_2
   1230            }
   1231            else
   1232            {
   1233              req.dstAddr   = device->parentAddr;
   \                     ??ZDSecMgrEstablishKey_1:
   \   000044   12....       LCALL   ?Subroutine17 & 0xFFFF
   1234              //devtag.0604.todo - remove obsolete
   1235              req.apsSecure = TRUE;
   \                     ??CrossCallReturnLabel_133:
   \   000047   12....       LCALL   ?XSTACK_DISP0_8
   \   00004A   7401         MOV     A,#0x1
   \   00004C   F0           MOVX    @DPTR,A
   1236              req.nwkSecure = TRUE;
   \   00004D   7406         MOV     A,#0x6
   \   00004F   12....       LCALL   ?XSTACK_DISP0_8
   \   000052   7401         MOV     A,#0x1
   1237            }
   \                     ??ZDSecMgrEstablishKey_2:
   \   000054   12....       LCALL   ??Subroutine107_0 & 0xFFFF
   1238          
   1239            status = APSME_EstablishKeyReq( &req );
   1240          
   1241            return status;
   \                     ??CrossCallReturnLabel_194:
   \   000057   12....       LCALL   ??APSME_EstablishKeyReq?relay
   \   00005A   7407         MOV     A,#0x7
   \   00005C   02....       LJMP    ??Subroutine92_0 & 0xFFFF
   1242          }

   \                                 In  segment BANKED_CODE, align 1, keep-with-next
   \                     ?Subroutine32:
   \   000000   12....       LCALL   ??NLME_GetShortAddr?relay
   \   000003   8E82         MOV     DPL,R6
   \   000005   8F83         MOV     DPH,R7
   \   000007   A3           INC     DPTR
   \   000008   A3           INC     DPTR
   \   000009   A3           INC     DPTR
   \   00000A   A3           INC     DPTR
   \   00000B                REQUIRE ??Subroutine89_0
   \   00000B                ; // Fall through to label ??Subroutine89_0

   \                                 In  segment BANKED_CODE, align 1, keep-with-next
   \                     ??Subroutine89_0:
   \   000000   12....       LCALL   ??Subroutine106_0 & 0xFFFF
   \                     ??CrossCallReturnLabel_190:
   \   000003   EA           MOV     A,R2
   \   000004   68           XRL     A,R0
   \   000005   22           RET

   \                                 In  segment BANKED_CODE, align 1, keep-with-next
   \                     ?Subroutine17:
   \   000000   85..82       MOV     DPL,?XSP + 0
   \   000003   85..83       MOV     DPH,?XSP + 1
   \   000006                REQUIRE ??Subroutine90_0
   \   000006                ; // Fall through to label ??Subroutine90_0

   \                                 In  segment BANKED_CODE, align 1, keep-with-next
   \                     ??Subroutine90_0:
   \   000000   12....       LCALL   ?Subroutine66 & 0xFFFF
   \                     ??CrossCallReturnLabel_217:
   \   000003                ; Setup parameters for call to function APSME_RemoveDeviceReq
   \   000003   7405         MOV     A,#0x5
   \   000005   22           RET
   1243          
   1244          /******************************************************************************
   1245           * @fn          ZDSecMgrSendMasterKey
   1246           *
   1247           * @brief       Send MASTER key to device joining network.
   1248           *
   1249           * @param       device - [in] ZDSecMgrDevice_t, device info
   1250           *
   1251           * @return      ZStatus_t
   1252           */

   \                                 In  segment BANKED_CODE, align 1, keep-with-next
   1253          ZStatus_t ZDSecMgrSendMasterKey( ZDSecMgrDevice_t* device )
   \                     ZDSecMgrSendMasterKey:
   1254          {
   \   000000   74F6         MOV     A,#-0xa
   \   000002   12....       LCALL   ?BANKED_ENTER_XDATA
   \   000005                ; Saved register size: 10
   \   000005                ; Auto size: 13
   \   000005   74F3         MOV     A,#-0xd
   \   000007   12....       LCALL   ?ALLOC_XSTACK8
   \   00000A   EA           MOV     A,R2
   \   00000B   FE           MOV     R6,A
   \   00000C   EB           MOV     A,R3
   \   00000D   FF           MOV     R7,A
   1255            ZStatus_t               status;
   1256            APSME_TransportKeyReq_t req;
   1257          
   1258          
   1259            req.keyType = KEY_TYPE_TC_MASTER;
   \   00000E   7402         MOV     A,#0x2
   \   000010   12....       LCALL   ?XSTACK_DISP0_8
   \   000013   E4           CLR     A
   \   000014   12....       LCALL   ?Subroutine6 & 0xFFFF
   1260            req.extAddr = device->extAddr;
   \                     ??CrossCallReturnLabel_8:
   \   000017   12....       LCALL   ?XSTACK_DISP0_8
   \   00001A   12....       LCALL   ??Subroutine105_0 & 0xFFFF
   1261            req.tunnel  = NULL;
   \                     ??CrossCallReturnLabel_170:
   \   00001D   740B         MOV     A,#0xb
   \   00001F   12....       LCALL   ?XSTACK_DISP0_8
   \   000022   E4           CLR     A
   \   000023   F0           MOVX    @DPTR,A
   \   000024   A3           INC     DPTR
   \   000025   F0           MOVX    @DPTR,A
   1262          
   1263            ZDSecMgrMasterKeyLookup( device->ctrl->entry->ami, &req.key );
   \   000026                ; Setup parameters for call to function ZDSecMgrMasterKeyLookup
   \   000026   7404         MOV     A,#0x4
   \   000028   12....       LCALL   ?XSTACK_DISP0_8
   \   00002B   AC82         MOV     R4,DPL
   \   00002D   AD83         MOV     R5,DPH
   \   00002F   8E82         MOV     DPL,R6
   \   000031   8F83         MOV     DPH,R7
   \   000033   A3           INC     DPTR
   \   000034   A3           INC     DPTR
   \   000035   A3           INC     DPTR
   \   000036   A3           INC     DPTR
   \   000037   A3           INC     DPTR
   \   000038   A3           INC     DPTR
   \   000039   A3           INC     DPTR
   \   00003A   A3           INC     DPTR
   \   00003B   12....       LCALL   ?Subroutine29 & 0xFFFF
   \                     ??CrossCallReturnLabel_46:
   \   00003E   F583         MOV     DPH,A
   \   000040   8882         MOV     DPL,R0
   \   000042   12....       LCALL   ?Subroutine41 & 0xFFFF
   1264          
   1265            //check if using secure hop to to parent
   1266            if ( device->parentAddr != NLME_GetShortAddr() )
   \                     ??CrossCallReturnLabel_67:
   \   000045                ; Setup parameters for call to function NLME_GetShortAddr
   \   000045   12....       LCALL   ?Subroutine32 & 0xFFFF
   \                     ??CrossCallReturnLabel_130:
   \   000048   7002         JNZ     ??ZDSecMgrSendMasterKey_0
   \   00004A   EB           MOV     A,R3
   \   00004B   69           XRL     A,R1
   \                     ??ZDSecMgrSendMasterKey_0:
   \   00004C   6012         JZ      ??ZDSecMgrSendMasterKey_1
   1267            {
   1268              //send to parent with security
   1269              req.dstAddr   = device->parentAddr;
   \   00004E   12....       LCALL   ?Subroutine2 & 0xFFFF
   1270              req.nwkSecure = TRUE;
   \                     ??CrossCallReturnLabel_208:
   \   000051   12....       LCALL   ?XSTACK_DISP0_8
   \   000054   7401         MOV     A,#0x1
   \   000056   F0           MOVX    @DPTR,A
   1271              req.apsSecure = TRUE;
   \   000057   7409         MOV     A,#0x9
   \   000059   12....       LCALL   ?XSTACK_DISP0_8
   \   00005C   7401         MOV     A,#0x1
   \   00005E   8015         SJMP    ??ZDSecMgrSendMasterKey_2
   1272            }
   1273            else
   1274            {
   1275              //direct with no security
   1276              req.dstAddr   = device->nwkAddr;
   \                     ??ZDSecMgrSendMasterKey_1:
   \   000060   8E82         MOV     DPL,R6
   \   000062   8F83         MOV     DPH,R7
   \   000064   12....       LCALL   ??Subroutine103_0 & 0xFFFF
   \                     ??CrossCallReturnLabel_156:
   \   000067   12....       LCALL   ?Subroutine2 & 0xFFFF
   1277              req.nwkSecure = FALSE;
   \                     ??CrossCallReturnLabel_209:
   \   00006A   12....       LCALL   ?XSTACK_DISP0_8
   \   00006D   E4           CLR     A
   \   00006E   F0           MOVX    @DPTR,A
   1278              req.apsSecure = FALSE;
   \   00006F   7409         MOV     A,#0x9
   \   000071   12....       LCALL   ?XSTACK_DISP0_8
   \   000074   E4           CLR     A
   1279            }
   \                     ??ZDSecMgrSendMasterKey_2:
   \   000075   12....       LCALL   ?Subroutine4 & 0xFFFF
   1280          
   1281            status = APSME_TransportKeyReq( &req );
   1282          
   1283            return status;
   \                     ??CrossCallReturnLabel_6:
   \   000078   02....       LJMP    ?Subroutine78 & 0xFFFF
   1284          }

   \                                 In  segment BANKED_CODE, align 1, keep-with-next
   \                     ?Subroutine6:
   \   000000   F0           MOVX    @DPTR,A
   \   000001   8E82         MOV     DPL,R6
   \   000003   8F83         MOV     DPH,R7
   \   000005   12....       LCALL   ?Subroutine59 & 0xFFFF
   \                     ??CrossCallReturnLabel_189:
   \   000008   7406         MOV     A,#0x6
   \   00000A   22           RET

   \                                 In  segment BANKED_CODE, align 1, keep-with-next
   \                     ?Subroutine59:
   \   000000   A3           INC     DPTR
   \   000001   A3           INC     DPTR
   \   000002                REQUIRE ??Subroutine106_0
   \   000002                ; // Fall through to label ??Subroutine106_0

   \                                 In  segment BANKED_CODE, align 1, keep-with-next
   \                     ?Subroutine29:
   \   000000   12....       LCALL   ?Subroutine64 & 0xFFFF
   \                     ??CrossCallReturnLabel_106:
   \   000003   E0           MOVX    A,@DPTR
   \   000004   F8           MOV     R0,A
   \   000005   A3           INC     DPTR
   \   000006   E0           MOVX    A,@DPTR
   \   000007   22           RET

   \                                 In  segment BANKED_CODE, align 1, keep-with-next
   \                     ?Subroutine2:
   \   000000   85..82       MOV     DPL,?XSP + 0
   \   000003   85..83       MOV     DPH,?XSP + 1
   \   000006                REQUIRE ??Subroutine108_0
   \   000006                ; // Fall through to label ??Subroutine108_0

   \                                 In  segment BANKED_CODE, align 1, keep-with-next
   \                     ?Subroutine4:
   \   000000   12....       LCALL   ?Subroutine65 & 0xFFFF
   \                     ??CrossCallReturnLabel_205:
   \   000003   12....       LCALL   ??APSME_TransportKeyReq?relay
   \   000006   22           RET

   \                                 In  segment BANKED_CODE, align 1, keep-with-next
   \                     ?Subroutine41:
   \   000000   12....       LCALL   ?Subroutine61 & 0xFFFF
   \                     ??CrossCallReturnLabel_103:
   \   000003   22           RET

   \                                 In  segment BANKED_CODE, align 1, keep-with-next
   \                     ?Subroutine64:
   \   000000   12....       LCALL   ?Subroutine71 & 0xFFFF
   \                     ??CrossCallReturnLabel_109:
   \   000003   22           RET

   \                                 In  segment BANKED_CODE, align 1, keep-with-next
   \                     ?Subroutine71:
   \   000000   E0           MOVX    A,@DPTR
   \   000001   F8           MOV     R0,A
   \   000002   A3           INC     DPTR
   \   000003   E0           MOVX    A,@DPTR
   \   000004   F583         MOV     DPH,A
   \   000006   8882         MOV     DPL,R0
   \   000008   22           RET
   1285          
   1286          /******************************************************************************
   1287           * @fn          ZDSecMgrSendNwkKey
   1288           *
   1289           * @brief       Send NWK key to device joining network.
   1290           *
   1291           * @param       device - [in] ZDSecMgrDevice_t, device info
   1292           *
   1293           * @return      ZStatus_t
   1294           */

   \                                 In  segment BANKED_CODE, align 1, keep-with-next
   1295          ZStatus_t ZDSecMgrSendNwkKey( ZDSecMgrDevice_t* device )
   \                     ZDSecMgrSendNwkKey:
   1296          {
   \   000000   74F4         MOV     A,#-0xc
   \   000002   12....       LCALL   ?BANKED_ENTER_XDATA
   \   000005                ; Saved register size: 12
   \   000005                ; Auto size: 13
   \   000005   74F3         MOV     A,#-0xd
   \   000007   12....       LCALL   ?ALLOC_XSTACK8
   \   00000A   EA           MOV     A,R2
   \   00000B   FE           MOV     R6,A
   \   00000C   EB           MOV     A,R3
   \   00000D   FF           MOV     R7,A
   1297            ZStatus_t               status;
   1298            APSME_TransportKeyReq_t req;
   1299            APSDE_FrameTunnel_t     tunnel;
   1300          
   1301            req.dstAddr   = device->nwkAddr;
   \   00000E   8E82         MOV     DPL,R6
   \   000010   8F83         MOV     DPH,R7
   \   000012   12....       LCALL   ?Subroutine33 & 0xFFFF
   \                     ??CrossCallReturnLabel_113:
   \   000015   E8           MOV     A,R0
   \   000016   F0           MOVX    @DPTR,A
   \   000017   A3           INC     DPTR
   \   000018   E9           MOV     A,R1
   \   000019   12....       LCALL   ?Subroutine6 & 0xFFFF
   1302            req.extAddr   = device->extAddr;
   \                     ??CrossCallReturnLabel_9:
   \   00001C   12....       LCALL   ?XSTACK_DISP0_8
   \   00001F   12....       LCALL   ??Subroutine94_0 & 0xFFFF
   1303          
   1304            if ( ZG_CHECK_SECURITY_MODE == ZG_SECURITY_PRO_HIGH )
   1305              req.keyType   = KEY_TYPE_NWK_HIGH;
   1306            else
   1307              req.keyType   = KEY_TYPE_NWK;
   \                     ??CrossCallReturnLabel_140:
   \   000022   12....       LCALL   ?XSTACK_DISP0_8
   \   000025   7401         MOV     A,#0x1
   \   000027   F0           MOVX    @DPTR,A
   1308          
   1309            if ( (ZG_CHECK_SECURITY_MODE == ZG_SECURITY_PRO_HIGH)
   1310                || (ZG_CHECK_SECURITY_MODE == ZG_SECURITY_SE_STANDARD) )
   1311            {
   1312              // set values
   1313              req.keySeqNum = _NIB.nwkActiveKey.keySeqNum;
   1314              req.key       = _NIB.nwkActiveKey.key;
   1315              //devtag.pro.security.todo - make sure that if there is no link key the NWK
   1316              //key isn't used to secure the frame at the APS layer -- since the receiving
   1317              //device may not have a NWK key yet
   1318              req.apsSecure = TRUE;
   1319          
   1320              // check if using secure hop to to parent
   1321              if ( device->parentAddr == NLME_GetShortAddr() )
   1322              {
   1323                req.nwkSecure = FALSE;
   1324                req.tunnel    = NULL;
   1325              }
   1326              else
   1327              {
   1328                req.nwkSecure   = TRUE;
   1329                req.tunnel      = &tunnel;
   1330                req.tunnel->tna = device->parentAddr;
   1331                req.tunnel->dea = device->extAddr;
   1332              }
   1333            }
   1334            else
   1335            {
   1336              // default values
   1337              //devtag.0604.verify
   1338              req.nwkSecure = TRUE;
   \   000028   740A         MOV     A,#0xa
   \   00002A   12....       LCALL   ?XSTACK_DISP0_8
   \   00002D   7401         MOV     A,#0x1
   \   00002F   F0           MOVX    @DPTR,A
   1339              req.apsSecure = FALSE;
   \   000030   7409         MOV     A,#0x9
   \   000032   12....       LCALL   ?XSTACK_DISP0_8
   \   000035   E4           CLR     A
   \   000036   F0           MOVX    @DPTR,A
   1340              req.tunnel    = NULL;
   \   000037   740B         MOV     A,#0xb
   \   000039   12....       LCALL   ?XSTACK_DISP0_8
   \   00003C   E4           CLR     A
   \   00003D   F0           MOVX    @DPTR,A
   \   00003E   A3           INC     DPTR
   \   00003F   F0           MOVX    @DPTR,A
   1341          
   1342              if ( device->parentAddr != NLME_GetShortAddr() )
   \   000040                ; Setup parameters for call to function NLME_GetShortAddr
   \   000040   12....       LCALL   ??NLME_GetShortAddr?relay
   \   000043   EE           MOV     A,R6
   \   000044   2404         ADD     A,#0x4
   \   000046   12....       LCALL   ?Subroutine51 & 0xFFFF
   \                     ??CrossCallReturnLabel_136:
   \   000049   8882         MOV     DPL,R0
   \   00004B   F583         MOV     DPH,A
   \   00004D   12....       LCALL   ??Subroutine89_0 & 0xFFFF
   \                     ??CrossCallReturnLabel_131:
   \   000050   7002         JNZ     ??ZDSecMgrSendNwkKey_0
   \   000052   EB           MOV     A,R3
   \   000053   69           XRL     A,R1
   \                     ??ZDSecMgrSendNwkKey_0:
   \   000054   6003         JZ      ??CrossCallReturnLabel_177
   1343              {
   1344                req.dstAddr = device->parentAddr;
   \   000056   12....       LCALL   ??Subroutine104_0 & 0xFFFF
   1345              }
   1346          
   1347              // special cases
   1348              //devtag.0604.todo - modify to preconfig flag
   1349              if ( device->secure == FALSE )
   \                     ??CrossCallReturnLabel_177:
   \   000059   8E82         MOV     DPL,R6
   \   00005B   8F83         MOV     DPH,R7
   \   00005D   A3           INC     DPTR
   \   00005E   A3           INC     DPTR
   \   00005F   A3           INC     DPTR
   \   000060   A3           INC     DPTR
   \   000061   A3           INC     DPTR
   \   000062   A3           INC     DPTR
   \   000063   E0           MOVX    A,@DPTR
   \   000064   7038         JNZ     ??ZDSecMgrSendNwkKey_1
   1350              {
   1351                req.keySeqNum = _NIB.nwkActiveKey.keySeqNum;
   \   000066   90....       MOV     DPTR,#(_NIB + 62)
   \   000069   E0           MOVX    A,@DPTR
   \   00006A   C0E0         PUSH    A
   \   00006C   7403         MOV     A,#0x3
   \   00006E   12....       LCALL   ?XSTACK_DISP0_8
   \   000071   D0E0         POP     A
   \   000073   F0           MOVX    @DPTR,A
   1352                req.key       = _NIB.nwkActiveKey.key;
   \   000074   7404         MOV     A,#0x4
   \   000076   12....       LCALL   ?XSTACK_DISP0_8
   \   000079   74..         MOV     A,#((_NIB + 63) & 0xff)
   \   00007B   F0           MOVX    @DPTR,A
   \   00007C   A3           INC     DPTR
   \   00007D   74..         MOV     A,#(((_NIB + 63) >> 8) & 0xff)
   \   00007F   F0           MOVX    @DPTR,A
   1353          
   1354                // check if using secure hop to to parent
   1355                if ( device->parentAddr == NLME_GetShortAddr() )
   \   000080                ; Setup parameters for call to function NLME_GetShortAddr
   \   000080   12....       LCALL   ??NLME_GetShortAddr?relay
   \   000083   8A..         MOV     ?V0 + 2,R2
   \   000085   8B..         MOV     ?V0 + 3,R3
   \   000087   A8..         MOV     R0,?V0 + 2
   \   000089   A9..         MOV     R1,?V0 + 3
   \   00008B   85..82       MOV     DPL,?V0 + 0
   \   00008E   85..83       MOV     DPH,?V0 + 1
   \   000091   E0           MOVX    A,@DPTR
   \   000092   68           XRL     A,R0
   \   000093   7003         JNZ     ??ZDSecMgrSendNwkKey_2
   \   000095   A3           INC     DPTR
   \   000096   E0           MOVX    A,@DPTR
   \   000097   69           XRL     A,R1
   \                     ??ZDSecMgrSendNwkKey_2:
   \   000098   7014         JNZ     ??ZDSecMgrSendNwkKey_3
   1356                {
   1357                  req.nwkSecure = FALSE;
   \   00009A   740A         MOV     A,#0xa
   \   00009C   800B         SJMP    ??ZDSecMgrSendNwkKey_4
   1358                }
   1359              }
   1360              else
   1361              {
   1362                req.key       = NULL;
   \                     ??ZDSecMgrSendNwkKey_1:
   \   00009E   7404         MOV     A,#0x4
   \   0000A0   12....       LCALL   ?XSTACK_DISP0_8
   \   0000A3   E4           CLR     A
   \   0000A4   F0           MOVX    @DPTR,A
   \   0000A5   A3           INC     DPTR
   \   0000A6   F0           MOVX    @DPTR,A
   1363                req.keySeqNum = 0;
   \   0000A7   7403         MOV     A,#0x3
   \                     ??ZDSecMgrSendNwkKey_4:
   \   0000A9   12....       LCALL   ?XSTACK_DISP0_8
   \   0000AC   E4           CLR     A
   \   0000AD   F0           MOVX    @DPTR,A
   1364              }
   1365            }
   1366          
   1367            status = APSME_TransportKeyReq( &req );
   1368          
   1369            return status;
   \                     ??ZDSecMgrSendNwkKey_3:
   \   0000AE                ; Setup parameters for call to function APSME_TransportKeyReq
   \   0000AE   85..82       MOV     DPL,?XSP + 0
   \   0000B1   85..83       MOV     DPH,?XSP + 1
   \   0000B4   AA82         MOV     R2,DPL
   \   0000B6   AB83         MOV     R3,DPH
   \   0000B8   12....       LCALL   ??APSME_TransportKeyReq?relay
   \   0000BB   740D         MOV     A,#0xd
   \   0000BD   02....       LJMP    ??Subroutine101_0 & 0xFFFF
   1370          }

   \                                 In  segment BANKED_CODE, align 1, keep-with-next
   \                     ?Subroutine51:
   \   000000   F8           MOV     R0,A
   \   000001   EF           MOV     A,R7
   \   000002                REQUIRE ??Subroutine91_0
   \   000002                ; // Fall through to label ??Subroutine91_0

   \                                 In  segment BANKED_CODE, align 1, keep-with-next
   \                     ?Subroutine74:
   \   000000   85..82       MOV     DPL,?XSP + 0
   \   000003   85..83       MOV     DPH,?XSP + 1
   \   000006   22           RET

   \                                 In  segment BANKED_CODE, align 1, keep-with-next
   \                     ??Subroutine94_0:
   \   000000   12....       LCALL   ?Subroutine66 & 0xFFFF
   \                     ??CrossCallReturnLabel_218:
   \   000003   7402         MOV     A,#0x2
   \   000005   22           RET

   \                                 In  segment BANKED_CODE, align 1, keep-with-next
   \                     ??Subroutine104_0:
   \   000000   85..82       MOV     DPL,?XSP + 0
   \   000003   85..83       MOV     DPH,?XSP + 1
   \   000006                REQUIRE ??Subroutine105_0
   \   000006                ; // Fall through to label ??Subroutine105_0

   \                                 In  segment BANKED_CODE, align 1, keep-with-next
   \                     ?Subroutine33:
   \   000000   12....       LCALL   ??Subroutine106_0 & 0xFFFF
   \                     ??CrossCallReturnLabel_186:
   \   000003   02....       LJMP    ?Subroutine74 & 0xFFFF
   1371          
   1372          /******************************************************************************
   1373           * @fn          ZDSecMgrDeviceEntryRemove
   1374           *
   1375           * @brief       Remove device entry.
   1376           *
   1377           * @param       entry - [in] valid entry
   1378           *
   1379           * @return      none
   1380           */

   \                                 In  segment BANKED_CODE, align 1, keep-with-next
   1381          void ZDSecMgrDeviceEntryRemove( ZDSecMgrEntry_t* entry )
   \                     ZDSecMgrDeviceEntryRemove:
   1382          {
   \   000000   74F7         MOV     A,#-0x9
   \   000002   12....       LCALL   ?BANKED_ENTER_XDATA
   \   000005                ; Saved register size: 9
   \   000005                ; Auto size: 0
   \   000005   EA           MOV     A,R2
   \   000006   FE           MOV     R6,A
   \   000007   EB           MOV     A,R3
   \   000008   FF           MOV     R7,A
   1383            // terminate device control
   1384            if ( ( ZG_BUILD_COORDINATOR_TYPE ) && ( ZG_DEVICE_COORDINATOR_TYPE ) )
   1385            {
   1386              ZDSecMgrCtrlTerm( entry );
   \   000009                ; Setup parameters for call to function ZDSecMgrCtrlTerm
   \   000009   12....       LCALL   ??ZDSecMgrCtrlTerm?relay
   1387            }
   1388          
   1389            // remove device from entry data
   1390            ZDSecMgrEntryFree( entry );
   \   00000C   8E82         MOV     DPL,R6
   \   00000E   8F83         MOV     DPH,R7
   \   000010   74FE         MOV     A,#-0x2
   \   000012   F0           MOVX    @DPTR,A
   \   000013   A3           INC     DPTR
   \   000014   74FF         MOV     A,#-0x1
   \   000016   F0           MOVX    @DPTR,A
   1391          
   1392            // remove EXT address
   1393            //ZDSecMgrExtAddrRelease( aiOld );
   1394          }
   \   000017   02....       LJMP    ??Subroutine97_0 & 0xFFFF
   1395          
   1396          /******************************************************************************
   1397           * @fn          ZDSecMgrDeviceRemoveByExtAddr
   1398           *
   1399           * @brief       Remove device entry by its ext address.
   1400           *
   1401           * @param       pAddr - pointer to the extended address
   1402           *
   1403           * @return      ZStatus_t
   1404           */

   \                                 In  segment BANKED_CODE, align 1, keep-with-next
   1405          ZStatus_t ZDSecMgrDeviceRemoveByExtAddr( uint8 *pAddr )
   \                     ZDSecMgrDeviceRemoveByExtAddr:
   1406          {
   \   000000   74F7         MOV     A,#-0x9
   \   000002   12....       LCALL   ?BANKED_ENTER_XDATA
   \   000005                ; Saved register size: 9
   \   000005                ; Auto size: 2
   \   000005   74FE         MOV     A,#-0x2
   \   000007   12....       LCALL   ?ALLOC_XSTACK8
   1407            ZDSecMgrEntry_t *pEntry;
   1408            uint8           retValue;
   1409            
   1410            retValue = (uint8)ZDSecMgrEntryLookupExt( pAddr, &pEntry );
   \   00000A                ; Setup parameters for call to function ZDSecMgrEntryLookupExt
   \   00000A   85..82       MOV     DPL,?XSP + 0
   \   00000D   85..83       MOV     DPH,?XSP + 1
   \   000010   AC82         MOV     R4,DPL
   \   000012   AD83         MOV     R5,DPH
   \   000014   12....       LCALL   ??ZDSecMgrEntryLookupExt?relay
   \   000017   E9           MOV     A,R1
   \   000018   FE           MOV     R6,A
   1411            
   1412            if( retValue == ZSuccess )
   \   000019   7003         JNZ     ??CrossCallReturnLabel_69
   1413            {
   1414              ZDSecMgrDeviceEntryRemove( pEntry );
   \   00001B                ; Setup parameters for call to function ZDSecMgrDeviceEntryRemove
   \   00001B   12....       LCALL   ?Subroutine42 & 0xFFFF
   1415            }
   1416            
   1417            return retValue;
   \                     ??CrossCallReturnLabel_69:
   \   00001E   EE           MOV     A,R6
   \   00001F   F9           MOV     R1,A
   \   000020   02....       LJMP    ??Subroutine95_0 & 0xFFFF
   1418          }

   \                                 In  segment BANKED_CODE, align 1, keep-with-next
   \                     ?Subroutine42:
   \   000000   12....       LCALL   ?Subroutine62 & 0xFFFF
   \                     ??CrossCallReturnLabel_246:
   \   000003   12....       LCALL   ??ZDSecMgrDeviceEntryRemove?relay
   \   000006   22           RET
   1419          
   1420          /******************************************************************************
   1421           * @fn          ZDSecMgrDeviceEntryAdd
   1422           *
   1423           * @brief       Add entry.
   1424           *
   1425           * @param       device - [in] ZDSecMgrDevice_t, device info
   1426           * @param       ami    - [in] Address Manager index
   1427           *
   1428           * @return      ZStatus_t
   1429           */

   \                                 In  segment BANKED_CODE, align 1, keep-with-next
   1430          void ZDSecMgrAddrMgrUpdate( uint16 ami, uint16 nwkAddr )
   \                     ZDSecMgrAddrMgrUpdate:
   1431          {
   \   000000   74F7         MOV     A,#-0x9
   \   000002   12....       LCALL   ?BANKED_ENTER_XDATA
   \   000005                ; Saved register size: 9
   \   000005                ; Auto size: 13
   \   000005   74F3         MOV     A,#-0xd
   \   000007   12....       LCALL   ?ALLOC_XSTACK8
   \   00000A   EC           MOV     A,R4
   \   00000B   FE           MOV     R6,A
   \   00000C   ED           MOV     A,R5
   \   00000D   FF           MOV     R7,A
   1432            AddrMgrEntry_t entry;
   1433          
   1434            // get the ami data
   1435            entry.user  = ADDRMGR_USER_SECURITY;
   \   00000E   7402         MOV     A,#0x2
   \   000010   85..82       MOV     DPL,?XSP + 0
   \   000013   85..83       MOV     DPH,?XSP + 1
   \   000016   F0           MOVX    @DPTR,A
   1436            entry.index = ami;
   \   000017   740B         MOV     A,#0xb
   \   000019   12....       LCALL   ?XSTACK_DISP0_8
   \   00001C   12....       LCALL   ?Subroutine5 & 0xFFFF
   1437          
   1438            AddrMgrEntryGet( &entry );
   \                     ??CrossCallReturnLabel_193:
   \   00001F   12....       LCALL   ??AddrMgrEntryGet?relay
   1439          
   1440            // check if NWK address is same
   1441            if ( entry.nwkAddr != nwkAddr )
   \   000022   7401         MOV     A,#0x1
   \   000024   12....       LCALL   ?XSTACK_DISP0_8
   \   000027   E0           MOVX    A,@DPTR
   \   000028   6E           XRL     A,R6
   \   000029   7003         JNZ     ??ZDSecMgrAddrMgrUpdate_0
   \   00002B   A3           INC     DPTR
   \   00002C   E0           MOVX    A,@DPTR
   \   00002D   6F           XRL     A,R7
   \                     ??ZDSecMgrAddrMgrUpdate_0:
   \   00002E   600F         JZ      ??ZDSecMgrAddrMgrUpdate_1
   1442            {
   1443              // update NWK address
   1444              entry.nwkAddr = nwkAddr;
   \   000030   7401         MOV     A,#0x1
   \   000032   12....       LCALL   ?XSTACK_DISP0_8
   \   000035   EE           MOV     A,R6
   \   000036   F0           MOVX    @DPTR,A
   \   000037   A3           INC     DPTR
   \   000038   EF           MOV     A,R7
   \   000039   12....       LCALL   ??Subroutine107_0 & 0xFFFF
   1445          
   1446              AddrMgrEntryUpdate( &entry );
   1447            }
   \                     ??CrossCallReturnLabel_195:
   \   00003C   12....       LCALL   ??AddrMgrEntryUpdate?relay
   1448          }
   \                     ??ZDSecMgrAddrMgrUpdate_1:
   \   00003F   02....       LJMP    ?Subroutine82 & 0xFFFF
   1449          

   \                                 In  segment BANKED_CODE, align 1, keep-with-next
   \                     ?Subroutine77:
   \   000000   12....       LCALL   ?DEALLOC_XSTACK8
   \   000003                REQUIRE ??Subroutine87_0
   \   000003                ; // Fall through to label ??Subroutine87_0

   \                                 In  segment BANKED_CODE, align 1, keep-with-next
   1450          ZStatus_t ZDSecMgrDeviceEntryAdd( ZDSecMgrDevice_t* device, uint16 ami )
   \                     ZDSecMgrDeviceEntryAdd:
   1451          {
   \   000000   74F5         MOV     A,#-0xb
   \   000002   12....       LCALL   ?BANKED_ENTER_XDATA
   \   000005                ; Saved register size: 11
   \   000005                ; Auto size: 2
   \   000005   74FE         MOV     A,#-0x2
   \   000007   12....       LCALL   ?ALLOC_XSTACK8
   \   00000A   8A..         MOV     ?V0 + 0,R2
   \   00000C   8B..         MOV     ?V0 + 1,R3
   \   00000E   EC           MOV     A,R4
   \   00000F   FE           MOV     R6,A
   \   000010   ED           MOV     A,R5
   \   000011   FF           MOV     R7,A
   1452            ZStatus_t        status;
   1453            ZDSecMgrEntry_t* entry;
   1454          
   1455          
   1456            // initialize as unknown until completion
   1457            status = ZNwkUnknownDevice;
   \   000012   75..C8       MOV     ?V0 + 2,#-0x38
   1458          
   1459            device->ctrl = NULL;
   \   000015   8A82         MOV     DPL,R2
   \   000017   8B83         MOV     DPH,R3
   \   000019   A3           INC     DPTR
   \   00001A   A3           INC     DPTR
   \   00001B   A3           INC     DPTR
   \   00001C   A3           INC     DPTR
   \   00001D   A3           INC     DPTR
   \   00001E   A3           INC     DPTR
   \   00001F   A3           INC     DPTR
   \   000020   A3           INC     DPTR
   \   000021   E4           CLR     A
   \   000022   F0           MOVX    @DPTR,A
   \   000023   A3           INC     DPTR
   \   000024   12....       LCALL   ?Subroutine14 & 0xFFFF
   1460          
   1461            // make sure not already registered
   1462            if ( ZDSecMgrEntryLookup( device->nwkAddr, &entry ) == ZSuccess )
   \                     ??CrossCallReturnLabel_110:
   \   000027   AC82         MOV     R4,DPL
   \   000029   AD83         MOV     R5,DPH
   \   00002B   12....       LCALL   ?Subroutine44 & 0xFFFF
   \                     ??CrossCallReturnLabel_148:
   \   00002E   12....       LCALL   ??ZDSecMgrEntryLookup?relay
   \   000031   E9           MOV     A,R1
   \   000032   85..82       MOV     DPL,?XSP + 0
   \   000035   85..83       MOV     DPH,?XSP + 1
   \   000038   702F         JNZ     ??ZDSecMgrDeviceEntryAdd_0
   1463            {
   1464              // verify that address index is same
   1465              if ( entry->ami != ami )
   \   00003A   12....       LCALL   ?Subroutine30 & 0xFFFF
   \                     ??CrossCallReturnLabel_48:
   \   00003D   E0           MOVX    A,@DPTR
   \   00003E   6E           XRL     A,R6
   \   00003F   7003         JNZ     ??ZDSecMgrDeviceEntryAdd_1
   \   000041   A3           INC     DPTR
   \   000042   E0           MOVX    A,@DPTR
   \   000043   6F           XRL     A,R7
   \                     ??ZDSecMgrDeviceEntryAdd_1:
   \   000044   6031         JZ      ??ZDSecMgrDeviceEntryAdd_2
   1466              {
   1467                // remove conflicting entry
   1468                ZDSecMgrDeviceEntryRemove( entry );
   \   000046                ; Setup parameters for call to function ZDSecMgrDeviceEntryRemove
   \   000046   12....       LCALL   ?Subroutine42 & 0xFFFF
   1469          
   1470                if ( ZDSecMgrEntryLookupAMI( ami, &entry ) == ZSuccess )
   \                     ??CrossCallReturnLabel_70:
   \   000049                ; Setup parameters for call to function ZDSecMgrEntryLookupAMI
   \   000049   85..82       MOV     DPL,?XSP + 0
   \   00004C   85..83       MOV     DPH,?XSP + 1
   \   00004F   AC82         MOV     R4,DPL
   \   000051   AD83         MOV     R5,DPH
   \   000053   EE           MOV     A,R6
   \   000054   FA           MOV     R2,A
   \   000055   EF           MOV     A,R7
