###############################################################################
#                                                                             #
# IAR C/C++ Compiler V7.51A/W32 for 8051                27/Aug/2010  04:05:18 #
# Copyright 2004-2009 IAR Systems AB.                                         #
#                                                                             #
#    Core               =  plain                                              #
#    Code model         =  banked                                             #
#    Data model         =  large                                              #
#    Calling convention =  xdata reentrant                                    #
#    Constant location  =  data_rom                                           #
#    Dptr setup         =  1,16                                               #
#    Source file        =  D:\R.D Dept\程式開發\TI CC2530 example\ZIGBEE      #
#                          Z-Stack\ZStack-CC2530-2.3.0-1.4.0\ZStack-CC2530-2. #
#                          3.0-1.4.0\Components\stack\zcl\zcl.c               #
#    Command line       =  -f "D:\R.D Dept\程式開發\TI CC2530 example\ZIGBEE  #
#                          Z-Stack\ZStack-CC2530-2.3.0-1.4.0\ZStack-CC2530-2. #
#                          3.0-1.4.0\Projects\zstack\HomeAutomation\SampleSwi #
#                          tch\CC2530DB\..\..\..\Tools\CC2530DB\f8wEndev.cfg" #
#                           (-DCPU32MHZ -DROOT=__near_func -DBLINK_LEDS) -f   #
#                          "D:\R.D Dept\程式開發\TI CC2530 example\ZIGBEE     #
#                          Z-Stack\ZStack-CC2530-2.3.0-1.4.0\ZStack-CC2530-2. #
#                          3.0-1.4.0\Projects\zstack\HomeAutomation\SampleSwi #
#                          tch\CC2530DB\..\..\..\Tools\CC2530DB\f8wConfig.cfg #
#                          " (-DSECURE=0 -DZG_SECURE_DYNAMIC=0 -DREFLECTOR    #
#                          -DDEFAULT_CHANLIST=0x00000800                      #
#                          -DZDAPP_CONFIG_PAN_ID=0xFFFF                       #
#                          -DNWK_START_DELAY=100 -DEXTENDED_JOINING_RANDOM_MA #
#                          SK=0x007F -DBEACON_REQUEST_DELAY=100               #
#                          -DBEACON_REQ_DELAY_MASK=0x00FF                     #
#                          -DROUTE_EXPIRY_TIME=30 -DAPSC_ACK_WAIT_DURATION_PO #
#                          LLED=3000 -DNWK_INDIRECT_MSG_TIMEOUT=7             #
#                          -DMAX_RREQ_ENTRIES=8 -DAPSC_MAX_FRAME_RETRIES=3    #
#                          -DNWK_MAX_DATA_RETRIES=2                           #
#                          -DMAX_POLL_FAILURE_RETRIES=2 -DMAX_BCAST=9         #
#                          -DAPS_MAX_GROUPS=16 -DMAX_RTG_ENTRIES=40           #
#                          -DNWK_MAX_BINDING_ENTRIES=4                        #
#                          -DMAX_BINDING_CLUSTER_IDS=4 "-DDEFAULT_KEY={0x01,  #
#                          0x03, 0x05, 0x07, 0x09, 0x0B, 0x0D, 0x0F, 0x00,    #
#                          0x02, 0x04, 0x06, 0x08, 0x0A, 0x0C, 0x0D}"         #
#                          -DMAC_MAX_FRAME_SIZE=116 "-DCONST=const __code"    #
#                          -DGENERIC=__generic -DRFD_RCVC_ALWAYS_ON=TRUE      #
#                          -DPOLL_RATE=1000 -DQUEUED_POLL_RATE=100            #
#                          -DRESPONSE_POLL_RATE=100 -DREJOIN_POLL_RATE=440)   #
#                          -f "D:\R.D Dept\程式開發\TI CC2530 example\ZIGBEE  #
#                          Z-Stack\ZStack-CC2530-2.3.0-1.4.0\ZStack-CC2530-2. #
#                          3.0-1.4.0\Projects\zstack\HomeAutomation\SampleSwi #
#                          tch\CC2530DB\..\..\..\Tools\CC2530DB\f8wZCL.cfg"   #
#                          (-DZCL_READ -DZCL_WRITE -DZCL_BASIC                #
#                          -DZCL_IDENTIFY -DZCL_ON_OFF -DZCL_KEY_ESTABLISH    #
#                          -DZCL_LOAD_CONTROL -DZCL_SIMPLE_METERING           #
#                          -DZCL_PRICING) -DZCL_MESSAGE "D:\R.D               #
#                          Dept\程式開發\TI CC2530 example\ZIGBEE             #
#                          Z-Stack\ZStack-CC2530-2.3.0-1.4.0\ZStack-CC2530-2. #
#                          3.0-1.4.0\Components\stack\zcl\zcl.c" -D           #
#                          NWK_AUTO_POLL -D ZTOOL_P1 -D MT_TASK -D            #
#                          MT_APP_FUNC -D MT_SYS_FUNC -D MT_ZDO_FUNC -D       #
#                          xLCD_SUPPORTED=DEBUG -D xPOWER_SAVING -lC "D:\R.D  #
#                          Dept\程式開發\TI CC2530 example\ZIGBEE             #
#                          Z-Stack\ZStack-CC2530-2.3.0-1.4.0\ZStack-CC2530-2. #
#                          3.0-1.4.0\Projects\zstack\HomeAutomation\SampleSwi #
#                          tch\CC2530DB\EndDeviceBB\List\" -lA "D:\R.D        #
#                          Dept\程式開發\TI CC2530 example\ZIGBEE             #
#                          Z-Stack\ZStack-CC2530-2.3.0-1.4.0\ZStack-CC2530-2. #
#                          3.0-1.4.0\Projects\zstack\HomeAutomation\SampleSwi #
#                          tch\CC2530DB\EndDeviceBB\List\" --diag_suppress    #
#                          Pe001,Pa010 -o "D:\R.D Dept\程式開發\TI CC2530     #
#                          example\ZIGBEE Z-Stack\ZStack-CC2530-2.3.0-1.4.0\Z #
#                          Stack-CC2530-2.3.0-1.4.0\Projects\zstack\HomeAutom #
#                          ation\SampleSwitch\CC2530DB\EndDeviceBB\Obj\" -e   #
#                          --require_prototypes --debug --core=plain          #
#                          --dptr=16,1 --data_model=large                     #
#                          --code_model=banked --calling_convention=xdata_ree #
#                          ntrant --place_constants=data_rom                  #
#                          --nr_virtual_regs 16 -I "D:\R.D Dept\程式開發\TI   #
#                          CC2530 example\ZIGBEE Z-Stack\ZStack-CC2530-2.3.0- #
#                          1.4.0\ZStack-CC2530-2.3.0-1.4.0\Projects\zstack\Ho #
#                          meAutomation\SampleSwitch\CC2530DB\" -I "D:\R.D    #
#                          Dept\程式開發\TI CC2530 example\ZIGBEE             #
#                          Z-Stack\ZStack-CC2530-2.3.0-1.4.0\ZStack-CC2530-2. #
#                          3.0-1.4.0\Projects\zstack\HomeAutomation\SampleSwi #
#                          tch\CC2530DB\..\SOURCE\" -I "D:\R.D                #
#                          Dept\程式開發\TI CC2530 example\ZIGBEE             #
#                          Z-Stack\ZStack-CC2530-2.3.0-1.4.0\ZStack-CC2530-2. #
#                          3.0-1.4.0\Projects\zstack\HomeAutomation\SampleSwi #
#                          tch\CC2530DB\..\..\SOURCE\" -I "D:\R.D             #
#                          Dept\程式開發\TI CC2530 example\ZIGBEE             #
#                          Z-Stack\ZStack-CC2530-2.3.0-1.4.0\ZStack-CC2530-2. #
#                          3.0-1.4.0\Projects\zstack\HomeAutomation\SampleSwi #
#                          tch\CC2530DB\..\..\..\ZMAIN\TI2530DB\" -I "D:\R.D  #
#                          Dept\程式開發\TI CC2530 example\ZIGBEE             #
#                          Z-Stack\ZStack-CC2530-2.3.0-1.4.0\ZStack-CC2530-2. #
#                          3.0-1.4.0\Projects\zstack\HomeAutomation\SampleSwi #
#                          tch\CC2530DB\..\..\..\..\..\COMPONENTS\MT\" -I     #
#                          "D:\R.D Dept\程式開發\TI CC2530 example\ZIGBEE     #
#                          Z-Stack\ZStack-CC2530-2.3.0-1.4.0\ZStack-CC2530-2. #
#                          3.0-1.4.0\Projects\zstack\HomeAutomation\SampleSwi #
#                          tch\CC2530DB\..\..\..\..\..\COMPONENTS\HAL\INCLUDE #
#                          \" -I "D:\R.D Dept\程式開發\TI CC2530              #
#                          example\ZIGBEE Z-Stack\ZStack-CC2530-2.3.0-1.4.0\Z #
#                          Stack-CC2530-2.3.0-1.4.0\Projects\zstack\HomeAutom #
#                          ation\SampleSwitch\CC2530DB\..\..\..\..\..\COMPONE #
#                          NTS\HAL\TARGET\CC2530EB\" -I "D:\R.D               #
#                          Dept\程式開發\TI CC2530 example\ZIGBEE             #
#                          Z-Stack\ZStack-CC2530-2.3.0-1.4.0\ZStack-CC2530-2. #
#                          3.0-1.4.0\Projects\zstack\HomeAutomation\SampleSwi #
#                          tch\CC2530DB\..\..\..\..\..\COMPONENTS\OSAL\MCU\CC #
#                          SOC\" -I "D:\R.D Dept\程式開發\TI CC2530           #
#                          example\ZIGBEE Z-Stack\ZStack-CC2530-2.3.0-1.4.0\Z #
#                          Stack-CC2530-2.3.0-1.4.0\Projects\zstack\HomeAutom #
#                          ation\SampleSwitch\CC2530DB\..\..\..\..\..\COMPONE #
#                          NTS\OSAL\INCLUDE\" -I "D:\R.D Dept\程式開發\TI     #
#                          CC2530 example\ZIGBEE Z-Stack\ZStack-CC2530-2.3.0- #
#                          1.4.0\ZStack-CC2530-2.3.0-1.4.0\Projects\zstack\Ho #
#                          meAutomation\SampleSwitch\CC2530DB\..\..\..\..\..\ #
#                          COMPONENTS\STACK\AF\" -I "D:\R.D Dept\程式開發\TI  #
#                          CC2530 example\ZIGBEE Z-Stack\ZStack-CC2530-2.3.0- #
#                          1.4.0\ZStack-CC2530-2.3.0-1.4.0\Projects\zstack\Ho #
#                          meAutomation\SampleSwitch\CC2530DB\..\..\..\..\..\ #
#                          COMPONENTS\STACK\NWK\" -I "D:\R.D                  #
#                          Dept\程式開發\TI CC2530 example\ZIGBEE             #
#                          Z-Stack\ZStack-CC2530-2.3.0-1.4.0\ZStack-CC2530-2. #
#                          3.0-1.4.0\Projects\zstack\HomeAutomation\SampleSwi #
#                          tch\CC2530DB\..\..\..\..\..\COMPONENTS\STACK\SEC\" #
#                           -I "D:\R.D Dept\程式開發\TI CC2530                #
#                          example\ZIGBEE Z-Stack\ZStack-CC2530-2.3.0-1.4.0\Z #
#                          Stack-CC2530-2.3.0-1.4.0\Projects\zstack\HomeAutom #
#                          ation\SampleSwitch\CC2530DB\..\..\..\..\..\COMPONE #
#                          NTS\STACK\SAPI\" -I "D:\R.D Dept\程式開發\TI       #
#                          CC2530 example\ZIGBEE Z-Stack\ZStack-CC2530-2.3.0- #
#                          1.4.0\ZStack-CC2530-2.3.0-1.4.0\Projects\zstack\Ho #
#                          meAutomation\SampleSwitch\CC2530DB\..\..\..\..\..\ #
#                          COMPONENTS\STACK\SYS\" -I "D:\R.D                  #
#                          Dept\程式開發\TI CC2530 example\ZIGBEE             #
#                          Z-Stack\ZStack-CC2530-2.3.0-1.4.0\ZStack-CC2530-2. #
#                          3.0-1.4.0\Projects\zstack\HomeAutomation\SampleSwi #
#                          tch\CC2530DB\..\..\..\..\..\COMPONENTS\STACK\ZCL\" #
#                           -I "D:\R.D Dept\程式開發\TI CC2530                #
#                          example\ZIGBEE Z-Stack\ZStack-CC2530-2.3.0-1.4.0\Z #
#                          Stack-CC2530-2.3.0-1.4.0\Projects\zstack\HomeAutom #
#                          ation\SampleSwitch\CC2530DB\..\..\..\..\..\COMPONE #
#                          NTS\STACK\ZDO\" -I "D:\R.D Dept\程式開發\TI        #
#                          CC2530 example\ZIGBEE Z-Stack\ZStack-CC2530-2.3.0- #
#                          1.4.0\ZStack-CC2530-2.3.0-1.4.0\Projects\zstack\Ho #
#                          meAutomation\SampleSwitch\CC2530DB\..\..\..\..\..\ #
#                          COMPONENTS\ZMAC\F8W\" -I "D:\R.D Dept\程式開發\TI  #
#                          CC2530 example\ZIGBEE Z-Stack\ZStack-CC2530-2.3.0- #
#                          1.4.0\ZStack-CC2530-2.3.0-1.4.0\Projects\zstack\Ho #
#                          meAutomation\SampleSwitch\CC2530DB\..\..\..\..\..\ #
#                          COMPONENTS\ZMAC\" -I "D:\R.D Dept\程式開發\TI      #
#                          CC2530 example\ZIGBEE Z-Stack\ZStack-CC2530-2.3.0- #
#                          1.4.0\ZStack-CC2530-2.3.0-1.4.0\Projects\zstack\Ho #
#                          meAutomation\SampleSwitch\CC2530DB\..\..\..\..\..\ #
#                          COMPONENTS\SERVICES\SADDR\" -I "D:\R.D             #
#                          Dept\程式開發\TI CC2530 example\ZIGBEE             #
#                          Z-Stack\ZStack-CC2530-2.3.0-1.4.0\ZStack-CC2530-2. #
#                          3.0-1.4.0\Projects\zstack\HomeAutomation\SampleSwi #
#                          tch\CC2530DB\..\..\..\..\..\COMPONENTS\SERVICES\SD #
#                          ATA\" -I "D:\R.D Dept\程式開發\TI CC2530           #
#                          example\ZIGBEE Z-Stack\ZStack-CC2530-2.3.0-1.4.0\Z #
#                          Stack-CC2530-2.3.0-1.4.0\Projects\zstack\HomeAutom #
#                          ation\SampleSwitch\CC2530DB\..\..\..\..\..\COMPONE #
#                          NTS\MAC\INCLUDE\" -I "D:\R.D Dept\程式開發\TI      #
#                          CC2530 example\ZIGBEE Z-Stack\ZStack-CC2530-2.3.0- #
#                          1.4.0\ZStack-CC2530-2.3.0-1.4.0\Projects\zstack\Ho #
#                          meAutomation\SampleSwitch\CC2530DB\..\..\..\..\..\ #
#                          COMPONENTS\MAC\HIGH_LEVEL\" -I "D:\R.D             #
#                          Dept\程式開發\TI CC2530 example\ZIGBEE             #
#                          Z-Stack\ZStack-CC2530-2.3.0-1.4.0\ZStack-CC2530-2. #
#                          3.0-1.4.0\Projects\zstack\HomeAutomation\SampleSwi #
#                          tch\CC2530DB\..\..\..\..\..\COMPONENTS\MAC\LOW_LEV #
#                          EL\srf04\" -I "D:\R.D Dept\程式開發\TI CC2530      #
#                          example\ZIGBEE Z-Stack\ZStack-CC2530-2.3.0-1.4.0\Z #
#                          Stack-CC2530-2.3.0-1.4.0\Projects\zstack\HomeAutom #
#                          ation\SampleSwitch\CC2530DB\..\..\..\..\..\COMPONE #
#                          NTS\MAC\LOW_LEVEL\srf04\SINGLE_CHIP\" -I "C:\IAR   #
#                          Systems\Embedded Workbench MCS 51\8051\INC\" -I    #
#                          "C:\IAR Systems\Embedded Workbench MCS             #
#                          51\8051\INC\CLIB\" -Ohz                            #
#    List file          =  D:\R.D Dept\程式開發\TI CC2530 example\ZIGBEE      #
#                          Z-Stack\ZStack-CC2530-2.3.0-1.4.0\ZStack-CC2530-2. #
#                          3.0-1.4.0\Projects\zstack\HomeAutomation\SampleSwi #
#                          tch\CC2530DB\EndDeviceBB\List\zcl.lst              #
#    Object file        =  D:\R.D Dept\程式開發\TI CC2530 example\ZIGBEE      #
#                          Z-Stack\ZStack-CC2530-2.3.0-1.4.0\ZStack-CC2530-2. #
#                          3.0-1.4.0\Projects\zstack\HomeAutomation\SampleSwi #
#                          tch\CC2530DB\EndDeviceBB\Obj\zcl.r51               #
#                                                                             #
#                                                                             #
###############################################################################

D:\R.D Dept\程式開發\TI CC2530 example\ZIGBEE Z-Stack\ZStack-CC2530-2.3.0-1.4.0\ZStack-CC2530-2.3.0-1.4.0\Components\stack\zcl\zcl.c
      1          /**************************************************************************************************
      2            Filename:       zcl.c
      3            Revised:        $Date: 2009-12-22 17:20:57 -0800 (Tue, 22 Dec 2009) $
      4            Revision:       $Revision: 21402 $
      5          
      6            Description:    This file contains the Zigbee Cluster Library Foundation functions.
      7          
      8            Copyright 2006-2009 Texas Instruments Incorporated. All rights reserved.
      9          
     10            Should you have any questions regarding your right to use this Software,
     11            contact Texas Instruments Incorporated at www.TI.com. 
     12          **************************************************************************************************/
     13          
     14          /*********************************************************************
     15           * INCLUDES
     16           */
     17          #include "ZComDef.h"
     18          #include "OSAL.h"
     19          #include "OSAL_Tasks.h"
     20          #include "AF.h"
     21          #include "ZDConfig.h"
     22          
     23          /* ZCL */
     24          #include "zcl.h"
     25          #include "zcl_general.h"
     26          
     27          #if defined ( INTER_PAN )
     28            #include "stub_aps.h"
     29          #endif
     30          
     31          /* HAL */
     32          #include "hal_uart.h"
     33          #if defined (LCD_SUPPORTED)
     34            #include "hal_lcd.h"
     35          #endif
     36          
     37          /* MT */
     38          #include "MT_UART.h"
     39          #include "MT.h"
     40          
     41          /*********************************************************************
     42           * MACROS
     43           */
     44          /*** Frame Control ***/
     45          #define zcl_FCType( a )               ( (a) & ZCL_FRAME_CONTROL_TYPE )
     46          #define zcl_FCManuSpecific( a )       ( (a) & ZCL_FRAME_CONTROL_MANU_SPECIFIC )
     47          #define zcl_FCDirection( a )          ( (a) & ZCL_FRAME_CONTROL_DIRECTION )
     48          #define zcl_FCDisableDefaultRsp( a )  ( (a) & ZCL_FRAME_CONTROL_DISABLE_DEFAULT_RSP )
     49          
     50          /*** Attribute Access Control ***/
     51          #define zcl_AccessCtrlRead( a )       ( (a) & ACCESS_CONTROL_READ )
     52          #define zcl_AccessCtrlWrite( a )      ( (a) & ACCESS_CONTROL_WRITE )
     53          #define zcl_AccessCtrlCmd( a )        ( (a) & ACCESS_CONTROL_CMD )
     54          
     55          #define zclParseCmd( a, b )           zclCmdTable[(a)].pfnParseInProfile( (b) )
     56          #define zclProcessCmd( a, b )         zclCmdTable[(a)].pfnProcessInProfile( (b) )
     57          
     58          #define zcl_DefaultRspCmd( zclHdr )   ( zcl_ProfileCmd( (zclHdr).fc.type )     && \
     59                                                  (zclHdr).fc.manuSpecific == 0          && \
     60                                                  (zclHdr).commandID == ZCL_CMD_DEFAULT_RSP )
     61          
     62          // Commands that have corresponding responses
     63          #define CMD_HAS_RSP( cmd )            ( (cmd) == ZCL_CMD_READ            || \
     64                                                  (cmd) == ZCL_CMD_WRITE           || \
     65                                                  (cmd) == ZCL_CMD_WRITE_UNDIVIDED || \
     66                                                  (cmd) == ZCL_CMD_CONFIG_REPORT   || \
     67                                                  (cmd) == ZCL_CMD_READ_REPORT_CFG || \
     68                                                  (cmd) == ZCL_CMD_DISCOVER        || \
     69                                                  (cmd) == ZCL_CMD_DEFAULT_RSP ) // exception
     70          
     71          /*********************************************************************
     72           * CONSTANTS
     73           */
     74          
     75          /*********************************************************************
     76           * TYPEDEFS
     77           */
     78          typedef struct zclLibPlugin
     79          {
     80            struct zclLibPlugin *next;
     81            uint16              startClusterID;    // starting cluster ID
     82            uint16              endClusterID;      // ending cluster ID
     83            zclInHdlr_t         pfnIncomingHdlr;    // function to handle incoming message
     84          } zclLibPlugin_t;
     85          
     86          // Attribute record list item
     87          typedef struct zclAttrRecsList
     88          {
     89            struct zclAttrRecsList *next;
     90            uint8                  endpoint;      // Used to link it into the endpoint descriptor
     91            uint8                  numAttributes; // Number of the following records
     92            CONST zclAttrRec_t     *attrs;        // attribute records
     93          } zclAttrRecsList;
     94          
     95          // Cluster option list item
     96          typedef struct zclClusterOptionList
     97          {
     98            struct zclClusterOptionList *next;
     99            uint8                       endpoint;   // Used to link it into the endpoint descriptor
    100            uint8                       numOptions; // Number of the following records
    101            zclOptionRec_t              *options;   // option records
    102          } zclClusterOptionList;
    103          
    104          typedef void *(*zclParseInProfileCmd_t)( zclParseCmd_t *pCmd );
    105          typedef uint8 (*zclProcessInProfileCmd_t)( zclIncoming_t *pInMsg );
    106          
    107          typedef struct
    108          {
    109            zclParseInProfileCmd_t   pfnParseInProfile;
    110            zclProcessInProfileCmd_t pfnProcessInProfile;
    111          } zclCmdItems_t;
    112          
    113          
    114          /*********************************************************************
    115           * GLOBAL VARIABLES
    116           */

   \                                 In  segment XDATA_Z, align 1, keep-with-next
    117          uint8 zcl_TaskID;
   \                     zcl_TaskID:
   \   000000                DS 1
   \   000001                REQUIRE __INIT_XDATA_Z
    118          
    119          // The task Id of the Application where the unprocessed Foundation
    120          // Command/Response messages will be sent to.

   \                                 In  segment XDATA_I, align 1, keep-with-next
    121          uint8 zcl_RegisteredMsgTaskID = TASK_NO_TASK;
   \                     zcl_RegisteredMsgTaskID:
   \   000000                DS 1
   \   000001                REQUIRE `?<Initializer for zcl_RegisteredMsgTaskID>`
   \   000001                REQUIRE __INIT_XDATA_I
    122          
    123          // The Application should register its attribute data validation function

   \                                 In  segment XDATA_Z, align 1, keep-with-next
    124          zclValidateAttrData_t zcl_ValidateAttrDataCB = NULL;
   \                     zcl_ValidateAttrDataCB:
   \   000000                DS 2
   \   000002                REQUIRE __INIT_XDATA_Z
    125          
    126          // ZCL Sequence number

   \                                 In  segment XDATA_Z, align 1, keep-with-next
    127          uint8 zcl_SeqNum = 0x00;
   \                     zcl_SeqNum:
   \   000000                DS 1
   \   000001                REQUIRE __INIT_XDATA_Z
    128             
    129          /*********************************************************************
    130           * EXTERNAL VARIABLES
    131           */
    132          
    133          /*********************************************************************
    134           * EXTERNAL FUNCTIONS
    135           */
    136          
    137          /*********************************************************************
    138           * LOCAL VARIABLES
    139           */

   \                                 In  segment XDATA_Z, align 1, keep-with-next
    140          static zclLibPlugin_t *plugins;
   \                     plugins:
   \   000000                DS 2
   \   000002                REQUIRE __INIT_XDATA_Z

   \                                 In  segment XDATA_Z, align 1, keep-with-next
    141          static zclAttrRecsList *attrList;
   \                     attrList:
   \   000000                DS 2
   \   000002                REQUIRE __INIT_XDATA_Z

   \                                 In  segment XDATA_Z, align 1, keep-with-next
    142          static zclClusterOptionList *clusterOptionList;
   \                     clusterOptionList:
   \   000000                DS 2
   \   000002                REQUIRE __INIT_XDATA_Z

   \                                 In  segment XDATA_Z, align 1, keep-with-next
    143          static uint8 zcl_TransID = 0;  // This is the unique message ID (counter)
   \                     zcl_TransID:
   \   000000                DS 1
   \   000001                REQUIRE __INIT_XDATA_Z
    144          
    145          /*********************************************************************
    146           * LOCAL FUNCTIONS
    147           */
    148          void zclProcessMessageMSG( afIncomingMSGPacket_t *pkt );  // Not static for ZNP build.
    149          
    150          void zclZigbeeReceiverMSG(afIncomingMSGPacket_t *msg);
    151          
    152          static uint8 *zclBuildHdr( zclFrameHdr_t *hdr, uint8 *pData );
    153          static uint8 zclCalcHdrSize( zclFrameHdr_t *hdr );
    154          static zclLibPlugin_t *zclFindPlugin( uint16 clusterID, uint16 profileID );
    155          static zclOptionRec_t *zclFindClusterOption( uint8 endpoint, uint16 clusterID );
    156          static uint8 zclGetClusterOption( uint8 endpoint, uint16 clusterID );
    157          static void zclSetSecurityOption( uint8 endpoint, uint16 clusterID, uint8 enable );
    158          
    159          static uint8 zcl_DeviceOperational( uint8 srcEP, uint16 clusterID, uint8 frameType, uint8 cmd, uint16 profileID );
    160          
    161          #if defined(ZCL_READ) || defined(ZCL_WRITE) || defined(ZCL_REPORT)
    162            static void zclSerializeData( uint8 dataType, void *attrData, uint8 *buf );
    163          #endif // ZCL_READ || ZCL_WRITE || ZCL_REPORT
    164          
    165          #ifdef ZCL_READ
    166            static void *zclParseInReadRspCmd( zclParseCmd_t *pCmd );
    167            static uint8 zclProcessInReadCmd( zclIncoming_t *pInMsg );
    168          #endif // ZCL_READ
    169          
    170          #ifdef ZCL_WRITE
    171            static uint8 zclWriteAttrData( zclAttrRec_t *pAttr, zclWriteRec_t *pWriteRec );
    172            static void *zclParseInWriteRspCmd( zclParseCmd_t *pCmd );
    173            static uint8 zclProcessInWriteCmd( zclIncoming_t *pInMsg );
    174            static uint8 zclProcessInWriteUndividedCmd( zclIncoming_t *pInMsg );
    175          #endif // ZCL_WRITE
    176          
    177          #ifdef ZCL_REPORT
    178            static void *zclParseInConfigReportRspCmd( zclParseCmd_t *pCmd );
    179            static void *zclParseInReadReportCfgRspCmd( zclParseCmd_t *pCmd );
    180          #endif // ZCL_REPORT
    181          
    182          static void *zclParseInDefaultRspCmd( zclParseCmd_t *pCmd );
    183          
    184          #ifdef ZCL_DISCOVER
    185            static uint8 zclFindNextAttrRec( uint8 endpoint, uint16 clusterID, uint16 *attrId, zclAttrRec_t *pAttr );
    186            static void *zclParseInDiscRspCmd( zclParseCmd_t *pCmd );
    187            static uint8 zclProcessInDiscCmd( zclIncoming_t *pInMsg );
    188          #endif // ZCL_DISCOVER
    189          
    190          static uint8 zclSendMsg( zclIncoming_t *pInMsg );
    191          
    192          /*********************************************************************
    193           * Parse Profile Command Function Table
    194           */

   \                                 In  segment CODE_C, align 1
    195          static CONST zclCmdItems_t zclCmdTable[] =
   \                     zclCmdTable:
   \   000000   ........     DW ??zclParseInReadCmd?relay, ??zclProcessInReadCmd?relay
   \   000004   ........     DW ??zclParseInReadRspCmd?relay, ??zclSendMsg?relay
   \   000008   ........     DW ??zclParseInWriteCmd?relay, ??zclProcessInWriteCmd?relay
   \   00000C   ........     DW ??zclParseInWriteCmd?relay, ??zclProcessInWriteUndividedCmd?relay
   \   000010   ........     DW ??zclParseInWriteRspCmd?relay, ??zclSendMsg?relay
   \   000014   ........     DW ??zclParseInWriteCmd?relay, ??zclProcessInWriteCmd?relay, 0H, 0H, 0H
   \            00000000
   \            0000    
   \   00001E   00000000     DW 0H, 0H, 0H, 0H, 0H, 0H, 0H, ??zclParseInDefaultRspCmd?relay
   \            00000000
   \            00000000
   \            0000....
   \   00002E   ....0000     DW ??zclSendMsg?relay, 0H, 0H, 0H, 0H
   \            00000000
   \            0000    
    196          {
    197          #ifdef ZCL_READ
    198            /* ZCL_CMD_READ */                { zclParseInReadCmd,             zclProcessInReadCmd             },
    199            /* ZCL_CMD_READ_RSP */            { zclParseInReadRspCmd,          zclSendMsg                      },
    200          #else
    201            /* ZCL_CMD_READ */                { NULL,                          NULL                            },
    202            /* ZCL_CMD_READ_RSP */            { NULL,                          NULL                            },
    203          #endif // ZCL_READ
    204          
    205          #ifdef ZCL_WRITE
    206            /* ZCL_CMD_WRITE */               { zclParseInWriteCmd,            zclProcessInWriteCmd            },
    207            /* ZCL_CMD_WRITE_UNDIVIDED */     { zclParseInWriteCmd,            zclProcessInWriteUndividedCmd   },
    208            /* ZCL_CMD_WRITE_RSP */           { zclParseInWriteRspCmd,         zclSendMsg                      },
    209            /* ZCL_CMD_WRITE_NO_RSP */        { zclParseInWriteCmd,            zclProcessInWriteCmd            },
    210          #else
    211            /* ZCL_CMD_WRITE */               { NULL,                          NULL                            },
    212            /* ZCL_CMD_WRITE_UNDIVIDED */     { NULL,                          NULL                            },
    213            /* ZCL_CMD_WRITE_RSP */           { NULL,                          NULL                            },
    214            /* ZCL_CMD_WRITE_NO_RSP */        { NULL,                          NULL                            },
    215          #endif // ZCL_WRITE
    216          
    217          #ifdef ZCL_REPORT
    218            /* ZCL_CMD_CONFIG_REPORT */       { zclParseInConfigReportCmd,     zclSendMsg                      },
    219            /* ZCL_CMD_CONFIG_REPORT_RSP */   { zclParseInConfigReportRspCmd,  zclSendMsg                      },
    220            /* ZCL_CMD_READ_REPORT_CFG */     { zclParseInReadReportCfgCmd,    zclSendMsg                      },
    221            /* ZCL_CMD_READ_REPORT_CFG_RSP */ { zclParseInReadReportCfgRspCmd, zclSendMsg                      },
    222            /* ZCL_CMD_REPORT */              { zclParseInReportCmd,           zclSendMsg                      },
    223          #else
    224            /* ZCL_CMD_CONFIG_REPORT */       { NULL,                          NULL                            },
    225            /* ZCL_CMD_CONFIG_REPORT_RSP */   { NULL,                          NULL                            },
    226            /* ZCL_CMD_READ_REPORT_CFG */     { NULL,                          NULL                            },
    227            /* ZCL_CMD_READ_REPORT_CFG_RSP */ { NULL,                          NULL                            },
    228            /* ZCL_CMD_REPORT */              { NULL,                          NULL                            },
    229          #endif // ZCL_REPORT
    230          
    231            /* ZCL_CMD_DEFAULT_RSP */         { zclParseInDefaultRspCmd,       zclSendMsg                      },
    232            
    233          #ifdef ZCL_DISCOVER  
    234            /* ZCL_CMD_DISCOVER */            { zclParseInDiscCmd,             zclProcessInDiscCmd             },
    235            /* ZCL_CMD_DISCOVER_RSP */        { zclParseInDiscRspCmd,          zclSendMsg                      }
    236          #else
    237            /* ZCL_CMD_DISCOVER */            { NULL,                          NULL                            },
    238            /* ZCL_CMD_DISCOVER_RSP */        { NULL,                          NULL                            }
    239          #endif // ZCL_DISCOVER
    240          };
    241          
    242          /*********************************************************************
    243           * PUBLIC FUNCTIONS
    244           *********************************************************************/
    245          
    246          /*********************************************************************
    247           * @fn          zcl_Init
    248           * @brief       Initialization function for the zcl layer.
    249           * @param       task_id - ZCL task id
    250           */

   \                                 In  segment BANKED_CODE, align 1, keep-with-next
    251          void zcl_Init( uint8 task_id )
   \                     zcl_Init:
    252          {
   \   000000   C082         PUSH    DPL
   \   000002   C083         PUSH    DPH
   \   000004                ; Saved register size: 2
   \   000004                ; Auto size: 0
    253            zcl_TaskID = task_id;
   \   000004   E9           MOV     A,R1
   \   000005   90....       MOV     DPTR,#zcl_TaskID
   \   000008   F0           MOVX    @DPTR,A
    254          
    255            plugins = (zclLibPlugin_t  *)NULL;
   \   000009   90....       MOV     DPTR,#plugins
   \   00000C   E4           CLR     A
   \   00000D   F0           MOVX    @DPTR,A
   \   00000E   A3           INC     DPTR
   \   00000F   F0           MOVX    @DPTR,A
    256            attrList = (zclAttrRecsList *)NULL;
   \   000010   90....       MOV     DPTR,#attrList
   \   000013   F0           MOVX    @DPTR,A
   \   000014   A3           INC     DPTR
   \   000015   F0           MOVX    @DPTR,A
    257            clusterOptionList = (zclClusterOptionList *)NULL;
   \   000016   90....       MOV     DPTR,#clusterOptionList
   \   000019   F0           MOVX    @DPTR,A
   \   00001A   A3           INC     DPTR
   \   00001B   F0           MOVX    @DPTR,A
    258          }
   \   00001C   02....       LJMP    ?Subroutine103 & 0xFFFF

   \                                 In  segment BANKED_CODE, align 1, keep-with-next
   \                     ?Subroutine103:
   \   000000   D083         POP     DPH
   \   000002   D082         POP     DPL
   \   000004   02....       LJMP    ?BRET
    259          
    260          /*********************************************************************
    261           * @fn          zcl_event_loop
    262           * @brief       Event Loop Processor for zcl.
    263           * @param       task_id - task id
    264           *              events - event bitmap
    265           * @return      unprocessed events
    266           */

   \                                 In  segment BANKED_CODE, align 1, keep-with-next
    267          uint16 zcl_event_loop( uint8 task_id, uint16 events )
   \                     zcl_event_loop:
    268          {
   \   000000   74F4         MOV     A,#-0xc
   \   000002   12....       LCALL   ?BANKED_ENTER_XDATA
   \   000005                ; Saved register size: 12
   \   000005                ; Auto size: 0
   \   000005   8A..         MOV     ?V0 + 0,R2
   \   000007   8B..         MOV     ?V0 + 1,R3
    269            uint8 *msgPtr;
    270            (void)task_id;  // Intentionally unreferenced parameter
    271            
    272            if ( events & SYS_EVENT_MSG )
   \   000009   7480         MOV     A,#-0x80
   \   00000B   55..         ANL     A,?V0 + 1
   \   00000D   F9           MOV     R1,A
   \   00000E   E4           CLR     A
   \   00000F   7001         JNZ     ??zcl_event_loop_0
   \   000011   E9           MOV     A,R1
   \                     ??zcl_event_loop_0:
   \   000012   604B         JZ      ??zcl_event_loop_1
    273            {
    274              msgPtr = osal_msg_receive( zcl_TaskID );
   \   000014                ; Setup parameters for call to function osal_msg_receive
   \   000014   800E         SJMP    ??zcl_event_loop_2
    275              while ( msgPtr != NULL )
    276              {
    277                uint8 dealloc = TRUE;
    278                
    279                if ( *msgPtr == AF_INCOMING_MSG_CMD )
    280                {
    281                  zclProcessMessageMSG( (afIncomingMSGPacket_t *)msgPtr );
   \                     ??zcl_event_loop_3:
   \   000016                ; Setup parameters for call to function zclProcessMessageMSG
   \   000016   EE           MOV     A,R6
   \   000017   FA           MOV     R2,A
   \   000018   EF           MOV     A,R7
   \   000019   FB           MOV     R3,A
   \   00001A   12....       LCALL   ??zclProcessMessageMSG?relay
    282                }
    283                else if ( zcl_RegisteredMsgTaskID != TASK_NO_TASK )
    284                {
    285                  osal_msg_send( zcl_RegisteredMsgTaskID, msgPtr ); // send it to another task to process.
    286                  dealloc = FALSE;
    287                }
    288                if ( dealloc ) // Release the memory
    289                {
    290                  osal_msg_deallocate( msgPtr );
   \                     ??zcl_event_loop_4:
   \   00001D                ; Setup parameters for call to function osal_msg_deallocate
   \   00001D   EE           MOV     A,R6
   \   00001E   FA           MOV     R2,A
   \   00001F   EF           MOV     A,R7
   \   000020   FB           MOV     R3,A
   \   000021   12....       LCALL   ??osal_msg_deallocate?relay
    291                }
    292                msgPtr = osal_msg_receive( zcl_TaskID ); // Next
   \                     ??zcl_event_loop_2:
   \   000024                ; Setup parameters for call to function osal_msg_receive
   \   000024   90....       MOV     DPTR,#zcl_TaskID
   \   000027   E0           MOVX    A,@DPTR
   \   000028   F9           MOV     R1,A
   \   000029   12....       LCALL   ??osal_msg_receive?relay
   \   00002C   8A..         MOV     ?V0 + 2,R2
   \   00002E   8B..         MOV     ?V0 + 3,R3
   \   000030   AE..         MOV     R6,?V0 + 2
   \   000032   AF..         MOV     R7,?V0 + 3
   \   000034   EE           MOV     A,R6
   \   000035   7001         JNZ     ??zcl_event_loop_5
   \   000037   EF           MOV     A,R7
   \                     ??zcl_event_loop_5:
   \   000038   601C         JZ      ??zcl_event_loop_6
   \   00003A   8E82         MOV     DPL,R6
   \   00003C   8F83         MOV     DPH,R7
   \   00003E   E0           MOVX    A,@DPTR
   \   00003F   641A         XRL     A,#0x1a
   \   000041   60D3         JZ      ??zcl_event_loop_3
   \   000043   90....       MOV     DPTR,#zcl_RegisteredMsgTaskID
   \   000046   E0           MOVX    A,@DPTR
   \   000047   64FF         XRL     A,#0xff
   \   000049   60D2         JZ      ??zcl_event_loop_4
   \   00004B                ; Setup parameters for call to function osal_msg_send
   \   00004B   EE           MOV     A,R6
   \   00004C   FA           MOV     R2,A
   \   00004D   EF           MOV     A,R7
   \   00004E   FB           MOV     R3,A
   \   00004F   E0           MOVX    A,@DPTR
   \   000050   F9           MOV     R1,A
   \   000051   12....       LCALL   ??osal_msg_send?relay
   \   000054   80CE         SJMP    ??zcl_event_loop_2
    293              } 
    294              return (events ^ SYS_EVENT_MSG);// return unprocessed events
   \                     ??zcl_event_loop_6:
   \   000056   AA..         MOV     R2,?V0 + 0
   \   000058   7480         MOV     A,#-0x80
   \   00005A   65..         XRL     A,?V0 + 1
   \   00005C   FB           MOV     R3,A
   \   00005D   8004         SJMP    ??zcl_event_loop_7
    295            }
    296            return 0; // Discard unknown events
   \                     ??zcl_event_loop_1:
   \   00005F   7A00         MOV     R2,#0x0
   \   000061   7B00         MOV     R3,#0x0
   \                     ??zcl_event_loop_7:
   \   000063   02....       LJMP    ?Subroutine104 & 0xFFFF
    297          }

   \                                 In  segment BANKED_CODE, align 1, keep-with-next
   \                     ?Subroutine104:
   \   000000   7F04         MOV     R7,#0x4
   \   000002   02....       LJMP    ?BANKED_LEAVE_XDATA
    298          
    299          /*********************************************************************
    300           * @fn          zcl_registerPlugin
    301           * @brief       Add a Cluster Library handler
    302           * @param       startClusterID - starting cluster ID
    303           *              endClusterID - ending cluster ID
    304           *              pfnHdlr - function pointer to incoming message handler
    305           * @return      ZSuccess if OK
    306           */

   \                                 In  segment BANKED_CODE, align 1, keep-with-next
    307          ZStatus_t zcl_registerPlugin( uint16 startClusterID,
   \                     zcl_registerPlugin:
    308                    uint16 endClusterID, zclInHdlr_t pfnIncomingHdlr )
    309          {
   \   000000   74F2         MOV     A,#-0xe
   \   000002   12....       LCALL   ?BANKED_ENTER_XDATA
   \   000005                ; Saved register size: 14
   \   000005                ; Auto size: 0
   \   000005   8A..         MOV     ?V0 + 0,R2
   \   000007   8B..         MOV     ?V0 + 1,R3
   \   000009   8C..         MOV     ?V0 + 2,R4
   \   00000B   8D..         MOV     ?V0 + 3,R5
   \   00000D   740E         MOV     A,#0xe
   \   00000F   12....       LCALL   ?XSTACK_DISP0_8
   \   000012   12....       LCALL   ?Subroutine39 & 0xFFFF
    310            zclLibPlugin_t *pNewItem;
    311            zclLibPlugin_t *pLoop;
    312          
    313            // Fill in the new profile list
    314            pNewItem = osal_mem_alloc( sizeof( zclLibPlugin_t ) );
   \                     ??CrossCallReturnLabel_46:
   \   000015                ; Setup parameters for call to function osal_mem_alloc
   \   000015   7A08         MOV     R2,#0x8
   \   000017   7B00         MOV     R3,#0x0
   \   000019   12....       LCALL   ??osal_mem_alloc?relay
   \   00001C   8A..         MOV     ?V0 + 4,R2
   \   00001E   8B..         MOV     ?V0 + 5,R3
   \   000020   A8..         MOV     R0,?V0 + 4
   \   000022   A9..         MOV     R1,?V0 + 5
    315            if ( pNewItem == NULL )
   \   000024   E8           MOV     A,R0
   \   000025   7001         JNZ     ??zcl_registerPlugin_0
   \   000027   E9           MOV     A,R1
   \                     ??zcl_registerPlugin_0:
   \   000028   7004         JNZ     ??zcl_registerPlugin_1
    316              return (ZMemError);
   \   00002A   7910         MOV     R1,#0x10
   \   00002C   8051         SJMP    ??CrossCallReturnLabel_14
    317          
    318            // Fill in the plugin record.
    319            pNewItem->next = (zclLibPlugin_t *)NULL;
   \                     ??zcl_registerPlugin_1:
   \   00002E   8882         MOV     DPL,R0
   \   000030   8983         MOV     DPH,R1
   \   000032   E4           CLR     A
   \   000033   F0           MOVX    @DPTR,A
   \   000034   A3           INC     DPTR
   \   000035   12....       LCALL   ?Subroutine14 & 0xFFFF
    320            pNewItem->startClusterID = startClusterID;
   \                     ??CrossCallReturnLabel_19:
   \   000038   A3           INC     DPTR
   \   000039   E5..         MOV     A,?V0 + 0
   \   00003B   F0           MOVX    @DPTR,A
   \   00003C   A3           INC     DPTR
   \   00003D   E5..         MOV     A,?V0 + 1
   \   00003F   12....       LCALL   ?Subroutine14 & 0xFFFF
    321            pNewItem->endClusterID = endClusterID;
   \                     ??CrossCallReturnLabel_20:
   \   000042   A3           INC     DPTR
   \   000043   A3           INC     DPTR
   \   000044   A3           INC     DPTR
   \   000045   E5..         MOV     A,?V0 + 2
   \   000047   F0           MOVX    @DPTR,A
   \   000048   A3           INC     DPTR
   \   000049   E5..         MOV     A,?V0 + 3
   \   00004B   F0           MOVX    @DPTR,A
    322            pNewItem->pfnIncomingHdlr = pfnIncomingHdlr;
   \   00004C   EE           MOV     A,R6
   \   00004D   FA           MOV     R2,A
   \   00004E   EF           MOV     A,R7
   \   00004F   FB           MOV     R3,A
   \   000050   8882         MOV     DPL,R0
   \   000052   8983         MOV     DPH,R1
   \   000054   A3           INC     DPTR
   \   000055   A3           INC     DPTR
   \   000056   A3           INC     DPTR
   \   000057   A3           INC     DPTR
   \   000058   12....       LCALL   ?Subroutine17 & 0xFFFF
    323          
    324            if (  plugins == NULL ) // Find spot in list
   \                     ??CrossCallReturnLabel_295:
   \   00005B   90....       MOV     DPTR,#plugins
   \   00005E   E0           MOVX    A,@DPTR
   \   00005F   7002         JNZ     ??zcl_registerPlugin_2
   \   000061   A3           INC     DPTR
   \   000062   E0           MOVX    A,@DPTR
   \                     ??zcl_registerPlugin_2:
   \   000063   90....       MOV     DPTR,#plugins
   \   000066   6014         JZ      ??zcl_registerPlugin_3
    325            {
    326              plugins = pNewItem;
    327            }
    328            else
    329            {
    330              // Look for end of list
    331              pLoop = plugins;
   \   000068   12....       LCALL   ?Subroutine86 & 0xFFFF
   \                     ??CrossCallReturnLabel_259:
   \   00006B   8003         SJMP    ??zcl_registerPlugin_4
    332              while ( pLoop->next != NULL )
    333                pLoop = pLoop->next;
   \                     ??zcl_registerPlugin_5:
   \   00006D   EA           MOV     A,R2
   \   00006E   FC           MOV     R4,A
   \   00006F   EB           MOV     A,R3
   \                     ??zcl_registerPlugin_4:
   \   000070   12....       LCALL   ?Subroutine33 & 0xFFFF
   \                     ??CrossCallReturnLabel_162:
   \   000073   7001         JNZ     ??zcl_registerPlugin_6
   \   000075   EB           MOV     A,R3
   \                     ??zcl_registerPlugin_6:
   \   000076   70F5         JNZ     ??zcl_registerPlugin_5
    334          
    335              pLoop->next = pNewItem; // Put new item at end of list
   \   000078   8C82         MOV     DPL,R4
   \   00007A   8D83         MOV     DPH,R5
    336            }
   \                     ??zcl_registerPlugin_3:
   \   00007C   12....       LCALL   ?Subroutine11 & 0xFFFF
    337            return ( ZSuccess );
   \                     ??CrossCallReturnLabel_14:
   \   00007F                REQUIRE ?Subroutine105
   \   00007F                ; // Fall through to label ?Subroutine105
    338          }

   \                                 In  segment BANKED_CODE, align 1, keep-with-next
   \                     ?Subroutine105:
   \   000000   7F06         MOV     R7,#0x6
   \   000002   02....       LJMP    ?BANKED_LEAVE_XDATA

   \                                 In  segment BANKED_CODE, align 1, keep-with-next
   \                     ?Subroutine33:
   \   000000   FD           MOV     R5,A
   \   000001   8C82         MOV     DPL,R4
   \   000003   8D83         MOV     DPH,R5
   \   000005                REQUIRE ??Subroutine120_0
   \   000005                ; // Fall through to label ??Subroutine120_0

   \                                 In  segment BANKED_CODE, align 1, keep-with-next
   \                     ??Subroutine120_0:
   \   000000   12....       LCALL   ??Subroutine132_0 & 0xFFFF
   \                     ??CrossCallReturnLabel_269:
   \   000003   EA           MOV     A,R2
   \   000004   22           RET

   \                                 In  segment BANKED_CODE, align 1, keep-with-next
   \                     ?Subroutine11:
   \   000000   E8           MOV     A,R0
   \   000001   F0           MOVX    @DPTR,A
   \   000002   A3           INC     DPTR
   \   000003   E9           MOV     A,R1
   \   000004   F0           MOVX    @DPTR,A
   \   000005   7900         MOV     R1,#0x0
   \   000007   22           RET

   \                                 In  segment BANKED_CODE, align 1, keep-with-next
   \                     ?Subroutine14:
   \   000000   12....       LCALL   ?Subroutine96 & 0xFFFF
   \                     ??CrossCallReturnLabel_130:
   \   000003   22           RET

   \                                 In  segment BANKED_CODE, align 1, keep-with-next
   \                     ?Subroutine96:
   \   000000   F0           MOVX    @DPTR,A
   \   000001   8882         MOV     DPL,R0
   \   000003   8983         MOV     DPH,R1
   \   000005   A3           INC     DPTR
   \   000006   22           RET

   \                                 In  segment BANKED_CODE, align 1, keep-with-next
   \                     ?Subroutine86:
   \   000000   E0           MOVX    A,@DPTR
   \   000001   FC           MOV     R4,A
   \   000002   A3           INC     DPTR
   \   000003   E0           MOVX    A,@DPTR
   \   000004   22           RET

   \                                 In  segment BANKED_CODE, align 1, keep-with-next
   \                     ??Subroutine132_0:
   \   000000   E0           MOVX    A,@DPTR
   \   000001   FA           MOV     R2,A
   \   000002   A3           INC     DPTR
   \   000003   E0           MOVX    A,@DPTR
   \   000004   FB           MOV     R3,A
   \   000005   22           RET

   \                                 In  segment BANKED_CODE, align 1, keep-with-next
   \                     ?Subroutine39:
   \   000000   E0           MOVX    A,@DPTR
   \   000001   FE           MOV     R6,A
   \   000002   A3           INC     DPTR
   \   000003   E0           MOVX    A,@DPTR
   \   000004   FF           MOV     R7,A
   \   000005   22           RET

   \                                 In  segment BANKED_CODE, align 1, keep-with-next
   \                     ?Subroutine17:
   \   000000   A3           INC     DPTR
   \   000001   A3           INC     DPTR
   \   000002                REQUIRE ??Subroutine147_0
   \   000002                ; // Fall through to label ??Subroutine147_0

   \                                 In  segment BANKED_CODE, align 1, keep-with-next
   \                     ??Subroutine147_0:
   \   000000   EA           MOV     A,R2
   \   000001   F0           MOVX    @DPTR,A
   \   000002   A3           INC     DPTR
   \   000003   EB           MOV     A,R3
   \   000004   F0           MOVX    @DPTR,A
   \   000005   22           RET
    339          
    340          /*********************************************************************
    341           * @fn          zcl_registerAttrList
    342           * @brief       Register an Attribute List with ZCL Foundation
    343           * @param       endpoint - endpoint the attribute list belongs to
    344           *              numAttr - number of attributes in list
    345           *              newAttrList - array of Attribute records.
    346           *
    347           *              NOTE: THE ATTRIBUTE IDs (FOR A CLUSTER) MUST BE IN ASCENDING ORDER.
    348           *                    OTHERWISE, THE DISCOVERY RESPONSE COMMAND WILL NOT HAVE THE RIGHT ATTRIBUTE INFO
    349           * @return      ZSuccess if OK
    350           */

   \                                 In  segment BANKED_CODE, align 1, keep-with-next
    351          ZStatus_t zcl_registerAttrList( uint8 endpoint, uint8 numAttr, CONST zclAttrRec_t newAttrList[] )
   \                     zcl_registerAttrList:
    352          {
   \   000000   74F4         MOV     A,#-0xc
   \   000002   12....       LCALL   ?BANKED_ENTER_XDATA
   \   000005                ; Saved register size: 12
   \   000005                ; Auto size: 0
   \   000005   12....       LCALL   ?Subroutine62 & 0xFFFF
    353            zclAttrRecsList *pNewItem;
    354            zclAttrRecsList *pLoop;
    355          
    356            pNewItem = osal_mem_alloc( sizeof( zclAttrRecsList ) ); // Fill in the new profile list
    357            if ( pNewItem == NULL )
   \                     ??CrossCallReturnLabel_83:
   \   000008   7001         JNZ     ??zcl_registerAttrList_0
   \   00000A   E9           MOV     A,R1
   \                     ??zcl_registerAttrList_0:
   \   00000B   7004         JNZ     ??zcl_registerAttrList_1
    358              return (ZMemError);
   \   00000D   7910         MOV     R1,#0x10
   \   00000F   8027         SJMP    ??CrossCallReturnLabel_15
    359          
    360            pNewItem->next = (zclAttrRecsList *)NULL;
   \                     ??zcl_registerAttrList_1:
   \   000011   12....       LCALL   ?Subroutine0 & 0xFFFF
    361            pNewItem->endpoint = endpoint;
    362            pNewItem->numAttributes = numAttr;
    363            pNewItem->attrs = newAttrList;
    364          
    365            if ( attrList == NULL ) // Find spot in list
   \                     ??CrossCallReturnLabel_0:
   \   000014   90....       MOV     DPTR,#attrList
   \   000017   E0           MOVX    A,@DPTR
   \   000018   7002         JNZ     ??zcl_registerAttrList_2
   \   00001A   A3           INC     DPTR
   \   00001B   E0           MOVX    A,@DPTR
   \                     ??zcl_registerAttrList_2:
   \   00001C   90....       MOV     DPTR,#attrList
   \   00001F   6014         JZ      ??zcl_registerAttrList_3
    366            {
    367              attrList = pNewItem;
    368            }
    369            else
    370            {
    371              pLoop = attrList; // Look for end of list
   \   000021   12....       LCALL   ?Subroutine86 & 0xFFFF
   \                     ??CrossCallReturnLabel_260:
   \   000024   8003         SJMP    ??zcl_registerAttrList_4
    372              while ( pLoop->next != NULL )
    373                pLoop = pLoop->next;
   \                     ??zcl_registerAttrList_5:
   \   000026   EA           MOV     A,R2
   \   000027   FC           MOV     R4,A
   \   000028   EB           MOV     A,R3
   \                     ??zcl_registerAttrList_4:
   \   000029   12....       LCALL   ?Subroutine33 & 0xFFFF
   \                     ??CrossCallReturnLabel_163:
   \   00002C   7001         JNZ     ??zcl_registerAttrList_6
   \   00002E   EB           MOV     A,R3
   \                     ??zcl_registerAttrList_6:
   \   00002F   70F5         JNZ     ??zcl_registerAttrList_5
    374          
    375              pLoop->next = pNewItem; // Put new item at end of list
   \   000031   8C82         MOV     DPL,R4
   \   000033   8D83         MOV     DPH,R5
    376            }
   \                     ??zcl_registerAttrList_3:
   \   000035   12....       LCALL   ?Subroutine11 & 0xFFFF
    377            return ( ZSuccess );
   \                     ??CrossCallReturnLabel_15:
   \   000038   02....       LJMP    ?Subroutine104 & 0xFFFF
    378          }

   \                                 In  segment BANKED_CODE, align 1, keep-with-next
   \                     ?Subroutine62:
   \   000000   89..         MOV     ?V0 + 0,R1
   \   000002   8A..         MOV     ?V0 + 1,R2
   \   000004   EC           MOV     A,R4
   \   000005   FE           MOV     R6,A
   \   000006   ED           MOV     A,R5
   \   000007   FF           MOV     R7,A
   \   000008                ; Setup parameters for call to function osal_mem_alloc
   \   000008                ; Setup parameters for call to function osal_mem_alloc
   \   000008   7A06         MOV     R2,#0x6
   \   00000A   7B00         MOV     R3,#0x0
   \   00000C   12....       LCALL   ??osal_mem_alloc?relay
   \   00000F   8A..         MOV     ?V0 + 2,R2
   \   000011   8B..         MOV     ?V0 + 3,R3
   \   000013   A8..         MOV     R0,?V0 + 2
   \   000015   A9..         MOV     R1,?V0 + 3
   \   000017   E8           MOV     A,R0
   \   000018   22           RET

   \                                 In  segment BANKED_CODE, align 1, keep-with-next
   \                     ?Subroutine0:
   \   000000   8882         MOV     DPL,R0
   \   000002   8983         MOV     DPH,R1
   \   000004   E4           CLR     A
   \   000005   F0           MOVX    @DPTR,A
   \   000006   A3           INC     DPTR
   \   000007   12....       LCALL   ?Subroutine96 & 0xFFFF
   \                     ??CrossCallReturnLabel_128:
   \   00000A   A3           INC     DPTR
   \   00000B   E5..         MOV     A,?V0 + 0
   \   00000D   12....       LCALL   ?Subroutine77 & 0xFFFF
   \                     ??CrossCallReturnLabel_104:
   \   000010   E5..         MOV     A,?V0 + 1
   \   000012   12....       LCALL   ?Subroutine77 & 0xFFFF
   \                     ??CrossCallReturnLabel_105:
   \   000015   A3           INC     DPTR
   \   000016   EE           MOV     A,R6
   \   000017   F0           MOVX    @DPTR,A
   \   000018   A3           INC     DPTR
   \   000019   EF           MOV     A,R7
   \   00001A   F0           MOVX    @DPTR,A
   \   00001B   22           RET

   \                                 In  segment BANKED_CODE, align 1, keep-with-next
   \                     ?Subroutine77:
   \   000000   12....       LCALL   ?Subroutine96 & 0xFFFF
   \                     ??CrossCallReturnLabel_129:
   \   000003   A3           INC     DPTR
   \   000004   A3           INC     DPTR
   \   000005   22           RET
    379          
    380          /*********************************************************************
    381           * @fn          zcl_registerClusterOptionList
    382           * @brief       Register a Cluster Option List with ZCL Foundation
    383           * @param       endpoint - endpoint the option list belongs to
    384           *              numOption - number of options in list
    385           *              optionList - array of cluster option records.
    386           *                           
    387           *              NOTE: This API should be called to enable 'Application Link Key' security and/or
    388           *                    'APS ACK' for a specific Cluster. The 'Application Link Key' is discarded 
    389           *                    if security isn't enabled on the device. The default behavior is 'Network Key'
    390           *                    when security is enabled and no 'APS ACK' for the ZCL messages.
    391           * @return      ZSuccess if OK
    392           */

   \                                 In  segment BANKED_CODE, align 1, keep-with-next
    393          ZStatus_t zcl_registerClusterOptionList( uint8 endpoint, uint8 numOption, zclOptionRec_t optionList[] )
   \                     zcl_registerClusterOptionList:
    394          {
   \   000000   74F4         MOV     A,#-0xc
   \   000002   12....       LCALL   ?BANKED_ENTER_XDATA
   \   000005                ; Saved register size: 12
   \   000005                ; Auto size: 0
   \   000005   12....       LCALL   ?Subroutine62 & 0xFFFF
    395            zclClusterOptionList *pNewItem;
    396            zclClusterOptionList *pLoop;
    397          
    398            // Fill in the new profile list
    399            pNewItem = osal_mem_alloc( sizeof( zclClusterOptionList ) );
    400            if ( pNewItem == NULL )
   \                     ??CrossCallReturnLabel_84:
   \   000008   7001         JNZ     ??zcl_registerClusterOptionList_0
   \   00000A   E9           MOV     A,R1
   \                     ??zcl_registerClusterOptionList_0:
   \   00000B   7004         JNZ     ??zcl_registerClusterOptionList_1
    401              return (ZMemError);
   \   00000D   7910         MOV     R1,#0x10
   \   00000F   8027         SJMP    ??CrossCallReturnLabel_16
    402          
    403            pNewItem->next = (zclClusterOptionList *)NULL;
   \                     ??zcl_registerClusterOptionList_1:
   \   000011   12....       LCALL   ?Subroutine0 & 0xFFFF
    404            pNewItem->endpoint = endpoint;
    405            pNewItem->numOptions = numOption;
    406            pNewItem->options = optionList;
    407          
    408            // Find spot in list
    409            if ( clusterOptionList == NULL )
   \                     ??CrossCallReturnLabel_1:
   \   000014   90....       MOV     DPTR,#clusterOptionList
   \   000017   E0           MOVX    A,@DPTR
   \   000018   7002         JNZ     ??zcl_registerClusterOptionList_2
   \   00001A   A3           INC     DPTR
   \   00001B   E0           MOVX    A,@DPTR
   \                     ??zcl_registerClusterOptionList_2:
   \   00001C   90....       MOV     DPTR,#clusterOptionList
   \   00001F   6014         JZ      ??zcl_registerClusterOptionList_3
    410            {
    411              clusterOptionList = pNewItem;
    412            }
    413            else
    414            {
    415              // Look for end of list
    416              pLoop = clusterOptionList;
   \   000021   12....       LCALL   ?Subroutine86 & 0xFFFF
   \                     ??CrossCallReturnLabel_261:
   \   000024   8003         SJMP    ??zcl_registerClusterOptionList_4
    417              while ( pLoop->next != NULL )
    418                pLoop = pLoop->next;
   \                     ??zcl_registerClusterOptionList_5:
   \   000026   EA           MOV     A,R2
   \   000027   FC           MOV     R4,A
   \   000028   EB           MOV     A,R3
   \                     ??zcl_registerClusterOptionList_4:
   \   000029   12....       LCALL   ?Subroutine33 & 0xFFFF
   \                     ??CrossCallReturnLabel_164:
   \   00002C   7001         JNZ     ??zcl_registerClusterOptionList_6
   \   00002E   EB           MOV     A,R3
   \                     ??zcl_registerClusterOptionList_6:
   \   00002F   70F5         JNZ     ??zcl_registerClusterOptionList_5
    419          
    420              // Put new item at end of list
    421              pLoop->next = pNewItem;
   \   000031   8C82         MOV     DPL,R4
   \   000033   8D83         MOV     DPH,R5
    422            }
   \                     ??zcl_registerClusterOptionList_3:
   \   000035   12....       LCALL   ?Subroutine11 & 0xFFFF
    423          
    424            return ( ZSuccess );
   \                     ??CrossCallReturnLabel_16:
   \   000038   02....       LJMP    ?Subroutine104 & 0xFFFF
    425          }
    426          
    427          /*********************************************************************
    428           * @fn          zcl_registerValidateAttrData
    429           * @brief       Add a validation function for attribute data
    430           * @param       pfnValidateAttrData - function pointer to validate routine
    431           * @return      ZSuccess if OK
    432           */

   \                                 In  segment BANKED_CODE, align 1, keep-with-next
    433          ZStatus_t zcl_registerValidateAttrData( zclValidateAttrData_t pfnValidateAttrData )
   \                     zcl_registerValidateAttrData:
    434          {
   \   000000   C082         PUSH    DPL
   \   000002   C083         PUSH    DPH
   \   000004                ; Saved register size: 2
   \   000004                ; Auto size: 0
    435            zcl_ValidateAttrDataCB = pfnValidateAttrData;
   \   000004   90....       MOV     DPTR,#zcl_ValidateAttrDataCB
   \   000007   12....       LCALL   ??Subroutine147_0 & 0xFFFF
    436            
    437            return ( ZSuccess );
   \                     ??CrossCallReturnLabel_291:
   \   00000A   7900         MOV     R1,#0x0
   \   00000C   80..         SJMP    ?Subroutine103
    438          }
    439          
    440          /*********************************************************************
    441           * @fn      zcl_registerForMsg
    442           * @brief   The ZCL is setup to send all incoming Foundation Command/Response
    443           *          messages that aren't processed to one task (if a task is
    444           *          registered).
    445           * @param   taskId - task Id of the Application where commands will be sent to
    446           * @return  TRUE if task registeration successful, FALSE otherwise
    447           *********************************************************************/

   \                                 In  segment BANKED_CODE, align 1, keep-with-next
    448          uint8 zcl_registerForMsg( uint8 taskId )
   \                     zcl_registerForMsg:
    449          {
   \   000000   C082         PUSH    DPL
   \   000002   C083         PUSH    DPH
   \   000004                ; Saved register size: 2
   \   000004                ; Auto size: 0
    450            // Allow only the first task
    451            if ( zcl_RegisteredMsgTaskID == TASK_NO_TASK )
   \   000004   90....       MOV     DPTR,#zcl_RegisteredMsgTaskID
   \   000007   E0           MOVX    A,@DPTR
   \   000008   64FF         XRL     A,#0xff
   \   00000A   7006         JNZ     ??zcl_registerForMsg_0
    452            {
    453              zcl_RegisteredMsgTaskID = taskId;  
   \   00000C   E9           MOV     A,R1
   \   00000D   F0           MOVX    @DPTR,A
    454              return ( true );
   \   00000E   7901         MOV     R1,#0x1
   \   000010   8002         SJMP    ??zcl_registerForMsg_1
    455            }
    456            return ( false );
   \                     ??zcl_registerForMsg_0:
   \   000012   7900         MOV     R1,#0x0
   \                     ??zcl_registerForMsg_1:
   \   000014                REQUIRE ?Subroutine103
   \   000014                ; // Fall through to label ?Subroutine103
    457          }
    458          
    459          /*********************************************************************
    460           * @fn      zcl_DeviceOperational
    461           * @brief   Used to see whether or not the device can send or respond 
    462           *          to application level commands.
    463           * @param   srcEP - source endpoint
    464           *          clusterID - cluster ID
    465           *          frameType - command type
    466           *          cmd - command ID
    467           * @return  TRUE if device is operational, FALSE otherwise
    468           */

   \                                 In  segment BANKED_CODE, align 1, keep-with-next
    469          static uint8 zcl_DeviceOperational( uint8 srcEP, uint16 clusterID, 
   \                     zcl_DeviceOperational:
    470                                              uint8 frameType, uint8 cmd, uint16 profileID )
    471          {
   \   000000   74F6         MOV     A,#-0xa
   \   000002   12....       LCALL   ?BANKED_ENTER_XDATA
   \   000005                ; Saved register size: 10
   \   000005                ; Auto size: 9
   \   000005   74F7         MOV     A,#-0x9
   \   000007   12....       LCALL   ?ALLOC_XSTACK8
    472            zclAttrRec_t attrRec;
    473            uint8 deviceEnabled = DEVICE_ENABLED; // default value
   \   00000A   7401         MOV     A,#0x1
   \   00000C   85..82       MOV     DPL,?XSP + 0
   \   00000F   85..83       MOV     DPH,?XSP + 1
   \   000012   F0           MOVX    @DPTR,A
    474            
    475            (void)profileID;  // Intentionally unreferenced parameter
    476            
    477            // If the device is Disabled (DeviceEnabled attribute is set to Disabled), it 
    478            // cannot send or respond to application level commands, other than commands
    479            // to read or write attributes. Note that the Identify cluster cannot be 
    480            // disabled, and remains functional regardless of this setting.
    481            if ( zcl_ProfileCmd( frameType ) && cmd <= ZCL_CMD_WRITE_NO_RSP )
   \   000013   EC           MOV     A,R4
   \   000014   700A         JNZ     ??zcl_DeviceOperational_0
   \   000016   ED           MOV     A,R5
   \   000017   C3           CLR     C
   \   000018   9406         SUBB    A,#0x6
   \   00001A   5004         JNC     ??zcl_DeviceOperational_0
    482              return ( TRUE );
   \                     ??zcl_DeviceOperational_1:
   \   00001C   7901         MOV     R1,#0x1
   \   00001E   804E         SJMP    ??zcl_DeviceOperational_2
    483            
    484            if ( clusterID == ZCL_CLUSTER_ID_GEN_IDENTIFY )
   \                     ??zcl_DeviceOperational_0:
   \   000020   7403         MOV     A,#0x3
   \   000022   6A           XRL     A,R2
   \   000023   7001         JNZ     ??zcl_DeviceOperational_3
   \   000025   EB           MOV     A,R3
   \                     ??zcl_DeviceOperational_3:
   \   000026   60F4         JZ      ??zcl_DeviceOperational_1
    485              return ( TRUE );
    486            
    487            // Is device enabled?
    488            if ( zclFindAttrRec( srcEP, ZCL_CLUSTER_ID_GEN_BASIC, ATTRID_BASIC_DEVICE_ENABLED, &attrRec ) )
   \   000028                ; Setup parameters for call to function zclFindAttrRec
   \   000028   7401         MOV     A,#0x1
   \   00002A   12....       LCALL   ?XSTACK_DISP0_8
   \   00002D   8582..       MOV     ?V0 + 0,DPL
   \   000030   8583..       MOV     ?V0 + 1,DPH
   \   000033   78..         MOV     R0,#?V0 + 0
   \   000035   12....       LCALL   ?PUSH_XSTACK_I_TWO
   \   000038   7C12         MOV     R4,#0x12
   \   00003A   7D00         MOV     R5,#0x0
   \   00003C   7A00         MOV     R2,#0x0
   \   00003E   7B00         MOV     R3,#0x0
   \   000040   12....       LCALL   ??zclFindAttrRec?relay
   \   000043   7402         MOV     A,#0x2
   \   000045   12....       LCALL   ?DEALLOC_XSTACK8
   \   000048   E9           MOV     A,R1
   \   000049   6016         JZ      ??zcl_DeviceOperational_4
    489              zclReadAttrData( &deviceEnabled, &attrRec );
   \   00004B                ; Setup parameters for call to function zclReadAttrData
   \   00004B   7401         MOV     A,#0x1
   \   00004D   12....       LCALL   ?XSTACK_DISP0_8
   \   000050   AC82         MOV     R4,DPL
   \   000052   AD83         MOV     R5,DPH
   \   000054   85..82       MOV     DPL,?XSP + 0
   \   000057   85..83       MOV     DPH,?XSP + 1
   \   00005A   AA82         MOV     R2,DPL
   \   00005C   AB83         MOV     R3,DPH
   \   00005E   12....       LCALL   ??zclReadAttrData?relay
    490            
    491            return ( deviceEnabled == DEVICE_ENABLED ? TRUE : FALSE );
   \                     ??zcl_DeviceOperational_4:
   \   000061   85..82       MOV     DPL,?XSP + 0
   \   000064   85..83       MOV     DPH,?XSP + 1
   \   000067   E0           MOVX    A,@DPTR
   \   000068   6401         XRL     A,#0x1
   \   00006A   60B0         JZ      ??zcl_DeviceOperational_1
   \   00006C   7900         MOV     R1,#0x0
   \                     ??zcl_DeviceOperational_2:
   \   00006E   7409         MOV     A,#0x9
   \   000070   12....       LCALL   ?DEALLOC_XSTACK8
   \   000073   02....       LJMP    ?Subroutine113 & 0xFFFF
    492          }

   \                                 In  segment BANKED_CODE, align 1, keep-with-next
   \                     ?Subroutine113:
   \   000000   7F02         MOV     R7,#0x2
   \   000002   02....       LJMP    ?BANKED_LEAVE_XDATA
    493          
    494          /*********************************************************************
    495           * @fn      zcl_SendCommand
    496           * @brief   Used to send Profile and Cluster Specific Command messages.
    497           *          NOTE: The calling application is responsible for incrementing the Sequence Number.                
    498           * @param   srcEp - source endpoint
    499           *          destAddr - destination address 
    500           *          clusterID - cluster ID
    501           *          cmd - command ID
    502           *          specific - whether the command is Cluster Specific
    503           *          direction - client/server direction of the command
    504           *          disableDefaultRsp - disable Default Response command
    505           *          manuCode - manufacturer code for proprietary extensions to a profile
    506           *          seqNumber - identification number for the transaction
    507           *          cmdFormatLen - length of the command to be sent
    508           *          cmdFormat - command to be sent
    509           * @return  ZSuccess if OK
    510           */

   \                                 In  segment BANKED_CODE, align 1, keep-with-next
    511          ZStatus_t zcl_SendCommand( uint8 srcEP, afAddrType_t *destAddr,
   \                     zcl_SendCommand:
    512                                     uint16 clusterID, uint8 cmd, uint8 specific, uint8 direction,
    513                                     uint8 disableDefaultRsp, uint16 manuCode, uint8 seqNum,
    514                                     uint16 cmdFormatLen, uint8 *cmdFormat )
    515          {
   \   000000   74E8         MOV     A,#-0x18
   \   000002   12....       LCALL   ?BANKED_ENTER_XDATA
   \   000005                ; Saved register size: 24
   \   000005                ; Auto size: 18
   \   000005   74EE         MOV     A,#-0x12
   \   000007   12....       LCALL   ?ALLOC_XSTACK8
   \   00000A   E9           MOV     A,R1
   \   00000B   FF           MOV     R7,A
   \   00000C   8C..         MOV     ?V0 + 0,R4
   \   00000E   8D..         MOV     ?V0 + 1,R5
   \   000010   742A         MOV     A,#0x2a
   \   000012   12....       LCALL   ?XSTACK_DISP0_8
   \   000015   E0           MOVX    A,@DPTR
   \   000016   FE           MOV     R6,A
   \   000017   742B         MOV     A,#0x2b
   \   000019   12....       LCALL   ?XSTACK_DISP0_8
   \   00001C   E0           MOVX    A,@DPTR
   \   00001D   F5..         MOV     ?V0 + 3,A
   \   00001F   742C         MOV     A,#0x2c
   \   000021   12....       LCALL   ?XSTACK_DISP0_8
   \   000024   E0           MOVX    A,@DPTR
   \   000025   F5..         MOV     ?V0 + 9,A
   \   000027   742D         MOV     A,#0x2d
   \   000029   12....       LCALL   ?XSTACK_DISP0_8
   \   00002C   E0           MOVX    A,@DPTR
   \   00002D   F5..         MOV     ?V0 + 8,A
   \   00002F   742E         MOV     A,#0x2e
   \   000031   12....       LCALL   ?XSTACK_DISP0_8
   \   000034   E0           MOVX    A,@DPTR
   \   000035   F5..         MOV     ?V0 + 12,A
   \   000037   A3           INC     DPTR
   \   000038   E0           MOVX    A,@DPTR
   \   000039   F5..         MOV     ?V0 + 13,A
   \   00003B   7430         MOV     A,#0x30
   \   00003D   12....       LCALL   ?XSTACK_DISP0_8
   \   000040   E0           MOVX    A,@DPTR
   \   000041   F5..         MOV     ?V0 + 7,A
   \   000043   7431         MOV     A,#0x31
   \   000045   12....       LCALL   ?XSTACK_DISP0_8
   \   000048   E0           MOVX    A,@DPTR
   \   000049   F5..         MOV     ?V0 + 14,A
   \   00004B   A3           INC     DPTR
   \   00004C   E0           MOVX    A,@DPTR
   \   00004D   F5..         MOV     ?V0 + 15,A
    516            endPointDesc_t *epDesc;
    517            zclFrameHdr_t hdr;
    518            uint8 *msgBuf;
    519            uint16 msgLen;
    520            uint8 *pBuf;
    521            afAddrType_t dstAddr;
    522            uint8 options;
    523            ZStatus_t status;
    524          
    525            osal_memcpy( &dstAddr, destAddr, sizeof ( afAddrType_t ) );
   \   00004F                ; Setup parameters for call to function osal_memcpy
   \   00004F   8A..         MOV     ?V0 + 4,R2
   \   000051   8B..         MOV     ?V0 + 5,R3
   \   000053   75..00       MOV     ?V0 + 6,#0x0
   \   000056   78..         MOV     R0,#?V0 + 4
   \   000058   12....       LCALL   ?PUSH_XSTACK_I_THREE
   \   00005B   7C0C         MOV     R4,#0xc
   \   00005D   7D00         MOV     R5,#0x0
   \   00005F   7409         MOV     A,#0x9
   \   000061   12....       LCALL   ?XSTACK_DISP0_8
   \   000064   AA82         MOV     R2,DPL
   \   000066   AB83         MOV     R3,DPH
   \   000068   12....       LCALL   ?Subroutine107 & 0xFFFF
   \                     ??CrossCallReturnLabel_145:
   \   00006B   12....       LCALL   ?DEALLOC_XSTACK8
    526          
    527            epDesc = afFindEndPointDesc( srcEP );
   \   00006E                ; Setup parameters for call to function afFindEndPointDesc
   \   00006E   EF           MOV     A,R7
   \   00006F   F9           MOV     R1,A
   \   000070   12....       LCALL   ??afFindEndPointDesc?relay
   \   000073   8A..         MOV     ?V0 + 10,R2
   \   000075   8B..         MOV     ?V0 + 11,R3
    528            if ( epDesc == NULL )
   \   000077   EA           MOV     A,R2
   \   000078   7001         JNZ     ??zcl_SendCommand_0
   \   00007A   EB           MOV     A,R3
   \                     ??zcl_SendCommand_0:
   \   00007B   7005         JNZ     ??zcl_SendCommand_1
    529              return ( ZInvalidParameter ); // EMBEDDED RETURN
   \                     ??zcl_SendCommand_2:
   \   00007D   7902         MOV     R1,#0x2
   \   00007F   02....       LJMP    ??zcl_SendCommand_3 & 0xFFFF
    530          
    531            if ( clusterID == ZCL_INVALID_CLUSTER_ID )
   \                     ??zcl_SendCommand_1:
   \   000082   74FF         MOV     A,#-0x1
   \   000084   65..         XRL     A,?V0 + 0
   \   000086   7004         JNZ     ??zcl_SendCommand_4
   \   000088   74FF         MOV     A,#-0x1
   \   00008A   65..         XRL     A,?V0 + 1
   \                     ??zcl_SendCommand_4:
   \   00008C   60EF         JZ      ??zcl_SendCommand_2
    532              return ( ZInvalidParameter ); // EMBEDDED RETURN
    533          
    534          #if defined ( INTER_PAN )
    535            if ( StubAPS_InterPan( destAddr->panId, destAddr->endPoint ) )
    536              options = AF_TX_OPTIONS_NONE;
    537            else
    538          #endif
    539              options = zclGetClusterOption( srcEP, clusterID );
   \   00008E                ; Setup parameters for call to function zclGetClusterOption
   \   00008E   AA..         MOV     R2,?V0 + 0
   \   000090   AB..         MOV     R3,?V0 + 1
   \   000092   EF           MOV     A,R7
   \   000093   F9           MOV     R1,A
   \   000094   12....       LCALL   ??zclGetClusterOption?relay
   \   000097   E9           MOV     A,R1
   \   000098   F5..         MOV     ?V0 + 2,A
    540            
    541            osal_memset( &hdr, 0, sizeof( zclFrameHdr_t ) );
   \   00009A                ; Setup parameters for call to function osal_memset
   \   00009A   7C06         MOV     R4,#0x6
   \   00009C   7D00         MOV     R5,#0x0
   \   00009E   7900         MOV     R1,#0x0
   \   0000A0   85..82       MOV     DPL,?XSP + 0
   \   0000A3   85..83       MOV     DPH,?XSP + 1
   \   0000A6   AA82         MOV     R2,DPL
   \   0000A8   AB83         MOV     R3,DPH
   \   0000AA   12....       LCALL   ??osal_memset?relay
    542          
    543            // Not Profile wide command (like READ, WRITE)
    544            if ( specific )
   \   0000AD   E5..         MOV     A,?V0 + 3
   \   0000AF   85..82       MOV     DPL,?XSP + 0
   \   0000B2   85..83       MOV     DPH,?XSP + 1
   \   0000B5   6015         JZ      ??zcl_SendCommand_5
    545              hdr.fc.type = ZCL_FRAME_TYPE_SPECIFIC_CMD;
   \   0000B7   E0           MOVX    A,@DPTR
   \   0000B8   54FC         ANL     A,#0xfc
   \   0000BA   F8           MOV     R0,A
   \   0000BB   A3           INC     DPTR
   \   0000BC   E0           MOVX    A,@DPTR
   \   0000BD   F9           MOV     R1,A
   \   0000BE   7401         MOV     A,#0x1
   \   0000C0   48           ORL     A,R0
   \   0000C1   85..82       MOV     DPL,?XSP + 0
   \   0000C4   85..83       MOV     DPH,?XSP + 1
   \   0000C7   F0           MOVX    @DPTR,A
   \   0000C8   A3           INC     DPTR
   \   0000C9   E9           MOV     A,R1
   \   0000CA   8006         SJMP    ??zcl_SendCommand_6
    546            else
    547              hdr.fc.type = ZCL_FRAME_TYPE_PROFILE_CMD;
   \                     ??zcl_SendCommand_5:
   \   0000CC   E0           MOVX    A,@DPTR
   \   0000CD   54FC         ANL     A,#0xfc
   \   0000CF   F0           MOVX    @DPTR,A
   \   0000D0   A3           INC     DPTR
   \   0000D1   E0           MOVX    A,@DPTR
   \                     ??zcl_SendCommand_6:
   \   0000D2   F0           MOVX    @DPTR,A
    548          
    549            if ((epDesc->simpleDesc == NULL) ||
    550                (zcl_DeviceOperational(srcEP, clusterID, hdr.fc.type, cmd, epDesc->simpleDesc->AppProfId) == FALSE))
   \   0000D3   85..82       MOV     DPL,?V0 + 10
   \   0000D6   85..83       MOV     DPH,?V0 + 11
   \   0000D9   A3           INC     DPTR
   \   0000DA   A3           INC     DPTR
   \   0000DB   A3           INC     DPTR
   \   0000DC   12....       LCALL   ?Subroutine40 & 0xFFFF
   \                     ??CrossCallReturnLabel_51:
   \   0000DF   7002         JNZ     ??zcl_SendCommand_7
   \   0000E1   E583         MOV     A,DPH
   \                     ??zcl_SendCommand_7:
   \   0000E3   6020         JZ      ??zcl_SendCommand_8
   \   0000E5                ; Setup parameters for call to function zcl_DeviceOperational
   \   0000E5   A3           INC     DPTR
   \   0000E6   12....       LCALL   ?PUSH_XSTACK8_X_TWO
   \   0000E9   EE           MOV     A,R6
   \   0000EA   FD           MOV     R5,A
   \   0000EB   7402         MOV     A,#0x2
   \   0000ED   12....       LCALL   ?XSTACK_DISP0_8
   \   0000F0   E0           MOVX    A,@DPTR
   \   0000F1   5403         ANL     A,#0x3
   \   0000F3   FC           MOV     R4,A
   \   0000F4   AA..         MOV     R2,?V0 + 0
   \   0000F6   AB..         MOV     R3,?V0 + 1
   \   0000F8   EF           MOV     A,R7
   \   0000F9   F9           MOV     R1,A
   \   0000FA   12....       LCALL   ??zcl_DeviceOperational?relay
   \   0000FD   7402         MOV     A,#0x2
   \   0000FF   12....       LCALL   ?DEALLOC_XSTACK8
   \   000102   E9           MOV     A,R1
   \   000103   7005         JNZ     ??zcl_SendCommand_9
    551              return ( ZFailure ); // EMBEDDED RETURN
   \                     ??zcl_SendCommand_8:
   \   000105   7901         MOV     R1,#0x1
   \   000107   02....       LJMP    ??zcl_SendCommand_3 & 0xFFFF
    552            
    553            if ( manuCode != 0 ) // Fill in the Maufacturer Code
   \                     ??zcl_SendCommand_9:
   \   00010A   E5..         MOV     A,?V0 + 12
   \   00010C   7002         JNZ     ??zcl_SendCommand_10
   \   00010E   E5..         MOV     A,?V0 + 13
   \                     ??zcl_SendCommand_10:
   \   000110   6019         JZ      ??zcl_SendCommand_11
    554            {
    555              hdr.fc.manuSpecific = 1;
   \   000112   85..82       MOV     DPL,?XSP + 0
   \   000115   85..83       MOV     DPH,?XSP + 1
   \   000118   E0           MOVX    A,@DPTR
   \   000119   4404         ORL     A,#0x4
   \   00011B   F0           MOVX    @DPTR,A
   \   00011C   A3           INC     DPTR
   \   00011D   E0           MOVX    A,@DPTR
   \   00011E   F0           MOVX    @DPTR,A
    556              hdr.manuCode = manuCode;
   \   00011F   7402         MOV     A,#0x2
   \   000121   12....       LCALL   ?XSTACK_DISP0_8
   \   000124   E5..         MOV     A,?V0 + 12
   \   000126   F0           MOVX    @DPTR,A
   \   000127   A3           INC     DPTR
   \   000128   E5..         MOV     A,?V0 + 13
   \   00012A   F0           MOVX    @DPTR,A
    557            }
    558            
    559            if ( direction ) // Set the Command Direction
   \                     ??zcl_SendCommand_11:
   \   00012B   E5..         MOV     A,?V0 + 9
   \   00012D   85..82       MOV     DPL,?XSP + 0
   \   000130   85..83       MOV     DPH,?XSP + 1
   \   000133   6005         JZ      ??zcl_SendCommand_12
    560              hdr.fc.direction = ZCL_FRAME_SERVER_CLIENT_DIR;
   \   000135   E0           MOVX    A,@DPTR
   \   000136   4408         ORL     A,#0x8
   \   000138   8003         SJMP    ??zcl_SendCommand_13
    561            else
    562              hdr.fc.direction = ZCL_FRAME_CLIENT_SERVER_DIR;
   \                     ??zcl_SendCommand_12:
   \   00013A   E0           MOVX    A,@DPTR
   \   00013B   54F7         ANL     A,#0xf7
   \                     ??zcl_SendCommand_13:
   \   00013D   F0           MOVX    @DPTR,A
   \   00013E   A3           INC     DPTR
   \   00013F   E0           MOVX    A,@DPTR
   \   000140   F0           MOVX    @DPTR,A
    563          
    564            if ( disableDefaultRsp ) // Set the Disable Default Response field
   \   000141   E5..         MOV     A,?V0 + 8
   \   000143   85..82       MOV     DPL,?XSP + 0
   \   000146   85..83       MOV     DPH,?XSP + 1
   \   000149   6005         JZ      ??zcl_SendCommand_14
    565              hdr.fc.disableDefaultRsp = 1;
   \   00014B   E0           MOVX    A,@DPTR
   \   00014C   4410         ORL     A,#0x10
   \   00014E   8003         SJMP    ??zcl_SendCommand_15
    566            else
    567              hdr.fc.disableDefaultRsp = 0;
   \                     ??zcl_SendCommand_14:
   \   000150   E0           MOVX    A,@DPTR
   \   000151   54EF         ANL     A,#0xef
   \                     ??zcl_SendCommand_15:
   \   000153   F0           MOVX    @DPTR,A
   \   000154   A3           INC     DPTR
   \   000155   E0           MOVX    A,@DPTR
   \   000156   F0           MOVX    @DPTR,A
    568                               
    569            hdr.transSeqNum = seqNum; // Fill in the Transaction Sequence Number
   \   000157   7404         MOV     A,#0x4
   \   000159   12....       LCALL   ?XSTACK_DISP0_8
   \   00015C   E5..         MOV     A,?V0 + 7
   \   00015E   F0           MOVX    @DPTR,A
    570            
    571            hdr.commandID = cmd; // Fill in the command
   \   00015F   7405         MOV     A,#0x5
   \   000161   12....       LCALL   ?XSTACK_DISP0_8
   \   000164   EE           MOV     A,R6
   \   000165   F0           MOVX    @DPTR,A
    572            
    573            msgLen = zclCalcHdrSize( &hdr ); // calculate the needed buffer size
   \   000166   75..03       MOV     ?V0 + 4,#0x3
   \   000169   85..82       MOV     DPL,?XSP + 0
   \   00016C   85..83       MOV     DPH,?XSP + 1
   \   00016F   E0           MOVX    A,@DPTR
   \   000170   5404         ANL     A,#0x4
   \   000172   6003         JZ      ??zcl_SendCommand_16
   \   000174   75..05       MOV     ?V0 + 4,#0x5
    574            msgLen += cmdFormatLen;
   \                     ??zcl_SendCommand_16:
   \   000177   E5..         MOV     A,?V0 + 14
   \   000179   25..         ADD     A,?V0 + 4
   \   00017B   F5..         MOV     ?V0 + 12,A
   \   00017D   E5..         MOV     A,?V0 + 15
   \   00017F   3400         ADDC    A,#0x0
   \   000181   F5..         MOV     ?V0 + 13,A
    575          
    576            msgBuf = osal_mem_alloc( msgLen ); // Allocate the buffer needed
   \   000183                ; Setup parameters for call to function osal_mem_alloc
   \   000183   AA..         MOV     R2,?V0 + 12
   \   000185   FB           MOV     R3,A
   \   000186   12....       LCALL   ??osal_mem_alloc?relay
   \   000189   8A..         MOV     ?V0 + 8,R2
   \   00018B   8B..         MOV     ?V0 + 9,R3
    577            if ( msgBuf != NULL )
   \   00018D   EA           MOV     A,R2
   \   00018E   7001         JNZ     ??zcl_SendCommand_17
   \   000190   EB           MOV     A,R3
   \                     ??zcl_SendCommand_17:
   \   000191   606B         JZ      ??zcl_SendCommand_18
    578            {
    579              pBuf = zclBuildHdr( &hdr, msgBuf ); // Fill in the ZCL Header
    580          
    581              osal_memcpy( pBuf, cmdFormat, cmdFormatLen ); // Fill in the command frame
   \   000193                ; Setup parameters for call to function osal_memcpy
   \   000193   7433         MOV     A,#0x33
   \   000195   12....       LCALL   ?XSTACK_DISP0_8
   \   000198   12....       LCALL   ?Subroutine78 & 0xFFFF
   \                     ??CrossCallReturnLabel_106:
   \   00019B   78..         MOV     R0,#?V0 + 4
   \   00019D   12....       LCALL   ?PUSH_XSTACK_I_THREE
   \   0001A0                ; Setup parameters for call to function zclBuildHdr
   \   0001A0   AC..         MOV     R4,?V0 + 8
   \   0001A2   AD..         MOV     R5,?V0 + 9
   \   0001A4   7403         MOV     A,#0x3
   \   0001A6   12....       LCALL   ?XSTACK_DISP0_8
   \   0001A9   AA82         MOV     R2,DPL
   \   0001AB   AB83         MOV     R3,DPH
   \   0001AD   12....       LCALL   ??zclBuildHdr?relay
   \   0001B0   AC..         MOV     R4,?V0 + 14
   \   0001B2   AD..         MOV     R5,?V0 + 15
   \   0001B4   12....       LCALL   ?Subroutine107 & 0xFFFF
   \                     ??CrossCallReturnLabel_146:
   \   0001B7   12....       LCALL   ?DEALLOC_XSTACK8
    582          
    583              status = AF_DataRequest( &dstAddr, epDesc, clusterID, msgLen, msgBuf, 
    584                                       &zcl_TransID, options, AF_DEFAULT_RADIUS );  
   \   0001BA                ; Setup parameters for call to function AF_DataRequest
   \   0001BA   75..1E       MOV     ?V0 + 3,#0x1e
   \   0001BD   78..         MOV     R0,#?V0 + 3
   \   0001BF   12....       LCALL   ?PUSH_XSTACK_I_ONE
   \   0001C2   75....       MOV     ?V0 + 4,#(zcl_TransID & 0xff)
   \   0001C5   75....       MOV     ?V0 + 5,#((zcl_TransID >> 8) & 0xff)
   \   0001C8   78..         MOV     R0,#?V0 + 4
   \   0001CA   12....       LCALL   ?PUSH_XSTACK_I_TWO
   \   0001CD   78..         MOV     R0,#?V0 + 8
   \   0001CF   12....       LCALL   ?PUSH_XSTACK_I_TWO
   \   0001D2   78..         MOV     R0,#?V0 + 12
   \   0001D4   12....       LCALL   ?PUSH_XSTACK_I_TWO
   \   0001D7   78..         MOV     R0,#?V0 + 0
   \   0001D9   12....       LCALL   ?PUSH_XSTACK_I_TWO
   \   0001DC   A9..         MOV     R1,?V0 + 2
   \   0001DE   AC..         MOV     R4,?V0 + 10
   \   0001E0   AD..         MOV     R5,?V0 + 11
   \   0001E2   740F         MOV     A,#0xf
   \   0001E4   12....       LCALL   ?XSTACK_DISP0_8
   \   0001E7   AA82         MOV     R2,DPL
   \   0001E9   AB83         MOV     R3,DPH
   \   0001EB   12....       LCALL   ??AF_DataRequest?relay
   \   0001EE   7409         MOV     A,#0x9
   \   0001F0   12....       LCALL   ?DEALLOC_XSTACK8
   \   0001F3   E9           MOV     A,R1
   \   0001F4   FE           MOV     R6,A
    585              osal_mem_free ( msgBuf );
   \   0001F5                ; Setup parameters for call to function osal_mem_free
   \   0001F5   AA..         MOV     R2,?V0 + 8
   \   0001F7   AB..         MOV     R3,?V0 + 9
   \   0001F9   12....       LCALL   ??osal_mem_free?relay
   \   0001FC   8002         SJMP    ??zcl_SendCommand_19
    586            }
    587            else
    588              status = ZMemError;
   \                     ??zcl_SendCommand_18:
   \   0001FE   7E10         MOV     R6,#0x10
    589          
    590            return ( status );
   \                     ??zcl_SendCommand_19:
   \   000200   EE           MOV     A,R6
   \   000201   F9           MOV     R1,A
   \                     ??zcl_SendCommand_3:
   \   000202                REQUIRE ?Subroutine119
   \   000202                ; // Fall through to label ?Subroutine119
    591          }

   \                                 In  segment BANKED_CODE, align 1, keep-with-next
   \                     ?Subroutine119:
   \   000000   7412         MOV     A,#0x12
   \   000002   80..         SJMP    ??Subroutine121_0

   \                                 In  segment BANKED_CODE, align 1, keep-with-next
   \                     ??Subroutine121_0:
   \   000000   12....       LCALL   ?DEALLOC_XSTACK8
   \   000003   7F10         MOV     R7,#0x10
   \   000005   02....       LJMP    ?BANKED_LEAVE_XDATA

   \                                 In  segment BANKED_CODE, align 1, keep-with-next
   \                     ?Subroutine40:
   \   000000   12....       LCALL   ?Subroutine87 & 0xFFFF
   \                     ??CrossCallReturnLabel_208:
   \   000003   8882         MOV     DPL,R0
   \   000005   8983         MOV     DPH,R1
   \   000007   E582         MOV     A,DPL
   \   000009   22           RET

   \                                 In  segment BANKED_CODE, align 1, keep-with-next
   \                     ?Subroutine107:
   \   000000   12....       LCALL   ??osal_memcpy?relay
   \   000003   7403         MOV     A,#0x3
   \   000005   22           RET

   \                                 In  segment BANKED_CODE, align 1, keep-with-next
   \                     ?Subroutine87:
   \   000000   E0           MOVX    A,@DPTR
   \   000001   F8           MOV     R0,A
   \   000002   A3           INC     DPTR
   \   000003   E0           MOVX    A,@DPTR
   \   000004   F9           MOV     R1,A
   \   000005   22           RET

   \                                 In  segment BANKED_CODE, align 1, keep-with-next
   \                     ?Subroutine78:
   \   000000   E0           MOVX    A,@DPTR
   \   000001   F5..         MOV     ?V0 + 4,A
   \   000003   A3           INC     DPTR
   \   000004   E0           MOVX    A,@DPTR
   \   000005   F5..         MOV     ?V0 + 5,A
   \   000007   22           RET
    592          
    593          #ifdef ZCL_READ
    594          /*********************************************************************
    595           * @fn      zcl_SendRead
    596           * @brief   Send a Read command
    597           * @param   srcEP - Application's endpoint
    598           *          dstAddr - destination address
    599           *          clusterID - cluster ID
    600           *          readCmd - read command to be sent
    601           *          direction - direction of the command
    602           *          seqNum - transaction sequence number
    603           * @return  ZSuccess if OK
    604           */

   \                                 In  segment BANKED_CODE, align 1, keep-with-next
    605          ZStatus_t zcl_SendRead( uint8 srcEP, afAddrType_t *dstAddr,
   \                     zcl_SendRead:
    606                                  uint16 clusterID, zclReadCmd_t *readCmd,
    607                                  uint8 direction, uint8 disableDefaultRsp, uint8 seqNum)
    608          {
   \   000000   74EA         MOV     A,#-0x16
   \   000002   12....       LCALL   ?BANKED_ENTER_XDATA
   \   000005                ; Saved register size: 22
   \   000005                ; Auto size: 0
   \   000005   89..         MOV     ?V0 + 8,R1
   \   000007   EA           MOV     A,R2
   \   000008   FE           MOV     R6,A
   \   000009   EB           MOV     A,R3
   \   00000A   FF           MOV     R7,A
   \   00000B   8C..         MOV     ?V0 + 0,R4
   \   00000D   8D..         MOV     ?V0 + 1,R5
   \   00000F   7416         MOV     A,#0x16
   \   000011   12....       LCALL   ?XSTACK_DISP0_8
   \   000014   12....       LCALL   ?Subroutine56 & 0xFFFF
   \                     ??CrossCallReturnLabel_77:
   \   000017   12....       LCALL   ?XSTACK_DISP0_8
   \   00001A   E0           MOVX    A,@DPTR
   \   00001B   F5..         MOV     ?V0 + 9,A
   \   00001D   7419         MOV     A,#0x19
   \   00001F   12....       LCALL   ?XSTACK_DISP0_8
   \   000022   E0           MOVX    A,@DPTR
   \   000023   F5..         MOV     ?V0 + 12,A
   \   000025   741A         MOV     A,#0x1a
   \   000027   12....       LCALL   ?XSTACK_DISP0_8
   \   00002A   E0           MOVX    A,@DPTR
   \   00002B   F5..         MOV     ?V0 + 13,A
    609            uint8 dataLen;
    610            uint8 *buf;
    611            uint8 *pBuf;
    612            ZStatus_t status;
    613          
    614            dataLen = readCmd->numAttr * 2; // Attribute ID
   \   00002D   85..82       MOV     DPL,?V0 + 4
   \   000030   85..83       MOV     DPH,?V0 + 5
   \   000033   E0           MOVX    A,@DPTR
   \   000034   C3           CLR     C
   \   000035   33           RLC     A
   \   000036   FA           MOV     R2,A
    615          
    616            buf = osal_mem_alloc( dataLen );
   \   000037   8A82         MOV     DPL,R2
   \   000039   8582..       MOV     ?V0 + 6,DPL
   \   00003C   75..00       MOV     ?V0 + 7,#0x0
   \   00003F                ; Setup parameters for call to function osal_mem_alloc
   \   00003F   12....       LCALL   ?Subroutine63 & 0xFFFF
    617            if ( buf != NULL )
   \                     ??CrossCallReturnLabel_85:
   \   000042   7001         JNZ     ??zcl_SendRead_0
   \   000044   EB           MOV     A,R3
   \                     ??zcl_SendRead_0:
   \   000045   7003         JNZ     $+5
   \   000047   02....       LJMP    ??zcl_SendRead_1 & 0xFFFF
    618            {
    619              uint8 i;
    620          
    621              pBuf = buf; // Load the buffer - serially
   \   00004A   A8..         MOV     R0,?V0 + 2
   \   00004C   A9..         MOV     R1,?V0 + 3
    622              for (i = 0; i < readCmd->numAttr; i++)
   \   00004E   75..00       MOV     ?V0 + 10,#0x0
   \   000051   801F         SJMP    ??zcl_SendRead_2
    623              {
    624                *pBuf++ = LO_UINT16( readCmd->attrID[i] );
   \                     ??zcl_SendRead_3:
   \   000053   E5..         MOV     A,?V0 + 10
   \   000055   C3           CLR     C
   \   000056   33           RLC     A
   \   000057   FA           MOV     R2,A
   \   000058   E4           CLR     A
   \   000059   33           RLC     A
   \   00005A   FB           MOV     R3,A
   \   00005B   E5..         MOV     A,?V0 + 4
   \   00005D   2A           ADD     A,R2
   \   00005E   F582         MOV     DPL,A
   \   000060   E5..         MOV     A,?V0 + 5
   \   000062   3B           ADDC    A,R3
   \   000063   F583         MOV     DPH,A
   \   000065   A3           INC     DPTR
   \   000066   AA82         MOV     R2,DPL
   \   000068   AB83         MOV     R3,DPH
   \   00006A   12....       LCALL   ?Subroutine41 & 0xFFFF
    625                *pBuf++ = HI_UINT16( readCmd->attrID[i] );
   \                     ??CrossCallReturnLabel_158:
   \   00006D   12....       LCALL   ?Subroutine28 & 0xFFFF
    626              }
   \                     ??CrossCallReturnLabel_167:
   \   000070   05..         INC     ?V0 + 10
   \                     ??zcl_SendRead_2:
   \   000072   85..82       MOV     DPL,?V0 + 4
   \   000075   85..83       MOV     DPH,?V0 + 5
   \   000078   E0           MOVX    A,@DPTR
   \   000079   FA           MOV     R2,A
   \   00007A   E5..         MOV     A,?V0 + 10
   \   00007C   C3           CLR     C
   \   00007D   9A           SUBB    A,R2
   \   00007E   40D3         JC      ??zcl_SendRead_3
    627              status = zcl_SendCommand( srcEP, dstAddr, clusterID, ZCL_CMD_READ, FALSE,
    628                                        direction, disableDefaultRsp, 0, seqNum, dataLen, buf );  
   \   000080                ; Setup parameters for call to function zcl_SendCommand
   \   000080   78..         MOV     R0,#?V0 + 2
   \   000082   12....       LCALL   ?PUSH_XSTACK_I_TWO
   \   000085   78..         MOV     R0,#?V0 + 6
   \   000087   12....       LCALL   ?PUSH_XSTACK_I_TWO
   \   00008A   E5..         MOV     A,?V0 + 13
   \   00008C   F5..         MOV     ?V0 + 4,A
   \   00008E   78..         MOV     R0,#?V0 + 4
   \   000090   12....       LCALL   ?PUSH_XSTACK_I_ONE
   \   000093   75..00       MOV     ?V0 + 4,#0x0
   \   000096   75..00       MOV     ?V0 + 5,#0x0
   \   000099   78..         MOV     R0,#?V0 + 4
   \   00009B   12....       LCALL   ?PUSH_XSTACK_I_TWO
   \   00009E   E5..         MOV     A,?V0 + 12
   \   0000A0   F5..         MOV     ?V0 + 4,A
   \   0000A2   78..         MOV     R0,#?V0 + 4
   \   0000A4   12....       LCALL   ?PUSH_XSTACK_I_ONE
   \   0000A7   E5..         MOV     A,?V0 + 9
   \   0000A9   F5..         MOV     ?V0 + 4,A
   \   0000AB   78..         MOV     R0,#?V0 + 4
   \   0000AD   12....       LCALL   ?PUSH_XSTACK_I_ONE
   \   0000B0   75..00       MOV     ?V0 + 4,#0x0
   \   0000B3   78..         MOV     R0,#?V0 + 4
   \   0000B5   12....       LCALL   ?PUSH_XSTACK_I_ONE
   \   0000B8   78..         MOV     R0,#?V0 + 4
   \   0000BA   12....       LCALL   ?PUSH_XSTACK_I_ONE
   \   0000BD   AC..         MOV     R4,?V0 + 0
   \   0000BF   AD..         MOV     R5,?V0 + 1
   \   0000C1   EE           MOV     A,R6
   \   0000C2   FA           MOV     R2,A
   \   0000C3   EF           MOV     A,R7
   \   0000C4   FB           MOV     R3,A
   \   0000C5   A9..         MOV     R1,?V0 + 8
   \   0000C7   12....       LCALL   ?Subroutine92 & 0xFFFF
   \                     ??CrossCallReturnLabel_120:
   \   0000CA   12....       LCALL   ?DEALLOC_XSTACK8
   \   0000CD   E9           MOV     A,R1
   \   0000CE   FE           MOV     R6,A
    629              osal_mem_free( buf );
   \   0000CF                ; Setup parameters for call to function osal_mem_free
   \   0000CF   AA..         MOV     R2,?V0 + 2
   \   0000D1   AB..         MOV     R3,?V0 + 3
   \   0000D3   12....       LCALL   ??osal_mem_free?relay
   \   0000D6   8002         SJMP    ??zcl_SendRead_4
    630            }
    631            else
    632              status = ZMemError;
   \                     ??zcl_SendRead_1:
   \   0000D8   7E10         MOV     R6,#0x10
    633          
    634            return ( status );
   \                     ??zcl_SendRead_4:
   \   0000DA                REQUIRE ?Subroutine115
   \   0000DA                ; // Fall through to label ?Subroutine115
    635          }

   \                                 In  segment BANKED_CODE, align 1, keep-with-next
   \                     ?Subroutine115:
   \   000000   EE           MOV     A,R6
   \   000001   F9           MOV     R1,A
   \   000002                REQUIRE ??Subroutine122_0
   \   000002                ; // Fall through to label ??Subroutine122_0

   \                                 In  segment BANKED_CODE, align 1, keep-with-next
   \                     ??Subroutine122_0:
   \   000000   7F0E         MOV     R7,#0xe
   \   000002   02....       LJMP    ?BANKED_LEAVE_XDATA

   \                                 In  segment BANKED_CODE, align 1, keep-with-next
   \                     ?Subroutine28:
   \   000000   8A82         MOV     DPL,R2
   \   000002   8B83         MOV     DPH,R3
   \   000004   A3           INC     DPTR
   \   000005                REQUIRE ??Subroutine123_0
   \   000005                ; // Fall through to label ??Subroutine123_0

   \                                 In  segment BANKED_CODE, align 1, keep-with-next
   \                     ??Subroutine123_0:
   \   000000   E0           MOVX    A,@DPTR
   \   000001   8882         MOV     DPL,R0
   \   000003   8983         MOV     DPH,R1
   \   000005   F0           MOVX    @DPTR,A
   \   000006   A3           INC     DPTR
   \   000007   08           INC     R0
   \   000008   A983         MOV     R1,DPH
   \   00000A   22           RET

   \                                 In  segment BANKED_CODE, align 1, keep-with-next
   \                     ?Subroutine110:
   \   000000   A882         MOV     R0,DPL
   \   000002   A983         MOV     R1,DPH
   \   000004   22           RET

   \                                 In  segment BANKED_CODE, align 1, keep-with-next
   \                     ?Subroutine92:
   \   000000   12....       LCALL   ??zcl_SendCommand?relay
   \   000003   740B         MOV     A,#0xb
   \   000005   22           RET

   \                                 In  segment BANKED_CODE, align 1, keep-with-next
   \                     ?Subroutine63:
   \   000000   7B00         MOV     R3,#0x0
   \   000002   12....       LCALL   ??osal_mem_alloc?relay
   \   000005   8A..         MOV     ?V0 + 2,R2
   \   000007   8B..         MOV     ?V0 + 3,R3
   \   000009   EA           MOV     A,R2
   \   00000A   22           RET

   \                                 In  segment BANKED_CODE, align 1, keep-with-next
   \                     ?Subroutine56:
   \   000000   12....       LCALL   ?Subroutine78 & 0xFFFF
   \                     ??CrossCallReturnLabel_109:
   \   000003   7418         MOV     A,#0x18
   \   000005   22           RET

   \                                 In  segment BANKED_CODE, align 1, keep-with-next
   \                     ?Subroutine41:
   \   000000   E0           MOVX    A,@DPTR
   \   000001   8882         MOV     DPL,R0
   \   000003   8983         MOV     DPH,R1
   \   000005   F0           MOVX    @DPTR,A
   \   000006   A3           INC     DPTR
   \   000007   02....       LJMP    ?Subroutine110 & 0xFFFF
    636          
    637          /*********************************************************************
    638           * @fn      zcl_SendReadRsp
    639           * @brief   Send a Read Response command.
    640           * @param   srcEP - Application's endpoint
    641           *          dstAddr - destination address
    642           *          clusterID - cluster ID
    643           *          readRspCmd - read response command to be sent
    644           *          direction - direction of the command
    645           *          seqNum - transaction sequence number
    646           * @return  ZSuccess if OK
    647           */

   \                                 In  segment BANKED_CODE, align 1, keep-with-next
   \                     ?Subroutine114:
   \   000000   EE           MOV     A,R6
   \   000001   F9           MOV     R1,A
   \   000002   7404         MOV     A,#0x4
   \   000004                REQUIRE ??Subroutine121_0
   \   000004                ; // Fall through to label ??Subroutine121_0

   \                                 In  segment BANKED_CODE, align 1, keep-with-next
    648          ZStatus_t zcl_SendReadRsp( uint8 srcEP, afAddrType_t *dstAddr,
   \                     zcl_SendReadRsp:
    649                                     uint16 clusterID, zclReadRspCmd_t *readRspCmd,
    650                                     uint8 direction, uint8 disableDefaultRsp, uint8 seqNum )
    651          {
   \   000000   74E8         MOV     A,#-0x18
   \   000002   12....       LCALL   ?BANKED_ENTER_XDATA
   \   000005                ; Saved register size: 24
   \   000005                ; Auto size: 4
   \   000005   74FC         MOV     A,#-0x4
   \   000007   12....       LCALL   ?ALLOC_XSTACK8
   \   00000A   7402         MOV     A,#0x2
   \   00000C   12....       LCALL   ?XSTACK_DISP0_8
   \   00000F   12....       LCALL   ?Subroutine2 & 0xFFFF
   \                     ??CrossCallReturnLabel_4:
   \   000012   12....       LCALL   ?XSTACK_DISP0_8
   \   000015   12....       LCALL   ?Subroutine57 & 0xFFFF
   \                     ??CrossCallReturnLabel_79:
   \   000018   12....       LCALL   ?XSTACK_DISP0_8
   \   00001B   E0           MOVX    A,@DPTR
   \   00001C   F5..         MOV     ?V0 + 10,A
   \   00001E   741F         MOV     A,#0x1f
   \   000020   12....       LCALL   ?XSTACK_DISP0_8
   \   000023   E0           MOVX    A,@DPTR
   \   000024   F5..         MOV     ?V0 + 9,A
   \   000026   7420         MOV     A,#0x20
   \   000028   12....       LCALL   ?XSTACK_DISP0_8
   \   00002B   E0           MOVX    A,@DPTR
   \   00002C   F5..         MOV     ?V0 + 8,A
    652            uint8 *buf;
    653            uint8 *pBuf;
    654            zclReadRspStatus_t *statusRec;
    655            uint8 len = 0;
   \   00002E   7E00         MOV     R6,#0x0
    656            uint8 i;
    657            ZStatus_t status;
    658            
    659            // calculate the size of the command
    660            for ( i = 0; i < readRspCmd->numAttr; i++ )
   \   000030   8E..         MOV     ?V0 + 5,R6
   \   000032   8021         SJMP    ??zcl_SendReadRsp_0
    661            {
    662              statusRec = &(readRspCmd->attrList[i]);
   \                     ??zcl_SendReadRsp_1:
   \   000034   E5..         MOV     A,?V0 + 5
   \   000036   75F006       MOV     B,#0x6
   \   000039   12....       LCALL   ?Subroutine72 & 0xFFFF
    663              
    664              len += 2 + 1; // Attribute ID + Status
   \                     ??CrossCallReturnLabel_95:
   \   00003C   0E           INC     R6
   \   00003D   0E           INC     R6
   \   00003E   0E           INC     R6
    665          
    666              if ( statusRec->status == ZCL_STATUS_SUCCESS )
   \   00003F   A3           INC     DPTR
   \   000040   A3           INC     DPTR
   \   000041   E0           MOVX    A,@DPTR
   \   000042   700F         JNZ     ??zcl_SendReadRsp_2
    667              {
    668                len++; // Attribute Data Type
    669                len += zclGetAttrDataLength( statusRec->dataType, statusRec->data); // Attribute Data
   \   000044                ; Setup parameters for call to function zclGetAttrDataLength
   \   000044   8882         MOV     DPL,R0
   \   000046   8983         MOV     DPH,R1
   \   000048   A3           INC     DPTR
   \   000049   12....       LCALL   ?Subroutine42 & 0xFFFF
    670              }
    671            }
   \                     ??CrossCallReturnLabel_53:
   \   00004C   A3           INC     DPTR
   \   00004D   12....       LCALL   ?Subroutine85 & 0xFFFF
   \                     ??CrossCallReturnLabel_190:
   \   000050   04           INC     A
   \   000051   2E           ADD     A,R6
   \   000052   FE           MOV     R6,A
   \                     ??zcl_SendReadRsp_2:
   \   000053   05..         INC     ?V0 + 5
   \                     ??zcl_SendReadRsp_0:
   \   000055   12....       LCALL   ?Subroutine37 & 0xFFFF
   \                     ??CrossCallReturnLabel_40:
   \   000058   40DA         JC      ??zcl_SendReadRsp_1
    672          
    673            buf = osal_mem_alloc( len );
   \   00005A   12....       LCALL   ?Subroutine64 & 0xFFFF
    674            if ( buf != NULL )
   \                     ??CrossCallReturnLabel_87:
   \   00005D   7001         JNZ     ??zcl_SendReadRsp_3
   \   00005F   EB           MOV     A,R3
   \                     ??zcl_SendReadRsp_3:
   \   000060   7003         JNZ     $+5
   \   000062   02....       LJMP    ??zcl_SendReadRsp_4 & 0xFFFF
    675            {
    676              // Load the buffer - serially
    677              pBuf = buf;
   \   000065   AE..         MOV     R6,?V0 + 6
   \   000067   AF..         MOV     R7,?V0 + 7
    678              for ( i = 0; i < readRspCmd->numAttr; i++ )
   \   000069   75..00       MOV     ?V0 + 5,#0x0
   \   00006C   8028         SJMP    ??zcl_SendReadRsp_5
    679              {
    680                statusRec = &(readRspCmd->attrList[i]);
   \                     ??zcl_SendReadRsp_6:
   \   00006E   E5..         MOV     A,?V0 + 5
   \   000070   75F006       MOV     B,#0x6
   \   000073   12....       LCALL   ?Subroutine1 & 0xFFFF
    681                
    682                *pBuf++ = LO_UINT16( statusRec->attrID );
    683                *pBuf++ = HI_UINT16( statusRec->attrID );
    684                *pBuf++ = statusRec->status;
   \                     ??CrossCallReturnLabel_2:
   \   000076   FA           MOV     R2,A
   \   000077   E9           MOV     A,R1
   \   000078   3400         ADDC    A,#0x0
   \   00007A   FB           MOV     R3,A
   \   00007B   8A82         MOV     DPL,R2
   \   00007D   8B83         MOV     DPH,R3
   \   00007F   12....       LCALL   ?Subroutine98 & 0xFFFF
    685          
    686                if ( statusRec->status == ZCL_STATUS_SUCCESS )
   \                     ??CrossCallReturnLabel_131:
   \   000082   8A82         MOV     DPL,R2
   \   000084   8B83         MOV     DPH,R3
   \   000086   E0           MOVX    A,@DPTR
   \   000087   700B         JNZ     ??CrossCallReturnLabel_154
    687                {
    688                  *pBuf++ = statusRec->dataType;
   \   000089   E8           MOV     A,R0
   \   00008A   2403         ADD     A,#0x3
   \   00008C   12....       LCALL   ?Subroutine44 & 0xFFFF
    689                  zclSerializeData( statusRec->dataType, statusRec->data, pBuf );
    690                  
    691                  // move pass attribute data
    692                  pBuf += zclGetAttrDataLength( statusRec->dataType, statusRec->data );
    693                }
    694              } // for loop
   \                     ??CrossCallReturnLabel_57:
   \   00008F   2404         ADD     A,#0x4
   \   000091   12....       LCALL   ?Subroutine20 & 0xFFFF
   \                     ??CrossCallReturnLabel_154:
   \   000094   05..         INC     ?V0 + 5
   \                     ??zcl_SendReadRsp_5:
   \   000096   12....       LCALL   ?Subroutine37 & 0xFFFF
   \                     ??CrossCallReturnLabel_41:
   \   000099   40D3         JC      ??zcl_SendReadRsp_6
    695          
    696              status = zcl_SendCommand( srcEP, dstAddr, clusterID, ZCL_CMD_READ_RSP, FALSE, 
    697                                        direction, disableDefaultRsp, 0, seqNum, len, buf );
   \   00009B                ; Setup parameters for call to function zcl_SendCommand
   \   00009B   78..         MOV     R0,#?V0 + 6
   \   00009D   12....       LCALL   ?PUSH_XSTACK_I_TWO
   \   0000A0   78..         MOV     R0,#?V0 + 0
   \   0000A2   12....       LCALL   ?PUSH_XSTACK_I_TWO
   \   0000A5   E5..         MOV     A,?V0 + 8
   \   0000A7   F5..         MOV     ?V0 + 0,A
   \   0000A9   78..         MOV     R0,#?V0 + 0
   \   0000AB   12....       LCALL   ?PUSH_XSTACK_I_ONE
   \   0000AE   75..00       MOV     ?V0 + 0,#0x0
   \   0000B1   78..         MOV     R0,#?V0 + 0
   \   0000B3   12....       LCALL   ?PUSH_XSTACK_I_TWO
   \   0000B6   E5..         MOV     A,?V0 + 9
   \   0000B8   F5..         MOV     ?V0 + 0,A
   \   0000BA   78..         MOV     R0,#?V0 + 0
   \   0000BC   12....       LCALL   ?PUSH_XSTACK_I_ONE
   \   0000BF   E5..         MOV     A,?V0 + 10
   \   0000C1   F5..         MOV     ?V0 + 0,A
   \   0000C3   78..         MOV     R0,#?V0 + 0
   \   0000C5   12....       LCALL   ?PUSH_XSTACK_I_ONE
   \   0000C8   75..00       MOV     ?V0 + 0,#0x0
   \   0000CB   78..         MOV     R0,#?V0 + 0
   \   0000CD   12....       LCALL   ?PUSH_XSTACK_I_ONE
   \   0000D0   75..01       MOV     ?V0 + 0,#0x1
   \   0000D3   78..         MOV     R0,#?V0 + 0
   \   0000D5   12....       LCALL   ?PUSH_XSTACK_I_ONE
   \   0000D8   740B         MOV     A,#0xb
   \   0000DA   12....       LCALL   ?XSTACK_DISP0_8
   \   0000DD   12....       LCALL   ??Subroutine127_0 & 0xFFFF
   \                     ??CrossCallReturnLabel_172:
   \   0000E0   740D         MOV     A,#0xd
   \   0000E2   12....       LCALL   ?XSTACK_DISP0_8
   \   0000E5   12....       LCALL   ?Subroutine36 & 0xFFFF
   \                     ??CrossCallReturnLabel_38:
   \   0000E8   12....       LCALL   ?DEALLOC_XSTACK8
   \   0000EB   E9           MOV     A,R1
   \   0000EC   FE           MOV     R6,A
    698              osal_mem_free( buf );
   \   0000ED                ; Setup parameters for call to function osal_mem_free
   \   0000ED   AA..         MOV     R2,?V0 + 6
   \   0000EF   AB..         MOV     R3,?V0 + 7
   \   0000F1   12....       LCALL   ??osal_mem_free?relay
   \   0000F4   8002         SJMP    ??zcl_SendReadRsp_7
    699            }
    700            else
    701              status = ZMemError;
   \                     ??zcl_SendReadRsp_4:
   \   0000F6   7E10         MOV     R6,#0x10
    702          
    703            return ( status );
   \                     ??zcl_SendReadRsp_7:
   \   0000F8   02....       LJMP    ?Subroutine114 & 0xFFFF
    704          }

   \                                 In  segment BANKED_CODE, align 1, keep-with-next
   \                     ?Subroutine85:
   \   000000   E0           MOVX    A,@DPTR
   \   000001   F9           MOV     R1,A
   \   000002   12....       LCALL   ??zclGetAttrDataLength?relay
   \   000005   E9           MOV     A,R1
   \   000006   22           RET

   \                                 In  segment BANKED_CODE, align 1, keep-with-next
   \                     ?Subroutine72:
   \   000000   12....       LCALL   ?Subroutine93 & 0xFFFF
   \                     ??CrossCallReturnLabel_161:
   \   000003   22           RET

   \                                 In  segment BANKED_CODE, align 1, keep-with-next
   \                     ?Subroutine93:
   \   000000   A4           MUL     AB
   \   000001   F8           MOV     R0,A
   \   000002   A9F0         MOV     R1,B
   \   000004   12....       LCALL   ?Subroutine101 & 0xFFFF
   \                     ??CrossCallReturnLabel_137:
   \   000007                REQUIRE ?Subroutine110
   \   000007                ; // Fall through to label ?Subroutine110

   \                                 In  segment BANKED_CODE, align 1, keep-with-next
   \                     ?Subroutine64:
   \   000000   8E82         MOV     DPL,R6
   \   000002   8582..       MOV     ?V0 + 0,DPL
   \   000005   75..00       MOV     ?V0 + 1,#0x0
   \   000008                ; Setup parameters for call to function osal_mem_alloc
   \   000008                ; Setup parameters for call to function osal_mem_alloc
   \   000008   AA..         MOV     R2,?V0 + 0
   \   00000A   7B00         MOV     R3,#0x0
   \   00000C   12....       LCALL   ??osal_mem_alloc?relay
   \   00000F   8A..         MOV     ?V0 + 6,R2
   \   000011   8B..         MOV     ?V0 + 7,R3
   \   000013   EA           MOV     A,R2
   \   000014   22           RET

   \                                 In  segment BANKED_CODE, align 1, keep-with-next
   \                     ?Subroutine57:
   \   000000   E0           MOVX    A,@DPTR
   \   000001   F5..         MOV     ?V0 + 2,A
   \   000003   A3           INC     DPTR
   \   000004   E0           MOVX    A,@DPTR
   \   000005   F5..         MOV     ?V0 + 3,A
   \   000007   741E         MOV     A,#0x1e
   \   000009   22           RET

   \                                 In  segment BANKED_CODE, align 1, keep-with-next
   \                     ?Subroutine44:
   \   000000   F5..         MOV     ?V0 + 12,A
   \   000002   E9           MOV     A,R1
   \   000003   3400         ADDC    A,#0x0
   \   000005   F5..         MOV     ?V0 + 13,A
   \   000007   85..82       MOV     DPL,?V0 + 12
   \   00000A   F583         MOV     DPH,A
   \   00000C   12....       LCALL   ?Subroutine83 & 0xFFFF
   \                     ??CrossCallReturnLabel_114:
   \   00000F   22           RET

   \                                 In  segment BANKED_CODE, align 1, keep-with-next
   \                     ?Subroutine83:
   \   000000   12....       LCALL   ?Subroutine98 & 0xFFFF
   \                     ??CrossCallReturnLabel_132:
   \   000003   E8           MOV     A,R0
   \   000004   22           RET

   \                                 In  segment BANKED_CODE, align 1, keep-with-next
   \                     ?Subroutine98:
   \   000000   E0           MOVX    A,@DPTR
   \   000001   8E82         MOV     DPL,R6
   \   000003   8F83         MOV     DPH,R7
   \   000005   F0           MOVX    @DPTR,A
   \   000006   A3           INC     DPTR
   \   000007   0E           INC     R6
   \   000008   AF83         MOV     R7,DPH
   \   00000A   22           RET

   \                                 In  segment BANKED_CODE, align 1, keep-with-next
   \                     ?Subroutine42:
   \   000000   12....       LCALL   ?Subroutine81 & 0xFFFF
   \                     ??CrossCallReturnLabel_271:
   \   000003   8882         MOV     DPL,R0
   \   000005   8983         MOV     DPH,R1
   \   000007   A3           INC     DPTR
   \   000008   A3           INC     DPTR
   \   000009   22           RET

   \                                 In  segment BANKED_CODE, align 1, keep-with-next
   \                     ?Subroutine37:
   \   000000   85..82       MOV     DPL,?V0 + 2
   \   000003   85..83       MOV     DPH,?V0 + 3
   \   000006   E0           MOVX    A,@DPTR
   \   000007   FA           MOV     R2,A
   \   000008   E5..         MOV     A,?V0 + 5
   \   00000A   C3           CLR     C
   \   00000B   9A           SUBB    A,R2
   \   00000C   22           RET

   \                                 In  segment BANKED_CODE, align 1, keep-with-next
   \                     ?Subroutine36:
   \   000000   12....       LCALL   ??Subroutine132_0 & 0xFFFF
   \                     ??CrossCallReturnLabel_266:
   \   000003   A9..         MOV     R1,?V0 + 4
   \   000005   12....       LCALL   ?Subroutine92 & 0xFFFF
   \                     ??CrossCallReturnLabel_121:
   \   000008   22           RET

   \                                 In  segment BANKED_CODE, align 1, keep-with-next
   \                     ?Subroutine20:
   \   000000   F5..         MOV     ?V0 + 14,A
   \   000002   E9           MOV     A,R1
   \   000003   3400         ADDC    A,#0x0
   \   000005   F5..         MOV     ?V0 + 15,A
   \   000007                ; Setup parameters for call to function zclSerializeData
   \   000007                ; Setup parameters for call to function zclSerializeData
   \   000007   EE           MOV     A,R6
   \   000008   FC           MOV     R4,A
   \   000009   EF           MOV     A,R7
   \   00000A   FD           MOV     R5,A
   \   00000B   12....       LCALL   ?Subroutine79 & 0xFFFF
   \                     ??CrossCallReturnLabel_110:
   \   00000E   12....       LCALL   ??zclSerializeData?relay
   \   000011                ; Setup parameters for call to function zclGetAttrDataLength
   \   000011                ; Setup parameters for call to function zclGetAttrDataLength
   \   000011   12....       LCALL   ?Subroutine79 & 0xFFFF
   \                     ??CrossCallReturnLabel_111:
   \   000014   12....       LCALL   ??zclGetAttrDataLength?relay
   \   000017   E9           MOV     A,R1
   \   000018   F8           MOV     R0,A
   \   000019   EE           MOV     A,R6
   \   00001A   28           ADD     A,R0
   \   00001B   FE           MOV     R6,A
   \   00001C                REQUIRE ?Subroutine109
   \   00001C                ; // Fall through to label ?Subroutine109

   \                                 In  segment BANKED_CODE, align 1, keep-with-next
   \                     ?Subroutine109:
   \   000000   EF           MOV     A,R7
   \   000001   3400         ADDC    A,#0x0
   \   000003   FF           MOV     R7,A
   \   000004   22           RET

   \                                 In  segment BANKED_CODE, align 1, keep-with-next
   \                     ?Subroutine79:
   \   000000   85..82       MOV     DPL,?V0 + 14
   \   000003   85..83       MOV     DPH,?V0 + 15
   \   000006   E0           MOVX    A,@DPTR
   \   000007   FA           MOV     R2,A
   \   000008   A3           INC     DPTR
   \   000009   E0           MOVX    A,@DPTR
   \   00000A   FB           MOV     R3,A
   \   00000B   85..82       MOV     DPL,?V0 + 12
   \   00000E   85..83       MOV     DPH,?V0 + 13
   \   000011   E0           MOVX    A,@DPTR
   \   000012   F9           MOV     R1,A
   \   000013   22           RET

   \                                 In  segment BANKED_CODE, align 1, keep-with-next
   \                     ?Subroutine2:
   \   000000   EA           MOV     A,R2
   \   000001   F0           MOVX    @DPTR,A
   \   000002   A3           INC     DPTR
   \   000003   EB           MOV     A,R3
   \   000004   F0           MOVX    @DPTR,A
   \   000005   85..82       MOV     DPL,?XSP + 0
   \   000008   85..83       MOV     DPH,?XSP + 1
   \   00000B   EC           MOV     A,R4
   \   00000C   F0           MOVX    @DPTR,A
   \   00000D   A3           INC     DPTR
   \   00000E   ED           MOV     A,R5
   \   00000F   F0           MOVX    @DPTR,A
   \   000010   89..         MOV     ?V0 + 4,R1
   \   000012   741C         MOV     A,#0x1c
   \   000014   22           RET

   \                                 In  segment BANKED_CODE, align 1, keep-with-next
   \                     ?Subroutine1:
   \   000000   12....       LCALL   ?Subroutine93 & 0xFFFF
   \                     ??CrossCallReturnLabel_160:
   \   000003   E0           MOVX    A,@DPTR
   \   000004   8E82         MOV     DPL,R6
   \   000006   8F83         MOV     DPH,R7
   \   000008   F0           MOVX    @DPTR,A
   \   000009   A3           INC     DPTR
   \   00000A   AE82         MOV     R6,DPL
   \   00000C   AF83         MOV     R7,DPH
   \   00000E   8882         MOV     DPL,R0
   \   000010   8983         MOV     DPH,R1
   \   000012   A3           INC     DPTR
   \   000013   12....       LCALL   ?Subroutine83 & 0xFFFF
   \                     ??CrossCallReturnLabel_115:
   \   000016   2402         ADD     A,#0x2
   \   000018   22           RET

   \                                 In  segment BANKED_CODE, align 1, keep-with-next
   \                     ??Subroutine127_0:
   \   000000   12....       LCALL   ?Subroutine86 & 0xFFFF
   \                     ??CrossCallReturnLabel_264:
   \   000003   FD           MOV     R5,A
   \   000004   22           RET

   \                                 In  segment BANKED_CODE, align 1, keep-with-next
   \                     ?Subroutine81:
   \   000000   A3           INC     DPTR
   \   000001   A3           INC     DPTR
   \   000002   A3           INC     DPTR
   \   000003                REQUIRE ??Subroutine132_0
   \   000003                ; // Fall through to label ??Subroutine132_0

   \                                 In  segment BANKED_CODE, align 1, keep-with-next
   \                     ?Subroutine101:
   \   000000   E5..         MOV     A,?V0 + 2
   \   000002   28           ADD     A,R0
   \   000003   F582         MOV     DPL,A
   \   000005   E5..         MOV     A,?V0 + 3
   \   000007   39           ADDC    A,R1
   \   000008   F583         MOV     DPH,A
   \   00000A   A3           INC     DPTR
   \   00000B   22           RET
    705          #endif // ZCL_READ
    706          
    707          #ifdef ZCL_WRITE
    708          /*********************************************************************
    709           * @fn      sendWriteRequest
    710           * @brief   Send a Write command
    711           * @param   dstAddr - destination address
    712           *          clusterID - cluster ID
    713           *          writeCmd - write command to be sent
    714           *          cmd - ZCL_CMD_WRITE, ZCL_CMD_WRITE_UNDIVIDED or ZCL_CMD_WRITE_NO_RSP
    715           *          direction - direction of the command
    716           *          seqNum - transaction sequence number
    717           * @return  ZSuccess if OK
    718           */

   \                                 In  segment BANKED_CODE, align 1, keep-with-next
    719          ZStatus_t zcl_SendWriteRequest( uint8 srcEP, afAddrType_t *dstAddr, uint16 clusterID, 
   \                     zcl_SendWriteRequest:
    720                                          zclWriteCmd_t *writeCmd, uint8 cmd, uint8 direction, 
    721                                          uint8 disableDefaultRsp, uint8 seqNum )
    722          {
   \   000000   74E8         MOV     A,#-0x18
   \   000002   12....       LCALL   ?BANKED_ENTER_XDATA
   \   000005                ; Saved register size: 24
   \   000005                ; Auto size: 4
   \   000005   74FC         MOV     A,#-0x4
   \   000007   12....       LCALL   ?ALLOC_XSTACK8
   \   00000A   7402         MOV     A,#0x2
   \   00000C   12....       LCALL   ?XSTACK_DISP0_8
   \   00000F   12....       LCALL   ?Subroutine2 & 0xFFFF
   \                     ??CrossCallReturnLabel_5:
   \   000012   12....       LCALL   ?XSTACK_DISP0_8
   \   000015   12....       LCALL   ?Subroutine57 & 0xFFFF
   \                     ??CrossCallReturnLabel_80:
   \   000018   12....       LCALL   ?XSTACK_DISP0_8
   \   00001B   E0           MOVX    A,@DPTR
   \   00001C   F5..         MOV     ?V0 + 11,A
   \   00001E   741F         MOV     A,#0x1f
   \   000020   12....       LCALL   ?XSTACK_DISP0_8
   \   000023   E0           MOVX    A,@DPTR
   \   000024   F5..         MOV     ?V0 + 10,A
   \   000026   7420         MOV     A,#0x20
   \   000028   12....       LCALL   ?XSTACK_DISP0_8
   \   00002B   E0           MOVX    A,@DPTR
   \   00002C   F5..         MOV     ?V0 + 9,A
   \   00002E   7421         MOV     A,#0x21
   \   000030   12....       LCALL   ?XSTACK_DISP0_8
   \   000033   E0           MOVX    A,@DPTR
   \   000034   F5..         MOV     ?V0 + 8,A
    723            uint8 *buf;
    724            uint8 *pBuf;
    725            zclWriteRec_t *statusRec;
    726            uint8 attrDataLen;
    727            uint8 dataLen = 0;
   \   000036   7E00         MOV     R6,#0x0
    728            uint8 i;
    729            ZStatus_t status;
    730            
    731            for ( i = 0; i < writeCmd->numAttr; i++ )
   \   000038   8E..         MOV     ?V0 + 5,R6
   \   00003A   8014         SJMP    ??zcl_SendWriteRequest_0
    732            {
    733              statusRec = &(writeCmd->attrList[i]);
   \                     ??zcl_SendWriteRequest_1:
   \   00003C   E5..         MOV     A,?V0 + 5
   \   00003E   75F005       MOV     B,#0x5
   \   000041   12....       LCALL   ?Subroutine72 & 0xFFFF
    734              
    735              attrDataLen = zclGetAttrDataLength( statusRec->dataType, statusRec->attrData );
    736              dataLen += 2 + 1 + attrDataLen; // Attribute ID + Attribute Type + Attribute Data
   \                     ??CrossCallReturnLabel_96:
   \   000044                ; Setup parameters for call to function zclGetAttrDataLength
   \   000044   12....       LCALL   ?Subroutine42 & 0xFFFF
    737            }
   \                     ??CrossCallReturnLabel_54:
   \   000047   12....       LCALL   ?Subroutine85 & 0xFFFF
   \                     ??CrossCallReturnLabel_191:
   \   00004A   2403         ADD     A,#0x3
   \   00004C   2E           ADD     A,R6
   \   00004D   FE           MOV     R6,A
   \   00004E   05..         INC     ?V0 + 5
   \                     ??zcl_SendWriteRequest_0:
   \   000050   12....       LCALL   ?Subroutine37 & 0xFFFF
   \                     ??CrossCallReturnLabel_42:
   \   000053   40E7         JC      ??zcl_SendWriteRequest_1
    738          
    739            buf = osal_mem_alloc( dataLen );
   \   000055   12....       LCALL   ?Subroutine64 & 0xFFFF
    740            if ( buf != NULL )
   \                     ??CrossCallReturnLabel_88:
   \   000058   7001         JNZ     ??zcl_SendWriteRequest_2
   \   00005A   EB           MOV     A,R3
   \                     ??zcl_SendWriteRequest_2:
   \   00005B   607C         JZ      ??zcl_SendWriteRequest_3
    741            {
    742              // Load the buffer - serially
    743              pBuf = buf;
   \   00005D   AE..         MOV     R6,?V0 + 6
   \   00005F   AF..         MOV     R7,?V0 + 7
    744              for ( i = 0; i < writeCmd->numAttr; i++ )
   \   000061   75..00       MOV     ?V0 + 5,#0x0
   \   000064   8012         SJMP    ??zcl_SendWriteRequest_4
    745              { 
    746                statusRec = &(writeCmd->attrList[i]);
   \                     ??zcl_SendWriteRequest_5:
   \   000066   E5..         MOV     A,?V0 + 5
   \   000068   75F005       MOV     B,#0x5
   \   00006B   12....       LCALL   ?Subroutine1 & 0xFFFF
    747                
    748                *pBuf++ = LO_UINT16( statusRec->attrID );
    749                *pBuf++ = HI_UINT16( statusRec->attrID );
    750                *pBuf++ = statusRec->dataType;
    751                
    752                zclSerializeData( statusRec->dataType, statusRec->attrData, pBuf );
    753                
    754                attrDataLen = zclGetAttrDataLength( statusRec->dataType, statusRec->attrData );
    755                pBuf += attrDataLen; // move pass attribute data
    756              }
   \                     ??CrossCallReturnLabel_3:
   \   00006E   12....       LCALL   ?Subroutine44 & 0xFFFF
   \                     ??CrossCallReturnLabel_58:
   \   000071   2403         ADD     A,#0x3
   \   000073   12....       LCALL   ?Subroutine20 & 0xFFFF
   \                     ??CrossCallReturnLabel_155:
   \   000076   05..         INC     ?V0 + 5
   \                     ??zcl_SendWriteRequest_4:
   \   000078   12....       LCALL   ?Subroutine37 & 0xFFFF
   \                     ??CrossCallReturnLabel_43:
   \   00007B   40E9         JC      ??zcl_SendWriteRequest_5
    757          
    758              status = zcl_SendCommand( srcEP, dstAddr, clusterID, cmd, FALSE, 
    759                                        direction, disableDefaultRsp, 0, seqNum, dataLen, buf );
   \   00007D                ; Setup parameters for call to function zcl_SendCommand
   \   00007D   78..         MOV     R0,#?V0 + 6
   \   00007F   12....       LCALL   ?PUSH_XSTACK_I_TWO
   \   000082   78..         MOV     R0,#?V0 + 0
   \   000084   12....       LCALL   ?PUSH_XSTACK_I_TWO
   \   000087   E5..         MOV     A,?V0 + 8
   \   000089   F5..         MOV     ?V0 + 0,A
   \   00008B   78..         MOV     R0,#?V0 + 0
   \   00008D   12....       LCALL   ?PUSH_XSTACK_I_ONE
   \   000090   75..00       MOV     ?V0 + 0,#0x0
   \   000093   78..         MOV     R0,#?V0 + 0
   \   000095   12....       LCALL   ?PUSH_XSTACK_I_TWO
   \   000098   E5..         MOV     A,?V0 + 9
   \   00009A   F5..         MOV     ?V0 + 0,A
   \   00009C   78..         MOV     R0,#?V0 + 0
   \   00009E   12....       LCALL   ?PUSH_XSTACK_I_ONE
   \   0000A1   E5..         MOV     A,?V0 + 10
   \   0000A3   F5..         MOV     ?V0 + 0,A
   \   0000A5   78..         MOV     R0,#?V0 + 0
   \   0000A7   12....       LCALL   ?PUSH_XSTACK_I_ONE
   \   0000AA   75..00       MOV     ?V0 + 0,#0x0
   \   0000AD   78..         MOV     R0,#?V0 + 0
   \   0000AF   12....       LCALL   ?PUSH_XSTACK_I_ONE
   \   0000B2   E5..         MOV     A,?V0 + 11
   \   0000B4   F5..         MOV     ?V0 + 0,A
   \   0000B6   78..         MOV     R0,#?V0 + 0
   \   0000B8   12....       LCALL   ?PUSH_XSTACK_I_ONE
   \   0000BB   740B         MOV     A,#0xb
   \   0000BD   12....       LCALL   ?XSTACK_DISP0_8
   \   0000C0   12....       LCALL   ??Subroutine127_0 & 0xFFFF
   \                     ??CrossCallReturnLabel_173:
   \   0000C3   740D         MOV     A,#0xd
   \   0000C5   12....       LCALL   ?XSTACK_DISP0_8
   \   0000C8   12....       LCALL   ?Subroutine36 & 0xFFFF
   \                     ??CrossCallReturnLabel_39:
   \   0000CB   12....       LCALL   ?DEALLOC_XSTACK8
   \   0000CE   E9           MOV     A,R1
   \   0000CF   FE           MOV     R6,A
    760              osal_mem_free( buf );
   \   0000D0                ; Setup parameters for call to function osal_mem_free
   \   0000D0   AA..         MOV     R2,?V0 + 6
   \   0000D2   AB..         MOV     R3,?V0 + 7
   \   0000D4   12....       LCALL   ??osal_mem_free?relay
   \   0000D7   8002         SJMP    ??zcl_SendWriteRequest_6
    761            }
    762            else
    763              status = ZMemError;
   \                     ??zcl_SendWriteRequest_3:
   \   0000D9   7E10         MOV     R6,#0x10
    764          
    765            return ( status);
   \                     ??zcl_SendWriteRequest_6:
   \   0000DB   02....       LJMP    ?Subroutine114 & 0xFFFF
    766          }
    767          
    768          /*********************************************************************
    769           * @fn      zcl_SendWriteRsp
    770           * @brief   Send a Write Response command
    771           * @param   dstAddr - destination address
    772           *          clusterID - cluster ID
    773           *          wrtieRspCmd - write response command to be sent
    774           *          direction - direction of the command
    775           *          seqNum - transaction sequence number
    776           * @return  ZSuccess if OK
    777           */

   \                                 In  segment BANKED_CODE, align 1, keep-with-next
    778          ZStatus_t zcl_SendWriteRsp( uint8 srcEP, afAddrType_t *dstAddr,
   \                     zcl_SendWriteRsp:
    779                                      uint16 clusterID, zclWriteRspCmd_t *writeRspCmd,
    780                                      uint8 direction, uint8 disableDefaultRsp, uint8 seqNum )
    781          {
   \   000000   74EA         MOV     A,#-0x16
   \   000002   12....       LCALL   ?BANKED_ENTER_XDATA
   \   000005                ; Saved register size: 22
   \   000005                ; Auto size: 0
   \   000005   89..         MOV     ?V0 + 6,R1
   \   000007   EA           MOV     A,R2
   \   000008   FE           MOV     R6,A
   \   000009   EB           MOV     A,R3
   \   00000A   FF           MOV     R7,A
   \   00000B   8C..         MOV     ?V0 + 0,R4
   \   00000D   8D..         MOV     ?V0 + 1,R5
   \   00000F   7416         MOV     A,#0x16
   \   000011   12....       LCALL   ?XSTACK_DISP0_8
   \   000014   12....       LCALL   ?Subroutine56 & 0xFFFF
   \                     ??CrossCallReturnLabel_78:
   \   000017   12....       LCALL   ?XSTACK_DISP0_8
   \   00001A   E0           MOVX    A,@DPTR
   \   00001B   F5..         MOV     ?V0 + 7,A
   \   00001D   7419         MOV     A,#0x19
   \   00001F   12....       LCALL   ?XSTACK_DISP0_8
   \   000022   E0           MOVX    A,@DPTR
   \   000023   F5..         MOV     ?V0 + 10,A
   \   000025   741A         MOV     A,#0x1a
   \   000027   12....       LCALL   ?XSTACK_DISP0_8
   \   00002A   E0           MOVX    A,@DPTR
   \   00002B   F5..         MOV     ?V0 + 11,A
    782            uint8 dataLen;
    783            uint8 *buf;
    784            uint8 *pBuf;
    785            uint8 i;
    786            ZStatus_t status;
    787            
    788            dataLen = writeRspCmd->numAttr * ( 1 + 2 ); // status + attribute id
   \   00002D   75F003       MOV     B,#0x3
   \   000030   85..82       MOV     DPL,?V0 + 4
   \   000033   85..83       MOV     DPH,?V0 + 5
   \   000036   E0           MOVX    A,@DPTR
   \   000037   A4           MUL     AB
   \   000038   F5..         MOV     ?V0 + 12,A
    789          
    790            buf = osal_mem_alloc( dataLen );
   \   00003A                ; Setup parameters for call to function osal_mem_alloc
   \   00003A   FA           MOV     R2,A
   \   00003B   12....       LCALL   ?Subroutine63 & 0xFFFF
    791            if ( buf != NULL )
   \                     ??CrossCallReturnLabel_86:
   \   00003E   7001         JNZ     ??zcl_SendWriteRsp_0
   \   000040   EB           MOV     A,R3
   \                     ??zcl_SendWriteRsp_0:
   \   000041   7003         JNZ     $+5
   \   000043   02....       LJMP    ??zcl_SendWriteRsp_1 & 0xFFFF
    792            {
    793              // Load the buffer - serially
    794              pBuf = buf;
   \   000046   A8..         MOV     R0,?V0 + 2
   \   000048   A9..         MOV     R1,?V0 + 3
    795              for ( i = 0; i < writeRspCmd->numAttr; i++ )
   \   00004A   75..00       MOV     ?V0 + 8,#0x0
   \   00004D   802E         SJMP    ??zcl_SendWriteRsp_2
    796              { 
    797                *pBuf++ = writeRspCmd->attrList[i].status;
   \                     ??zcl_SendWriteRsp_3:
   \   00004F   E5..         MOV     A,?V0 + 8
   \   000051   75F003       MOV     B,#0x3
   \   000054   A4           MUL     AB
   \   000055   FA           MOV     R2,A
   \   000056   ABF0         MOV     R3,B
   \   000058   E5..         MOV     A,?V0 + 4
   \   00005A   2A           ADD     A,R2
   \   00005B   FA           MOV     R2,A
   \   00005C   E5..         MOV     A,?V0 + 5
   \   00005E   3B           ADDC    A,R3
   \   00005F   FB           MOV     R3,A
   \   000060   8A82         MOV     DPL,R2
   \   000062   8B83         MOV     DPH,R3
   \   000064   A3           INC     DPTR
   \   000065   12....       LCALL   ?Subroutine41 & 0xFFFF
    798                *pBuf++ = LO_UINT16( writeRspCmd->attrList[i].attrID );
   \                     ??CrossCallReturnLabel_159:
   \   000068   EA           MOV     A,R2
   \   000069   2402         ADD     A,#0x2
   \   00006B   0A           INC     R2
   \   00006C   0A           INC     R2
   \   00006D   EB           MOV     A,R3
   \   00006E   3400         ADDC    A,#0x0
   \   000070   FB           MOV     R3,A
   \   000071   8A82         MOV     DPL,R2
   \   000073   8B83         MOV     DPH,R3
   \   000075   12....       LCALL   ??Subroutine123_0 & 0xFFFF
    799                *pBuf++ = HI_UINT16( writeRspCmd->attrList[i].attrID );
   \                     ??CrossCallReturnLabel_166:
   \   000078   12....       LCALL   ?Subroutine28 & 0xFFFF
    800              }
   \                     ??CrossCallReturnLabel_168:
   \   00007B   05..         INC     ?V0 + 8
   \                     ??zcl_SendWriteRsp_2:
   \   00007D   85..82       MOV     DPL,?V0 + 4
   \   000080   85..83       MOV     DPH,?V0 + 5
   \   000083   E0           MOVX    A,@DPTR
   \   000084   FA           MOV     R2,A
   \   000085   E5..         MOV     A,?V0 + 8
   \   000087   C3           CLR     C
   \   000088   9A           SUBB    A,R2
   \   000089   40C4         JC      ??zcl_SendWriteRsp_3
    801              
    802              // If there's only a single status record and its status field is set to 
    803              // SUCCESS then omit the attribute ID field.
    804              if ( writeRspCmd->numAttr == 1 && writeRspCmd->attrList[0].status == ZCL_STATUS_SUCCESS )
   \   00008B   E0           MOVX    A,@DPTR
   \   00008C   6401         XRL     A,#0x1
   \   00008E   7007         JNZ     ??zcl_SendWriteRsp_4
   \   000090   A3           INC     DPTR
   \   000091   E0           MOVX    A,@DPTR
   \   000092   7003         JNZ     ??zcl_SendWriteRsp_4
    805                dataLen = 1;
   \   000094   75..01       MOV     ?V0 + 12,#0x1
    806                
    807              status = zcl_SendCommand( srcEP, dstAddr, clusterID, ZCL_CMD_WRITE_RSP, FALSE,
    808                                        direction, disableDefaultRsp, 0, seqNum, dataLen, buf );
   \                     ??zcl_SendWriteRsp_4:
   \   000097                ; Setup parameters for call to function zcl_SendCommand
   \   000097   78..         MOV     R0,#?V0 + 2
   \   000099   12....       LCALL   ?PUSH_XSTACK_I_TWO
   \   00009C   75..00       MOV     ?V0 + 13,#0x0
   \   00009F   78..         MOV     R0,#?V0 + 12
   \   0000A1   12....       LCALL   ?PUSH_XSTACK_I_TWO
   \   0000A4   E5..         MOV     A,?V0 + 11
   \   0000A6   F5..         MOV     ?V0 + 4,A
   \   0000A8   78..         MOV     R0,#?V0 + 4
   \   0000AA   12....       LCALL   ?PUSH_XSTACK_I_ONE
   \   0000AD   75..00       MOV     ?V0 + 4,#0x0
   \   0000B0   75..00       MOV     ?V0 + 5,#0x0
   \   0000B3   78..         MOV     R0,#?V0 + 4
   \   0000B5   12....       LCALL   ?PUSH_XSTACK_I_TWO
   \   0000B8   E5..         MOV     A,?V0 + 10
   \   0000BA   F5..         MOV     ?V0 + 4,A
   \   0000BC   78..         MOV     R0,#?V0 + 4
   \   0000BE   12....       LCALL   ?PUSH_XSTACK_I_ONE
   \   0000C1   E5..         MOV     A,?V0 + 7
   \   0000C3   F5..         MOV     ?V0 + 4,A
   \   0000C5   78..         MOV     R0,#?V0 + 4
   \   0000C7   12....       LCALL   ?PUSH_XSTACK_I_ONE
   \   0000CA   75..00       MOV     ?V0 + 4,#0x0
   \   0000CD   78..         MOV     R0,#?V0 + 4
   \   0000CF   12....       LCALL   ?PUSH_XSTACK_I_ONE
   \   0000D2   75..04       MOV     ?V0 + 4,#0x4
   \   0000D5   78..         MOV     R0,#?V0 + 4
   \   0000D7   12....       LCALL   ?PUSH_XSTACK_I_ONE
   \   0000DA   AC..         MOV     R4,?V0 + 0
   \   0000DC   AD..         MOV     R5,?V0 + 1
   \   0000DE   EE           MOV     A,R6
   \   0000DF   FA           MOV     R2,A
   \   0000E0   EF           MOV     A,R7
   \   0000E1   FB           MOV     R3,A
   \   0000E2   A9..         MOV     R1,?V0 + 6
   \   0000E4   12....       LCALL   ?Subroutine92 & 0xFFFF
   \                     ??CrossCallReturnLabel_122:
   \   0000E7   12....       LCALL   ?DEALLOC_XSTACK8
   \   0000EA   E9           MOV     A,R1
   \   0000EB   FE           MOV     R6,A
    809              osal_mem_free( buf );
   \   0000EC                ; Setup parameters for call to function osal_mem_free
   \   0000EC   AA..         MOV     R2,?V0 + 2
   \   0000EE   AB..         MOV     R3,?V0 + 3
   \   0000F0   12....       LCALL   ??osal_mem_free?relay
   \   0000F3   8002         SJMP    ??zcl_SendWriteRsp_5
    810            }
    811            else
    812              status = ZMemError;
   \                     ??zcl_SendWriteRsp_1:
   \   0000F5   7E10         MOV     R6,#0x10
    813          
    814            return ( status );
   \                     ??zcl_SendWriteRsp_5:
   \   0000F7   02....       LJMP    ?Subroutine115 & 0xFFFF
    815          }
    816          #endif // ZCL_WRITE
    817          
    818          #ifdef ZCL_REPORT
    819          /*********************************************************************
    820           * @fn      zcl_SendConfigReportCmd
    821           * @brief   Send a Configure Reporting command
    822           * @param   dstAddr - destination address
    823           *          clusterID - cluster ID
    824           *          cfgReportCmd - configure reporting command to be sent
    825           *          direction - direction of the command
    826           *          seqNum - transaction sequence number
    827           * @return  ZSuccess if OK
    828           */
    829          ZStatus_t zcl_SendConfigReportCmd( uint8 srcEP, afAddrType_t *dstAddr,
    830                                    uint16 clusterID, zclCfgReportCmd_t *cfgReportCmd,
    831                                    uint8 direction, uint8 disableDefaultRsp, uint8 seqNum )
    832          {
    833            uint8 *buf;
    834            uint8 *pBuf;
    835            uint8 dataLen = 0;
    836            zclCfgReportRec_t *reportRec;
    837            uint8 reportChangeLen; // length of Reportable Change field
    838            uint8 i;
    839            ZStatus_t status;
    840            
    841            // Find out the data length
    842            for ( i = 0; i < cfgReportCmd->numAttr; i++ )
    843            {
    844              reportRec = &(cfgReportCmd->attrList[i]);
    845              
    846              dataLen += 1 + 2; // Direction + Attribute ID
    847              reportChangeLen = 0;
    848              
    849              if ( reportRec->direction == ZCL_SEND_ATTR_REPORTS )
    850              {
    851                dataLen += 1 + 2 + 2; // Data Type + Min + Max Reporting Intervals
    852                
    853                // Find out the size of the Reportable Change field (for Analog data types)
    854                if ( zclAnalogDataType( reportRec->dataType ) )
    855                {
    856                  reportChangeLen = zclGetDataTypeLength( reportRec->dataType );
    857                  dataLen += reportChangeLen;
    858                }
    859              }
    860              else
    861              {
    862                dataLen += 2; // Timeout Period
    863              }
    864            }
    865            
    866            buf = osal_mem_alloc( dataLen );
    867            if ( buf != NULL )
    868            {
    869              // Load the buffer - serially
    870              pBuf = buf;
    871              for ( i = 0; i < cfgReportCmd->numAttr; i++ )
    872              {
    873                reportRec = &(cfgReportCmd->attrList[i]);
    874                
    875                *pBuf++ = reportRec->direction;
    876                *pBuf++ = LO_UINT16( reportRec->attrID );
    877                *pBuf++ = HI_UINT16( reportRec->attrID );
    878                
    879                if ( reportRec->direction == ZCL_SEND_ATTR_REPORTS )
    880                {
    881                  *pBuf++ = reportRec->dataType;
    882                  *pBuf++ = LO_UINT16( reportRec->minReportInt );
    883                  *pBuf++ = HI_UINT16( reportRec->minReportInt );
    884                  *pBuf++ = LO_UINT16( reportRec->maxReportInt );
    885                  *pBuf++ = HI_UINT16( reportRec->maxReportInt );
    886          
    887                  if ( zclAnalogDataType( reportRec->dataType ) )
    888                  {
    889                    zclSerializeData( reportRec->dataType, reportRec->reportableChange, pBuf );
    890                    reportChangeLen = zclGetDataTypeLength( reportRec->dataType );
    891                    pBuf += reportChangeLen;
    892                  }
    893                }
    894                else
    895                {
    896                  *pBuf++ = LO_UINT16( reportRec->timeoutPeriod );
    897                  *pBuf++ = HI_UINT16( reportRec->timeoutPeriod );
    898                } 
    899              } // for loop
    900              
    901              status = zcl_SendCommand( srcEP, dstAddr, clusterID, ZCL_CMD_CONFIG_REPORT, FALSE, 
    902                                        direction, disableDefaultRsp, 0, seqNum, dataLen, buf );
    903              osal_mem_free( buf );
    904            }
    905            else
    906              status = ZMemError;
    907            
    908            return ( status );
    909          }
    910          
    911          /*********************************************************************
    912           * @fn      zcl_SendConfigReportRspCmd
    913           * @brief   Send a Configure Reporting Response command
    914           * @param   dstAddr - destination address
    915           *          clusterID - cluster ID
    916           *          cfgReportRspCmd - configure reporting response command to be sent
    917           *          direction - direction of the command
    918           *          seqNum - transaction sequence number
    919           * @return  ZSuccess if OK
    920           */
    921          ZStatus_t zcl_SendConfigReportRspCmd( uint8 srcEP, afAddrType_t *dstAddr,
    922                              uint16 clusterID, zclCfgReportRspCmd_t *cfgReportRspCmd,
    923                              uint8 direction, uint8 disableDefaultRsp, uint8 seqNum )
    924          {
    925            uint8 dataLen;
    926            uint8 *buf;
    927            uint8 *pBuf;
    928            uint8 i;
    929            ZStatus_t status;
    930            
    931            // Atrribute list (Status, Direction and Attribute ID)
    932            dataLen = cfgReportRspCmd->numAttr * ( 1 + 1 + 2 ); 
    933            
    934            buf = osal_mem_alloc( dataLen );
    935            if ( buf != NULL )
    936            {
    937              // Load the buffer - serially
    938              pBuf = buf; 
    939              for ( i = 0; i < cfgReportRspCmd->numAttr; i++ )
    940              {
    941                *pBuf++ = cfgReportRspCmd->attrList[i].status;
    942                *pBuf++ = cfgReportRspCmd->attrList[i].direction;
    943                *pBuf++ = LO_UINT16( cfgReportRspCmd->attrList[i].attrID );
    944                *pBuf++ = HI_UINT16( cfgReportRspCmd->attrList[i].attrID );
    945              }
    946              
    947              // If there's only a single status record and its status field is set to 
    948              // SUCCESS then omit the attribute ID field.
    949              if ( cfgReportRspCmd->numAttr == 1 && cfgReportRspCmd->attrList[0].status == ZCL_STATUS_SUCCESS )
    950                dataLen = 1;
    951              
    952              status = zcl_SendCommand( srcEP, dstAddr, clusterID,
    953                                        ZCL_CMD_CONFIG_REPORT_RSP, FALSE, direction, 
    954                                        disableDefaultRsp, 0, seqNum, dataLen, buf );
    955              osal_mem_free( buf );
    956            }
    957            else
    958              status = ZMemError;
    959            
    960            return ( status );
    961          }
    962          
    963          /*********************************************************************
    964           * @fn      zcl_SendReadReportCfgCmd
    965           * @brief   Send a Read Reporting Configuration command
    966           * @param   dstAddr - destination address
    967           *          clusterID - cluster ID
    968           *          readReportCfgCmd - read reporting configuration command to be sent
    969           *          direction - direction of the command
    970           *          seqNum - transaction sequence number
    971           * @return  ZSuccess if OK
    972           */
    973          ZStatus_t zcl_SendReadReportCfgCmd( uint8 srcEP, afAddrType_t *dstAddr,
    974                            uint16 clusterID, zclReadReportCfgCmd_t *readReportCfgCmd,
    975                            uint8 direction, uint8 disableDefaultRsp, uint8 seqNum )
    976          {
    977            uint8 dataLen;
    978            uint8 *buf;
    979            uint8 *pBuf;
    980            uint8 i;
    981            ZStatus_t status;
    982           
    983            dataLen = readReportCfgCmd->numAttr * ( 1 + 2 ); // Direction + Atrribute ID
    984            
    985            buf = osal_mem_alloc( dataLen );
    986            if ( buf != NULL )
    987            {
    988              // Load the buffer - serially
    989              pBuf = buf;
    990              for ( i = 0; i < readReportCfgCmd->numAttr; i++ )
    991              {
    992                *pBuf++ = readReportCfgCmd->attrList[i].direction;
    993                *pBuf++ = LO_UINT16( readReportCfgCmd->attrList[i].attrID );
    994                *pBuf++ = HI_UINT16( readReportCfgCmd->attrList[i].attrID );
    995              }
    996              
    997              status = zcl_SendCommand( srcEP, dstAddr, clusterID, ZCL_CMD_READ_REPORT_CFG, FALSE, 
    998                                        direction, disableDefaultRsp, 0, seqNum, dataLen, buf );
    999              osal_mem_free( buf );
   1000            }
   1001            else
   1002              status = ZMemError;
   1003            
   1004            return ( status );
   1005          }
   1006          
   1007          /*********************************************************************
   1008           * @fn      zcl_SendReadReportCfgRspCmd
   1009           * @brief   Send a Read Reporting Configuration Response command
   1010           * @param   dstAddr - destination address
   1011           *          clusterID - cluster ID
   1012           *          readReportCfgRspCmd - read reporting configuration response command to be sent
   1013           *          direction - direction of the command
   1014           *          seqNum - transaction sequence number
   1015           * @return  ZSuccess if OK
   1016           */
   1017          ZStatus_t zcl_SendReadReportCfgRspCmd( uint8 srcEP, afAddrType_t *dstAddr,
   1018                       uint16 clusterID, zclReadReportCfgRspCmd_t *readReportCfgRspCmd,
   1019                       uint8 direction, uint8 disableDefaultRsp, uint8 seqNum )
   1020          {
   1021            uint8 *buf;
   1022            uint8 *pBuf;
   1023            uint8 dataLen = 0;
   1024            zclReportCfgRspRec_t *reportRspRec;
   1025            uint8 reportChangeLen;
   1026            uint8 i;
   1027            ZStatus_t status;
   1028          
   1029            // Find out the data length
   1030            for ( i = 0; i < readReportCfgRspCmd->numAttr; i++ )
   1031            {
   1032              reportRspRec = &(readReportCfgRspCmd->attrList[i]);
   1033              
   1034              dataLen += 1 + 1 + 2 ; // Status, Direction and Atrribute ID
   1035              
   1036              if ( reportRspRec->status == ZCL_STATUS_SUCCESS )
   1037              {
   1038                if ( reportRspRec->direction == ZCL_SEND_ATTR_REPORTS )
   1039                {
   1040                  dataLen += 1 + 2 + 2; // Data Type + Min + Max Reporting Intervals
   1041                
   1042                  if ( zclAnalogDataType( reportRspRec->dataType ) )
   1043                  {
   1044                    reportChangeLen = zclGetDataTypeLength( reportRspRec->dataType );
   1045                    dataLen += reportChangeLen; // Reportable Change field
   1046                  }
   1047                }
   1048                else
   1049                {
   1050                  dataLen += 2; // Timeout Period
   1051                }
   1052              }
   1053            }
   1054            
   1055            buf = osal_mem_alloc( dataLen );
   1056            if ( buf != NULL )
   1057            {
   1058              // Load the buffer - serially
   1059              pBuf = buf;
   1060          
   1061              for ( i = 0; i < readReportCfgRspCmd->numAttr; i++ )
   1062              {
   1063                reportRspRec = &(readReportCfgRspCmd->attrList[i]);
   1064          
   1065                *pBuf++ = reportRspRec->status;
   1066                *pBuf++ = reportRspRec->direction;
   1067                *pBuf++ = LO_UINT16( reportRspRec->attrID );
   1068                *pBuf++ = HI_UINT16( reportRspRec->attrID );
   1069               
   1070                if ( reportRspRec->status == ZCL_STATUS_SUCCESS )
   1071                {
   1072                  if ( reportRspRec->direction == ZCL_SEND_ATTR_REPORTS )
   1073                  {
   1074                    *pBuf++ = reportRspRec->dataType;
   1075                    *pBuf++ = LO_UINT16( reportRspRec->minReportInt );
   1076                    *pBuf++ = HI_UINT16( reportRspRec->minReportInt );
   1077                    *pBuf++ = LO_UINT16( reportRspRec->maxReportInt );
   1078                    *pBuf++ = HI_UINT16( reportRspRec->maxReportInt );
   1079          
   1080                    if ( zclAnalogDataType( reportRspRec->dataType ) )
   1081                    {
   1082                      zclSerializeData( reportRspRec->dataType, 
   1083                                        reportRspRec->reportableChange, pBuf );
   1084                      reportChangeLen = zclGetDataTypeLength( reportRspRec->dataType );
   1085                      pBuf += reportChangeLen;
   1086                    }
   1087                  }
   1088                  else
   1089                  {
   1090                    *pBuf++ = LO_UINT16( reportRspRec->timeoutPeriod );
   1091                    *pBuf++ = HI_UINT16( reportRspRec->timeoutPeriod );
   1092                  }
   1093                }
   1094              }
   1095             
   1096              status = zcl_SendCommand( srcEP, dstAddr, clusterID,
   1097                                        ZCL_CMD_READ_REPORT_CFG_RSP, FALSE,
   1098                                        direction, disableDefaultRsp, 0, seqNum, dataLen, buf );
   1099              osal_mem_free( buf );
   1100            }
   1101            else
   1102              status = ZMemError;
   1103            
   1104            return ( status );
   1105          }
   1106          
   1107          /*********************************************************************
   1108           * @fn      zcl_SendReportCmd
   1109           * @brief   Send a Report command
   1110           * @param   dstAddr - destination address
   1111           *          clusterID - cluster ID
   1112           *          reportCmd - report command to be sent
   1113           *          direction - direction of the command
   1114           *          seqNum - transaction sequence number
   1115           * @return  ZSuccess if OK
   1116           */
   1117          ZStatus_t zcl_SendReportCmd( uint8 srcEP, afAddrType_t *dstAddr,
   1118                                       uint16 clusterID, zclReportCmd_t *reportCmd,
   1119                                       uint8 direction, uint8 disableDefaultRsp, uint8 seqNum )
   1120          {
   1121            zclReport_t *reportRec;
   1122            uint8 attrDataLen;
   1123            uint8 dataLen = 0;
   1124            uint8 *buf;
   1125            uint8 *pBuf;
   1126            uint8 i;
   1127            ZStatus_t status;
   1128            
   1129            // calculate the size of the command
   1130            for ( i = 0; i < reportCmd->numAttr; i++ )
   1131            {
   1132              reportRec = &(reportCmd->attrList[i]);
   1133              
   1134              dataLen += 2 + 1; // Attribute ID + data type
   1135          
   1136              attrDataLen = zclGetAttrDataLength( reportRec->dataType, reportRec->attrData );
   1137              dataLen += attrDataLen; // Attribute Data
   1138            }
   1139            
   1140            buf = osal_mem_alloc( dataLen );
   1141            if ( buf != NULL )
   1142            {
   1143              // Load the buffer - serially
   1144              pBuf = buf;
   1145              for ( i = 0; i < reportCmd->numAttr; i++ )
   1146              {
   1147                reportRec = &(reportCmd->attrList[i]);
   1148                
   1149                *pBuf++ = LO_UINT16( reportRec->attrID );
   1150                *pBuf++ = HI_UINT16( reportRec->attrID );
   1151                *pBuf++ = reportRec->dataType;
   1152          
   1153                zclSerializeData( reportRec->dataType, reportRec->attrData, pBuf );
   1154                attrDataLen = zclGetAttrDataLength( reportRec->dataType, reportRec->attrData );
   1155                pBuf += attrDataLen; // move pass attribute data
   1156              }
   1157           
   1158              status = zcl_SendCommand( srcEP, dstAddr, clusterID, ZCL_CMD_REPORT, FALSE, 
   1159                                        direction, disableDefaultRsp, 0, seqNum, dataLen, buf );
   1160              osal_mem_free( buf );
   1161            }
   1162            else
   1163              status = ZMemError;
   1164            
   1165            return ( status );
   1166          }
   1167          #endif // ZCL_REPORT
   1168                 
   1169          /*********************************************************************
   1170           * @fn      zcl_SendDefaultRspCmd
   1171           * @brief   Send a Default Response command
   1172           *
   1173           *          Note: The manufacturer code field should be set if this command is being sent
   1174           *           in response to a manufacturer specific command.
   1175           * @param   dstAddr - destination address
   1176           *          clusterID - cluster ID
   1177           *          defaultRspCmd - default response command to be sent
   1178           *          direction - direction of the command
   1179           *          manuCode - manufacturer code for proprietary extensions to a profile
   1180           *          seqNum - transaction sequence number
   1181           * @return  ZSuccess if OK
   1182           */

   \                                 In  segment BANKED_CODE, align 1, keep-with-next
   1183          ZStatus_t zcl_SendDefaultRspCmd( uint8 srcEP, afAddrType_t *dstAddr, uint16 clusterID,
   \                     zcl_SendDefaultRspCmd:
   1184                                           zclDefaultRspCmd_t *defaultRspCmd, uint8 direction,
   1185                                           uint8 disableDefaultRsp, uint16 manuCode, uint8 seqNum )
   1186          {
   \   000000   74F2         MOV     A,#-0xe
   \   000002   12....       LCALL   ?BANKED_ENTER_XDATA
   \   000005                ; Saved register size: 14
   \   000005                ; Auto size: 2
   \   000005   74FE         MOV     A,#-0x2
   \   000007   12....       LCALL   ?ALLOC_XSTACK8
   \   00000A   E9           MOV     A,R1
   \   00000B   FE           MOV     R6,A
   \   00000C   7410         MOV     A,#0x10
   \   00000E   12....       LCALL   ?XSTACK_DISP0_8
   \   000011   12....       LCALL   ?Subroutine55 & 0xFFFF
   \                     ??CrossCallReturnLabel_71:
   \   000014   7412         MOV     A,#0x12
   \   000016   12....       LCALL   ?XSTACK_DISP0_8
   \   000019   E0           MOVX    A,@DPTR
   \   00001A   FF           MOV     R7,A
   \   00001B   7413         MOV     A,#0x13
   \   00001D   12....       LCALL   ?XSTACK_DISP0_8
   \   000020   E0           MOVX    A,@DPTR
   \   000021   F5..         MOV     ?V0 + 4,A
   \   000023   7414         MOV     A,#0x14
   \   000025   12....       LCALL   ?XSTACK_DISP0_8
   \   000028   E0           MOVX    A,@DPTR
   \   000029   F5..         MOV     ?V0 + 2,A
   \   00002B   A3           INC     DPTR
   \   00002C   E0           MOVX    A,@DPTR
   \   00002D   F5..         MOV     ?V0 + 3,A
   \   00002F   7416         MOV     A,#0x16
   \   000031   12....       LCALL   ?XSTACK_DISP0_8
   \   000034   E0           MOVX    A,@DPTR
   \   000035   F5..         MOV     ?V0 + 5,A
   1187            uint8 buf[2]; // Command ID and Status;
   1188          
   1189            // Load the buffer - serially
   1190            buf[0] = defaultRspCmd->commandID;
   \   000037   8882         MOV     DPL,R0
   \   000039   8983         MOV     DPH,R1
   \   00003B   E0           MOVX    A,@DPTR
   \   00003C   85..82       MOV     DPL,?XSP + 0
   \   00003F   85..83       MOV     DPH,?XSP + 1
   \   000042   12....       LCALL   ?Subroutine14 & 0xFFFF
   1191            buf[1] = defaultRspCmd->statusCode;
   \                     ??CrossCallReturnLabel_21:
   \   000045   E0           MOVX    A,@DPTR
   \   000046   C0E0         PUSH    A
   \   000048   7401         MOV     A,#0x1
   \   00004A   12....       LCALL   ?XSTACK_DISP0_8
   \   00004D   D0E0         POP     A
   \   00004F   F0           MOVX    @DPTR,A
   1192          
   1193            return ( zcl_SendCommand( srcEP, dstAddr, clusterID, ZCL_CMD_DEFAULT_RSP, FALSE,
   1194                                      direction, disableDefaultRsp, manuCode, seqNum, 2, buf ) ); 
   \   000050                ; Setup parameters for call to function zcl_SendCommand
   \   000050   85..82       MOV     DPL,?XSP + 0
   \   000053   85..83       MOV     DPH,?XSP + 1
   \   000056   8582..       MOV     ?V0 + 0,DPL
   \   000059   8583..       MOV     ?V0 + 1,DPH
   \   00005C   78..         MOV     R0,#?V0 + 0
   \   00005E   12....       LCALL   ?PUSH_XSTACK_I_TWO
   \   000061   75..02       MOV     ?V0 + 0,#0x2
   \   000064   75..00       MOV     ?V0 + 1,#0x0
   \   000067   78..         MOV     R0,#?V0 + 0
   \   000069   12....       LCALL   ?PUSH_XSTACK_I_TWO
   \   00006C   E5..         MOV     A,?V0 + 5
   \   00006E   F5..         MOV     ?V0 + 0,A
   \   000070   78..         MOV     R0,#?V0 + 0
   \   000072   12....       LCALL   ?PUSH_XSTACK_I_ONE
   \   000075   78..         MOV     R0,#?V0 + 2
   \   000077   12....       LCALL   ?PUSH_XSTACK_I_TWO
   \   00007A   E5..         MOV     A,?V0 + 4
   \   00007C   F5..         MOV     ?V0 + 0,A
   \   00007E   78..         MOV     R0,#?V0 + 0
   \   000080   12....       LCALL   ?PUSH_XSTACK_I_ONE
   \   000083   EF           MOV     A,R7
   \   000084   F5..         MOV     ?V0 + 0,A
   \   000086   78..         MOV     R0,#?V0 + 0
   \   000088   12....       LCALL   ?PUSH_XSTACK_I_ONE
   \   00008B   75..00       MOV     ?V0 + 0,#0x0
   \   00008E   78..         MOV     R0,#?V0 + 0
   \   000090   12....       LCALL   ?PUSH_XSTACK_I_ONE
   \   000093   75..0B       MOV     ?V0 + 0,#0xb
   \   000096   78..         MOV     R0,#?V0 + 0
   \   000098   12....       LCALL   ?PUSH_XSTACK_I_ONE
   \   00009B   EE           MOV     A,R6
   \   00009C   F9           MOV     R1,A
   \   00009D   12....       LCALL   ?Subroutine92 & 0xFFFF
   \                     ??CrossCallReturnLabel_123:
   \   0000A0   12....       LCALL   ?DEALLOC_XSTACK8
   \   0000A3   7402         MOV     A,#0x2
   \   0000A5   12....       LCALL   ?DEALLOC_XSTACK8
   \   0000A8   02....       LJMP    ?Subroutine105 & 0xFFFF
   1195          }

   \                                 In  segment BANKED_CODE, align 1, keep-with-next
   \                     ?Subroutine55:
   \   000000   12....       LCALL   ?Subroutine87 & 0xFFFF
   \                     ??CrossCallReturnLabel_209:
   \   000003   22           RET
   1196          
   1197          #ifdef ZCL_DISCOVER
   1198          /*********************************************************************
   1199           * @fn      zcl_SendDiscoverCmd
   1200           * @brief   Send a Discover command
   1201           * @param   dstAddr - destination address
   1202           *          clusterID - cluster ID
   1203           *          discoverCmd - discover command to be sent
   1204           *          direction - direction of the command
   1205           *          seqNum - transaction sequence number
   1206           * @return  ZSuccess if OK
   1207           */
   1208          ZStatus_t zcl_SendDiscoverCmd( uint8 srcEP, afAddrType_t *dstAddr,
   1209                                      uint16 clusterID, zclDiscoverCmd_t *discoverCmd,
   1210                                      uint8 direction, uint8 disableDefaultRsp, uint8 seqNum )
   1211          {
   1212            uint8 dataLen = 2 + 1; // Start Attribute ID and Max Attribute IDs
   1213            uint8 *buf;
   1214            uint8 *pBuf;
   1215            ZStatus_t status;
   1216            
   1217            buf = osal_mem_alloc( dataLen );
   1218            if ( buf != NULL )
   1219            {
   1220              // Load the buffer - serially
   1221              pBuf = buf;
   1222              *pBuf++ = LO_UINT16(discoverCmd->startAttr);
   1223              *pBuf++ = HI_UINT16(discoverCmd->startAttr);
   1224              *pBuf++ = discoverCmd->maxAttrIDs;
   1225              
   1226              status = zcl_SendCommand( srcEP, dstAddr, clusterID, ZCL_CMD_DISCOVER, FALSE, 
   1227                                        direction, disableDefaultRsp, 0, seqNum, dataLen, buf );
   1228              osal_mem_free( buf );
   1229            }
   1230            else
   1231              status = ZMemError;
   1232            
   1233            return ( status );
   1234          }
   1235          
   1236          /*********************************************************************
   1237           * @fn      zcl_SendDiscoverRspCmd
   1238           * @brief   Send a Discover Response command
   1239           * @param   dstAddr - destination address
   1240           *          clusterID - cluster ID
   1241           *          reportRspCmd - report response command to be sent
   1242           *          direction - direction of the command
   1243           *          seqNum - transaction sequence number
   1244           * @return  ZSuccess if OK
   1245           */
   1246          ZStatus_t zcl_SendDiscoverRspCmd( uint8 srcEP, afAddrType_t *dstAddr,
   1247                                uint16 clusterID, zclDiscoverRspCmd_t *discoverRspCmd,
   1248                                uint8 direction, uint8 disableDefaultRsp, uint8 seqNum )
   1249          {
   1250            uint8 dataLen = 1; // Discovery complete
   1251            uint8 *buf;
   1252            uint8 *pBuf;
   1253            uint8 i;
   1254            ZStatus_t status;
   1255            
   1256            // calculate the size of the command
   1257            dataLen += discoverRspCmd->numAttr * (2 + 1); // Attribute ID and Data Type
   1258            
   1259            buf = osal_mem_alloc( dataLen );
   1260            if ( buf != NULL )
   1261            {
   1262              // Load the buffer - serially
   1263              pBuf = buf;
   1264              *pBuf++ = discoverRspCmd->discComplete;    
   1265              for ( i = 0; i < discoverRspCmd->numAttr; i++ )
   1266              {
   1267                *pBuf++ = LO_UINT16(discoverRspCmd->attrList[i].attrID);
   1268                *pBuf++ = HI_UINT16(discoverRspCmd->attrList[i].attrID);
   1269                *pBuf++ = discoverRspCmd->attrList[i].dataType;
   1270              }
   1271              
   1272              status = zcl_SendCommand( srcEP, dstAddr, clusterID, ZCL_CMD_DISCOVER_RSP, FALSE,
   1273                                        direction, disableDefaultRsp, 0, seqNum, dataLen, buf );
   1274              osal_mem_free( buf );
   1275            }
   1276            else
   1277              status = ZMemError;
   1278            
   1279            return ( status );
   1280          }
   1281          #endif // ZCL_DISCOVER
   1282          
   1283          /*********************************************************************
   1284           * PRIVATE FUNCTIONS
   1285           *********************************************************************/
   1286          
   1287          /*********************************************************************
   1288           * @fn      zclProcessMessageMSG
   1289           * @brief   Data message processor callback.  This function processes
   1290           *          any incoming data - probably from other devices.  So, based
   1291           *          on cluster ID, perform the intended action.
   1292           * @param   pkt - incoming message
   1293           */

   \                                 In  segment BANKED_CODE, align 1, keep-with-next
   1294          void zclProcessMessageMSG( afIncomingMSGPacket_t *pkt )
   \                     zclProcessMessageMSG:
   1295          {
   \   000000   74F0         MOV     A,#-0x10
   \   000002   12....       LCALL   ?BANKED_ENTER_XDATA
   \   000005                ; Saved register size: 16
   \   000005                ; Auto size: 21
   \   000005   74EB         MOV     A,#-0x15
   \   000007   12....       LCALL   ?ALLOC_XSTACK8
   \   00000A   EA           MOV     A,R2
   \   00000B   FE           MOV     R6,A
   \   00000C   EB           MOV     A,R3
   \   00000D   FF           MOV     R7,A
   1296            // The coordinator receive data
   1297            #if defined(Coor_receiver)
   1298              uint16 id;
   1299              uint8 num[6];
   1300              byte recv_data[60]; // receive data array
   1301            #endif
   1302              uint16 len;
                            ^
Warning[Pe177]: variable "len" was declared but never referenced
   1303            
   1304            endPointDesc_t *epDesc;
   1305            zclIncoming_t inMsg;
   1306            zclLibPlugin_t *pInPlugin;
   1307            zclDefaultRspCmd_t defautlRspCmd;
   1308            uint8 options;
   1309            uint8 securityEnable;
   1310            uint8 interPanMsg;
   1311            ZStatus_t status = ZFailure;
   1312          
   1313            if ( pkt->cmd.DataLength == 0 )
   \   00000E   EE           MOV     A,R6
   \   00000F   241F         ADD     A,#0x1f
   \   000011   F5..         MOV     ?V0 + 0,A
   \   000013   EF           MOV     A,R7
   \   000014   3400         ADDC    A,#0x0
   \   000016   F5..         MOV     ?V0 + 1,A
   \   000018   85..82       MOV     DPL,?V0 + 0
   \   00001B   F583         MOV     DPH,A
   \   00001D   E0           MOVX    A,@DPTR
   \   00001E   7002         JNZ     ??zclProcessMessageMSG_0
   \   000020   A3           INC     DPTR
   \   000021   E0           MOVX    A,@DPTR
   \                     ??zclProcessMessageMSG_0:
   \   000022   7003         JNZ     $+5
   \   000024   02....       LJMP    ??zclProcessMessageMSG_1 & 0xFFFF
   1314              return;   // Error, ignore the message
   1315          
   1316          #if defined(Coor_receiver)  
   1317            // Get the device short address
   1318            id = pkt->srcAddr.addr.shortAddr;
   1319            num[0] = id / 10000 + '0';
   1320            num[1] = ((id / 1000) % 10) + '0';
   1321            num[2] = ((id / 100) % 10) + '0';
   1322            num[3] = ((id / 10) % 10) + '0';
   1323            num[4] = id % 10 + '0';
   1324            num[5] = ',';
   1325            
   1326            // Send the recv_data to UART
   1327            for(len=0; len<pkt->cmd.DataLength; len++)
   1328            {
   1329              recv_data[len] = pkt->cmd.Data[len]; // recv_data[0~5] is shortaddr, the cmd.Data[0~2] is cluster ID.
   1330              #if defined ( LCD_SUPPORTED )
   1331                HalLcdWriteChar(HAL_LCD_LINE_4, len, recv_data[len]);
   1332              #endif
   1333            }
   1334            HalUARTWrite(MT_UART_DEFAULT_PORT, num, 5);
   1335            HalUARTWrite(MT_UART_DEFAULT_PORT, recv_data, pkt->cmd.DataLength);
   1336          #endif
   1337            
   1338            // Initialize
   1339            inMsg.msg = pkt;
   \   000027   7402         MOV     A,#0x2
   \   000029   12....       LCALL   ?XSTACK_DISP0_8
   \   00002C   EE           MOV     A,R6
   \   00002D   F0           MOVX    @DPTR,A
   \   00002E   A3           INC     DPTR
   \   00002F   EF           MOV     A,R7
   \   000030   F0           MOVX    @DPTR,A
   1340            inMsg.attrCmd = NULL;
   \   000031   740E         MOV     A,#0xe
   \   000033   12....       LCALL   ?XSTACK_DISP0_8
   \   000036   E4           CLR     A
   \   000037   F0           MOVX    @DPTR,A
   \   000038   A3           INC     DPTR
   \   000039   F0           MOVX    @DPTR,A
   1341            inMsg.pData = NULL;
   \   00003A   740A         MOV     A,#0xa
   \   00003C   12....       LCALL   ?XSTACK_DISP0_8
   \   00003F   E4           CLR     A
   \   000040   F0           MOVX    @DPTR,A
   \   000041   A3           INC     DPTR
   \   000042   F0           MOVX    @DPTR,A
   1342            inMsg.pDataLen = 0;
   \   000043   740C         MOV     A,#0xc
   \   000045   12....       LCALL   ?XSTACK_DISP0_8
   \   000048   E4           CLR     A
   \   000049   F0           MOVX    @DPTR,A
   \   00004A   A3           INC     DPTR
   \   00004B   F0           MOVX    @DPTR,A
   1343          
   1344            inMsg.pData = zclParseHdr( &(inMsg.hdr), pkt->cmd.Data );
   \   00004C   EE           MOV     A,R6
   \   00004D   2421         ADD     A,#0x21
   \   00004F   12....       LCALL   ?Subroutine65 & 0xFFFF
   \                     ??CrossCallReturnLabel_281:
   \   000052   12....       LCALL   ??Subroutine127_0 & 0xFFFF
   \                     ??CrossCallReturnLabel_174:
   \   000055   7404         MOV     A,#0x4
   \   000057   12....       LCALL   ?XSTACK_DISP0_8
   \   00005A   AA82         MOV     R2,DPL
   \   00005C   AB83         MOV     R3,DPH
   \   00005E   12....       LCALL   ??zclParseHdr?relay
   \   000061   740A         MOV     A,#0xa
   \   000063   12....       LCALL   ?XSTACK_DISP0_8
   \   000066   12....       LCALL   ??Subroutine147_0 & 0xFFFF
   1345            inMsg.pDataLen = pkt->cmd.DataLength;
   1346            inMsg.pDataLen -= (uint16)(inMsg.pData - pkt->cmd.Data);
   \                     ??CrossCallReturnLabel_292:
   \   000069   85..82       MOV     DPL,?V0 + 0
   \   00006C   85..83       MOV     DPH,?V0 + 1
   \   00006F   C082         PUSH    DPL
   \   000071   C083         PUSH    DPH
   \   000073   740A         MOV     A,#0xa
   \   000075   12....       LCALL   ?XSTACK_DISP0_8
   \   000078   12....       LCALL   ?Subroutine55 & 0xFFFF
   \                     ??CrossCallReturnLabel_72:
   \   00007B   D083         POP     DPH
   \   00007D   D082         POP     DPL
   \   00007F   E0           MOVX    A,@DPTR
   \   000080   C3           CLR     C
   \   000081   98           SUBB    A,R0
   \   000082   F8           MOV     R0,A
   \   000083   A3           INC     DPTR
   \   000084   E0           MOVX    A,@DPTR
   \   000085   99           SUBB    A,R1
   \   000086   F9           MOV     R1,A
   \   000087   85..82       MOV     DPL,?V0 + 2
   \   00008A   85..83       MOV     DPH,?V0 + 3
   \   00008D   E0           MOVX    A,@DPTR
   \   00008E   28           ADD     A,R0
   \   00008F   F8           MOV     R0,A
   \   000090   A3           INC     DPTR
   \   000091   E0           MOVX    A,@DPTR
   \   000092   39           ADDC    A,R1
   \   000093   F9           MOV     R1,A
   \   000094   740C         MOV     A,#0xc
   \   000096   12....       LCALL   ?XSTACK_DISP0_8
   \   000099   12....       LCALL   ??Subroutine140_0 & 0xFFFF
   1347          
   1348            // Find the wanted endpoint
   1349            epDesc = afFindEndPointDesc( pkt->endPoint );
   \                     ??CrossCallReturnLabel_238:
   \   00009C   EE           MOV     A,R6
   \   00009D   2414         ADD     A,#0x14
   \   00009F   12....       LCALL   ?Subroutine65 & 0xFFFF
   \                     ??CrossCallReturnLabel_282:
   \   0000A2   E0           MOVX    A,@DPTR
   \   0000A3   F9           MOV     R1,A
   \   0000A4   12....       LCALL   ??afFindEndPointDesc?relay
   \   0000A7   8A..         MOV     ?V0 + 0,R2
   \   0000A9   8B..         MOV     ?V0 + 1,R3
   \   0000AB   A8..         MOV     R0,?V0 + 0
   \   0000AD   A9..         MOV     R1,?V0 + 1
   1350            if ( epDesc == NULL )
   \   0000AF   E8           MOV     A,R0
   \   0000B0   7001         JNZ     ??zclProcessMessageMSG_2
   \   0000B2   E9           MOV     A,R1
   \                     ??zclProcessMessageMSG_2:
   \   0000B3   7003         JNZ     $+5
   \   0000B5   02....       LJMP    ??zclProcessMessageMSG_1 & 0xFFFF
   1351              return;   // Error, ignore the message
   1352          
   1353            if ( pkt->clusterId == ZCL_INVALID_CLUSTER_ID )
   \   0000B8   EE           MOV     A,R6
   \   0000B9   2404         ADD     A,#0x4
   \   0000BB   F5..         MOV     ?V0 + 4,A
   \   0000BD   EF           MOV     A,R7
   \   0000BE   3400         ADDC    A,#0x0
   \   0000C0   F5..         MOV     ?V0 + 5,A
   \   0000C2   85..82       MOV     DPL,?V0 + 4
   \   0000C5   F583         MOV     DPH,A
   \   0000C7   12....       LCALL   ?Subroutine58 & 0xFFFF
   \                     ??CrossCallReturnLabel_82:
   \   0000CA   7003         JNZ     ??zclProcessMessageMSG_3
   \   0000CC   74FF         MOV     A,#-0x1
   \   0000CE   6B           XRL     A,R3
   \                     ??zclProcessMessageMSG_3:
   \   0000CF   7003         JNZ     $+5
   \   0000D1   02....       LJMP    ??zclProcessMessageMSG_1 & 0xFFFF
   1354              return;   // Error, ignore the message
   1355            
   1356            if ((epDesc->simpleDesc == NULL) ||
   1357                (zcl_DeviceOperational(pkt->endPoint, pkt->clusterId, inMsg.hdr.fc.type, inMsg.hdr.commandID,
   1358                                             epDesc->simpleDesc->AppProfId) == FALSE))
   \   0000D4   E8           MOV     A,R0
   \   0000D5   2403         ADD     A,#0x3
   \   0000D7   F5..         MOV     ?V0 + 6,A
   \   0000D9   E9           MOV     A,R1
   \   0000DA   3400         ADDC    A,#0x0
   \   0000DC   F5..         MOV     ?V0 + 7,A
   \   0000DE   85..82       MOV     DPL,?V0 + 6
   \   0000E1   F583         MOV     DPH,A
   \   0000E3   12....       LCALL   ?Subroutine40 & 0xFFFF
   \                     ??CrossCallReturnLabel_52:
   \   0000E6   7002         JNZ     ??zclProcessMessageMSG_4
   \   0000E8   E583         MOV     A,DPH
   \                     ??zclProcessMessageMSG_4:
   \   0000EA   7003         JNZ     $+5
   \   0000EC   02....       LJMP    ??zclProcessMessageMSG_1 & 0xFFFF
   \   0000EF                ; Setup parameters for call to function zcl_DeviceOperational
   \   0000EF   A3           INC     DPTR
   \   0000F0   12....       LCALL   ?PUSH_XSTACK8_X_TWO
   \   0000F3   740B         MOV     A,#0xb
   \   0000F5   12....       LCALL   ?XSTACK_DISP0_8
   \   0000F8   E0           MOVX    A,@DPTR
   \   0000F9   FD           MOV     R5,A
   \   0000FA   7406         MOV     A,#0x6
   \   0000FC   12....       LCALL   ?XSTACK_DISP0_8
   \   0000FF   E0           MOVX    A,@DPTR
   \   000100   5403         ANL     A,#0x3
   \   000102   FC           MOV     R4,A
   \   000103   85..82       MOV     DPL,?V0 + 2
   \   000106   85..83       MOV     DPH,?V0 + 3
   \   000109   E0           MOVX    A,@DPTR
   \   00010A   F9           MOV     R1,A
   \   00010B   12....       LCALL   ??zcl_DeviceOperational?relay
   \   00010E   7402         MOV     A,#0x2
   \   000110   12....       LCALL   ?DEALLOC_XSTACK8
   \   000113   E9           MOV     A,R1
   \   000114   7003         JNZ     $+5
   \   000116   02....       LJMP    ??zclProcessMessageMSG_1 & 0xFFFF
   1359            {
   1360              return; // Error, ignore the message
   1361            }
   1362          
   1363          #if defined ( INTER_PAN )
   1364            if ( StubAPS_InterPan( pkt->srcAddr.panId, pkt->srcAddr.endPoint ) )
   1365            {
   1366              // No foundation command is supported thru Inter-PAN communication
   1367              if ( zcl_ProfileCmd( inMsg.hdr.fc.type ) )
   1368                return;
   1369          
   1370              interPanMsg = TRUE; 
   1371              options = AF_TX_OPTIONS_NONE;
   1372            }
   1373            else
   1374          #endif
   1375            {
   1376              interPanMsg = FALSE;
   1377              options = zclGetClusterOption( pkt->endPoint, pkt->clusterId );
   \   000119                ; Setup parameters for call to function zclGetClusterOption
   \   000119   85..82       MOV     DPL,?V0 + 4
   \   00011C   85..83       MOV     DPH,?V0 + 5
   \   00011F   12....       LCALL   ?Subroutine43 & 0xFFFF
   1378            }
   \                     ??CrossCallReturnLabel_55:
   \   000122   E0           MOVX    A,@DPTR
   \   000123   F9           MOV     R1,A
   \   000124   12....       LCALL   ??zclGetClusterOption?relay
   \   000127   E9           MOV     A,R1
   \   000128   FA           MOV     R2,A
   1379            
   1380            // Local and remote Security options must match except for Default Response command
   1381            if ( !zcl_DefaultRspCmd( inMsg.hdr ) )
   \   000129   7404         MOV     A,#0x4
   \   00012B   12....       LCALL   ?XSTACK_DISP0_8
   \   00012E   E0           MOVX    A,@DPTR
   \   00012F   F8           MOV     R0,A
   \   000130   5407         ANL     A,#0x7
   \   000132   700D         JNZ     ??zclProcessMessageMSG_5
   \   000134   7409         MOV     A,#0x9
   \   000136   12....       LCALL   ?XSTACK_DISP0_8
   \   000139   E0           MOVX    A,@DPTR
   \   00013A   640B         XRL     A,#0xb
   \   00013C   7003         JNZ     $+5
   \   00013E   02....       LJMP    ??zclProcessMessageMSG_6 & 0xFFFF
   1382            {
   1383              securityEnable = ( options & AF_EN_SECURITY ) ? TRUE : FALSE;
   \                     ??zclProcessMessageMSG_5:
   \   000141   EA           MOV     A,R2
   \   000142   A2E6         MOV     C,0xE0 /* A   */.6
   \   000144   5004         JNC     ??zclProcessMessageMSG_7
   \   000146   D2F0         SETB    B.0
   \   000148   8002         SJMP    ??zclProcessMessageMSG_8
   \                     ??zclProcessMessageMSG_7:
   \   00014A   C2F0         CLR     B.0
   \                     ??zclProcessMessageMSG_8:
   \   00014C   A2F0         MOV     C,B.0
   \   00014E   E4           CLR     A
   \   00014F   92E0         MOV     0xE0 /* A   */.0,C
   \   000151   F5..         MOV     ?V0 + 0,A
   1384              if ( pkt->SecurityUse != securityEnable )
   \   000153   EE           MOV     A,R6
   \   000154   2419         ADD     A,#0x19
   \   000156   F582         MOV     DPL,A
   \   000158   EF           MOV     A,R7
   \   000159   12....       LCALL   ??Subroutine144_0 & 0xFFFF
   \                     ??CrossCallReturnLabel_273:
   \   00015C   65..         XRL     A,?V0 + 0
   \   00015E   7003         JNZ     $+5
   \   000160   02....       LJMP    ??zclProcessMessageMSG_6 & 0xFFFF
   1385              {
   1386                if ( UNICAST_MSG( inMsg.msg ) )
   \   000163   7402         MOV     A,#0x2
   \   000165   12....       LCALL   ?XSTACK_DISP0_8
   \   000168   12....       LCALL   ?Subroutine31 & 0xFFFF
   \                     ??CrossCallReturnLabel_34:
   \   00016B   6003         JZ      $+5
   \   00016D   02....       LJMP    ??zclProcessMessageMSG_1 & 0xFFFF
   \   000170   7402         MOV     A,#0x2
   \   000172   12....       LCALL   ?XSTACK_DISP0_8
   \   000175   12....       LCALL   ?Subroutine45 & 0xFFFF
   \                     ??CrossCallReturnLabel_59:
   \   000178   7002         JNZ     ??zclProcessMessageMSG_9
   \   00017A   A3           INC     DPTR
   \   00017B   E0           MOVX    A,@DPTR
   \                     ??zclProcessMessageMSG_9:
   \   00017C   6003         JZ      $+5
   \   00017E   02....       LJMP    ??zclProcessMessageMSG_1 & 0xFFFF
   1387                {
   1388                  // Send a Default Response command back with no Application Link Key security
   1389                  if ( securityEnable )
   \   000181   E5..         MOV     A,?V0 + 0
   \   000183   6005         JZ      ??CrossCallReturnLabel_32
   1390                    zclSetSecurityOption( pkt->endPoint, pkt->clusterId, FALSE );
   \   000185                ; Setup parameters for call to function zclSetSecurityOption
   \   000185   7C00         MOV     R4,#0x0
   \   000187   12....       LCALL   ?Subroutine27 & 0xFFFF
   1391                  
   1392                  defautlRspCmd.statusCode = status;
   \                     ??CrossCallReturnLabel_32:
   \   00018A   7401         MOV     A,#0x1
   \   00018C   12....       LCALL   ?XSTACK_DISP0_8
   \   00018F   7401         MOV     A,#0x1
   \   000191   F0           MOVX    @DPTR,A
   1393                  defautlRspCmd.commandID = inMsg.hdr.commandID;
   \   000192   7409         MOV     A,#0x9
   \   000194   12....       LCALL   ?XSTACK_DISP0_8
   \   000197   12....       LCALL   ?Subroutine51 & 0xFFFF
   1394                  zcl_SendDefaultRspCmd( inMsg.msg->endPoint, &(inMsg.msg->srcAddr),
   1395                                         inMsg.msg->clusterId, &defautlRspCmd, 
   1396                                         ZCL_FRAME_SERVER_CLIENT_DIR, true, 
   1397                                         inMsg.hdr.manuCode, inMsg.hdr.transSeqNum );
   \                     ??CrossCallReturnLabel_65:
   \   00019A   12....       LCALL   ?XSTACK_DISP0_8
   \   00019D   E0           MOVX    A,@DPTR
   \   00019E   F5..         MOV     ?V0 + 1,A
   \   0001A0   78..         MOV     R0,#?V0 + 1
   \   0001A2   12....       LCALL   ?PUSH_XSTACK_I_ONE
   \   0001A5   7407         MOV     A,#0x7
   \   0001A7   12....       LCALL   ?XSTACK_DISP0_8
   \   0001AA   12....       LCALL   ?PUSH_XSTACK8_X_TWO
   \   0001AD   75..01       MOV     ?V0 + 1,#0x1
   \   0001B0   78..         MOV     R0,#?V0 + 1
   \   0001B2   12....       LCALL   ?PUSH_XSTACK_I_ONE
   \   0001B5   78..         MOV     R0,#?V0 + 1
   \   0001B7   12....       LCALL   ?PUSH_XSTACK_I_ONE
   \   0001BA   7405         MOV     A,#0x5
   \   0001BC   12....       LCALL   ?XSTACK_DISP0_8
   \   0001BF   8582..       MOV     ?V0 + 6,DPL
   \   0001C2   8583..       MOV     ?V0 + 7,DPH
   \   0001C5   78..         MOV     R0,#?V0 + 6
   \   0001C7   12....       LCALL   ?PUSH_XSTACK_I_TWO
   \   0001CA   7409         MOV     A,#0x9
   \   0001CC   12....       LCALL   ?XSTACK_DISP0_8
   \   0001CF   12....       LCALL   ?Subroutine25 & 0xFFFF
   \                     ??CrossCallReturnLabel_180:
   \   0001D2   7409         MOV     A,#0x9
   \   0001D4   12....       LCALL   ?XSTACK_DISP0_8
   \   0001D7   12....       LCALL   ?Subroutine48 & 0xFFFF
   \                     ??CrossCallReturnLabel_63:
   \   0001DA   12....       LCALL   ?XSTACK_DISP0_8
   \   0001DD   12....       LCALL   ?Subroutine26 & 0xFFFF
   \                     ??CrossCallReturnLabel_30:
   \   0001E0   12....       LCALL   ?DEALLOC_XSTACK8
   1398                  if ( securityEnable )
   \   0001E3   E5..         MOV     A,?V0 + 0
   \   0001E5   7003         JNZ     $+5
   \   0001E7   02....       LJMP    ??zclProcessMessageMSG_1 & 0xFFFF
   1399                    zclSetSecurityOption( pkt->endPoint, pkt->clusterId, TRUE );       
   \   0001EA                ; Setup parameters for call to function zclSetSecurityOption
   \   0001EA   7C01         MOV     R4,#0x1
   \   0001EC   12....       LCALL   ?Subroutine27 & 0xFFFF
   1400                }
   1401                
   1402                return;   // Error, ignore the message
   1403              }
   1404            }
   \                     ??CrossCallReturnLabel_33:
   \   0001EF   02....       LJMP    ??zclProcessMessageMSG_1 & 0xFFFF
   1405            
   1406            // Is this a foundation type message
   1407            if ( zcl_ProfileCmd( inMsg.hdr.fc.type ) )
   \                     ??zclProcessMessageMSG_6:
   \   0001F2   E8           MOV     A,R0
   \   0001F3   5403         ANL     A,#0x3
   \   0001F5   6003         JZ      $+5
   \   0001F7   02....       LJMP    ??zclProcessMessageMSG_10 & 0xFFFF
   1408            { 
   1409              if ( inMsg.hdr.fc.manuSpecific )
   \   0001FA   E8           MOV     A,R0
   \   0001FB   5404         ANL     A,#0x4
   \   0001FD   6005         JZ      ??zclProcessMessageMSG_11
   1410              {
   1411                // We don't support any manufacturer specific command
   1412                status = ZCL_STATUS_UNSUP_MANU_GENERAL_COMMAND;
   \   0001FF   7A84         MOV     R2,#-0x7c
   \   000201   02....       LJMP    ??zclProcessMessageMSG_12 & 0xFFFF
   1413              }
   1414              else if ( ( inMsg.hdr.commandID <= ZCL_CMD_MAX ) && 
   1415                        ( zclCmdTable[inMsg.hdr.commandID].pfnParseInProfile != NULL ) )
   \                     ??zclProcessMessageMSG_11:
   \   000204   7409         MOV     A,#0x9
   \   000206   12....       LCALL   ?XSTACK_DISP0_8
   \   000209   E0           MOVX    A,@DPTR
   \   00020A   F5..         MOV     ?V0 + 0,A
   \   00020C   C3           CLR     C
   \   00020D   940E         SUBB    A,#0xe
   \   00020F   4003         JC      $+5
   \   000211   02....       LJMP    ??zclProcessMessageMSG_13 & 0xFFFF
   \   000214   75..00       MOV     ?V0 + 1,#0x0
   \   000217   7402         MOV     A,#0x2
   \   000219   78..         MOV     R0,#?V0 + 0
   \   00021B   12....       LCALL   ?S_SHL
   \   00021E   12....       LCALL   ?Subroutine73 & 0xFFFF
   \                     ??CrossCallReturnLabel_97:
   \   000221   F8           MOV     R0,A
   \   000222   7401         MOV     A,#0x1
   \   000224   93           MOVC    A,@A+DPTR
   \   000225   F9           MOV     R1,A
   \   000226   E8           MOV     A,R0
   \   000227   7001         JNZ     ??zclProcessMessageMSG_14
   \   000229   E9           MOV     A,R1
   \                     ??zclProcessMessageMSG_14:
   \   00022A   7003         JNZ     $+5
   \   00022C   02....       LJMP    ??zclProcessMessageMSG_13 & 0xFFFF
   1416              {
   1417                zclParseCmd_t parseCmd;
   1418                
   1419                parseCmd.endpoint = pkt->endPoint;
   \   00022F   85..82       MOV     DPL,?V0 + 2
   \   000232   85..83       MOV     DPH,?V0 + 3
   \   000235   E0           MOVX    A,@DPTR
   \   000236   C0E0         PUSH    A
   \   000238   7410         MOV     A,#0x10
   \   00023A   12....       LCALL   ?XSTACK_DISP0_8
   \   00023D   D0E0         POP     A
   \   00023F   F0           MOVX    @DPTR,A
   1420                parseCmd.dataLen = inMsg.pDataLen;
   \   000240   740C         MOV     A,#0xc
   \   000242   12....       LCALL   ?XSTACK_DISP0_8
