###############################################################################
#                                                                             #
# IAR C/C++ Compiler V7.51A/W32 for 8051                29/Nov/2010  16:01:55 #
# Copyright 2004-2009 IAR Systems AB.                                         #
#                                                                             #
#    Core               =  plain                                              #
#    Code model         =  banked                                             #
#    Data model         =  large                                              #
#    Calling convention =  xdata reentrant                                    #
#    Constant location  =  data_rom                                           #
#    Dptr setup         =  1,16                                               #
#    Source file        =  C:\Documents and Settings\Darren\桌面\ZIGBEE       #
#                          教學模組_出貨光碟\ZIGBEE                           #
#                          Example\CC2530_ZStack\教學模組_Z-Stack_Ex\ZStack-C #
#                          C2530-2.3.0-1.4.0\Components\stack\zdo\ZDObject.c  #
#    Command line       =  -f "C:\Documents and Settings\Darren\桌面\ZIGBEE   #
#                          教學模組_出貨光碟\ZIGBEE                           #
#                          Example\CC2530_ZStack\教學模組_Z-Stack_Ex\ZStack-C #
#                          C2530-2.3.0-1.4.0\Projects\zstack\HomeAutomation\S #
#                          ampleLight\CC2530DB\..\..\..\Tools\CC2530DB\f8wRou #
#                          ter.cfg" (-DCPU32MHZ -DROOT=__near_func            #
#                          -DMAC_CFG_APP_PENDING_QUEUE=TRUE -DRTR_NWK         #
#                          -DBLINK_LEDS) -f "C:\Documents and                 #
#                          Settings\Darren\桌面\ZIGBEE                        #
#                          教學模組_出貨光碟\ZIGBEE                           #
#                          Example\CC2530_ZStack\教學模組_Z-Stack_Ex\ZStack-C #
#                          C2530-2.3.0-1.4.0\Projects\zstack\HomeAutomation\S #
#                          ampleLight\CC2530DB\..\..\..\Tools\CC2530DB\f8wCon #
#                          fig.cfg" (-DSECURE=0 -DZG_SECURE_DYNAMIC=0         #
#                          -DREFLECTOR -DDEFAULT_CHANLIST=0x00000800          #
#                          -DZDAPP_CONFIG_PAN_ID=0xFFFF                       #
#                          -DNWK_START_DELAY=100 -DEXTENDED_JOINING_RANDOM_MA #
#                          SK=0x007F -DBEACON_REQUEST_DELAY=100               #
#                          -DBEACON_REQ_DELAY_MASK=0x00FF                     #
#                          -DROUTE_EXPIRY_TIME=30 -DAPSC_ACK_WAIT_DURATION_PO #
#                          LLED=3000 -DNWK_INDIRECT_MSG_TIMEOUT=7             #
#                          -DMAX_RREQ_ENTRIES=8 -DAPSC_MAX_FRAME_RETRIES=3    #
#                          -DNWK_MAX_DATA_RETRIES=2                           #
#                          -DMAX_POLL_FAILURE_RETRIES=2 -DMAX_BCAST=9         #
#                          -DAPS_MAX_GROUPS=16 -DMAX_RTG_ENTRIES=40           #
#                          -DNWK_MAX_BINDING_ENTRIES=4                        #
#                          -DMAX_BINDING_CLUSTER_IDS=4 "-DDEFAULT_KEY={0x01,  #
#                          0x03, 0x05, 0x07, 0x09, 0x0B, 0x0D, 0x0F, 0x00,    #
#                          0x02, 0x04, 0x06, 0x08, 0x0A, 0x0C, 0x0D}"         #
#                          -DMAC_MAX_FRAME_SIZE=116 "-DCONST=const __code"    #
#                          -DGENERIC=__generic -DRFD_RCVC_ALWAYS_ON=TRUE      #
#                          -DPOLL_RATE=1000 -DQUEUED_POLL_RATE=100            #
#                          -DRESPONSE_POLL_RATE=100 -DREJOIN_POLL_RATE=440)   #
#                          -f "C:\Documents and Settings\Darren\桌面\ZIGBEE   #
#                          教學模組_出貨光碟\ZIGBEE                           #
#                          Example\CC2530_ZStack\教學模組_Z-Stack_Ex\ZStack-C #
#                          C2530-2.3.0-1.4.0\Projects\zstack\HomeAutomation\S #
#                          ampleLight\CC2530DB\..\..\..\Tools\CC2530DB\f8wZCL #
#                          .cfg" (-DZCL_READ -DZCL_WRITE -DZCL_BASIC          #
#                          -DZCL_IDENTIFY -DZCL_ON_OFF -DZCL_KEY_ESTABLISH    #
#                          -DZCL_LOAD_CONTROL -DZCL_SIMPLE_METERING           #
#                          -DZCL_PRICING) -DZCL_MESSAGE "C:\Documents and     #
#                          Settings\Darren\桌面\ZIGBEE                        #
#                          教學模組_出貨光碟\ZIGBEE                           #
#                          Example\CC2530_ZStack\教學模組_Z-Stack_Ex\ZStack-C #
#                          C2530-2.3.0-1.4.0\Components\stack\zdo\ZDObject.c" #
#                           -D ZTOOL_P1 -D MT_TASK -D MT_APP_FUNC -D          #
#                          MT_SYS_FUNC -D MT_ZDO_FUNC -D LCD_SUPPORTED=DEBUG  #
#                          -lC "C:\Documents and Settings\Darren\桌面\ZIGBEE  #
#                          教學模組_出貨光碟\ZIGBEE                           #
#                          Example\CC2530_ZStack\教學模組_Z-Stack_Ex\ZStack-C #
#                          C2530-2.3.0-1.4.0\Projects\zstack\HomeAutomation\S #
#                          ampleLight\CC2530DB\RouterKB\List\" -lA            #
#                          "C:\Documents and Settings\Darren\桌面\ZIGBEE      #
#                          教學模組_出貨光碟\ZIGBEE                           #
#                          Example\CC2530_ZStack\教學模組_Z-Stack_Ex\ZStack-C #
#                          C2530-2.3.0-1.4.0\Projects\zstack\HomeAutomation\S #
#                          ampleLight\CC2530DB\RouterKB\List\"                #
#                          --diag_suppress Pe001,Pa010 -o "C:\Documents and   #
#                          Settings\Darren\桌面\ZIGBEE                        #
#                          教學模組_出貨光碟\ZIGBEE                           #
#                          Example\CC2530_ZStack\教學模組_Z-Stack_Ex\ZStack-C #
#                          C2530-2.3.0-1.4.0\Projects\zstack\HomeAutomation\S #
#                          ampleLight\CC2530DB\RouterKB\Obj\" -e              #
#                          --require_prototypes --debug --core=plain          #
#                          --dptr=16,1 --data_model=large                     #
#                          --code_model=banked --calling_convention=xdata_ree #
#                          ntrant --place_constants=data_rom                  #
#                          --nr_virtual_regs 16 -I "C:\Documents and          #
#                          Settings\Darren\桌面\ZIGBEE                        #
#                          教學模組_出貨光碟\ZIGBEE                           #
#                          Example\CC2530_ZStack\教學模組_Z-Stack_Ex\ZStack-C #
#                          C2530-2.3.0-1.4.0\Projects\zstack\HomeAutomation\S #
#                          ampleLight\CC2530DB\" -I "C:\Documents and         #
#                          Settings\Darren\桌面\ZIGBEE                        #
#                          教學模組_出貨光碟\ZIGBEE                           #
#                          Example\CC2530_ZStack\教學模組_Z-Stack_Ex\ZStack-C #
#                          C2530-2.3.0-1.4.0\Projects\zstack\HomeAutomation\S #
#                          ampleLight\CC2530DB\..\SOURCE\" -I "C:\Documents   #
#                          and Settings\Darren\桌面\ZIGBEE                    #
#                          教學模組_出貨光碟\ZIGBEE                           #
#                          Example\CC2530_ZStack\教學模組_Z-Stack_Ex\ZStack-C #
#                          C2530-2.3.0-1.4.0\Projects\zstack\HomeAutomation\S #
#                          ampleLight\CC2530DB\..\..\SOURCE\" -I              #
#                          "C:\Documents and Settings\Darren\桌面\ZIGBEE      #
#                          教學模組_出貨光碟\ZIGBEE                           #
#                          Example\CC2530_ZStack\教學模組_Z-Stack_Ex\ZStack-C #
#                          C2530-2.3.0-1.4.0\Projects\zstack\HomeAutomation\S #
#                          ampleLight\CC2530DB\..\..\..\ZMAIN\TI2530DB\" -I   #
#                          "C:\Documents and Settings\Darren\桌面\ZIGBEE      #
#                          教學模組_出貨光碟\ZIGBEE                           #
#                          Example\CC2530_ZStack\教學模組_Z-Stack_Ex\ZStack-C #
#                          C2530-2.3.0-1.4.0\Projects\zstack\HomeAutomation\S #
#                          ampleLight\CC2530DB\..\..\..\..\..\COMPONENTS\MT\" #
#                           -I "C:\Documents and Settings\Darren\桌面\ZIGBEE  #
#                          教學模組_出貨光碟\ZIGBEE                           #
#                          Example\CC2530_ZStack\教學模組_Z-Stack_Ex\ZStack-C #
#                          C2530-2.3.0-1.4.0\Projects\zstack\HomeAutomation\S #
#                          ampleLight\CC2530DB\..\..\..\..\..\COMPONENTS\HAL\ #
#                          INCLUDE\" -I "C:\Documents and                     #
#                          Settings\Darren\桌面\ZIGBEE                        #
#                          教學模組_出貨光碟\ZIGBEE                           #
#                          Example\CC2530_ZStack\教學模組_Z-Stack_Ex\ZStack-C #
#                          C2530-2.3.0-1.4.0\Projects\zstack\HomeAutomation\S #
#                          ampleLight\CC2530DB\..\..\..\..\..\COMPONENTS\HAL\ #
#                          TARGET\CC2530EB\" -I "C:\Documents and             #
#                          Settings\Darren\桌面\ZIGBEE                        #
#                          教學模組_出貨光碟\ZIGBEE                           #
#                          Example\CC2530_ZStack\教學模組_Z-Stack_Ex\ZStack-C #
#                          C2530-2.3.0-1.4.0\Projects\zstack\HomeAutomation\S #
#                          ampleLight\CC2530DB\..\..\..\..\..\COMPONENTS\OSAL #
#                          \MCU\CCSOC\" -I "C:\Documents and                  #
#                          Settings\Darren\桌面\ZIGBEE                        #
#                          教學模組_出貨光碟\ZIGBEE                           #
#                          Example\CC2530_ZStack\教學模組_Z-Stack_Ex\ZStack-C #
#                          C2530-2.3.0-1.4.0\Projects\zstack\HomeAutomation\S #
#                          ampleLight\CC2530DB\..\..\..\..\..\COMPONENTS\OSAL #
#                          \INCLUDE\" -I "C:\Documents and                    #
#                          Settings\Darren\桌面\ZIGBEE                        #
#                          教學模組_出貨光碟\ZIGBEE                           #
#                          Example\CC2530_ZStack\教學模組_Z-Stack_Ex\ZStack-C #
#                          C2530-2.3.0-1.4.0\Projects\zstack\HomeAutomation\S #
#                          ampleLight\CC2530DB\..\..\..\..\..\COMPONENTS\STAC #
#                          K\AF\" -I "C:\Documents and                        #
#                          Settings\Darren\桌面\ZIGBEE                        #
#                          教學模組_出貨光碟\ZIGBEE                           #
#                          Example\CC2530_ZStack\教學模組_Z-Stack_Ex\ZStack-C #
#                          C2530-2.3.0-1.4.0\Projects\zstack\HomeAutomation\S #
#                          ampleLight\CC2530DB\..\..\..\..\..\COMPONENTS\STAC #
#                          K\NWK\" -I "C:\Documents and                       #
#                          Settings\Darren\桌面\ZIGBEE                        #
#                          教學模組_出貨光碟\ZIGBEE                           #
#                          Example\CC2530_ZStack\教學模組_Z-Stack_Ex\ZStack-C #
#                          C2530-2.3.0-1.4.0\Projects\zstack\HomeAutomation\S #
#                          ampleLight\CC2530DB\..\..\..\..\..\COMPONENTS\STAC #
#                          K\SEC\" -I "C:\Documents and                       #
#                          Settings\Darren\桌面\ZIGBEE                        #
#                          教學模組_出貨光碟\ZIGBEE                           #
#                          Example\CC2530_ZStack\教學模組_Z-Stack_Ex\ZStack-C #
#                          C2530-2.3.0-1.4.0\Projects\zstack\HomeAutomation\S #
#                          ampleLight\CC2530DB\..\..\..\..\..\COMPONENTS\STAC #
#                          K\SAPI\" -I "C:\Documents and                      #
#                          Settings\Darren\桌面\ZIGBEE                        #
#                          教學模組_出貨光碟\ZIGBEE                           #
#                          Example\CC2530_ZStack\教學模組_Z-Stack_Ex\ZStack-C #
#                          C2530-2.3.0-1.4.0\Projects\zstack\HomeAutomation\S #
#                          ampleLight\CC2530DB\..\..\..\..\..\COMPONENTS\STAC #
#                          K\SYS\" -I "C:\Documents and                       #
#                          Settings\Darren\桌面\ZIGBEE                        #
#                          教學模組_出貨光碟\ZIGBEE                           #
#                          Example\CC2530_ZStack\教學模組_Z-Stack_Ex\ZStack-C #
#                          C2530-2.3.0-1.4.0\Projects\zstack\HomeAutomation\S #
#                          ampleLight\CC2530DB\..\..\..\..\..\COMPONENTS\STAC #
#                          K\ZCL\" -I "C:\Documents and                       #
#                          Settings\Darren\桌面\ZIGBEE                        #
#                          教學模組_出貨光碟\ZIGBEE                           #
#                          Example\CC2530_ZStack\教學模組_Z-Stack_Ex\ZStack-C #
#                          C2530-2.3.0-1.4.0\Projects\zstack\HomeAutomation\S #
#                          ampleLight\CC2530DB\..\..\..\..\..\COMPONENTS\STAC #
#                          K\ZDO\" -I "C:\Documents and                       #
#                          Settings\Darren\桌面\ZIGBEE                        #
#                          教學模組_出貨光碟\ZIGBEE                           #
#                          Example\CC2530_ZStack\教學模組_Z-Stack_Ex\ZStack-C #
#                          C2530-2.3.0-1.4.0\Projects\zstack\HomeAutomation\S #
#                          ampleLight\CC2530DB\..\..\..\..\..\COMPONENTS\ZMAC #
#                          \F8W\" -I "C:\Documents and                        #
#                          Settings\Darren\桌面\ZIGBEE                        #
#                          教學模組_出貨光碟\ZIGBEE                           #
#                          Example\CC2530_ZStack\教學模組_Z-Stack_Ex\ZStack-C #
#                          C2530-2.3.0-1.4.0\Projects\zstack\HomeAutomation\S #
#                          ampleLight\CC2530DB\..\..\..\..\..\COMPONENTS\ZMAC #
#                          \" -I "C:\Documents and Settings\Darren\桌面\ZIGBE #
#                          E 教學模組_出貨光碟\ZIGBEE                         #
#                          Example\CC2530_ZStack\教學模組_Z-Stack_Ex\ZStack-C #
#                          C2530-2.3.0-1.4.0\Projects\zstack\HomeAutomation\S #
#                          ampleLight\CC2530DB\..\..\..\..\..\COMPONENTS\SERV #
#                          ICES\SADDR\" -I "C:\Documents and                  #
#                          Settings\Darren\桌面\ZIGBEE                        #
#                          教學模組_出貨光碟\ZIGBEE                           #
#                          Example\CC2530_ZStack\教學模組_Z-Stack_Ex\ZStack-C #
#                          C2530-2.3.0-1.4.0\Projects\zstack\HomeAutomation\S #
#                          ampleLight\CC2530DB\..\..\..\..\..\COMPONENTS\SERV #
#                          ICES\SDATA\" -I "C:\Documents and                  #
#                          Settings\Darren\桌面\ZIGBEE                        #
#                          教學模組_出貨光碟\ZIGBEE                           #
#                          Example\CC2530_ZStack\教學模組_Z-Stack_Ex\ZStack-C #
#                          C2530-2.3.0-1.4.0\Projects\zstack\HomeAutomation\S #
#                          ampleLight\CC2530DB\..\..\..\..\..\COMPONENTS\MAC\ #
#                          INCLUDE\" -I "C:\Documents and                     #
#                          Settings\Darren\桌面\ZIGBEE                        #
#                          教學模組_出貨光碟\ZIGBEE                           #
#                          Example\CC2530_ZStack\教學模組_Z-Stack_Ex\ZStack-C #
#                          C2530-2.3.0-1.4.0\Projects\zstack\HomeAutomation\S #
#                          ampleLight\CC2530DB\..\..\..\..\..\COMPONENTS\MAC\ #
#                          HIGH_LEVEL\" -I "C:\Documents and                  #
#                          Settings\Darren\桌面\ZIGBEE                        #
#                          教學模組_出貨光碟\ZIGBEE                           #
#                          Example\CC2530_ZStack\教學模組_Z-Stack_Ex\ZStack-C #
#                          C2530-2.3.0-1.4.0\Projects\zstack\HomeAutomation\S #
#                          ampleLight\CC2530DB\..\..\..\..\..\COMPONENTS\MAC\ #
#                          LOW_LEVEL\srf04\" -I "C:\Documents and             #
#                          Settings\Darren\桌面\ZIGBEE                        #
#                          教學模組_出貨光碟\ZIGBEE                           #
#                          Example\CC2530_ZStack\教學模組_Z-Stack_Ex\ZStack-C #
#                          C2530-2.3.0-1.4.0\Projects\zstack\HomeAutomation\S #
#                          ampleLight\CC2530DB\..\..\..\..\..\COMPONENTS\MAC\ #
#                          LOW_LEVEL\srf04\SINGLE_CHIP\" -I "C:\IAR           #
#                          Systems\Embedded Workbench for MCS-51              #
#                          V7.51\8051\INC\" -I "C:\IAR Systems\Embedded       #
#                          Workbench for MCS-51 V7.51\8051\INC\CLIB\" -Ohz    #
#    List file          =  C:\Documents and Settings\Darren\桌面\ZIGBEE       #
#                          教學模組_出貨光碟\ZIGBEE                           #
#                          Example\CC2530_ZStack\教學模組_Z-Stack_Ex\ZStack-C #
#                          C2530-2.3.0-1.4.0\Projects\zstack\HomeAutomation\S #
#                          ampleLight\CC2530DB\RouterKB\List\ZDObject.lst     #
#    Object file        =  C:\Documents and Settings\Darren\桌面\ZIGBEE       #
#                          教學模組_出貨光碟\ZIGBEE                           #
#                          Example\CC2530_ZStack\教學模組_Z-Stack_Ex\ZStack-C #
#                          C2530-2.3.0-1.4.0\Projects\zstack\HomeAutomation\S #
#                          ampleLight\CC2530DB\RouterKB\Obj\ZDObject.r51      #
#                                                                             #
#                                                                             #
###############################################################################

C:\Documents and Settings\Darren\桌面\ZIGBEE 教學模組_出貨光碟\ZIGBEE Example\CC2530_ZStack\教學模組_Z-Stack_Ex\ZStack-CC2530-2.3.0-1.4.0\Components\stack\zdo\ZDObject.c
      1          /**************************************************************************************************
      2            Filename:       ZDObject.c
      3            Revised:        $Date: 2009-12-29 11:40:43 -0800 (Tue, 29 Dec 2009) $
      4            Revision:       $Revision: 21414 $
      5          
      6            Description:    This is the Zigbee Device Object.
      7          
      8            Copyright 2004-2009 Texas Instruments Incorporated. All rights reserved.
      9          
     10            Should you have any questions regarding your right to use this Software,
     11            contact Texas Instruments Incorporated at www.TI.com.
     12          **************************************************************************************************/
     13          
     14          /*********************************************************************
     15           * INCLUDES
     16           */
     17          #include "ZComdef.h"
     18          #include "OSAL.h"
     19          #include "OSAL_Nv.h"
     20          #include "rtg.h"
     21          #include "NLMEDE.h"
     22          #include "nwk_globals.h"
     23          #include "APS.h"
     24          #include "APSMEDE.h"
     25          #include "AssocList.h"
     26          #include "BindingTable.h"
     27          #include "AddrMgr.h"
     28          #include "AF.h"
     29          #include "ZDObject.h"
     30          #include "ZDProfile.h"
     31          #include "ZDConfig.h"
     32          #include "ZDSecMgr.h"
     33          #include "ZDApp.h"
     34          #include "nwk_util.h"   // NLME_IsAddressBroadcast()
     35          #include "ZGlobals.h"
     36          #if defined MT_ZDO_CB_FUNC
     37          #include "MT.h"
     38          #endif
     39          
     40          #if defined( LCD_SUPPORTED )
     41            #include "OnBoard.h"
     42          #endif
     43          
     44          /* HAL */
     45          #include "hal_lcd.h"
     46          
     47          /*********************************************************************
     48           * MACROS
     49           */
     50          
     51          /*********************************************************************
     52           * CONSTANTS
     53           */
     54          // NLME Stub Implementations
     55          #define ZDO_ProcessMgmtPermitJoinTimeout NLME_PermitJoiningTimeout
     56          
     57          // Status fields used by ZDO_ProcessMgmtRtgReq
     58          #define ZDO_MGMT_RTG_ENTRY_ACTIVE             0x00
     59          #define ZDO_MGMT_RTG_ENTRY_DISCOVERY_UNDERWAY 0x01
     60          #define ZDO_MGMT_RTG_ENTRY_DISCOVERY_FAILED   0x02
     61          #define ZDO_MGMT_RTG_ENTRY_INACTIVE           0x03
     62          
     63          /*********************************************************************
     64           * TYPEDEFS
     65           */
     66          #if defined ( REFLECTOR )
     67          typedef struct
     68          {
     69            byte SrcTransSeq;
     70            zAddrType_t SrcAddr;
     71            uint16 LocalCoordinator;
     72            byte epIntf;
     73            uint16 ProfileID;
     74            byte numInClusters;
     75            uint16 *inClusters;
     76            byte numOutClusters;
     77            uint16 *outClusters;
     78            byte SecurityUse;
     79            byte status;
     80          } ZDO_EDBind_t;
     81          #endif // defined ( REFLECTOR )
     82          
     83          enum
     84          {
     85            ZDMATCH_INIT,           // Initialized
     86            ZDMATCH_WAIT_REQ,       // Received first request, waiting for second
     87            ZDMATCH_SENDING_BINDS   // Received both requests, sending unbind/binds
     88          };
     89          
     90          enum
     91          {
     92            ZDMATCH_SENDING_NOT,
     93            ZDMATCH_SENDING_UNBIND,
     94            ZDMATCH_SENDING_BIND
     95          };
     96          
     97          /*********************************************************************
     98           * GLOBAL VARIABLES
     99           */
    100          
    101          /*********************************************************************
    102           * EXTERNAL VARIABLES
    103           */
    104          
    105          /*********************************************************************
    106           * EXTERNAL FUNCTIONS
    107           */
    108          
    109          /*********************************************************************
    110           * LOCAL VARIABLES
    111           */

   \                                 In  segment XDATA_Z, align 1, keep-with-next
    112          static uint16 ZDOBuildBuf[26];  // temp area to build data without allocation
   \                     ZDOBuildBuf:
   \   000000                DS 52
   \   000034                REQUIRE __INIT_XDATA_Z
    113          
    114          #if defined ( REFLECTOR )

   \                                 In  segment XDATA_Z, align 1, keep-with-next
    115          static ZDO_EDBind_t *ZDO_EDBind;     // Null when not used
   \                     ZDO_EDBind:
   \   000000                DS 2
   \   000002                REQUIRE __INIT_XDATA_Z
    116          #endif
    117          
    118          #if defined ( MANAGED_SCAN )
    119            uint32 managedScanNextChannel = 0;
    120            uint32 managedScanChannelMask = 0;
    121            uint8  managedScanTimesPerChannel = 0;
    122          #endif
    123          

   \                                 In  segment XDATA_Z, align 1, keep-with-next
    124          ZDMatchEndDeviceBind_t *matchED = (ZDMatchEndDeviceBind_t *)NULL;
   \                     matchED:
   \   000000                DS 2
   \   000002                REQUIRE __INIT_XDATA_Z
    125          

   \                                 In  segment XDATA_Z, align 1, keep-with-next
    126          uint32 apsChannelMask = 0;
   \                     apsChannelMask:
   \   000000                DS 4
   \   000004                REQUIRE __INIT_XDATA_Z
    127          
    128          #if defined(Coor_receiver)
    129            uint8 cnt = 0;
    130            ZDEndDeviceBind_t dev_sht[5];
    131            ZDEndDeviceBind_t coordinator;
    132          #endif
    133            
    134          /*********************************************************************
    135           * LOCAL FUNCTIONS
    136           */
    137          static void ZDODeviceSetup( void );
    138          #if defined ( MANAGED_SCAN )
    139            static void ZDOManagedScan_Next( void );
    140          #endif
    141          #if defined ( REFLECTOR )
    142            static void ZDO_RemoveEndDeviceBind( void );
    143            static void ZDO_SendEDBindRsp( byte TransSeq, zAddrType_t *dstAddr, byte Status, byte secUse );
    144          #endif
    145          static byte ZDO_CompareClusterLists( byte numList1, uint16 *list1,
    146                                          byte numList2, uint16 *list2, uint16 *pMatches );
    147          static void ZDO_RemoveMatchMemory( void );
    148          static uint8 ZDO_CopyMatchInfo( ZDEndDeviceBind_t *destReq, ZDEndDeviceBind_t *srcReq );
    149          static void ZDO_EndDeviceBindMatchTimeoutCB( void );
    150          uint8 *ZDO_ConvertOTAClusters( uint8 cnt, uint8 *inBuf, uint16 *outList );
    151          static void zdoSendStateChangeMsg(uint8 state, uint8 taskId);
    152          
    153          /*********************************************************************
    154           * @fn          ZDO_Init
    155           * @brief       ZDObject and ZDProfile initialization.
    156           */

   \                                 In  segment BANKED_CODE, align 1, keep-with-next
    157          void ZDO_Init( void )
   \                     ZDO_Init:
    158          {
   \   000000   C082         PUSH    DPL
   \   000002   C083         PUSH    DPH
   \   000004                ; Saved register size: 2
   \   000004                ; Auto size: 0
    159            // Initialize ZD items
    160            #if defined ( REFLECTOR )
    161            ZDO_EDBind = NULL;
   \   000004   90....       MOV     DPTR,#ZDO_EDBind
   \   000007   E4           CLR     A
   \   000008   F0           MOVX    @DPTR,A
   \   000009   A3           INC     DPTR
   \   00000A   F0           MOVX    @DPTR,A
    162            #endif
    163          
    164            // Initialize default ZDO_UseExtendedPANID to the APS one.
    165            osal_cpyExtAddr( ZDO_UseExtendedPANID, AIB_apsUseExtendedPANID );
   \   00000B                ; Setup parameters for call to function sAddrExtCpy
   \   00000B   7C..         MOV     R4,#(AIB_apsUseExtendedPANID & 0xff)
   \   00000D   7D..         MOV     R5,#((AIB_apsUseExtendedPANID >> 8) & 0xff)
   \   00000F   7A..         MOV     R2,#(ZDO_UseExtendedPANID & 0xff)
   \   000011   7B..         MOV     R3,#((ZDO_UseExtendedPANID >> 8) & 0xff)
   \   000013   12....       LCALL   ??sAddrExtCpy?relay
    166          
    167            // Setup the device - type of device to create.
    168            ZDODeviceSetup();
   \   000016   90....       MOV     DPTR,#zgDeviceLogicalType
   \   000019   E0           MOVX    A,@DPTR
   \   00001A   7004         JNZ     ??ZDO_Init_0
   \   00001C   7900         MOV     R1,#0x0
   \   00001E   8002         SJMP    ??ZDO_Init_1
   \                     ??ZDO_Init_0:
   \   000020   7901         MOV     R1,#0x1
   \                     ??ZDO_Init_1:
   \   000022                ; Setup parameters for call to function APS_ReflectorInit
   \   000022   12....       LCALL   ??APS_ReflectorInit?relay
   \   000025                ; Setup parameters for call to function NLME_DeviceJoiningInit
   \   000025   12....       LCALL   ??NLME_DeviceJoiningInit?relay
    169          }
   \   000028   80..         SJMP    ??Subroutine191_0

   \                                 In  segment BANKED_CODE, align 1, keep-with-next
   \                     ??Subroutine191_0:
   \   000000   D083         POP     DPH
   \   000002   D082         POP     DPL
   \   000004   02....       LJMP    ?BRET
    170          
    171          #if defined ( MANAGED_SCAN )
    172          /*********************************************************************
    173           * @fn      ZDOManagedScan_Next()
    174           * @brief   Setup a managed scan.
    175           */
    176          static void ZDOManagedScan_Next( void )
    177          {
    178            // Is it the first time
    179            if ( managedScanNextChannel == 0 && managedScanTimesPerChannel == 0 )
    180            {
    181              // Setup the defaults
    182              managedScanNextChannel  = 1;
    183          
    184              while( managedScanNextChannel && (zgDefaultChannelList & managedScanNextChannel) == 0 )
    185                managedScanNextChannel <<= 1;
    186          
    187              managedScanChannelMask = managedScanNextChannel;
    188              managedScanTimesPerChannel = MANAGEDSCAN_TIMES_PRE_CHANNEL;
    189            }
    190            else
    191            {
    192              // Do we need to go to the next channel
    193              if ( managedScanTimesPerChannel == 0 )
    194              {
    195                // Find next active channel
    196                managedScanChannelMask  = managedScanNextChannel;
    197                managedScanTimesPerChannel = MANAGEDSCAN_TIMES_PRE_CHANNEL;
    198              }
    199              else
    200              {
    201                managedScanTimesPerChannel--;
    202          
    203                if ( managedScanTimesPerChannel == 0 )
    204                {
    205                  managedScanNextChannel  <<= 1;
    206                  while( managedScanNextChannel && (zgDefaultChannelList & managedScanNextChannel) == 0 )
    207                    managedScanNextChannel <<= 1;
    208          
    209                  if ( managedScanNextChannel == 0 )
    210                    zdoDiscCounter  = NUM_DISC_ATTEMPTS + 1; // Stop
    211                }
    212              }
    213            }
    214          }
    215          #endif // MANAGED_SCAN
    216          
    217          /*********************************************************************
    218           * @fn      ZDODeviceSetup()
    219           * @brief   Call set functions depending on the type of device compiled.
    220           */
    221          static void ZDODeviceSetup( void )
    222          {
    223            if ( ZG_BUILD_COORDINATOR_TYPE )
    224            {
    225              NLME_CoordinatorInit();
    226            }
    227          
    228          #if defined ( REFLECTOR )
    229            APS_ReflectorInit( (ZG_DEVICE_COORDINATOR_TYPE) ? APS_REFLECTOR_PUBLIC :  APS_REFLECTOR_PRIVATE );
    230          #endif
    231          
    232            if ( ZG_BUILD_JOINING_TYPE )
    233            {
    234              NLME_DeviceJoiningInit();
    235            }
    236          }
    237          
    238          /*********************************************************************
    239           * @fn          ZDO_StartDevice
    240           * @brief       This function starts a device in a network.
    241           * @param       logicalType     - Device type to start
    242           *              startMode       - indicates mode of device startup
    243           *              beaconOrder     - indicates time betwen beacons
    244           *              superframeOrder - indicates length of active superframe
    245           */

   \                                 In  segment BANKED_CODE, align 1, keep-with-next
    246          void ZDO_StartDevice( byte logicalType, devStartModes_t startMode, byte beaconOrder, byte superframeOrder )
   \                     ZDO_StartDevice:
    247          {
   \   000000   74F4         MOV     A,#-0xc
   \   000002   12....       LCALL   ?BANKED_ENTER_XDATA
   \   000005                ; Saved register size: 12
   \   000005                ; Auto size: 11
   \   000005   74F5         MOV     A,#-0xb
   \   000007   12....       LCALL   ?ALLOC_XSTACK8
    248            ZStatus_t ret;
    249          #if defined ( ZIGBEE_FREQ_AGILITY )
    250            static uint8 discRetries = 0;
    251          #endif
    252          #if defined ( ZIGBEE_COMMISSIONING )
    253            static uint8 scanCnt = 0;
    254          #endif
    255          
    256            ret = ZUnsupportedMode;
    257          
    258            if ( ZG_BUILD_COORDINATOR_TYPE && logicalType == NODETYPE_COORDINATOR )
    259            {
    260              if ( startMode == MODE_HARD )
    261              {
    262                devState = DEV_COORD_STARTING;
    263                ret = NLME_NetworkFormationRequest( zgConfigPANID, zgApsUseExtendedPANID, zgDefaultChannelList,
    264                                                    zgDefaultStartingScanDuration, beaconOrder,
    265                                                    superframeOrder, false );
    266              }
    267              else if ( startMode == MODE_RESUME )
    268              {
    269                // Just start the coordinator
    270                devState = DEV_COORD_STARTING;
    271                ret = NLME_StartRouterRequest( beaconOrder, beaconOrder, false );
    272              }
    273              else
    274              {
    275          #if defined( LCD_SUPPORTED )
    276                HalLcdWriteScreen( "StartDevice ERR", "MODE unknown" );
    277          #endif
    278              }
    279            }
    280          
    281            if ( ZG_BUILD_JOINING_TYPE && (logicalType == NODETYPE_ROUTER || logicalType == NODETYPE_DEVICE) )
   \   00000A   7401         MOV     A,#0x1
   \   00000C   69           XRL     A,R1
   \   00000D   6008         JZ      ??ZDO_StartDevice_0
   \   00000F   7402         MOV     A,#0x2
   \   000011   69           XRL     A,R1
   \   000012   6003         JZ      $+5
   \   000014   02....       LJMP    ??ZDO_StartDevice_1 & 0xFFFF
    282            {
    283              if ( (startMode == MODE_JOIN) || (startMode == MODE_REJOIN) )
   \                     ??ZDO_StartDevice_0:
   \   000017   EA           MOV     A,R2
   \   000018   6005         JZ      ??ZDO_StartDevice_2
   \   00001A   7403         MOV     A,#0x3
   \   00001C   6A           XRL     A,R2
   \   00001D   703C         JNZ     ??ZDO_StartDevice_3
    284              {
    285                devState = DEV_NWK_DISC;
   \                     ??ZDO_StartDevice_2:
   \   00001F   7402         MOV     A,#0x2
   \   000021   12....       LCALL   ?Subroutine27 & 0xFFFF
    286          
    287            #if defined( MANAGED_SCAN )
    288                ZDOManagedScan_Next();
    289                ret = NLME_NetworkDiscoveryRequest( managedScanChannelMask, BEACON_ORDER_15_MSEC );
    290            #else
    291                ret = NLME_NetworkDiscoveryRequest( zgDefaultChannelList, zgDefaultStartingScanDuration );
   \                     ??CrossCallReturnLabel_49:
   \   000024   12....       LCALL   ?L_MOV_X
   \   000027   AA..         MOV     R2,?V0 + 0
   \   000029   AB..         MOV     R3,?V0 + 1
   \   00002B   AC..         MOV     R4,?V0 + 2
   \   00002D   AD..         MOV     R5,?V0 + 3
   \   00002F   12....       LCALL   ??NLME_NetworkDiscoveryRequest?relay
   \   000032   E9           MOV     A,R1
   \   000033   FA           MOV     R2,A
    292              #if defined ( ZIGBEE_FREQ_AGILITY )
    293                if ( !( ZDO_Config_Node_Descriptor.CapabilityFlags & CAPINFO_RCVR_ON_IDLE ) &&
    294                      ( ret == ZSuccess ) && ( ++discRetries == 4 ) )
   \   000034   90....       MOV     DPTR,#(ZDO_Config_Node_Descriptor + 2)
   \   000037   E0           MOVX    A,@DPTR
   \   000038   A2E3         MOV     C,0xE0 /* A   */.3
   \   00003A   4073         JC      ??ZDO_StartDevice_4
   \   00003C   EA           MOV     A,R2
   \   00003D   7070         JNZ     ??ZDO_StartDevice_4
   \   00003F   90....       MOV     DPTR,#??discRetries
   \   000042   E0           MOVX    A,@DPTR
   \   000043   04           INC     A
   \   000044   F0           MOVX    @DPTR,A
   \   000045   6404         XRL     A,#0x4
   \   000047   7079         JNZ     ??ZDO_StartDevice_5
    295                {
    296                  // For devices with RxOnWhenIdle equals to FALSE, any network channel
    297                  // change will not be recieved. On these devices or routers that have
    298                  // lost the network, an active scan shall be conducted on the Default
    299                  // Channel list using the extended PANID to find the network. If the
    300                  // extended PANID isn't found using the Default Channel list, an scan
    301                  // should be completed using all channels.
    302                  zgDefaultChannelList = MAX_CHANNELS_24GHZ;
   \   000049   90....       MOV     DPTR,#__Constant_7fff800
   \   00004C   78..         MOV     R0,#?V0 + 0
   \   00004E   12....       LCALL   ?L_MOV_X
   \   000051   90....       MOV     DPTR,#zgDefaultChannelList
   \   000054   78..         MOV     R0,#?V0 + 0
   \   000056   12....       LCALL   ?L_MOV_TO_X
   \   000059   8067         SJMP    ??ZDO_StartDevice_5
    303                }
    304              #endif // ZIGBEE_FREQ_AGILITY
    305              #if defined ( ZIGBEE_COMMISSIONING )
    306                if (startMode == MODE_REJOIN && scanCnt++ >= 5 )
    307                {
    308                  // When ApsUseExtendedPanID is commissioned to a non zero value via
    309                  // application specific means, the device shall conduct an active scan
    310                  // on the Default Channel list and join the PAN with the same
    311                  // ExtendedPanID. If the PAN is not found, an scan should be completed
    312                  // on all channels.
    313                  // When devices rejoin the network and the PAN is not found from
    314                  zgDefaultChannelList = MAX_CHANNELS_24GHZ;
    315                }
    316              #endif // ZIGBEE_COMMISSIONING
    317            #endif
    318              }
    319              else if ( startMode == MODE_RESUME )
   \                     ??ZDO_StartDevice_3:
   \   00005B   7401         MOV     A,#0x1
   \   00005D   6A           XRL     A,R2
   \   00005E   7067         JNZ     ??ZDO_StartDevice_6
    320              {
    321                if ( logicalType == NODETYPE_ROUTER )
   \   000060   7401         MOV     A,#0x1
   \   000062   69           XRL     A,R1
   \   000063   7035         JNZ     ??ZDO_StartDevice_7
    322                {
    323                  ZMacScanCnf_t scanCnf;
    324                  devState = DEV_NWK_ORPHAN;
   \   000065   740A         MOV     A,#0xa
   \   000067   90....       MOV     DPTR,#devState
   \   00006A   F0           MOVX    @DPTR,A
    325          
    326                  /* if router and nvram is available, fake successful orphan scan */
    327                  scanCnf.hdr.Status = ZSUCCESS;
   \   00006B   7401         MOV     A,#0x1
   \   00006D   12....       LCALL   ?XSTACK_DISP0_8
   \   000070   E4           CLR     A
   \   000071   F0           MOVX    @DPTR,A
    328                  scanCnf.ScanType = ZMAC_ORPHAN_SCAN;
   \   000072   7402         MOV     A,#0x2
   \   000074   12....       LCALL   ?XSTACK_DISP0_8
   \   000077   7403         MOV     A,#0x3
   \   000079   F0           MOVX    @DPTR,A
    329                  scanCnf.UnscannedChannels = 0;
   \   00007A   90....       MOV     DPTR,#__Constant_0
   \   00007D   78..         MOV     R0,#?V0 + 0
   \   00007F   12....       LCALL   ?L_MOV_X
   \   000082   7404         MOV     A,#0x4
   \   000084   12....       LCALL   ?XSTACK_DISP0_8
   \   000087   78..         MOV     R0,#?V0 + 0
   \   000089   12....       LCALL   ?L_MOV_TO_X
    330                  scanCnf.ResultListSize = 0;
   \   00008C   7408         MOV     A,#0x8
   \   00008E   12....       LCALL   ?XSTACK_DISP0_8
   \   000091   E4           CLR     A
   \   000092   12....       LCALL   ?Subroutine13 & 0xFFFF
    331                  nwk_ScanJoiningOrphan(&scanCnf);
   \                     ??CrossCallReturnLabel_227:
   \   000095   12....       LCALL   ??nwk_ScanJoiningOrphan?relay
    332          
    333                  ret = ZSuccess;
   \   000098   8028         SJMP    ??ZDO_StartDevice_5
    334                }
    335                else
    336                {
    337                  devState = DEV_NWK_ORPHAN;
   \                     ??ZDO_StartDevice_7:
   \   00009A   740A         MOV     A,#0xa
   \   00009C   12....       LCALL   ?Subroutine27 & 0xFFFF
    338                  ret = NLME_OrphanJoinRequest( zgDefaultChannelList,
    339                                                zgDefaultStartingScanDuration );
    340                }
    341              }
   \                     ??CrossCallReturnLabel_50:
   \   00009F   12....       LCALL   ?L_MOV_X
   \   0000A2   AA..         MOV     R2,?V0 + 0
   \   0000A4   AB..         MOV     R3,?V0 + 1
   \   0000A6   AC..         MOV     R4,?V0 + 2
   \   0000A8   AD..         MOV     R5,?V0 + 3
   \   0000AA   12....       LCALL   ??NLME_OrphanJoinRequest?relay
   \   0000AD   E9           MOV     A,R1
   \   0000AE   FA           MOV     R2,A
    342              else
    343              {
    344          #if defined( LCD_SUPPORTED )
    345                HalLcdWriteScreen( "StartDevice ERR", "MODE unknown" );
    346          #endif
    347              }
    348            }
    349          
    350            if ( ret != ZSuccess )
   \                     ??ZDO_StartDevice_4:
   \   0000AF   EA           MOV     A,R2
   \   0000B0   6010         JZ      ??ZDO_StartDevice_5
    351              osal_start_timerEx(ZDAppTaskID, ZDO_NETWORK_INIT, NWK_RETRY_DELAY );
   \                     ??ZDO_StartDevice_1:
   \   0000B2                ; Setup parameters for call to function osal_start_timerEx
   \   0000B2   7CE8         MOV     R4,#-0x18
   \   0000B4   7D03         MOV     R5,#0x3
   \   0000B6   7A01         MOV     R2,#0x1
   \   0000B8   7B00         MOV     R3,#0x0
   \   0000BA   90....       MOV     DPTR,#ZDAppTaskID
   \   0000BD   E0           MOVX    A,@DPTR
   \   0000BE   F9           MOV     R1,A
   \   0000BF   12....       LCALL   ??osal_start_timerEx?relay
    352          }
   \                     ??ZDO_StartDevice_5:
   \   0000C2   740B         MOV     A,#0xb
   \   0000C4   02....       LJMP    ?Subroutine167 & 0xFFFF
   \                     ??ZDO_StartDevice_6:
   \   0000C7                ; Setup parameters for call to function HalLcdWriteScreen
   \   0000C7   7C..         MOV     R4,#(`?<Constant "MODE unknown">` & 0xff)
   \   0000C9   7D..         MOV     R5,#((`?<Constant "MODE unknown">` >> 8) & 0xff)
   \   0000CB   7A..         MOV     R2,#(`?<Constant "StartDevice ERR">` & 0xff)
   \   0000CD   7B..         MOV     R3,#((`?<Constant "StartDevice ERR">` >> 8) & 0xff)
   \   0000CF   12....       LCALL   ??HalLcdWriteScreen?relay
   \   0000D2   80DE         SJMP    ??ZDO_StartDevice_1

   \                                 In  segment BANKED_CODE, align 1, keep-with-next
   \                     ?Subroutine27:
   \   000000   90....       MOV     DPTR,#devState
   \   000003   F0           MOVX    @DPTR,A
   \   000004                ; Setup parameters for call to function NLME_NetworkDiscoveryRequest
   \   000004                ; Setup parameters for call to function NLME_OrphanJoinRequest
   \   000004   90....       MOV     DPTR,#zgDefaultStartingScanDuration
   \   000007   E0           MOVX    A,@DPTR
   \   000008   F9           MOV     R1,A
   \   000009   90....       MOV     DPTR,#zgDefaultChannelList
   \   00000C   78..         MOV     R0,#?V0 + 0
   \   00000E   22           RET

   \                                 In  segment BANKED_CODE, align 1, keep-with-next
   \                     ?Subroutine167:
   \   000000   12....       LCALL   ?DEALLOC_XSTACK8
   \   000003                REQUIRE ??Subroutine192_0
   \   000003                ; // Fall through to label ??Subroutine192_0

   \                                 In  segment BANKED_CODE, align 1, keep-with-next
   \                     ??Subroutine192_0:
   \   000000   7F04         MOV     R7,#0x4
   \   000002   02....       LJMP    ?BANKED_LEAVE_XDATA

   \                                 In  segment BANKED_CODE, align 1, keep-with-next
   \                     ?Subroutine124:
   \   000000   F0           MOVX    @DPTR,A
   \   000001                ; Setup parameters for call to function osal_memcpy
   \   000001                ; Setup parameters for call to function nwk_ScanJoiningOrphan
   \   000001                ; Setup parameters for call to function NLME_NwkDiscReq2
   \   000001                ; Setup parameters for call to function AddrMgrEntryLookupNwk
   \   000001   85..82       MOV     DPL,?XSP + 0
   \   000004   85..83       MOV     DPH,?XSP + 1
   \   000007   22           RET

   \                                 In  segment BANKED_CODE, align 1, keep-with-next
   \                     ?Subroutine13:
   \   000000   12....       LCALL   ?Subroutine124 & 0xFFFF
   \                     ??CrossCallReturnLabel_262:
   \   000003                REQUIRE ?Subroutine177
   \   000003                ; // Fall through to label ?Subroutine177

   \                                 In  segment BANKED_CODE, align 1, keep-with-next
   \                     ?Subroutine177:
   \   000000   AA82         MOV     R2,DPL
   \   000002   AB83         MOV     R3,DPH
   \   000004   22           RET

   \                                 In  segment XDATA_Z, align 1, keep-with-next
   \                     ??discRetries:
   \   000000                DS 1
   \   000001                REQUIRE __INIT_XDATA_Z
    353          
    354          /**************************************************************************************************
    355           * @fn          zdoSendStateChangeMsg
    356           * @brief       Helper function for ZDO_UpdateNwkStatus.
    357           * input parameters
    358           * @param       taskId - The OSAL task identifier to which to send the ZDO_STATE_CHANGE_EVT.
    359           * @param       state - The current device state.
    360           **************************************************************************************************
    361           */
    362          static void zdoSendStateChangeMsg(uint8 state, uint8 taskId)
    363          {
    364            osal_event_hdr_t *pMsg = (osal_event_hdr_t *)osal_msg_find(taskId, ZDO_STATE_CHANGE);
    365          
    366            if (NULL == pMsg)
    367            {
    368              if (NULL == (pMsg = (osal_event_hdr_t *)osal_msg_allocate(sizeof(osal_event_hdr_t))))
    369              {
    370                // Upon failure to notify any EndPoint of the state change, re-set the ZDO event to
    371                // try again later when more Heap may be available.
    372                osal_set_event(ZDAppTaskID, ZDO_STATE_CHANGE_EVT);
    373              }
    374              else
    375              {
    376                pMsg->event = ZDO_STATE_CHANGE;
    377                pMsg->status = state;
    378          
    379                (void)osal_msg_send(taskId, (uint8 *)pMsg);
    380              }
    381            }
    382            else
    383            {
    384              // Modify in place the status of an existing ZDO_STATE_CHANGE message to the EndPoint.
    385              pMsg->status = state;
    386            }
    387          }
    388          
    389          /**************************************************************************************************
    390           * @fn          ZDO_UpdateNwkStatus
    391           * @brief       This function sends a ZDO_STATE_CHANGE message to the task of every EndPoint
    392           *              registered with AF (except, of course, the ZDO_EP). Even if a single task has more
    393           *              than one registered EndPoint, it will only receive one notification per state
    394           *              change. Although the device may go through a sequence of state changes, the
    395           *              Application task may only receive notification of the final, steady-state state
    396           *              because it has the lowest priority and never even runs to receive the intermediate
    397           *              state change notifications.
    398           * input parameters
    399           * @param       state - The current device state.
    400           **************************************************************************************************
    401           */

   \                                 In  segment BANKED_CODE, align 1, keep-with-next
    402          void ZDO_UpdateNwkStatus(devStates_t state)
   \                     ZDO_UpdateNwkStatus:
    403          {
   \   000000   74F4         MOV     A,#-0xc
   \   000002   12....       LCALL   ?BANKED_ENTER_XDATA
   \   000005                ; Saved register size: 12
   \   000005                ; Auto size: 0
   \   000005   89..         MOV     ?V0 + 0,R1
    404            epList_t *pItem = epList;
   \   000007   90....       MOV     DPTR,#epList
   \   00000A   E0           MOVX    A,@DPTR
   \   00000B   FE           MOV     R6,A
   \   00000C   A3           INC     DPTR
   \   00000D   E0           MOVX    A,@DPTR
   \   00000E   8014         SJMP    ??CrossCallReturnLabel_133
    405          
    406            while (pItem != NULL)
    407            {
    408              if (pItem->epDesc->endPoint != ZDO_EP)
    409              {
    410                zdoSendStateChangeMsg(state, *(pItem->epDesc->task_id));
   \                     ??ZDO_UpdateNwkStatus_0:
   \   000010   8A82         MOV     DPL,R2
   \   000012   8B83         MOV     DPH,R3
   \   000014   A3           INC     DPTR
   \   000015   E5..         MOV     A,?V0 + 0
   \   000017   F0           MOVX    @DPTR,A
    411              }
    412          
    413              pItem = pItem->nextDesc;
   \                     ??ZDO_UpdateNwkStatus_1:
   \   000018   8E82         MOV     DPL,R6
   \   00001A   8F83         MOV     DPH,R7
   \   00001C   A3           INC     DPTR
   \   00001D   A3           INC     DPTR
   \   00001E   A3           INC     DPTR
   \   00001F   A3           INC     DPTR
   \   000020   A3           INC     DPTR
   \   000021   12....       LCALL   ?Subroutine87 & 0xFFFF
   \                     ??CrossCallReturnLabel_133:
   \   000024   FF           MOV     R7,A
   \   000025   EE           MOV     A,R6
   \   000026   7001         JNZ     ??ZDO_UpdateNwkStatus_2
   \   000028   EF           MOV     A,R7
   \                     ??ZDO_UpdateNwkStatus_2:
   \   000029   604D         JZ      ??ZDO_UpdateNwkStatus_3
   \   00002B   8E82         MOV     DPL,R6
   \   00002D   8F83         MOV     DPH,R7
   \   00002F   12....       LCALL   ??Subroutine206_0 & 0xFFFF
   \                     ??CrossCallReturnLabel_290:
   \   000032   8882         MOV     DPL,R0
   \   000034   8983         MOV     DPH,R1
   \   000036   E0           MOVX    A,@DPTR
   \   000037   60DF         JZ      ??ZDO_UpdateNwkStatus_1
   \   000039   A3           INC     DPTR
   \   00003A   12....       LCALL   ??Subroutine212_0 & 0xFFFF
    414            }
   \                     ??CrossCallReturnLabel_314:
   \   00003D   F5..         MOV     ?V0 + 1,A
   \   00003F                ; Setup parameters for call to function osal_msg_find
   \   00003F   7AD1         MOV     R2,#-0x2f
   \   000041   F9           MOV     R1,A
   \   000042   12....       LCALL   ??osal_msg_find?relay
   \   000045   EA           MOV     A,R2
   \   000046   7001         JNZ     ??ZDO_UpdateNwkStatus_4
   \   000048   EB           MOV     A,R3
   \                     ??ZDO_UpdateNwkStatus_4:
   \   000049   70C5         JNZ     ??ZDO_UpdateNwkStatus_0
   \   00004B                ; Setup parameters for call to function osal_msg_allocate
   \   00004B   7A02         MOV     R2,#0x2
   \   00004D   7B00         MOV     R3,#0x0
   \   00004F   12....       LCALL   ??osal_msg_allocate?relay
   \   000052   EA           MOV     A,R2
   \   000053   7001         JNZ     ??ZDO_UpdateNwkStatus_5
   \   000055   EB           MOV     A,R3
   \                     ??ZDO_UpdateNwkStatus_5:
   \   000056   700E         JNZ     ??ZDO_UpdateNwkStatus_6
   \   000058                ; Setup parameters for call to function osal_set_event
   \   000058   7A10         MOV     R2,#0x10
   \   00005A   7B00         MOV     R3,#0x0
   \   00005C   90....       MOV     DPTR,#ZDAppTaskID
   \   00005F   E0           MOVX    A,@DPTR
   \   000060   F9           MOV     R1,A
   \   000061   12....       LCALL   ??osal_set_event?relay
   \   000064   80B2         SJMP    ??ZDO_UpdateNwkStatus_1
   \                     ??ZDO_UpdateNwkStatus_6:
   \   000066   74D1         MOV     A,#-0x2f
   \   000068   8A82         MOV     DPL,R2
   \   00006A   8B83         MOV     DPH,R3
   \   00006C   F0           MOVX    @DPTR,A
   \   00006D   A3           INC     DPTR
   \   00006E   E5..         MOV     A,?V0 + 0
   \   000070   F0           MOVX    @DPTR,A
   \   000071                ; Setup parameters for call to function osal_msg_send
   \   000071   A9..         MOV     R1,?V0 + 1
   \   000073   12....       LCALL   ??osal_msg_send?relay
   \   000076   80A0         SJMP    ??ZDO_UpdateNwkStatus_1
    415          #if defined MT_ZDO_CB_FUNC
    416            zdoSendStateChangeMsg(state, MT_TaskID);
    417          #endif
    418          
    419            ZDAppNwkAddr.addr.shortAddr = NLME_GetShortAddr();
   \                     ??ZDO_UpdateNwkStatus_3:
   \   000078                ; Setup parameters for call to function NLME_GetShortAddr
   \   000078   12....       LCALL   ??NLME_GetShortAddr?relay
   \   00007B   90....       MOV     DPTR,#ZDAppNwkAddr
   \   00007E   12....       LCALL   ?Subroutine26 & 0xFFFF
    420            (void)NLME_GetExtAddr();  // Load the saveExtAddr pointer.
   \                     ??CrossCallReturnLabel_38:
   \   000081                ; Setup parameters for call to function NLME_GetExtAddr
   \   000081   12....       LCALL   ??NLME_GetExtAddr?relay
    421          }
   \   000084   80..         SJMP    ??Subroutine192_0

   \                                 In  segment BANKED_CODE, align 1, keep-with-next
   \                     ??Subroutine206_0:
   \   000000   12....       LCALL   ?Subroutine135 & 0xFFFF
   \                     ??CrossCallReturnLabel_415:
   \   000003   22           RET

   \                                 In  segment BANKED_CODE, align 1, keep-with-next
   \                     ?Subroutine135:
   \   000000   E0           MOVX    A,@DPTR
   \   000001   F8           MOV     R0,A
   \   000002   A3           INC     DPTR
   \   000003   E0           MOVX    A,@DPTR
   \   000004   F9           MOV     R1,A
   \   000005   22           RET

   \                                 In  segment BANKED_CODE, align 1, keep-with-next
   \                     ??Subroutine212_0:
   \   000000   12....       LCALL   ?Subroutine159 & 0xFFFF
   \                     ??CrossCallReturnLabel_322:
   \   000003   E0           MOVX    A,@DPTR
   \   000004   22           RET

   \                                 In  segment BANKED_CODE, align 1, keep-with-next
   \                     ?Subroutine26:
   \   000000   EA           MOV     A,R2
   \   000001   F0           MOVX    @DPTR,A
   \   000002   A3           INC     DPTR
   \   000003   EB           MOV     A,R3
   \   000004   F0           MOVX    @DPTR,A
   \   000005   22           RET

   \                                 In  segment BANKED_CODE, align 1, keep-with-next
   \                     ?Subroutine159:
   \   000000   E0           MOVX    A,@DPTR
   \   000001   F8           MOV     R0,A
   \   000002   A3           INC     DPTR
   \   000003   E0           MOVX    A,@DPTR
   \   000004   F583         MOV     DPH,A
   \   000006   8882         MOV     DPL,R0
   \   000008   22           RET

   \                                 In  segment BANKED_CODE, align 1, keep-with-next
   \                     ?Subroutine87:
   \   000000   12....       LCALL   ?Subroutine135 & 0xFFFF
   \                     ??CrossCallReturnLabel_413:
   \   000003   E8           MOV     A,R0
   \   000004   FE           MOV     R6,A
   \   000005   E9           MOV     A,R1
   \   000006   22           RET
    422          
    423          #if defined ( REFLECTOR )
    424          /*********************************************************************
    425           * @fn          ZDO_RemoveEndDeviceBind
    426           * @brief       Remove the end device bind
    427           */
    428          static void ZDO_RemoveEndDeviceBind( void )
    429          {
    430            if ( ZDO_EDBind != NULL )
    431            {
    432              // Free the RAM
    433              if ( ZDO_EDBind->inClusters != NULL )
    434                osal_mem_free( ZDO_EDBind->inClusters );
    435              if ( ZDO_EDBind->outClusters != NULL )
    436                osal_mem_free( ZDO_EDBind->outClusters );
    437              osal_mem_free( ZDO_EDBind );
    438              ZDO_EDBind = NULL;
    439            }
    440          }
    441          #endif // REFLECTOR
    442          
    443          #if defined ( REFLECTOR )
    444          /*********************************************************************
    445           * @fn          ZDO_RemoveEndDeviceBind
    446           * @brief       Remove the end device bind
    447           */
    448          static void ZDO_SendEDBindRsp( byte TransSeq, zAddrType_t *dstAddr, byte Status, byte secUse )
    449          {
    450            ZDP_EndDeviceBindRsp( TransSeq, dstAddr, Status, secUse );
    451          
    452          #if defined( LCD_SUPPORTED )
    453            HalLcdWriteString( "End Device Bind", HAL_LCD_LINE_1 );
    454            if ( Status == ZDP_SUCCESS )
    455              HalLcdWriteString( "Success Sent", HAL_LCD_LINE_2 );
    456            else
    457              HalLcdWriteString( "Timeout", HAL_LCD_LINE_2 );
    458          #endif
    459          
    460          }
    461          #endif // REFLECTOR
    462          
    463          /*********************************************************************
    464           * @fn          ZDO_CompareClusterLists
    465           * @brief       Compare one list to another list
    466           * @param       numList1 - number of items in list 1, list1 - first list of cluster IDs 
    467           *              numList2 - number of items in list 2, list2 - second list of cluster IDs
    468           *              pMatches - buffer to put matches
    469           * @return      number of matches
    470           */

   \                                 In  segment BANKED_CODE, align 1, keep-with-next
    471          static byte ZDO_CompareClusterLists( byte numList1, uint16 *list1,
   \                     ZDO_CompareClusterLists:
    472                                    byte numList2, uint16 *list2, uint16 *pMatches )
    473          {
   \   000000   74F1         MOV     A,#-0xf
   \   000002   12....       LCALL   ?BANKED_ENTER_XDATA
   \   000005                ; Saved register size: 15
   \   000005                ; Auto size: 0
   \   000005   89..         MOV     ?V0 + 1,R1
   \   000007   8C..         MOV     ?V0 + 2,R4
   \   000009   740F         MOV     A,#0xf
   \   00000B   12....       LCALL   ?XSTACK_DISP0_8
   \   00000E   12....       LCALL   ??Subroutine206_0 & 0xFFFF
   \                     ??CrossCallReturnLabel_291:
   \   000011   7411         MOV     A,#0x11
   \   000013   12....       LCALL   ?XSTACK_DISP0_8
   \   000016   12....       LCALL   ?Subroutine77 & 0xFFFF
    474            byte x, y;
    475            uint16 z;
    476            byte numMatches = 0;
   \                     ??CrossCallReturnLabel_116:
   \   000019   75..00       MOV     ?V0 + 0,#0x0
    477          
    478            // Check the first in against the seconds out
    479            for ( x = 0; x < numList1; x++ )
   \   00001C   75..00       MOV     ?V0 + 6,#0x0
   \   00001F   804A         SJMP    ??ZDO_CompareClusterLists_0
    480            {
    481              for ( y = 0; y < numList2; y++ )
    482              {
    483                z = list2[y];
   \                     ??ZDO_CompareClusterLists_1:
   \   000021   E5..         MOV     A,?V0 + 3
   \   000023   12....       LCALL   ?Subroutine95 & 0xFFFF
   \                     ??CrossCallReturnLabel_146:
   \   000026   F5..         MOV     ?V0 + 4,A
   \   000028   A3           INC     DPTR
   \   000029   E0           MOVX    A,@DPTR
   \   00002A   F5..         MOV     ?V0 + 5,A
    484                if ( list1[x] == z )
   \   00002C   E5..         MOV     A,?V0 + 6
   \   00002E   C3           CLR     C
   \   00002F   33           RLC     A
   \   000030   FE           MOV     R6,A
   \   000031   E4           CLR     A
   \   000032   33           RLC     A
   \   000033   FF           MOV     R7,A
   \   000034   EA           MOV     A,R2
   \   000035   2E           ADD     A,R6
   \   000036   F582         MOV     DPL,A
   \   000038   EB           MOV     A,R3
   \   000039   3F           ADDC    A,R7
   \   00003A   F583         MOV     DPH,A
   \   00003C   E0           MOVX    A,@DPTR
   \   00003D   65..         XRL     A,?V0 + 4
   \   00003F   7004         JNZ     ??ZDO_CompareClusterLists_2
   \   000041   A3           INC     DPTR
   \   000042   E0           MOVX    A,@DPTR
   \   000043   65..         XRL     A,?V0 + 5
   \                     ??ZDO_CompareClusterLists_2:
   \   000045   7019         JNZ     ??ZDO_CompareClusterLists_3
    485                  pMatches[numMatches++] = z;
   \   000047   E5..         MOV     A,?V0 + 0
   \   000049   C3           CLR     C
   \   00004A   33           RLC     A
   \   00004B   FE           MOV     R6,A
   \   00004C   E4           CLR     A
   \   00004D   33           RLC     A
   \   00004E   FF           MOV     R7,A
   \   00004F   EC           MOV     A,R4
   \   000050   2E           ADD     A,R6
   \   000051   F582         MOV     DPL,A
   \   000053   ED           MOV     A,R5
   \   000054   3F           ADDC    A,R7
   \   000055   F583         MOV     DPH,A
   \   000057   E5..         MOV     A,?V0 + 4
   \   000059   F0           MOVX    @DPTR,A
   \   00005A   A3           INC     DPTR
   \   00005B   E5..         MOV     A,?V0 + 5
   \   00005D   F0           MOVX    @DPTR,A
   \   00005E   05..         INC     ?V0 + 0
    486              }
   \                     ??ZDO_CompareClusterLists_3:
   \   000060   05..         INC     ?V0 + 3
   \                     ??ZDO_CompareClusterLists_4:
   \   000062   E5..         MOV     A,?V0 + 3
   \   000064   C3           CLR     C
   \   000065   95..         SUBB    A,?V0 + 2
   \   000067   40B8         JC      ??ZDO_CompareClusterLists_1
   \   000069   05..         INC     ?V0 + 6
   \                     ??ZDO_CompareClusterLists_0:
   \   00006B   E5..         MOV     A,?V0 + 6
   \   00006D   C3           CLR     C
   \   00006E   95..         SUBB    A,?V0 + 1
   \   000070   5005         JNC     ??ZDO_CompareClusterLists_5
   \   000072   75..00       MOV     ?V0 + 3,#0x0
   \   000075   80EB         SJMP    ??ZDO_CompareClusterLists_4
    487            }
    488          
    489            return ( numMatches );
   \                     ??ZDO_CompareClusterLists_5:
   \   000077   A9..         MOV     R1,?V0 + 0
   \   000079   02....       LJMP    ??Subroutine213_0 & 0xFFFF
    490          }

   \                                 In  segment BANKED_CODE, align 1, keep-with-next
   \                     ?Subroutine95:
   \   000000   C3           CLR     C
   \   000001   33           RLC     A
   \   000002   FE           MOV     R6,A
   \   000003   E4           CLR     A
   \   000004   33           RLC     A
   \   000005   FF           MOV     R7,A
   \   000006   E8           MOV     A,R0
   \   000007   2E           ADD     A,R6
   \   000008   F582         MOV     DPL,A
   \   00000A   E9           MOV     A,R1
   \   00000B   3F           ADDC    A,R7
   \   00000C   F583         MOV     DPH,A
   \   00000E   E0           MOVX    A,@DPTR
   \   00000F   22           RET

   \                                 In  segment BANKED_CODE, align 1, keep-with-next
   \                     ?Subroutine77:
   \   000000   E0           MOVX    A,@DPTR
   \   000001   FC           MOV     R4,A
   \   000002   A3           INC     DPTR
   \   000003   E0           MOVX    A,@DPTR
   \   000004   FD           MOV     R5,A
   \   000005   22           RET

   \                                 In  segment BANKED_CODE, align 1, keep-with-next
   \                     ??Subroutine213_0:
   \   000000   7F07         MOV     R7,#0x7
   \   000002   02....       LJMP    ?BANKED_LEAVE_XDATA
    491          
    492          /*********************************************************************
    493           * Utility functions
    494           */
    495          
    496          /*********************************************************************
    497           * @fn          ZDO_CompareByteLists
    498           * @brief       Compares two lists for matches.
    499           * @param       ACnt  - number of entries in list A, AList  - List A     
    500           * @param       BCnt  - number of entries in list B, BList  - List B    
    501           * @return      true if a match is found
    502           */

   \                                 In  segment BANKED_CODE, align 1, keep-with-next
    503          byte ZDO_AnyClusterMatches( byte ACnt, uint16 *AList, byte BCnt, uint16 *BList )
   \                     ZDO_AnyClusterMatches:
    504          {
   \   000000   74F4         MOV     A,#-0xc
   \   000002   12....       LCALL   ?BANKED_ENTER_XDATA
   \   000005                ; Saved register size: 12
   \   000005                ; Auto size: 0
   \   000005   E9           MOV     A,R1
   \   000006   FD           MOV     R5,A
   \   000007   740C         MOV     A,#0xc
   \   000009   12....       LCALL   ?XSTACK_DISP0_8
   \   00000C   12....       LCALL   ??Subroutine206_0 & 0xFFFF
    505            byte x, y;
    506          
    507            for ( x = 0; x < ACnt; x++ )
   \                     ??CrossCallReturnLabel_292:
   \   00000F   75..00       MOV     ?V0 + 3,#0x0
   \   000012   8002         SJMP    ??ZDO_AnyClusterMatches_0
   \                     ??ZDO_AnyClusterMatches_1:
   \   000014   05..         INC     ?V0 + 3
   \                     ??ZDO_AnyClusterMatches_0:
   \   000016   E5..         MOV     A,?V0 + 3
   \   000018   C3           CLR     C
   \   000019   9D           SUBB    A,R5
   \   00001A   5035         JNC     ??ZDO_AnyClusterMatches_2
    508            {
    509              for ( y = 0; y < BCnt; y++ )
   \   00001C   75..00       MOV     ?V0 + 2,#0x0
   \   00001F   8002         SJMP    ??ZDO_AnyClusterMatches_3
   \                     ??ZDO_AnyClusterMatches_4:
   \   000021   05..         INC     ?V0 + 2
   \                     ??ZDO_AnyClusterMatches_3:
   \   000023   E5..         MOV     A,?V0 + 2
   \   000025   C3           CLR     C
   \   000026   9C           SUBB    A,R4
   \   000027   50EB         JNC     ??ZDO_AnyClusterMatches_1
    510              {
    511                if ( AList[x] == BList[y] )
   \   000029   E5..         MOV     A,?V0 + 3
   \   00002B   C3           CLR     C
   \   00002C   33           RLC     A
   \   00002D   FE           MOV     R6,A
   \   00002E   E4           CLR     A
   \   00002F   33           RLC     A
   \   000030   FF           MOV     R7,A
   \   000031   EA           MOV     A,R2
   \   000032   2E           ADD     A,R6
   \   000033   F582         MOV     DPL,A
   \   000035   EB           MOV     A,R3
   \   000036   3F           ADDC    A,R7
   \   000037   F583         MOV     DPH,A
   \   000039   12....       LCALL   ?Subroutine68 & 0xFFFF
   \                     ??CrossCallReturnLabel_103:
   \   00003C   F5..         MOV     ?V0 + 1,A
   \   00003E   E5..         MOV     A,?V0 + 2
   \   000040   12....       LCALL   ?Subroutine95 & 0xFFFF
   \                     ??CrossCallReturnLabel_147:
   \   000043   65..         XRL     A,?V0 + 0
   \   000045   7004         JNZ     ??ZDO_AnyClusterMatches_5
   \   000047   A3           INC     DPTR
   \   000048   E0           MOVX    A,@DPTR
   \   000049   65..         XRL     A,?V0 + 1
   \                     ??ZDO_AnyClusterMatches_5:
   \   00004B   70D4         JNZ     ??ZDO_AnyClusterMatches_4
    512                {
    513                  return true;
   \   00004D   7901         MOV     R1,#0x1
   \   00004F   8002         SJMP    ??ZDO_AnyClusterMatches_6
    514                }
    515              }
    516            }
    517          
    518            return false;
   \                     ??ZDO_AnyClusterMatches_2:
   \   000051   7900         MOV     R1,#0x0
   \                     ??ZDO_AnyClusterMatches_6:
   \   000053   02....       LJMP    ??Subroutine192_0 & 0xFFFF
    519          }

   \                                 In  segment BANKED_CODE, align 1, keep-with-next
   \                     ?Subroutine68:
   \   000000   E0           MOVX    A,@DPTR
   \   000001   F5..         MOV     ?V0 + 0,A
   \   000003   A3           INC     DPTR
   \   000004   E0           MOVX    A,@DPTR
   \   000005   22           RET
    520          
    521          /*********************************************************************
    522           * Callback functions from ZDProfile
    523           */
    524          
    525          /*********************************************************************
    526           * @fn          ZDO_ProcessNodeDescReq
    527           * @brief       This function processes and responds to the
    528           *              Node_Desc_req message.
    529           * @param       inMsg - incoming message
    530           */

   \                                 In  segment BANKED_CODE, align 1, keep-with-next
    531          void ZDO_ProcessNodeDescReq( zdoIncomingMsg_t *inMsg )
   \                     ZDO_ProcessNodeDescReq:
    532          {
   \   000000   74F6         MOV     A,#-0xa
   \   000002   12....       LCALL   ?BANKED_ENTER_XDATA
   \   000005                ; Saved register size: 10
   \   000005                ; Auto size: 0
   \   000005   12....       LCALL   ?Subroutine50 & 0xFFFF
    533            uint16 aoi = BUILD_UINT16( inMsg->asdu[0], inMsg->asdu[1] );
    534            NodeDescriptorFormat_t *desc = NULL;
    535          
    536            if ( aoi == ZDAppNwkAddr.addr.shortAddr )
   \                     ??CrossCallReturnLabel_88:
   \   000008   7003         JNZ     ??ZDO_ProcessNodeDescReq_0
   \   00000A   A3           INC     DPTR
   \   00000B   E0           MOVX    A,@DPTR
   \   00000C   6D           XRL     A,R5
   \                     ??ZDO_ProcessNodeDescReq_0:
   \   00000D   7017         JNZ     ??ZDO_ProcessNodeDescReq_1
    537            {
    538              desc = &ZDO_Config_Node_Descriptor;
    539            }
    540          
    541            if ( desc != NULL )
    542            {
    543              ZDP_NodeDescMsg( inMsg, aoi, desc );
   \   00000F                ; Setup parameters for call to function ZDP_NodeDescMsg
   \   00000F   75....       MOV     ?V0 + 0,#(ZDO_Config_Node_Descriptor & 0xff)
   \   000012   75....       MOV     ?V0 + 1,#((ZDO_Config_Node_Descriptor >> 8) & 0xff)
   \   000015   78..         MOV     R0,#?V0 + 0
   \   000017   12....       LCALL   ?PUSH_XSTACK_I_TWO
   \   00001A   EE           MOV     A,R6
   \   00001B   FA           MOV     R2,A
   \   00001C   12....       LCALL   ??ZDP_NodeDescMsg?relay
   \   00001F   7402         MOV     A,#0x2
   \   000021   12....       LCALL   ?DEALLOC_XSTACK8
   \   000024   801A         SJMP    ??ZDO_ProcessNodeDescReq_2
    544            }
    545            else
    546            {
    547              ZDP_GenericRsp( inMsg->TransSeq, &(inMsg->srcAddr),
    548                        ZDP_INVALID_REQTYPE, aoi, Node_Desc_rsp, inMsg->SecurityUse );
   \                     ??ZDO_ProcessNodeDescReq_1:
   \   000026                ; Setup parameters for call to function ZDP_GenericRsp
   \   000026   75..02       MOV     ?V0 + 0,#0x2
   \   000029   75..80       MOV     ?V0 + 1,#-0x80
   \   00002C   78..         MOV     R0,#?V0 + 0
   \   00002E   12....       LCALL   ?PUSH_XSTACK_I_TWO
   \   000031   8C..         MOV     ?V0 + 0,R4
   \   000033   8D..         MOV     ?V0 + 1,R5
   \   000035   78..         MOV     R0,#?V0 + 0
   \   000037   12....       LCALL   ?PUSH_XSTACK_I_TWO
   \   00003A   12....       LCALL   ?Subroutine46 & 0xFFFF
    549            }
   \                     ??CrossCallReturnLabel_86:
   \   00003D   12....       LCALL   ?DEALLOC_XSTACK8
    550          }
   \                     ??ZDO_ProcessNodeDescReq_2:
   \   000040   80..         SJMP    ??Subroutine194_0

   \                                 In  segment BANKED_CODE, align 1, keep-with-next
   \                     ??Subroutine194_0:
   \   000000   7F02         MOV     R7,#0x2
   \   000002   02....       LJMP    ?BANKED_LEAVE_XDATA

   \                                 In  segment BANKED_CODE, align 1, keep-with-next
   \                     ?Subroutine50:
   \   000000   EA           MOV     A,R2
   \   000001   FE           MOV     R6,A
   \   000002   EB           MOV     A,R3
   \   000003   FF           MOV     R7,A
   \   000004   12....       LCALL   ?Subroutine130 & 0xFFFF
   \                     ??CrossCallReturnLabel_549:
   \   000007   FC           MOV     R4,A
   \   000008   E9           MOV     A,R1
   \   000009   FD           MOV     R5,A
   \   00000A   90....       MOV     DPTR,#ZDAppNwkAddr
   \   00000D   E0           MOVX    A,@DPTR
   \   00000E   6C           XRL     A,R4
   \   00000F   22           RET

   \                                 In  segment BANKED_CODE, align 1, keep-with-next
   \                     ?Subroutine46:
   \   000000   12....       LCALL   ?Subroutine147 & 0xFFFF
   \                     ??CrossCallReturnLabel_202:
   \   000003   12....       LCALL   ?Subroutine142 & 0xFFFF
   \                     ??CrossCallReturnLabel_253:
   \   000006   FD           MOV     R5,A
   \   000007   7C80         MOV     R4,#-0x80
   \   000009   12....       LCALL   ?Subroutine145 & 0xFFFF
   \                     ??CrossCallReturnLabel_196:
   \   00000C   EE           MOV     A,R6
   \   00000D   240F         ADD     A,#0xf
   \   00000F   F582         MOV     DPL,A
   \   000011   EF           MOV     A,R7
   \   000012   12....       LCALL   ?Subroutine141 & 0xFFFF
   \                     ??CrossCallReturnLabel_373:
   \   000015   12....       LCALL   ??ZDP_GenericRsp?relay
   \   000018   7404         MOV     A,#0x4
   \   00001A   22           RET

   \                                 In  segment BANKED_CODE, align 1, keep-with-next
   \                     ?Subroutine142:
   \   000000   12....       LCALL   ??Subroutine243_0 & 0xFFFF
   \                     ??CrossCallReturnLabel_522:
   \   000003   E0           MOVX    A,@DPTR
   \   000004   22           RET

   \                                 In  segment BANKED_CODE, align 1, keep-with-next
   \                     ?Subroutine145:
   \   000000   EE           MOV     A,R6
   \   000001   2402         ADD     A,#0x2
   \   000003   FA           MOV     R2,A
   \   000004   EF           MOV     A,R7
   \   000005   3400         ADDC    A,#0x0
   \   000007   FB           MOV     R3,A
   \   000008   22           RET

   \                                 In  segment BANKED_CODE, align 1, keep-with-next
   \                     ?Subroutine130:
   \   000000   EE           MOV     A,R6
   \   000001   2413         ADD     A,#0x13
   \   000003   F582         MOV     DPL,A
   \   000005   EF           MOV     A,R7
   \   000006   12....       LCALL   ?Subroutine157 & 0xFFFF
   \                     ??CrossCallReturnLabel_402:
   \   000009                REQUIRE ?Subroutine170
   \   000009                REQUIRE ??Subroutine200_0
   \   000009                ; // Fall through to label ??Subroutine200_0

   \                                 In  segment BANKED_CODE, align 1, keep-with-next
   \                     ??Subroutine200_0:
   \   000000   E0           MOVX    A,@DPTR
   \   000001                REQUIRE ?Subroutine170
   \   000001                ; // Fall through to label ?Subroutine170

   \                                 In  segment BANKED_CODE, align 1, keep-with-next
   \                     ?Subroutine170:
   \   000000   FA           MOV     R2,A
   \   000001   A3           INC     DPTR
   \   000002   E0           MOVX    A,@DPTR
   \   000003   F9           MOV     R1,A
   \   000004   EA           MOV     A,R2
   \   000005   22           RET

   \                                 In  segment BANKED_CODE, align 1, keep-with-next
   \                     ?Subroutine157:
   \   000000   3400         ADDC    A,#0x0
   \   000002   F583         MOV     DPH,A
   \   000004   E0           MOVX    A,@DPTR
   \   000005                REQUIRE ?Subroutine171
   \   000005                REQUIRE ??Subroutine201_0
   \   000005                ; // Fall through to label ??Subroutine201_0

   \                                 In  segment BANKED_CODE, align 1, keep-with-next
   \                     ??Subroutine201_0:
   \   000000   F8           MOV     R0,A
   \   000001   A3           INC     DPTR
   \   000002   E0           MOVX    A,@DPTR
   \   000003                REQUIRE ?Subroutine171
   \   000003                ; // Fall through to label ?Subroutine171

   \                                 In  segment BANKED_CODE, align 1, keep-with-next
   \                     ?Subroutine171:
   \   000000   F9           MOV     R1,A
   \   000001                REQUIRE ??Subroutine202_0
   \   000001                ; // Fall through to label ??Subroutine202_0

   \                                 In  segment BANKED_CODE, align 1, keep-with-next
   \                     ??Subroutine202_0:
   \   000000   8882         MOV     DPL,R0
   \   000002   8983         MOV     DPH,R1
   \   000004   22           RET

   \                                 In  segment BANKED_CODE, align 1, keep-with-next
   \                     ?Subroutine147:
   \   000000   EE           MOV     A,R6
   \   000001   240E         ADD     A,#0xe
   \   000003   F582         MOV     DPL,A
   \   000005   EF           MOV     A,R7
   \   000006   22           RET

   \                                 In  segment BANKED_CODE, align 1, keep-with-next
   \                     ?Subroutine141:
   \   000000   12....       LCALL   ??Subroutine243_0 & 0xFFFF
   \                     ??CrossCallReturnLabel_525:
   \   000003   E0           MOVX    A,@DPTR
   \   000004   F9           MOV     R1,A
   \   000005   22           RET

   \                                 In  segment BANKED_CODE, align 1, keep-with-next
   \                     ??Subroutine243_0:
   \   000000   3400         ADDC    A,#0x0
   \   000002   F583         MOV     DPH,A
   \   000004   22           RET
    551          
    552          /*********************************************************************
    553           * @fn          ZDO_ProcessPowerDescReq
    554           * @brief       This function processes and responds to the
    555           *              Node_Power_req message.
    556           * @param       inMsg  - incoming request
    557           */

   \                                 In  segment BANKED_CODE, align 1, keep-with-next
    558          void ZDO_ProcessPowerDescReq( zdoIncomingMsg_t *inMsg )
   \                     ZDO_ProcessPowerDescReq:
    559          {
   \   000000   74F6         MOV     A,#-0xa
   \   000002   12....       LCALL   ?BANKED_ENTER_XDATA
   \   000005                ; Saved register size: 10
   \   000005                ; Auto size: 0
   \   000005   12....       LCALL   ?Subroutine50 & 0xFFFF
    560            uint16 aoi = BUILD_UINT16( inMsg->asdu[0], inMsg->asdu[1] );
    561            NodePowerDescriptorFormat_t *desc = NULL;
    562          
    563            if ( aoi == ZDAppNwkAddr.addr.shortAddr )
   \                     ??CrossCallReturnLabel_89:
   \   000008   7003         JNZ     ??ZDO_ProcessPowerDescReq_0
   \   00000A   A3           INC     DPTR
   \   00000B   E0           MOVX    A,@DPTR
   \   00000C   6D           XRL     A,R5
   \                     ??ZDO_ProcessPowerDescReq_0:
   \   00000D   7017         JNZ     ??ZDO_ProcessPowerDescReq_1
    564            {
    565              desc = &ZDO_Config_Power_Descriptor;
    566            }
    567          
    568            if ( desc != NULL )
    569            {
    570              ZDP_PowerDescMsg( inMsg, aoi, desc );
   \   00000F                ; Setup parameters for call to function ZDP_PowerDescMsg
   \   00000F   75....       MOV     ?V0 + 0,#(ZDO_Config_Power_Descriptor & 0xff)
   \   000012   75....       MOV     ?V0 + 1,#((ZDO_Config_Power_Descriptor >> 8) & 0xff)
   \   000015   78..         MOV     R0,#?V0 + 0
   \   000017   12....       LCALL   ?PUSH_XSTACK_I_TWO
   \   00001A   EE           MOV     A,R6
   \   00001B   FA           MOV     R2,A
   \   00001C   12....       LCALL   ??ZDP_PowerDescMsg?relay
   \   00001F   7402         MOV     A,#0x2
   \   000021   12....       LCALL   ?DEALLOC_XSTACK8
   \   000024   801A         SJMP    ??ZDO_ProcessPowerDescReq_2
    571            }
    572            else
    573            {
    574              ZDP_GenericRsp( inMsg->TransSeq, &(inMsg->srcAddr),
    575                        ZDP_INVALID_REQTYPE, aoi, Power_Desc_rsp, inMsg->SecurityUse );
   \                     ??ZDO_ProcessPowerDescReq_1:
   \   000026                ; Setup parameters for call to function ZDP_GenericRsp
   \   000026   75..03       MOV     ?V0 + 0,#0x3
   \   000029   75..80       MOV     ?V0 + 1,#-0x80
   \   00002C   78..         MOV     R0,#?V0 + 0
   \   00002E   12....       LCALL   ?PUSH_XSTACK_I_TWO
   \   000031   8C..         MOV     ?V0 + 0,R4
   \   000033   8D..         MOV     ?V0 + 1,R5
   \   000035   78..         MOV     R0,#?V0 + 0
   \   000037   12....       LCALL   ?PUSH_XSTACK_I_TWO
   \   00003A   12....       LCALL   ?Subroutine46 & 0xFFFF
    576            }
   \                     ??CrossCallReturnLabel_87:
   \   00003D   12....       LCALL   ?DEALLOC_XSTACK8
    577          }
   \                     ??ZDO_ProcessPowerDescReq_2:
   \   000040   80..         SJMP    ??Subroutine194_0
    578          
    579          /*********************************************************************
    580           * @fn          ZDO_ProcessSimpleDescReq
    581           * @brief       This function processes and responds to the
    582           *              Simple_Desc_req message.
    583           * @param       inMsg - incoming message (request)
    584           */

   \                                 In  segment BANKED_CODE, align 1, keep-with-next
   \                     ?Subroutine182:
   \   000000   7402         MOV     A,#0x2
   \   000002                REQUIRE ??Subroutine193_0
   \   000002                ; // Fall through to label ??Subroutine193_0

   \                                 In  segment BANKED_CODE, align 1, keep-with-next
   \                     ??Subroutine193_0:
   \   000000   12....       LCALL   ?DEALLOC_XSTACK8
   \   000003                REQUIRE ??Subroutine194_0
   \   000003                ; // Fall through to label ??Subroutine194_0

   \                                 In  segment BANKED_CODE, align 1, keep-with-next
    585          void ZDO_ProcessSimpleDescReq( zdoIncomingMsg_t *inMsg )
   \                     ZDO_ProcessSimpleDescReq:
    586          {
   \   000000   74F6         MOV     A,#-0xa
   \   000002   12....       LCALL   ?BANKED_ENTER_XDATA
   \   000005                ; Saved register size: 10
   \   000005                ; Auto size: 2
   \   000005   74FE         MOV     A,#-0x2
   \   000007   12....       LCALL   ?ALLOC_XSTACK8
   \   00000A   EA           MOV     A,R2
   \   00000B   FE           MOV     R6,A
   \   00000C   EB           MOV     A,R3
   \   00000D   FF           MOV     R7,A
    587            SimpleDescriptionFormat_t *sDesc = NULL;
   \   00000E   85..82       MOV     DPL,?XSP + 0
   \   000011   85..83       MOV     DPH,?XSP + 1
   \   000014   E4           CLR     A
   \   000015   F0           MOVX    @DPTR,A
   \   000016   A3           INC     DPTR
   \   000017   F0           MOVX    @DPTR,A
    588            uint16 aoi = BUILD_UINT16( inMsg->asdu[0], inMsg->asdu[1] );
   \   000018   12....       LCALL   ?Subroutine60 & 0xFFFF
   \                     ??CrossCallReturnLabel_93:
   \   00001B   FA           MOV     R2,A
    589            byte endPoint = inMsg->asdu[2];
   \   00001C   8882         MOV     DPL,R0
   \   00001E   8983         MOV     DPH,R1
   \   000020   A3           INC     DPTR
   \   000021   A3           INC     DPTR
   \   000022   E0           MOVX    A,@DPTR
   \   000023   F9           MOV     R1,A
    590            byte free = false;
   \   000024   75..00       MOV     ?V0 + 0,#0x0
    591            byte stat = ZDP_SUCCESS;
   \   000027   75..00       MOV     ?V0 + 1,#0x0
    592          
    593            if ( (endPoint == ZDO_EP) || (endPoint > MAX_ENDPOINTS) )
   \   00002A   6004         JZ      ??ZDO_ProcessSimpleDescReq_0
   \   00002C   94F1         SUBB    A,#-0xf
   \   00002E   4005         JC      ??ZDO_ProcessSimpleDescReq_1
    594            {
    595              stat = ZDP_INVALID_EP;
   \                     ??ZDO_ProcessSimpleDescReq_0:
   \   000030   75..82       MOV     ?V0 + 1,#-0x7e
   \   000033   8031         SJMP    ??ZDO_ProcessSimpleDescReq_2
    596            }
    597            else if ( aoi == ZDAppNwkAddr.addr.shortAddr )
   \                     ??ZDO_ProcessSimpleDescReq_1:
   \   000035   90....       MOV     DPTR,#ZDAppNwkAddr
   \   000038   E0           MOVX    A,@DPTR
   \   000039   6A           XRL     A,R2
   \   00003A   7003         JNZ     ??ZDO_ProcessSimpleDescReq_3
   \   00003C   A3           INC     DPTR
   \   00003D   E0           MOVX    A,@DPTR
   \   00003E   6B           XRL     A,R3
   \                     ??ZDO_ProcessSimpleDescReq_3:
   \   00003F   7022         JNZ     ??ZDO_ProcessSimpleDescReq_4
    598            {
    599              free = afFindSimpleDesc( &sDesc, endPoint );
   \   000041                ; Setup parameters for call to function afFindSimpleDesc
   \   000041   85..82       MOV     DPL,?XSP + 0
   \   000044   85..83       MOV     DPH,?XSP + 1
   \   000047   AA82         MOV     R2,DPL
   \   000049   AB83         MOV     R3,DPH
   \   00004B   12....       LCALL   ??afFindSimpleDesc?relay
   \   00004E   E9           MOV     A,R1
   \   00004F   F5..         MOV     ?V0 + 0,A
    600              if ( sDesc == NULL )
   \   000051   85..82       MOV     DPL,?XSP + 0
   \   000054   85..83       MOV     DPH,?XSP + 1
   \   000057   E0           MOVX    A,@DPTR
   \   000058   7002         JNZ     ??ZDO_ProcessSimpleDescReq_5
   \   00005A   A3           INC     DPTR
   \   00005B   E0           MOVX    A,@DPTR
   \                     ??ZDO_ProcessSimpleDescReq_5:
   \   00005C   7008         JNZ     ??ZDO_ProcessSimpleDescReq_2
    601              {
    602                stat = ZDP_NOT_ACTIVE;
   \   00005E   75..83       MOV     ?V0 + 1,#-0x7d
   \   000061   8003         SJMP    ??ZDO_ProcessSimpleDescReq_2
    603              }
    604            }
    605            else
    606            {
    607              if ( ZSTACK_ROUTER_BUILD )
    608              {
    609                stat = ZDP_DEVICE_NOT_FOUND;
   \                     ??ZDO_ProcessSimpleDescReq_4:
   \   000063   75..81       MOV     ?V0 + 1,#-0x7f
    610              }
    611              else if ( ZSTACK_END_DEVICE_BUILD )
    612              {
    613                stat = ZDP_INVALID_REQTYPE;
    614              }
    615            }
    616          
    617            ZDP_SimpleDescMsg( inMsg, stat, sDesc );
   \                     ??ZDO_ProcessSimpleDescReq_2:
   \   000066                ; Setup parameters for call to function ZDP_SimpleDescMsg
   \   000066   85..82       MOV     DPL,?XSP + 0
   \   000069   85..83       MOV     DPH,?XSP + 1
   \   00006C   12....       LCALL   ?Subroutine77 & 0xFFFF
   \                     ??CrossCallReturnLabel_117:
   \   00006F   A9..         MOV     R1,?V0 + 1
   \   000071   EE           MOV     A,R6
   \   000072   FA           MOV     R2,A
   \   000073   EF           MOV     A,R7
   \   000074   FB           MOV     R3,A
   \   000075   12....       LCALL   ??ZDP_SimpleDescMsg?relay
    618          
    619            if ( free && sDesc )
   \   000078   E5..         MOV     A,?V0 + 0
   \   00007A   6010         JZ      ??CrossCallReturnLabel_357
   \   00007C   85..82       MOV     DPL,?XSP + 0
   \   00007F   85..83       MOV     DPH,?XSP + 1
   \   000082   E0           MOVX    A,@DPTR
   \   000083   7002         JNZ     ??ZDO_ProcessSimpleDescReq_6
   \   000085   A3           INC     DPTR
   \   000086   E0           MOVX    A,@DPTR
   \                     ??ZDO_ProcessSimpleDescReq_6:
   \   000087   6003         JZ      ??CrossCallReturnLabel_357
    620            {
    621              osal_mem_free( sDesc );
   \   000089                ; Setup parameters for call to function osal_mem_free
   \   000089   12....       LCALL   ?Subroutine49 & 0xFFFF
    622            }
    623          }
   \                     ??CrossCallReturnLabel_357:
   \   00008C   02....       LJMP    ?Subroutine182 & 0xFFFF

   \                                 In  segment BANKED_CODE, align 1, keep-with-next
   \                     ??Subroutine207_0:
   \   000000   EE           MOV     A,R6
   \   000001   2413         ADD     A,#0x13
   \   000003   F582         MOV     DPL,A
   \   000005   EF           MOV     A,R7
   \   000006   22           RET

   \                                 In  segment BANKED_CODE, align 1, keep-with-next
   \                     ?Subroutine60:
   \   000000   12....       LCALL   ??Subroutine207_0 & 0xFFFF
   \                     ??CrossCallReturnLabel_303:
   \   000003   12....       LCALL   ?Subroutine134 & 0xFFFF
   \                     ??CrossCallReturnLabel_186:
   \   000006   FC           MOV     R4,A
   \   000007   A3           INC     DPTR
   \   000008   E0           MOVX    A,@DPTR
   \   000009   FB           MOV     R3,A
   \   00000A   E4           CLR     A
   \   00000B   2C           ADD     A,R4
   \   00000C   22           RET

   \                                 In  segment BANKED_CODE, align 1, keep-with-next
   \                     ?Subroutine49:
   \   000000   85..82       MOV     DPL,?XSP + 0
   \   000003   85..83       MOV     DPH,?XSP + 1
   \   000006                REQUIRE ??Subroutine221_0
   \   000006                ; // Fall through to label ??Subroutine221_0

   \                                 In  segment BANKED_CODE, align 1, keep-with-next
   \                     ??Subroutine221_0:
   \   000000   12....       LCALL   ??Subroutine233_0 & 0xFFFF
   \                     ??CrossCallReturnLabel_437:
   \   000003   12....       LCALL   ??osal_mem_free?relay
   \   000006   22           RET

   \                                 In  segment BANKED_CODE, align 1, keep-with-next
   \                     ??Subroutine233_0:
   \   000000   E0           MOVX    A,@DPTR
   \   000001   FA           MOV     R2,A
   \   000002   A3           INC     DPTR
   \   000003   E0           MOVX    A,@DPTR
   \   000004   FB           MOV     R3,A
   \   000005   22           RET

   \                                 In  segment BANKED_CODE, align 1, keep-with-next
   \                     ?Subroutine134:
   \   000000   12....       LCALL   ?Subroutine157 & 0xFFFF
   \                     ??CrossCallReturnLabel_398:
   \   000003   E0           MOVX    A,@DPTR
   \   000004   22           RET
    624          
    625          /*********************************************************************
    626           * @fn          ZDO_ProcessActiveEPReq
    627           * @brief       This function processes and responds to the
    628           *              Active_EP_req message.
    629           * @param       inMsg  - incoming message (request)
    630           */

   \                                 In  segment BANKED_CODE, align 1, keep-with-next
    631          void ZDO_ProcessActiveEPReq( zdoIncomingMsg_t *inMsg )
   \                     ZDO_ProcessActiveEPReq:
    632          {
   \   000000   74F2         MOV     A,#-0xe
   \   000002   12....       LCALL   ?BANKED_ENTER_XDATA
   \   000005                ; Saved register size: 14
   \   000005                ; Auto size: 0
   \   000005   EA           MOV     A,R2
   \   000006   FE           MOV     R6,A
   \   000007   EB           MOV     A,R3
   \   000008   FF           MOV     R7,A
    633            byte cnt = 0;
   \   000009   75..00       MOV     ?V0 + 2,#0x0
    634            uint16 aoi;
    635            byte stat = ZDP_SUCCESS;
   \   00000C   75..00       MOV     ?V0 + 3,#0x0
    636          
    637            aoi = BUILD_UINT16( inMsg->asdu[0], inMsg->asdu[1] );
   \   00000F   12....       LCALL   ??Subroutine199_0 & 0xFFFF
   \                     ??CrossCallReturnLabel_270:
   \   000012   F5..         MOV     ?V0 + 0,A
   \   000014   E9           MOV     A,R1
   \   000015   F5..         MOV     ?V0 + 1,A
    638          
    639            if ( aoi == NLME_GetShortAddr() )
   \   000017                ; Setup parameters for call to function NLME_GetShortAddr
   \   000017   12....       LCALL   ??NLME_GetShortAddr?relay
   \   00001A   EA           MOV     A,R2
   \   00001B   65..         XRL     A,?V0 + 0
   \   00001D   7003         JNZ     ??ZDO_ProcessActiveEPReq_0
   \   00001F   EB           MOV     A,R3
   \   000020   65..         XRL     A,?V0 + 1
   \                     ??ZDO_ProcessActiveEPReq_0:
   \   000022   7012         JNZ     ??ZDO_ProcessActiveEPReq_1
    640            {
    641              cnt = afNumEndPoints() - 1;  // -1 for ZDO endpoint descriptor
   \   000024                ; Setup parameters for call to function afNumEndPoints
   \   000024   12....       LCALL   ??afNumEndPoints?relay
   \   000027   E9           MOV     A,R1
   \   000028   14           DEC     A
   \   000029   F5..         MOV     ?V0 + 2,A
    642              afEndPoints( (uint8 *)ZDOBuildBuf, true );
   \   00002B                ; Setup parameters for call to function afEndPoints
   \   00002B   7901         MOV     R1,#0x1
   \   00002D   7A..         MOV     R2,#(ZDOBuildBuf & 0xff)
   \   00002F   7B..         MOV     R3,#((ZDOBuildBuf >> 8) & 0xff)
   \   000031   12....       LCALL   ??afEndPoints?relay
   \   000034   8003         SJMP    ??ZDO_ProcessActiveEPReq_2
    643            }
    644            else
    645            {
    646              stat = ZDP_INVALID_REQTYPE;
   \                     ??ZDO_ProcessActiveEPReq_1:
   \   000036   75..80       MOV     ?V0 + 3,#-0x80
    647            }
    648          
    649            ZDP_ActiveEPRsp( inMsg->TransSeq, &(inMsg->srcAddr), stat,
    650                            aoi, cnt, (uint8 *)ZDOBuildBuf, inMsg->SecurityUse );
   \                     ??ZDO_ProcessActiveEPReq_2:
   \   000039                ; Setup parameters for call to function ZDP_EPRsp
   \   000039   12....       LCALL   ?Subroutine104 & 0xFFFF
   \                     ??CrossCallReturnLabel_250:
   \   00003C   F5..         MOV     ?V0 + 4,A
   \   00003E   78..         MOV     R0,#?V0 + 4
   \   000040   12....       LCALL   ?PUSH_XSTACK_I_ONE
   \   000043   75....       MOV     ?V0 + 4,#(ZDOBuildBuf & 0xff)
   \   000046   75....       MOV     ?V0 + 5,#((ZDOBuildBuf >> 8) & 0xff)
   \   000049   78..         MOV     R0,#?V0 + 4
   \   00004B   12....       LCALL   ?PUSH_XSTACK_I_TWO
   \   00004E   78..         MOV     R0,#?V0 + 2
   \   000050   12....       LCALL   ?PUSH_XSTACK_I_ONE
   \   000053   78..         MOV     R0,#?V0 + 0
   \   000055   12....       LCALL   ?PUSH_XSTACK_I_TWO
   \   000058   E5..         MOV     A,?V0 + 3
   \   00005A   F5..         MOV     ?V0 + 0,A
   \   00005C   78..         MOV     R0,#?V0 + 0
   \   00005E   12....       LCALL   ?PUSH_XSTACK_I_ONE
   \   000061   12....       LCALL   ?Subroutine146 & 0xFFFF
   \                     ??CrossCallReturnLabel_197:
   \   000064   12....       LCALL   ?Subroutine97 & 0xFFFF
   \                     ??CrossCallReturnLabel_371:
   \   000067   7A05         MOV     R2,#0x5
   \   000069   7B80         MOV     R3,#-0x80
   \   00006B   12....       LCALL   ??ZDP_EPRsp?relay
   \   00006E   7407         MOV     A,#0x7
   \   000070   12....       LCALL   ?DEALLOC_XSTACK8
    651          }
   \   000073                REQUIRE ?Subroutine183
   \   000073                ; // Fall through to label ?Subroutine183

   \                                 In  segment BANKED_CODE, align 1, keep-with-next
   \                     ?Subroutine183:
   \   000000   7F06         MOV     R7,#0x6
   \   000002   02....       LJMP    ?BANKED_LEAVE_XDATA

   \                                 In  segment BANKED_CODE, align 1, keep-with-next
   \                     ?Subroutine104:
   \   000000   12....       LCALL   ?Subroutine147 & 0xFFFF
   \                     ??CrossCallReturnLabel_203:
   \   000003                REQUIRE ??Subroutine195_0
   \   000003                ; // Fall through to label ??Subroutine195_0

   \                                 In  segment BANKED_CODE, align 1, keep-with-next
   \                     ??Subroutine195_0:
   \   000000   12....       LCALL   ?Subroutine142 & 0xFFFF
   \                     ??CrossCallReturnLabel_256:
   \   000003   22           RET

   \                                 In  segment BANKED_CODE, align 1, keep-with-next
   \                     ??Subroutine199_0:
   \   000000   12....       LCALL   ?Subroutine130 & 0xFFFF
   \                     ??CrossCallReturnLabel_550:
   \   000003   22           RET

   \                                 In  segment BANKED_CODE, align 1, keep-with-next
   \                     ?Subroutine146:
   \   000000   EE           MOV     A,R6
   \   000001   2402         ADD     A,#0x2
   \   000003   FC           MOV     R4,A
   \   000004   EF           MOV     A,R7
   \   000005   3400         ADDC    A,#0x0
   \   000007   FD           MOV     R5,A
   \   000008   22           RET

   \                                 In  segment BANKED_CODE, align 1, keep-with-next
   \                     ?Subroutine97:
   \   000000   EE           MOV     A,R6
   \   000001   240F         ADD     A,#0xf
   \   000003   F582         MOV     DPL,A
   \   000005   EF           MOV     A,R7
   \   000006                REQUIRE ??Subroutine224_0
   \   000006                ; // Fall through to label ??Subroutine224_0

   \                                 In  segment BANKED_CODE, align 1, keep-with-next
   \                     ??Subroutine224_0:
   \   000000   12....       LCALL   ?Subroutine141 & 0xFFFF
   \                     ??CrossCallReturnLabel_375:
   \   000003   22           RET
    652          
    653          /*********************************************************************
    654           * @fn          ZDO_ConvertOTAClusters
    655           * @brief       This function will convert the over-the-air cluster list
    656           *              format to an internal format.
    657           * @param       inMsg  - incoming message (request)
    658           * @return      pointer to incremented inBuf
    659           */

   \                                 In  segment BANKED_CODE, align 1, keep-with-next
    660          uint8 *ZDO_ConvertOTAClusters( uint8 cnt, uint8 *inBuf, uint16 *outList )
   \                     ZDO_ConvertOTAClusters:
    661          {
   \   000000   74F5         MOV     A,#-0xb
   \   000002   12....       LCALL   ?BANKED_ENTER_XDATA
   \   000005                ; Saved register size: 11
   \   000005                ; Auto size: 0
   \   000005   E9           MOV     A,R1
   \   000006   FE           MOV     R6,A
    662            uint8 x;
    663          
    664            for ( x = 0; x < cnt; x++ )
   \   000007   7F00         MOV     R7,#0x0
   \   000009   8027         SJMP    ??ZDO_ConvertOTAClusters_0
    665            {
    666              // convert ota format to internal
    667              outList[x] = BUILD_UINT16( inBuf[0], inBuf[1] );
   \                     ??ZDO_ConvertOTAClusters_1:
   \   00000B   8A82         MOV     DPL,R2
   \   00000D   8B83         MOV     DPH,R3
   \   00000F   12....       LCALL   ?Subroutine68 & 0xFFFF
   \                     ??CrossCallReturnLabel_104:
   \   000012   F9           MOV     R1,A
   \   000013   E4           CLR     A
   \   000014   25..         ADD     A,?V0 + 0
   \   000016   E9           MOV     A,R1
   \   000017   F5..         MOV     ?V0 + 1,A
   \   000019   EF           MOV     A,R7
   \   00001A   33           RLC     A
   \   00001B   F8           MOV     R0,A
   \   00001C   E4           CLR     A
   \   00001D   33           RLC     A
   \   00001E   F9           MOV     R1,A
   \   00001F   EC           MOV     A,R4
   \   000020   28           ADD     A,R0
   \   000021   F582         MOV     DPL,A
   \   000023   ED           MOV     A,R5
   \   000024   39           ADDC    A,R1
   \   000025   F583         MOV     DPH,A
   \   000027   E5..         MOV     A,?V0 + 0
   \   000029   F0           MOVX    @DPTR,A
   \   00002A   A3           INC     DPTR
   \   00002B   E5..         MOV     A,?V0 + 1
   \   00002D   F0           MOVX    @DPTR,A
    668              inBuf += sizeof( uint16 );
   \   00002E   12....       LCALL   ?Subroutine111 & 0xFFFF
    669            }
   \                     ??CrossCallReturnLabel_160:
   \   000031   0F           INC     R7
   \                     ??ZDO_ConvertOTAClusters_0:
   \   000032   EF           MOV     A,R7
   \   000033   C3           CLR     C
   \   000034   9E           SUBB    A,R6
   \   000035   40D4         JC      ??ZDO_ConvertOTAClusters_1
    670            return ( inBuf );
   \   000037   7F03         MOV     R7,#0x3
   \   000039   02....       LJMP    ?BANKED_LEAVE_XDATA
    671          }

   \                                 In  segment BANKED_CODE, align 1, keep-with-next
   \                     ?Subroutine111:
   \   000000   EA           MOV     A,R2
   \   000001   2402         ADD     A,#0x2
   \   000003   0A           INC     R2
   \   000004   0A           INC     R2
   \   000005   EB           MOV     A,R3
   \   000006   3400         ADDC    A,#0x0
   \   000008   FB           MOV     R3,A
   \   000009   22           RET
    672          
    673          /*********************************************************************
    674           * @fn          ZDO_ProcessMatchDescReq
    675           * @brief       This function processes and responds to the
    676           *              Match_Desc_req message.
    677           * @param       inMsg  - incoming message (request)
    678           */

   \                                 In  segment BANKED_CODE, align 1, keep-with-next
    679          void ZDO_ProcessMatchDescReq( zdoIncomingMsg_t *inMsg )
   \                     ZDO_ProcessMatchDescReq:
    680          {
   \   000000   74E8         MOV     A,#-0x18
   \   000002   12....       LCALL   ?BANKED_ENTER_XDATA
   \   000005                ; Saved register size: 24
   \   000005                ; Auto size: 4
   \   000005   74FC         MOV     A,#-0x4
   \   000007   12....       LCALL   ?ALLOC_XSTACK8
   \   00000A   8A..         MOV     ?V0 + 14,R2
   \   00000C   8B..         MOV     ?V0 + 15,R3
    681            uint8 epCnt = 0;
   \   00000E   75..00       MOV     ?V0 + 7,#0x0
    682            uint8 numInClusters;
    683            uint16 *inClusters = NULL;
   \   000011   7402         MOV     A,#0x2
   \   000013   12....       LCALL   ?XSTACK_DISP0_8
   \   000016   E4           CLR     A
   \   000017   F0           MOVX    @DPTR,A
   \   000018   A3           INC     DPTR
   \   000019   12....       LCALL   ?Subroutine124 & 0xFFFF
    684            uint8 numOutClusters;
    685            uint16 *outClusters = NULL;
   \                     ??CrossCallReturnLabel_260:
   \   00001C   F0           MOVX    @DPTR,A
   \   00001D   12....       LCALL   ?Subroutine4 & 0xFFFF
    686            epList_t *epDesc;
    687            SimpleDescriptionFormat_t *sDesc = NULL;
    688            uint8 allocated;
    689            uint8 *msg;
    690            uint16 aoi;
    691            uint16 profileID;
    692          
    693            // Parse the incoming message
    694            msg = inMsg->asdu;
    695            aoi = BUILD_UINT16( msg[0], msg[1] );
   \                     ??CrossCallReturnLabel_2:
   \   000020   F5..         MOV     ?V0 + 0,A
   \   000022   E9           MOV     A,R1
   \   000023   F5..         MOV     ?V0 + 1,A
    696            profileID = BUILD_UINT16( msg[2], msg[3] );
   \   000025   85..82       MOV     DPL,?V0 + 2
   \   000028   85..83       MOV     DPH,?V0 + 3
   \   00002B   A3           INC     DPTR
   \   00002C   12....       LCALL   ?Subroutine79 & 0xFFFF
   \                     ??CrossCallReturnLabel_122:
   \   00002F   A3           INC     DPTR
   \   000030   A3           INC     DPTR
   \   000031   E0           MOVX    A,@DPTR
   \   000032   F9           MOV     R1,A
   \   000033   EA           MOV     A,R2
   \   000034   FE           MOV     R6,A
   \   000035   E9           MOV     A,R1
   \   000036   FF           MOV     R7,A
    697            msg += 4;
   \   000037   E5..         MOV     A,?V0 + 2
   \   000039   2404         ADD     A,#0x4
   \   00003B   12....       LCALL   ?Subroutine162 & 0xFFFF
   \                     ??CrossCallReturnLabel_515:
   \   00003E                ; Setup parameters for call to function NLME_IsAddressBroadcast
   \   00003E   AA..         MOV     R2,?V0 + 0
   \   000040   AB..         MOV     R3,?V0 + 1
    698          
    699            if ( ADDR_BCAST_NOT_ME == NLME_IsAddressBroadcast(aoi) )
   \   000042   12....       LCALL   ??NLME_IsAddressBroadcast?relay
   \   000045   E9           MOV     A,R1
   \   000046   6401         XRL     A,#0x1
   \   000048   702D         JNZ     ??ZDO_ProcessMatchDescReq_0
    700            {
    701              ZDP_MatchDescRsp( inMsg->TransSeq, &(inMsg->srcAddr), ZDP_INVALID_REQTYPE,
    702                                    ZDAppNwkAddr.addr.shortAddr, 0, NULL, inMsg->SecurityUse );
   \                     ??ZDO_ProcessMatchDescReq_1:
   \   00004A                ; Setup parameters for call to function ZDP_EPRsp
   \   00004A   12....       LCALL   ?Subroutine71 & 0xFFFF
   \                     ??CrossCallReturnLabel_328:
   \   00004D   12....       LCALL   ?PUSH_XSTACK_I_ONE
   \   000050   75..00       MOV     ?V0 + 0,#0x0
   \   000053   75..00       MOV     ?V0 + 1,#0x0
   \   000056   78..         MOV     R0,#?V0 + 0
   \   000058   12....       LCALL   ?PUSH_XSTACK_I_TWO
   \   00005B   78..         MOV     R0,#?V0 + 0
   \   00005D   12....       LCALL   ?PUSH_XSTACK_I_ONE
   \   000060   90....       MOV     DPTR,#ZDAppNwkAddr
   \   000063   12....       LCALL   ?PUSH_XSTACK8_X_TWO
   \   000066   75..80       MOV     ?V0 + 0,#-0x80
   \   000069   78..         MOV     R0,#?V0 + 0
   \   00006B   12....       LCALL   ?PUSH_XSTACK_I_ONE
   \   00006E   12....       LCALL   ?Subroutine70 & 0xFFFF
   \                     ??CrossCallReturnLabel_108:
   \   000071   12....       LCALL   ?DEALLOC_XSTACK8
    703              return;
   \   000074   02....       LJMP    ??CrossCallReturnLabel_358 & 0xFFFF
    704            }
    705            else if ( (ADDR_NOT_BCAST == NLME_IsAddressBroadcast(aoi)) && (aoi != ZDAppNwkAddr.addr.shortAddr) )
   \                     ??ZDO_ProcessMatchDescReq_0:
   \   000077                ; Setup parameters for call to function NLME_IsAddressBroadcast
   \   000077   AA..         MOV     R2,?V0 + 0
   \   000079   AB..         MOV     R3,?V0 + 1
   \   00007B   12....       LCALL   ??NLME_IsAddressBroadcast?relay
   \   00007E   E9           MOV     A,R1
   \   00007F   700E         JNZ     ??ZDO_ProcessMatchDescReq_2
   \   000081   90....       MOV     DPTR,#ZDAppNwkAddr
   \   000084   E0           MOVX    A,@DPTR
   \   000085   65..         XRL     A,?V0 + 0
   \   000087   7004         JNZ     ??ZDO_ProcessMatchDescReq_3
   \   000089   A3           INC     DPTR
   \   00008A   E0           MOVX    A,@DPTR
   \   00008B   65..         XRL     A,?V0 + 1
   \                     ??ZDO_ProcessMatchDescReq_3:
   \   00008D   70BB         JNZ     ??ZDO_ProcessMatchDescReq_1
    706            {
    707              ZDP_MatchDescRsp( inMsg->TransSeq, &(inMsg->srcAddr), ZDP_INVALID_REQTYPE,
    708                                       ZDAppNwkAddr.addr.shortAddr, 0, NULL, inMsg->SecurityUse );
    709              return;
    710            }
    711          
    712            if ((numInClusters = *msg++) &&
    713                (inClusters = (uint16*)osal_mem_alloc( numInClusters * sizeof( uint16 ) )))
   \                     ??ZDO_ProcessMatchDescReq_2:
   \   00008F   12....       LCALL   ?Subroutine80 & 0xFFFF
   \                     ??CrossCallReturnLabel_465:
   \   000092   8A..         MOV     ?V0 + 1,R2
   \   000094   6030         JZ      ??ZDO_ProcessMatchDescReq_4
   \   000096                ; Setup parameters for call to function osal_mem_alloc
   \   000096   C3           CLR     C
   \   000097   33           RLC     A
   \   000098   FA           MOV     R2,A
   \   000099   E4           CLR     A
   \   00009A   33           RLC     A
   \   00009B   FB           MOV     R3,A
   \   00009C   12....       LCALL   ??osal_mem_alloc?relay
   \   00009F   7402         MOV     A,#0x2
   \   0000A1   12....       LCALL   ?XSTACK_DISP0_8
   \   0000A4   12....       LCALL   ?Subroutine26 & 0xFFFF
   \                     ??CrossCallReturnLabel_39:
   \   0000A7   7402         MOV     A,#0x2
   \   0000A9   12....       LCALL   ?XSTACK_DISP0_8
   \   0000AC   E0           MOVX    A,@DPTR
   \   0000AD   7002         JNZ     ??ZDO_ProcessMatchDescReq_5
   \   0000AF   A3           INC     DPTR
   \   0000B0   E0           MOVX    A,@DPTR
   \                     ??ZDO_ProcessMatchDescReq_5:
   \   0000B1   6013         JZ      ??ZDO_ProcessMatchDescReq_4
    714            {
    715              msg = ZDO_ConvertOTAClusters( numInClusters, msg, inClusters );
   \   0000B3                ; Setup parameters for call to function ZDO_ConvertOTAClusters
   \   0000B3   7402         MOV     A,#0x2
   \   0000B5   12....       LCALL   ?XSTACK_DISP0_8
   \   0000B8   12....       LCALL   ?Subroutine76 & 0xFFFF
    716            }
   \                     ??CrossCallReturnLabel_114:
   \   0000BB   A9..         MOV     R1,?V0 + 1
   \   0000BD   12....       LCALL   ??ZDO_ConvertOTAClusters?relay
   \   0000C0   8A..         MOV     ?V0 + 2,R2
   \   0000C2   8B..         MOV     ?V0 + 3,R3
   \   0000C4   8003         SJMP    ??ZDO_ProcessMatchDescReq_6
    717            else
    718            {
    719              numInClusters = 0;
   \                     ??ZDO_ProcessMatchDescReq_4:
   \   0000C6   75..00       MOV     ?V0 + 1,#0x0
    720            }
    721          
    722            if ((numOutClusters = *msg++) &&
    723                (outClusters = (uint16 *)osal_mem_alloc( numOutClusters * sizeof( uint16 ) )))
   \                     ??ZDO_ProcessMatchDescReq_6:
   \   0000C9   12....       LCALL   ?Subroutine80 & 0xFFFF
   \                     ??CrossCallReturnLabel_466:
   \   0000CC   8A..         MOV     ?V0 + 0,R2
   \   0000CE   6028         JZ      ??ZDO_ProcessMatchDescReq_7
   \   0000D0                ; Setup parameters for call to function osal_mem_alloc
   \   0000D0   C3           CLR     C
   \   0000D1   33           RLC     A
   \   0000D2   FA           MOV     R2,A
   \   0000D3   E4           CLR     A
   \   0000D4   33           RLC     A
   \   0000D5   FB           MOV     R3,A
   \   0000D6   12....       LCALL   ??osal_mem_alloc?relay
   \   0000D9   85..82       MOV     DPL,?XSP + 0
   \   0000DC   85..83       MOV     DPH,?XSP + 1
   \   0000DF   12....       LCALL   ?Subroutine25 & 0xFFFF
   \                     ??CrossCallReturnLabel_259:
   \   0000E2   7002         JNZ     ??ZDO_ProcessMatchDescReq_8
   \   0000E4   A3           INC     DPTR
   \   0000E5   E0           MOVX    A,@DPTR
   \                     ??ZDO_ProcessMatchDescReq_8:
   \   0000E6   6010         JZ      ??ZDO_ProcessMatchDescReq_7
    724            {
    725              msg = ZDO_ConvertOTAClusters( numOutClusters, msg, outClusters );
   \   0000E8                ; Setup parameters for call to function ZDO_ConvertOTAClusters
   \   0000E8   85..82       MOV     DPL,?XSP + 0
   \   0000EB   85..83       MOV     DPH,?XSP + 1
   \   0000EE   12....       LCALL   ?Subroutine76 & 0xFFFF
    726            }
   \                     ??CrossCallReturnLabel_115:
   \   0000F1   A9..         MOV     R1,?V0 + 0
   \   0000F3   12....       LCALL   ??ZDO_ConvertOTAClusters?relay
   \   0000F6   8003         SJMP    ??ZDO_ProcessMatchDescReq_9
    727            else
    728            {
    729              numOutClusters = 0;
   \                     ??ZDO_ProcessMatchDescReq_7:
   \   0000F8   75..00       MOV     ?V0 + 0,#0x0
    730            }
    731          
    732            // First count the number of endpoints that match.
    733            epDesc = epList;
   \                     ??ZDO_ProcessMatchDescReq_9:
   \   0000FB   90....       MOV     DPTR,#epList
   \   0000FE   804A         SJMP    ??ZDO_ProcessMatchDescReq_10
    734            while ( epDesc )
    735            {
    736              // Don't search endpoint 0 and check if response is allowed
    737              if ( epDesc->epDesc->endPoint != ZDO_EP && (epDesc->flags&eEP_AllowMatch) )
    738              {
    739                if ( epDesc->pfnDescCB )
    740                {
    741                  sDesc = (SimpleDescriptionFormat_t *)epDesc->pfnDescCB( AF_DESCRIPTOR_SIMPLE, epDesc->epDesc->endPoint );
    742                  allocated = TRUE;
    743                }
    744                else
    745                {
    746                  sDesc = epDesc->epDesc->simpleDesc;
    747                  allocated = FALSE;
    748                }
    749          
    750                if ( sDesc && sDesc->AppProfId == profileID )
    751                {
    752                  uint8 *uint8Buf = (uint8 *)ZDOBuildBuf;
    753          
    754                  // If there are no search input/ouput clusters - respond
    755                  if ( ((numInClusters == 0) && (numOutClusters == 0))
    756                      // Are there matching input clusters?
    757                       || (ZDO_AnyClusterMatches( numInClusters, inClusters,
    758                            sDesc->AppNumInClusters, sDesc->pAppInClusterList ))
    759                      // Are there matching output clusters?
    760                       || (ZDO_AnyClusterMatches( numOutClusters, outClusters,
    761                            sDesc->AppNumOutClusters, sDesc->pAppOutClusterList ))     )
    762                  {
    763                    // Notify the endpoint of the match.
    764                    uint8 bufLen = sizeof( ZDO_MatchDescRspSent_t ) + (numOutClusters + numInClusters) * sizeof(uint16);
    765                    ZDO_MatchDescRspSent_t *pRspSent = (ZDO_MatchDescRspSent_t *) osal_msg_allocate( bufLen );
    766          
    767                    if (pRspSent)
    768                    {
    769                      pRspSent->hdr.event = ZDO_MATCH_DESC_RSP_SENT;
    770                      pRspSent->nwkAddr = inMsg->srcAddr.addr.shortAddr;
    771                      pRspSent->numInClusters = numInClusters;
    772                      pRspSent->numOutClusters = numOutClusters;
    773          
    774                      if (numInClusters)
    775                      {
    776                        pRspSent->pInClusters = (uint16*) (pRspSent + 1);
    777                        osal_memcpy(pRspSent->pInClusters, inClusters, numInClusters * sizeof(uint16));
    778                      }
    779                      else
    780                      {
    781                        pRspSent->pInClusters = NULL;
    782                      }
    783          
    784                      if (numOutClusters)
    785                      {
    786                        pRspSent->pOutClusters = (uint16*)(pRspSent + 1) + numInClusters;
    787                        osal_memcpy(pRspSent->pOutClusters, outClusters, numOutClusters * sizeof(uint16));
    788                      }
    789                      else
    790                      {
    791                        pRspSent->pOutClusters = NULL;
   \                     ??ZDO_ProcessMatchDescReq_11:
   \   000100   E4           CLR     A
   \   000101   F0           MOVX    @DPTR,A
   \   000102   A3           INC     DPTR
   \   000103   F0           MOVX    @DPTR,A
    792                      }
    793          
    794                      osal_msg_send( *epDesc->epDesc->task_id, (uint8 *)pRspSent );
   \                     ??ZDO_ProcessMatchDescReq_12:
   \   000104                ; Setup parameters for call to function osal_msg_send
   \   000104   AA..         MOV     R2,?V0 + 2
   \   000106   AB..         MOV     R3,?V0 + 3
   \   000108   85..82       MOV     DPL,?V0 + 10
   \   00010B   85..83       MOV     DPH,?V0 + 11
   \   00010E   12....       LCALL   ?Subroutine138 & 0xFFFF
   \                     ??CrossCallReturnLabel_188:
   \   000111   12....       LCALL   ??Subroutine212_0 & 0xFFFF
   \                     ??CrossCallReturnLabel_315:
   \   000114   F9           MOV     R1,A
   \   000115   12....       LCALL   ??osal_msg_send?relay
    795                    }
    796          
    797                    uint8Buf[epCnt++] = sDesc->EndPoint;
   \                     ??ZDO_ProcessMatchDescReq_13:
   \   000118   85..82       MOV     DPL,?V0 + 8
   \   00011B   85..83       MOV     DPH,?V0 + 9
   \   00011E   E0           MOVX    A,@DPTR
   \   00011F   C0E0         PUSH    A
   \   000121   85....       MOV     ?V0 + 2,?V0 + 7
   \   000124   E5..         MOV     A,?V0 + 2
   \   000126   24..         ADD     A,#(ZDOBuildBuf & 0xff)
   \   000128   F582         MOV     DPL,A
   \   00012A   E4           CLR     A
   \   00012B   34..         ADDC    A,#((ZDOBuildBuf >> 8) & 0xff)
   \   00012D   F583         MOV     DPH,A
   \   00012F   D0E0         POP     A
   \   000131   F0           MOVX    @DPTR,A
   \   000132   05..         INC     ?V0 + 7
    798                  }
    799                }
    800          
    801                if ( allocated )
   \                     ??ZDO_ProcessMatchDescReq_14:
   \   000134   E5..         MOV     A,?V0 + 12
   \   000136   6007         JZ      ??ZDO_ProcessMatchDescReq_15
    802                  osal_mem_free( sDesc );
   \   000138                ; Setup parameters for call to function osal_mem_free
   \   000138   AA..         MOV     R2,?V0 + 8
   \   00013A   AB..         MOV     R3,?V0 + 9
   \   00013C   12....       LCALL   ??osal_mem_free?relay
    803              }
    804              epDesc = epDesc->nextDesc;
   \                     ??ZDO_ProcessMatchDescReq_15:
   \   00013F   85..82       MOV     DPL,?V0 + 10
   \   000142   85..83       MOV     DPH,?V0 + 11
   \   000145   A3           INC     DPTR
   \   000146   A3           INC     DPTR
   \   000147   A3           INC     DPTR
   \   000148   A3           INC     DPTR
   \   000149   A3           INC     DPTR
   \                     ??ZDO_ProcessMatchDescReq_10:
   \   00014A   E0           MOVX    A,@DPTR
   \   00014B   F5..         MOV     ?V0 + 10,A
   \   00014D   A3           INC     DPTR
   \   00014E   E0           MOVX    A,@DPTR
   \   00014F   F5..         MOV     ?V0 + 11,A
   \   000151   E5..         MOV     A,?V0 + 10
   \   000153   7002         JNZ     ??ZDO_ProcessMatchDescReq_16
   \   000155   E5..         MOV     A,?V0 + 11
   \                     ??ZDO_ProcessMatchDescReq_16:
   \   000157   7003         JNZ     $+5
   \   000159   02....       LJMP    ??ZDO_ProcessMatchDescReq_17 & 0xFFFF
   \   00015C   85..82       MOV     DPL,?V0 + 10
   \   00015F   85..83       MOV     DPH,?V0 + 11
   \   000162   12....       LCALL   ?Subroutine88 & 0xFFFF
   \                     ??CrossCallReturnLabel_135:
   \   000165   FA           MOV     R2,A
   \   000166   E9           MOV     A,R1
   \   000167   FB           MOV     R3,A
   \   000168   8A82         MOV     DPL,R2
   \   00016A   8B83         MOV     DPH,R3
   \   00016C   E0           MOVX    A,@DPTR
   \   00016D   60D0         JZ      ??ZDO_ProcessMatchDescReq_15
   \   00016F   85..82       MOV     DPL,?V0 + 10
   \   000172   85..83       MOV     DPH,?V0 + 11
   \   000175   A3           INC     DPTR
   \   000176   A3           INC     DPTR
   \   000177   E0           MOVX    A,@DPTR
   \   000178   A2E0         MOV     C,0xE0 /* A   */.0
   \   00017A   50C3         JNC     ??ZDO_ProcessMatchDescReq_15
   \   00017C   85..82       MOV     DPL,?V0 + 10
   \   00017F   85..83       MOV     DPH,?V0 + 11
   \   000182   A3           INC     DPTR
   \   000183   A3           INC     DPTR
   \   000184   A3           INC     DPTR
   \   000185   12....       LCALL   ?Subroutine88 & 0xFFFF
   \                     ??CrossCallReturnLabel_136:
   \   000188   FC           MOV     R4,A
   \   000189   E9           MOV     A,R1
   \   00018A   FD           MOV     R5,A
   \   00018B   EC           MOV     A,R4
   \   00018C   7001         JNZ     ??ZDO_ProcessMatchDescReq_18
   \   00018E   ED           MOV     A,R5
   \                     ??ZDO_ProcessMatchDescReq_18:
   \   00018F   8A82         MOV     DPL,R2
   \   000191   8B83         MOV     DPH,R3
   \   000193   6014         JZ      ??ZDO_ProcessMatchDescReq_19
   \   000195                ; Setup parameters for indirect call
   \   000195   E0           MOVX    A,@DPTR
   \   000196   FA           MOV     R2,A
   \   000197   7901         MOV     R1,#0x1
   \   000199   8C82         MOV     DPL,R4
   \   00019B   8D83         MOV     DPH,R5
   \   00019D   12....       LCALL   ?CALL_IND
   \   0001A0   8A..         MOV     ?V0 + 8,R2
   \   0001A2   8B..         MOV     ?V0 + 9,R3
   \   0001A4   75..01       MOV     ?V0 + 12,#0x1
   \   0001A7   800D         SJMP    ??ZDO_ProcessMatchDescReq_20
   \                     ??ZDO_ProcessMatchDescReq_19:
   \   0001A9   A3           INC     DPTR
   \   0001AA   A3           INC     DPTR
   \   0001AB   A3           INC     DPTR
   \   0001AC   E0           MOVX    A,@DPTR
   \   0001AD   F5..         MOV     ?V0 + 8,A
   \   0001AF   A3           INC     DPTR
   \   0001B0   E0           MOVX    A,@DPTR
   \   0001B1   F5..         MOV     ?V0 + 9,A
   \   0001B3   75..00       MOV     ?V0 + 12,#0x0
   \                     ??ZDO_ProcessMatchDescReq_20:
   \   0001B6   E5..         MOV     A,?V0 + 8
   \   0001B8   7002         JNZ     ??ZDO_ProcessMatchDescReq_21
   \   0001BA   E5..         MOV     A,?V0 + 9
   \                     ??ZDO_ProcessMatchDescReq_21:
   \   0001BC   7003         JNZ     $+5
   \   0001BE   02....       LJMP    ??ZDO_ProcessMatchDescReq_14 & 0xFFFF
   \   0001C1   85..82       MOV     DPL,?V0 + 8
   \   0001C4   85..83       MOV     DPH,?V0 + 9
   \   0001C7   A3           INC     DPTR
   \   0001C8   E0           MOVX    A,@DPTR
   \   0001C9   6E           XRL     A,R6
   \   0001CA   7003         JNZ     ??ZDO_ProcessMatchDescReq_22
   \   0001CC   A3           INC     DPTR
   \   0001CD   E0           MOVX    A,@DPTR
   \   0001CE   6F           XRL     A,R7
   \                     ??ZDO_ProcessMatchDescReq_22:
   \   0001CF   6003         JZ      $+5
   \   0001D1   02....       LJMP    ??ZDO_ProcessMatchDescReq_14 & 0xFFFF
   \   0001D4   E5..         MOV     A,?V0 + 1
   \   0001D6   7004         JNZ     ??ZDO_ProcessMatchDescReq_23
   \   0001D8   E5..         MOV     A,?V0 + 0
   \   0001DA   606F         JZ      ??ZDO_ProcessMatchDescReq_24
   \                     ??ZDO_ProcessMatchDescReq_23:
   \   0001DC                ; Setup parameters for call to function ZDO_AnyClusterMatches
   \   0001DC   85..82       MOV     DPL,?V0 + 8
   \   0001DF   85..83       MOV     DPH,?V0 + 9
   \   0001E2   A3           INC     DPTR
   \   0001E3   A3           INC     DPTR
   \   0001E4   A3           INC     DPTR
   \   0001E5   A3           INC     DPTR
   \   0001E6   A3           INC     DPTR
   \   0001E7   A3           INC     DPTR
   \   0001E8   A3           INC     DPTR
   \   0001E9   12....       LCALL   ?PUSH_XSTACK8_X_TWO
   \   0001EC   85..82       MOV     DPL,?V0 + 8
   \   0001EF   85..83       MOV     DPH,?V0 + 9
   \   0001F2   A3           INC     DPTR
   \   0001F3   A3           INC     DPTR
   \   0001F4   A3           INC     DPTR
   \   0001F5   A3           INC     DPTR
   \   0001F6   A3           INC     DPTR
   \   0001F7   A3           INC     DPTR
   \   0001F8   E0           MOVX    A,@DPTR
   \   0001F9   FC           MOV     R4,A
   \   0001FA   7404         MOV     A,#0x4
   \   0001FC   12....       LCALL   ?XSTACK_DISP0_8
   \   0001FF   12....       LCALL   ??Subroutine217_0 & 0xFFFF
   \                     ??CrossCallReturnLabel_338:
   \   000202   A9..         MOV     R1,?V0 + 1
   \   000204   12....       LCALL   ??ZDO_AnyClusterMatches?relay
   \   000207   7402         MOV     A,#0x2
   \   000209   12....       LCALL   ?DEALLOC_XSTACK8
   \   00020C   E9           MOV     A,R1
   \   00020D   703C         JNZ     ??ZDO_ProcessMatchDescReq_24
   \   00020F                ; Setup parameters for call to function ZDO_AnyClusterMatches
   \   00020F   85..82       MOV     DPL,?V0 + 8
   \   000212   85..83       MOV     DPH,?V0 + 9
   \   000215   A3           INC     DPTR
   \   000216   A3           INC     DPTR
   \   000217   A3           INC     DPTR
   \   000218   A3           INC     DPTR
   \   000219   A3           INC     DPTR
   \   00021A   A3           INC     DPTR
   \   00021B   A3           INC     DPTR
   \   00021C   A3           INC     DPTR
   \   00021D   A3           INC     DPTR
   \   00021E   A3           INC     DPTR
   \   00021F   12....       LCALL   ?PUSH_XSTACK8_X_TWO
   \   000222   85..82       MOV     DPL,?V0 + 8
   \   000225   85..83       MOV     DPH,?V0 + 9
   \   000228   A3           INC     DPTR
   \   000229   A3           INC     DPTR
   \   00022A   A3           INC     DPTR
   \   00022B   A3           INC     DPTR
   \   00022C   A3           INC     DPTR
   \   00022D   A3           INC     DPTR
   \   00022E   A3           INC     DPTR
   \   00022F   A3           INC     DPTR
   \   000230   A3           INC     DPTR
   \   000231   E0           MOVX    A,@DPTR
   \   000232   FC           MOV     R4,A
   \   000233   7402         MOV     A,#0x2
   \   000235   12....       LCALL   ?XSTACK_DISP0_8
   \   000238   12....       LCALL   ??Subroutine217_0 & 0xFFFF
   \                     ??CrossCallReturnLabel_339:
   \   00023B   A9..         MOV     R1,?V0 + 0
   \   00023D   12....       LCALL   ??ZDO_AnyClusterMatches?relay
   \   000240   7402         MOV     A,#0x2
   \   000242   12....       LCALL   ?DEALLOC_XSTACK8
   \   000245   E9           MOV     A,R1
   \   000246   7003         JNZ     $+5
   \   000248   02....       LJMP    ??ZDO_ProcessMatchDescReq_14 & 0xFFFF
   \                     ??ZDO_ProcessMatchDescReq_24:
   \   00024B                ; Setup parameters for call to function osal_msg_allocate
   \   00024B   E5..         MOV     A,?V0 + 1
   \   00024D   25..         ADD     A,?V0 + 0
   \   00024F   C3           CLR     C
   \   000250   33           RLC     A
   \   000251   240A         ADD     A,#0xa
   \   000253   FA           MOV     R2,A
   \   000254   7B00         MOV     R3,#0x0
   \   000256   12....       LCALL   ??osal_msg_allocate?relay
   \   000259   8A..         MOV     ?V0 + 2,R2
   \   00025B   8B..         MOV     ?V0 + 3,R3
   \   00025D   EA           MOV     A,R2
   \   00025E   7001         JNZ     ??ZDO_ProcessMatchDescReq_25
   \   000260   EB           MOV     A,R3
   \                     ??ZDO_ProcessMatchDescReq_25:
   \   000261   7003         JNZ     $+5
   \   000263   02....       LJMP    ??ZDO_ProcessMatchDescReq_13 & 0xFFFF
   \   000266   74D2         MOV     A,#-0x2e
   \   000268   8A82         MOV     DPL,R2
   \   00026A   8B83         MOV     DPH,R3
   \   00026C   F0           MOVX    @DPTR,A
   \   00026D   85..82       MOV     DPL,?V0 + 14
   \   000270   85..83       MOV     DPH,?V0 + 15
   \   000273   A3           INC     DPTR
   \   000274   A3           INC     DPTR
   \   000275   12....       LCALL   ??Subroutine206_0 & 0xFFFF
   \                     ??CrossCallReturnLabel_293:
   \   000278   8A82         MOV     DPL,R2
   \   00027A   8B83         MOV     DPH,R3
   \   00027C   A3           INC     DPTR
   \   00027D   A3           INC     DPTR
   \   00027E   E8           MOV     A,R0
   \   00027F   F0           MOVX    @DPTR,A
   \   000280   A3           INC     DPTR
   \   000281   E9           MOV     A,R1
   \   000282   12....       LCALL   ?Subroutine14 & 0xFFFF
   \                     ??CrossCallReturnLabel_17:
   \   000285   12....       LCALL   ?Subroutine7 & 0xFFFF
   \                     ??CrossCallReturnLabel_552:
   \   000288   E5..         MOV     A,?V0 + 0
   \   00028A   F0           MOVX    @DPTR,A
   \   00028B   EA           MOV     A,R2
   \   00028C   2405         ADD     A,#0x5
   \   00028E   FA           MOV     R2,A
   \   00028F   EB           MOV     A,R3
   \   000290   3400         ADDC    A,#0x0
   \   000292   FB           MOV     R3,A
   \   000293   E5..         MOV     A,?V0 + 1
   \   000295   6034         JZ      ??ZDO_ProcessMatchDescReq_26
   \   000297   E5..         MOV     A,?V0 + 2
   \   000299   240A         ADD     A,#0xa
   \   00029B   F8           MOV     R0,A
   \   00029C   E5..         MOV     A,?V0 + 3
   \   00029E   3400         ADDC    A,#0x0
   \   0002A0   F9           MOV     R1,A
   \   0002A1   8A82         MOV     DPL,R2
   \   0002A3   8B83         MOV     DPH,R3
   \   0002A5   12....       LCALL   ??Subroutine203_0 & 0xFFFF
   \                     ??CrossCallReturnLabel_275:
   \   0002A8                ; Setup parameters for call to function osal_memcpy
   \   0002A8   7402         MOV     A,#0x2
   \   0002AA   12....       LCALL   ?XSTACK_DISP0_8
   \   0002AD   E0           MOVX    A,@DPTR
   \   0002AE   12....       LCALL   ?Subroutine90 & 0xFFFF
   \                     ??CrossCallReturnLabel_139:
   \   0002B1   12....       LCALL   ?PUSH_XSTACK_I_THREE
   \   0002B4   E5..         MOV     A,?V0 + 1
   \   0002B6   C3           CLR     C
   \   0002B7   33           RLC     A
   \   0002B8   FC           MOV     R4,A
   \   0002B9   E4           CLR     A
   \   0002BA   33           RLC     A
   \   0002BB   FD           MOV     R5,A
   \   0002BC   8A82         MOV     DPL,R2
   \   0002BE   8B83         MOV     DPH,R3
   \   0002C0   12....       LCALL   ??Subroutine217_0 & 0xFFFF
   \                     ??CrossCallReturnLabel_340:
   \   0002C3   12....       LCALL   ?Subroutine175 & 0xFFFF
   \                     ??CrossCallReturnLabel_445:
   \   0002C6   12....       LCALL   ?DEALLOC_XSTACK8
   \   0002C9   8008         SJMP    ??ZDO_ProcessMatchDescReq_27
   \                     ??ZDO_ProcessMatchDescReq_26:
   \   0002CB   8A82         MOV     DPL,R2
   \   0002CD   8B83         MOV     DPH,R3
   \   0002CF   E4           CLR     A
   \   0002D0   F0           MOVX    @DPTR,A
   \   0002D1   A3           INC     DPTR
   \   0002D2   F0           MOVX    @DPTR,A
   \                     ??ZDO_ProcessMatchDescReq_27:
   \   0002D3   E5..         MOV     A,?V0 + 2
   \   0002D5   2408         ADD     A,#0x8
   \   0002D7   F582         MOV     DPL,A
   \   0002D9   E5..         MOV     A,?V0 + 3
   \   0002DB   12....       LCALL   ??Subroutine240_0 & 0xFFFF
   \                     ??CrossCallReturnLabel_483:
   \   0002DE   E5..         MOV     A,?V0 + 0
   \   0002E0   7003         JNZ     $+5
   \   0002E2   02....       LJMP    ??ZDO_ProcessMatchDescReq_11 & 0xFFFF
   \   0002E5   E5..         MOV     A,?V0 + 1
   \   0002E7   C3           CLR     C
   \   0002E8   33           RLC     A
   \   0002E9   F8           MOV     R0,A
   \   0002EA   E4           CLR     A
   \   0002EB   33           RLC     A
   \   0002EC   F9           MOV     R1,A
   \   0002ED   E5..         MOV     A,?V0 + 2
   \   0002EF   28           ADD     A,R0
   \   0002F0   F8           MOV     R0,A
   \   0002F1   E5..         MOV     A,?V0 + 3
   \   0002F3   39           ADDC    A,R1
   \   0002F4   F9           MOV     R1,A
   \   0002F5   740A         MOV     A,#0xa
   \   0002F7   28           ADD     A,R0
   \   0002F8   FA           MOV     R2,A
   \   0002F9   E4           CLR     A
   \   0002FA   39           ADDC    A,R1
   \   0002FB   FB           MOV     R3,A
   \   0002FC   12....       LCALL   ?Subroutine25 & 0xFFFF
    805            }
   \                     ??CrossCallReturnLabel_257:
   \   0002FF   12....       LCALL   ?Subroutine90 & 0xFFFF
   \                     ??CrossCallReturnLabel_140:
   \   000302   12....       LCALL   ?PUSH_XSTACK_I_THREE
   \   000305   E5..         MOV     A,?V0 + 0
   \   000307   C3           CLR     C
   \   000308   33           RLC     A
   \   000309   FC           MOV     R4,A
   \   00030A   E4           CLR     A
   \   00030B   33           RLC     A
   \   00030C   FD           MOV     R5,A
   \   00030D   12....       LCALL   ?Subroutine175 & 0xFFFF
   \                     ??CrossCallReturnLabel_446:
   \   000310   12....       LCALL   ?DEALLOC_XSTACK8
   \   000313   02....       LJMP    ??ZDO_ProcessMatchDescReq_12 & 0xFFFF
    806          
    807          /********************** Send the message only if at least one match found. **********************/
    808            if ( epCnt )
   \                     ??ZDO_ProcessMatchDescReq_17:
   \   000316   E5..         MOV     A,?V0 + 7
   \   000318   6037         JZ      ??ZDO_ProcessMatchDescReq_28
    809            {
    810              if ( ZSuccess == ZDP_MatchDescRsp( inMsg->TransSeq, &(inMsg->srcAddr), ZDP_SUCCESS,
    811                        ZDAppNwkAddr.addr.shortAddr, epCnt, (uint8 *)ZDOBuildBuf, inMsg->SecurityUse ) )
   \   00031A                ; Setup parameters for call to function ZDP_EPRsp
   \   00031A   12....       LCALL   ?Subroutine71 & 0xFFFF
   \                     ??CrossCallReturnLabel_329:
   \   00031D   12....       LCALL   ?PUSH_XSTACK_I_ONE
   \   000320   75....       MOV     ?V0 + 0,#(ZDOBuildBuf & 0xff)
   \   000323   75....       MOV     ?V0 + 1,#((ZDOBuildBuf >> 8) & 0xff)
   \   000326   78..         MOV     R0,#?V0 + 0
   \   000328   12....       LCALL   ?PUSH_XSTACK_I_TWO
   \   00032B   E5..         MOV     A,?V0 + 7
   \   00032D   F5..         MOV     ?V0 + 0,A
   \   00032F   78..         MOV     R0,#?V0 + 0
   \   000331   12....       LCALL   ?PUSH_XSTACK_I_ONE
   \   000334   90....       MOV     DPTR,#ZDAppNwkAddr
   \   000337   12....       LCALL   ?PUSH_XSTACK8_X_TWO
   \   00033A   75..00       MOV     ?V0 + 0,#0x0
   \   00033D   78..         MOV     R0,#?V0 + 0
   \   00033F   12....       LCALL   ?PUSH_XSTACK_I_ONE
   \   000342   12....       LCALL   ?Subroutine70 & 0xFFFF
   \                     ??CrossCallReturnLabel_109:
   \   000345   12....       LCALL   ?DEALLOC_XSTACK8
   \   000348   E9           MOV     A,R1
   \   000349   7011         JNZ     ??ZDO_ProcessMatchDescReq_29
    812              {      
    813          #if defined( LCD_SUPPORTED )
    814                HalLcdWriteScreen( "Match Desc Req", "Rsp Sent" );
   \   00034B                ; Setup parameters for call to function HalLcdWriteScreen
   \   00034B   7C..         MOV     R4,#(`?<Constant "Rsp Sent">` & 0xff)
   \   00034D   7D..         MOV     R5,#((`?<Constant "Rsp Sent">` >> 8) & 0xff)
   \   00034F   8004         SJMP    ??ZDO_ProcessMatchDescReq_30
    815          #endif
    816              }
    817            }
    818            else
    819            {
    820          #if defined( LCD_SUPPORTED )
    821              HalLcdWriteScreen( "Match Desc Req", "Non Matched" );
   \                     ??ZDO_ProcessMatchDescReq_28:
   \   000351                ; Setup parameters for call to function HalLcdWriteScreen
   \   000351   7C..         MOV     R4,#(`?<Constant "Non Matched">` & 0xff)
   \   000353   7D..         MOV     R5,#((`?<Constant "Non Matched">` >> 8) & 0xff)
   \                     ??ZDO_ProcessMatchDescReq_30:
   \   000355   7A..         MOV     R2,#(`?<Constant "Match Desc Req">` & 0xff)
   \   000357   7B..         MOV     R3,#((`?<Constant "Match Desc Req">` >> 8) & 0xff)
   \   000359   12....       LCALL   ??HalLcdWriteScreen?relay
    822          #endif
    823            }
    824          
    825            if ( inClusters != NULL )
   \                     ??ZDO_ProcessMatchDescReq_29:
   \   00035C   7402         MOV     A,#0x2
   \   00035E   12....       LCALL   ?XSTACK_DISP0_8
   \   000361   E0           MOVX    A,@DPTR
   \   000362   7002         JNZ     ??ZDO_ProcessMatchDescReq_31
   \   000364   A3           INC     DPTR
   \   000365   E0           MOVX    A,@DPTR
   \                     ??ZDO_ProcessMatchDescReq_31:
   \   000366   6008         JZ      ??CrossCallReturnLabel_359
    826              osal_mem_free( inClusters );
   \   000368                ; Setup parameters for call to function osal_mem_free
   \   000368   7402         MOV     A,#0x2
   \   00036A   12....       LCALL   ?XSTACK_DISP0_8
   \   00036D   12....       LCALL   ??Subroutine221_0 & 0xFFFF
    827            if ( outClusters != NULL )
   \                     ??CrossCallReturnLabel_359:
   \   000370   85..82       MOV     DPL,?XSP + 0
   \   000373   85..83       MOV     DPH,?XSP + 1
   \   000376   E0           MOVX    A,@DPTR
   \   000377   7002         JNZ     ??ZDO_ProcessMatchDescReq_32
   \   000379   A3           INC     DPTR
   \   00037A   E0           MOVX    A,@DPTR
   \                     ??ZDO_ProcessMatchDescReq_32:
   \   00037B   6003         JZ      ??CrossCallReturnLabel_358
    828              osal_mem_free( outClusters );
   \   00037D                ; Setup parameters for call to function osal_mem_free
   \   00037D   12....       LCALL   ?Subroutine49 & 0xFFFF
   \                     ??CrossCallReturnLabel_358:
   \   000380   7404         MOV     A,#0x4
   \   000382                REQUIRE ?Subroutine184
   \   000382                ; // Fall through to label ?Subroutine184
    829          }

   \                                 In  segment BANKED_CODE, align 1, keep-with-next
   \                     ?Subroutine184:
   \   000000   12....       LCALL   ?DEALLOC_XSTACK8
   \   000003                REQUIRE ??Subroutine196_0
   \   000003                ; // Fall through to label ??Subroutine196_0

   \                                 In  segment BANKED_CODE, align 1, keep-with-next
   \                     ??Subroutine196_0:
   \   000000   7F10         MOV     R7,#0x10
   \   000002   02....       LJMP    ?BANKED_LEAVE_XDATA

   \                                 In  segment BANKED_CODE, align 1, keep-with-next
   \                     ?Subroutine90:
   \   000000   F5..         MOV     ?V0 + 4,A
   \   000002   A3           INC     DPTR
   \   000003   E0           MOVX    A,@DPTR
   \   000004   F5..         MOV     ?V0 + 5,A
   \   000006   75..00       MOV     ?V0 + 6,#0x0
   \   000009   78..         MOV     R0,#?V0 + 4
   \   00000B   22           RET

   \                                 In  segment BANKED_CODE, align 1, keep-with-next
   \                     ?Subroutine80:
   \   000000   85..82       MOV     DPL,?V0 + 2
   \   000003   85..83       MOV     DPH,?V0 + 3
   \   000006   E0           MOVX    A,@DPTR
   \   000007   FA           MOV     R2,A
   \   000008   02....       LJMP    ?Subroutine169 & 0xFFFF

   \                                 In  segment BANKED_CODE, align 1, keep-with-next
   \                     ?Subroutine76:
   \   000000   E0           MOVX    A,@DPTR
   \   000001   FC           MOV     R4,A
   \   000002   A3           INC     DPTR
   \   000003   E0           MOVX    A,@DPTR
   \   000004   FD           MOV     R5,A
   \   000005   AA..         MOV     R2,?V0 + 2
   \   000007   AB..         MOV     R3,?V0 + 3
   \   000009   22           RET

   \                                 In  segment BANKED_CODE, align 1, keep-with-next
   \                     ?Subroutine70:
   \   000000   E5..         MOV     A,?V0 + 14
   \   000002   2402         ADD     A,#0x2
   \   000004   FC           MOV     R4,A
   \   000005   E5..         MOV     A,?V0 + 15
   \   000007   3400         ADDC    A,#0x0
   \   000009   FD           MOV     R5,A
   \   00000A   E5..         MOV     A,?V0 + 14
   \   00000C   240F         ADD     A,#0xf
   \   00000E   F582         MOV     DPL,A
   \   000010   E5..         MOV     A,?V0 + 15
   \   000012   12....       LCALL   ?Subroutine141 & 0xFFFF
   \                     ??CrossCallReturnLabel_374:
   \   000015   7A06         MOV     R2,#0x6
   \   000017   7B80         MOV     R3,#-0x80
   \   000019   12....       LCALL   ??ZDP_EPRsp?relay
   \   00001C   7407         MOV     A,#0x7
   \   00001E   22           RET

   \                                 In  segment BANKED_CODE, align 1, keep-with-next
   \                     ?Subroutine25:
   \   000000   EA           MOV     A,R2
   \   000001   F0           MOVX    @DPTR,A
   \   000002   A3           INC     DPTR
   \   000003   EB           MOV     A,R3
   \   000004                REQUIRE ??Subroutine197_0
   \   000004                ; // Fall through to label ??Subroutine197_0

   \                                 In  segment BANKED_CODE, align 1, keep-with-next
   \                     ??Subroutine197_0:
   \   000000   12....       LCALL   ?Subroutine124 & 0xFFFF
   \                     ??CrossCallReturnLabel_261:
   \   000003   E0           MOVX    A,@DPTR
   \   000004   22           RET

   \                                 In  segment BANKED_CODE, align 1, keep-with-next
   \                     ?Subroutine7:
   \   000000   A3           INC     DPTR
   \   000001   E5..         MOV     A,?V0 + 1
   \   000003                REQUIRE ??Subroutine198_0
   \   000003                ; // Fall through to label ??Subroutine198_0

   \                                 In  segment BANKED_CODE, align 1, keep-with-next
   \                     ??Subroutine198_0:
   \   000000   12....       LCALL   ?Subroutine127 & 0xFFFF
   \                     ??CrossCallReturnLabel_263:
   \   000003   02....       LJMP    ??Subroutine249_0 & 0xFFFF

   \                                 In  segment BANKED_CODE, align 1, keep-with-next
   \                     ??Subroutine203_0:
   \   000000   E8           MOV     A,R0
   \   000001                REQUIRE ??Subroutine204_0
   \   000001                ; // Fall through to label ??Subroutine204_0

   \                                 In  segment BANKED_CODE, align 1, keep-with-next
   \                     ??Subroutine204_0:
   \   000000   F0           MOVX    @DPTR,A
   \   000001   A3           INC     DPTR
   \   000002   E9           MOV     A,R1
   \   000003   F0           MOVX    @DPTR,A
   \   000004   22           RET

   \                                 In  segment BANKED_CODE, align 1, keep-with-next
   \                     ?Subroutine175:
   \   000000   12....       LCALL   ??osal_memcpy?relay
   \   000003   7403         MOV     A,#0x3
   \   000005   22           RET

   \                                 In  segment BANKED_CODE, align 1, keep-with-next
   \                     ?Subroutine71:
   \   000000   E5..         MOV     A,?V0 + 14
   \   000002   240E         ADD     A,#0xe
   \   000004   F582         MOV     DPL,A
   \   000006   E5..         MOV     A,?V0 + 15
   \   000008                REQUIRE ?Subroutine172
   \   000008                REQUIRE ??Subroutine214_0
   \   000008                ; // Fall through to label ??Subroutine214_0

   \                                 In  segment BANKED_CODE, align 1, keep-with-next
   \                     ??Subroutine214_0:
   \   000000   12....       LCALL   ??Subroutine243_0 & 0xFFFF
   \                     ??CrossCallReturnLabel_524:
   \   000003                REQUIRE ?Subroutine172
   \   000003                ; // Fall through to label ?Subroutine172

   \                                 In  segment BANKED_CODE, align 1, keep-with-next
   \                     ?Subroutine172:
   \   000000   E0           MOVX    A,@DPTR
   \   000001   F5..         MOV     ?V0 + 0,A
   \   000003   78..         MOV     R0,#?V0 + 0
   \   000005   22           RET

   \                                 In  segment BANKED_CODE, align 1, keep-with-next
   \                     ??Subroutine217_0:
   \   000000   12....       LCALL   ??Subroutine233_0 & 0xFFFF
   \                     ??CrossCallReturnLabel_436:
   \   000003   22           RET

   \                                 In  segment BANKED_CODE, align 1, keep-with-next
   \                     ?Subroutine138:
   \   000000   12....       LCALL   ?Subroutine159 & 0xFFFF
   \                     ??CrossCallReturnLabel_321:
   \   000003   A3           INC     DPTR
   \   000004   22           RET

   \                                 In  segment BANKED_CODE, align 1, keep-with-next
   \                     ?Subroutine4:
   \   000000   A3           INC     DPTR
   \   000001   F0           MOVX    @DPTR,A
   \   000002   12....       LCALL   ?Subroutine139 & 0xFFFF
   \                     ??CrossCallReturnLabel_190:
   \   000005   E0           MOVX    A,@DPTR
   \   000006   F5..         MOV     ?V0 + 2,A
   \   000008   A3           INC     DPTR
   \   000009   E0           MOVX    A,@DPTR
   \   00000A   F5..         MOV     ?V0 + 3,A
   \   00000C   85..82       MOV     DPL,?V0 + 2
   \   00000F   F583         MOV     DPH,A
   \   000011   12....       LCALL   ??Subroutine200_0 & 0xFFFF
   \                     ??CrossCallReturnLabel_546:
   \   000014   22           RET

   \                                 In  segment BANKED_CODE, align 1, keep-with-next
   \                     ?Subroutine165:
   \   000000   EA           MOV     A,R2
   \   000001   2413         ADD     A,#0x13
   \   000003   F582         MOV     DPL,A
   \   000005   EB           MOV     A,R3
   \   000006   22           RET

   \                                 In  segment BANKED_CODE, align 1, keep-with-next
   \                     ?Subroutine155:
   \   000000   F0           MOVX    @DPTR,A
   \   000001   8A82         MOV     DPL,R2
   \   000003   8B83         MOV     DPH,R3
   \   000005   A3           INC     DPTR
   \   000006   22           RET

   \                                 In  segment BANKED_CODE, align 1, keep-with-next
   \                     ?Subroutine14:
   \   000000   12....       LCALL   ?Subroutine127 & 0xFFFF
   \                     ??CrossCallReturnLabel_264:
   \   000003   22           RET

   \                                 In  segment BANKED_CODE, align 1, keep-with-next
   \                     ?Subroutine127:
   \   000000   12....       LCALL   ?Subroutine155 & 0xFFFF
   \                     ??CrossCallReturnLabel_266:
   \   000003   A3           INC     DPTR
   \   000004   A3           INC     DPTR
   \   000005   22           RET

   \                                 In  segment BANKED_CODE, align 1, keep-with-next
   \                     ??Subroutine240_0:
   \   000000   12....       LCALL   ??Subroutine243_0 & 0xFFFF
   \                     ??CrossCallReturnLabel_526:
   \   000003   22           RET

   \                                 In  segment BANKED_CODE, align 1, keep-with-next
   \                     ?Subroutine169:
   \   000000   A3           INC     DPTR
   \   000001   8582..       MOV     ?V0 + 2,DPL
   \   000004   8583..       MOV     ?V0 + 3,DPH
   \   000007   22           RET

   \                                 In  segment BANKED_CODE, align 1, keep-with-next
   \                     ?Subroutine162:
   \   000000   F5..         MOV     ?V0 + 2,A
   \   000002   E5..         MOV     A,?V0 + 3
   \   000004                REQUIRE ??Subroutine242_0
   \   000004                ; // Fall through to label ??Subroutine242_0

   \                                 In  segment BANKED_CODE, align 1, keep-with-next
   \                     ??Subroutine242_0:
   \   000000   3400         ADDC    A,#0x0
   \   000002   F5..         MOV     ?V0 + 3,A
   \   000004   22           RET

   \                                 In  segment BANKED_CODE, align 1, keep-with-next
   \                     ?Subroutine139:
   \   000000   12....       LCALL   ?Subroutine160 & 0xFFFF
   \                     ??CrossCallReturnLabel_521:
   \   000003   22           RET

   \                                 In  segment BANKED_CODE, align 1, keep-with-next
   \                     ?Subroutine160:
   \   000000   12....       LCALL   ?Subroutine165 & 0xFFFF
   \                     ??CrossCallReturnLabel_226:
   \   000003                REQUIRE ??Subroutine243_0
   \   000003                ; // Fall through to label ??Subroutine243_0

   \                                 In  segment BANKED_CODE, align 1, keep-with-next
   \                     ?Subroutine79:
   \   000000   A3           INC     DPTR
   \   000001   E0           MOVX    A,@DPTR
   \   000002   FA           MOV     R2,A
   \   000003   85..82       MOV     DPL,?V0 + 2
   \   000006   85..83       MOV     DPH,?V0 + 3
   \   000009   A3           INC     DPTR
   \   00000A   22           RET

   \                                 In  segment BANKED_CODE, align 1, keep-with-next
   \                     ?Subroutine88:
   \   000000   12....       LCALL   ?Subroutine135 & 0xFFFF
   \                     ??CrossCallReturnLabel_414:
   \   000003   E8           MOV     A,R0
   \   000004   22           RET

   \                                 In  segment BANKED_CODE, align 1, keep-with-next
   \                     ??Subroutine249_0:
   \   000000   A3           INC     DPTR
   \   000001   A3           INC     DPTR
   \   000002   A3           INC     DPTR
   \   000003   A3           INC     DPTR
   \   000004   22           RET
    830          /*********************************************************************************************/
    831          
    832          /*********************************************************************
    833           * @fn      ZDO_ProcessBindUnbindReq()
    834           * @brief   Called to process a Bind or Unbind Request message.
    835           * @param   inMsg  - incoming message (request)
    836           * @param   pReq - place to put parsed information
    837           */

   \                                 In  segment BANKED_CODE, align 1, keep-with-next
    838          void ZDO_ProcessBindUnbindReq( zdoIncomingMsg_t *inMsg, ZDO_BindUnbindReq_t *pReq )
   \                     ZDO_ProcessBindUnbindReq:
    839          {
   \   000000   74EA         MOV     A,#-0x16
   \   000002   12....       LCALL   ?BANKED_ENTER_XDATA
   \   000005                ; Saved register size: 22
   \   000005                ; Auto size: 12
   \   000005   74F4         MOV     A,#-0xc
   \   000007   12....       LCALL   ?ALLOC_XSTACK8
   \   00000A   8A..         MOV     ?V0 + 6,R2
   \   00000C   8B..         MOV     ?V0 + 7,R3
   \   00000E   EC           MOV     A,R4
   \   00000F   FE           MOV     R6,A
   \   000010   ED           MOV     A,R5
   \   000011   FF           MOV     R7,A
    840            zAddrType_t SourceAddr;       // Binding Source addres
    841            byte bindStat;
    842          
    843            SourceAddr.addrMode = Addr64Bit;
   \   000012   740B         MOV     A,#0xb
   \   000014   12....       LCALL   ?XSTACK_DISP0_8
   \   000017   7403         MOV     A,#0x3
   \   000019   F0           MOVX    @DPTR,A
    844            osal_cpyExtAddr( SourceAddr.addr.extAddr, pReq->srcAddress );
   \   00001A                ; Setup parameters for call to function sAddrExtCpy
   \   00001A   12....       LCALL   ?XSTACK_DISP0_8
   \   00001D   AA82         MOV     R2,DPL
   \   00001F   AB83         MOV     R3,DPH
   \   000021   12....       LCALL   ??sAddrExtCpy?relay
    845          
    846          
    847            // If the local device is not the primary binding cache
    848            // check the src address of the bind request.
    849            // If it is not the local device's extended address
    850            // discard the request.
    851            if ( !osal_ExtAddrEqual( SourceAddr.addr.extAddr, NLME_GetExtAddr()) ||
    852                  (pReq->dstAddress.addrMode != Addr64Bit &&
    853                   pReq->dstAddress.addrMode != AddrGroup) )
   \   000024   E5..         MOV     A,?V0 + 6
   \   000026   240C         ADD     A,#0xc
   \   000028   F5..         MOV     ?V0 + 10,A
   \   00002A   E5..         MOV     A,?V0 + 7
   \   00002C   3400         ADDC    A,#0x0
   \   00002E   F5..         MOV     ?V0 + 11,A
   \   000030                ; Setup parameters for call to function sAddrExtCmp
   \   000030                ; Setup parameters for call to function NLME_GetExtAddr
   \   000030   12....       LCALL   ??NLME_GetExtAddr?relay
   \   000033   EA           MOV     A,R2
   \   000034   FC           MOV     R4,A
   \   000035   EB           MOV     A,R3
   \   000036   FD           MOV     R5,A
   \   000037   7403         MOV     A,#0x3
   \   000039   12....       LCALL   ?XSTACK_DISP0_8
   \   00003C   AA82         MOV     R2,DPL
   \   00003E   AB83         MOV     R3,DPH
   \   000040   12....       LCALL   ??sAddrExtCmp?relay
   \   000043   E9           MOV     A,R1
   \   000044   6012         JZ      ??ZDO_ProcessBindUnbindReq_0
   \   000046   EE           MOV     A,R6
   \   000047   2413         ADD     A,#0x13
   \   000049   12....       LCALL   ?Subroutine107 & 0xFFFF
   \                     ??CrossCallReturnLabel_154:
   \   00004C   E0           MOVX    A,@DPTR
   \   00004D   FA           MOV     R2,A
   \   00004E   7403         MOV     A,#0x3
   \   000050   6A           XRL     A,R2
   \   000051   600A         JZ      ??ZDO_ProcessBindUnbindReq_1
   \   000053   7401         MOV     A,#0x1
   \   000055   6A           XRL     A,R2
   \   000056   6005         JZ      ??ZDO_ProcessBindUnbindReq_1
    854            {
    855              bindStat = ZDP_NOT_SUPPORTED;
   \                     ??ZDO_ProcessBindUnbindReq_0:
   \   000058   7484         MOV     A,#-0x7c
   \   00005A   02....       LJMP    ??ZDO_ProcessBindUnbindReq_2 & 0xFFFF
    856            }
    857            else
    858            {
    859              // Check source & destination endpoints
    860              if ( (pReq->srcEndpoint == 0 || pReq->srcEndpoint > MAX_ENDPOINTS)
    861                  || (( pReq->dstAddress.addrMode == Addr64Bit ) &&
    862                      (pReq->dstEndpoint == 0 || pReq->dstEndpoint > MAX_ENDPOINTS)) )
   \                     ??ZDO_ProcessBindUnbindReq_1:
   \   00005D   EE           MOV     A,R6
   \   00005E   2408         ADD     A,#0x8
   \   000060   12....       LCALL   ?Subroutine108 & 0xFFFF
   \                     ??CrossCallReturnLabel_156:
   \   000063   E0           MOVX    A,@DPTR
   \   000064   F9           MOV     R1,A
   \   000065   6021         JZ      ??ZDO_ProcessBindUnbindReq_3
   \   000067   C3           CLR     C
   \   000068   94F1         SUBB    A,#-0xf
   \   00006A   501C         JNC     ??ZDO_ProcessBindUnbindReq_3
   \   00006C   EE           MOV     A,R6
   \   00006D   2414         ADD     A,#0x14
   \   00006F   F5..         MOV     ?V0 + 2,A
   \   000071   EF           MOV     A,R7
   \   000072   12....       LCALL   ??Subroutine242_0 & 0xFFFF
   \                     ??CrossCallReturnLabel_512:
   \   000075   7403         MOV     A,#0x3
   \   000077   6A           XRL     A,R2
   \   000078   7013         JNZ     ??ZDO_ProcessBindUnbindReq_4
   \   00007A   85..82       MOV     DPL,?V0 + 2
   \   00007D   85..83       MOV     DPH,?V0 + 3
   \   000080   E0           MOVX    A,@DPTR
   \   000081   6005         JZ      ??ZDO_ProcessBindUnbindReq_3
   \   000083   C3           CLR     C
   \   000084   94F1         SUBB    A,#-0xf
   \   000086   4005         JC      ??ZDO_ProcessBindUnbindReq_4
    863              {
    864                bindStat = ZDP_INVALID_EP;
   \                     ??ZDO_ProcessBindUnbindReq_3:
   \   000088   7482         MOV     A,#-0x7e
   \   00008A   02....       LJMP    ??ZDO_ProcessBindUnbindReq_2 & 0xFFFF
    865              }
    866              else
    867              {
    868                if ( inMsg->clusterID == Bind_req )
   \                     ??ZDO_ProcessBindUnbindReq_4:
   \   00008D   EE           MOV     A,R6
   \   00008E   2409         ADD     A,#0x9
   \   000090   12....       LCALL   ?Subroutine101 & 0xFFFF
   \                     ??CrossCallReturnLabel_475:
   \   000093   EE           MOV     A,R6
   \   000094   240B         ADD     A,#0xb
   \   000096   FE           MOV     R6,A
   \   000097   EF           MOV     A,R7
   \   000098   3400         ADDC    A,#0x0
   \   00009A   FF           MOV     R7,A
   \   00009B   85..82       MOV     DPL,?V0 + 10
   \   00009E   85..83       MOV     DPH,?V0 + 11
   \   0000A1   E0           MOVX    A,@DPTR
   \   0000A2   6421         XRL     A,#0x21
   \   0000A4   7002         JNZ     ??ZDO_ProcessBindUnbindReq_5
   \   0000A6   A3           INC     DPTR
   \   0000A7   E0           MOVX    A,@DPTR
   \                     ??ZDO_ProcessBindUnbindReq_5:
   \   0000A8   707C         JNZ     ??ZDO_ProcessBindUnbindReq_6
    869                {
    870                  // Assume the table is full
    871                  bindStat = ZDP_TABLE_FULL;
   \   0000AA   7487         MOV     A,#-0x79
   \   0000AC   85..82       MOV     DPL,?XSP + 0
   \   0000AF   85..83       MOV     DPH,?XSP + 1
   \   0000B2   F0           MOVX    @DPTR,A
    872          
    873                  if ( bindNumOfEntries() < gNWK_MAX_BINDING_ENTRIES )
   \   0000B3                ; Setup parameters for call to function bindNumOfEntries
   \   0000B3   12....       LCALL   ??bindNumOfEntries?relay
   \   0000B6   90....       MOV     DPTR,#gNWK_MAX_BINDING_ENTRIES
   \   0000B9   E4           CLR     A
   \   0000BA   93           MOVC    A,@A+DPTR
   \   0000BB   F8           MOV     R0,A
   \   0000BC   7401         MOV     A,#0x1
   \   0000BE   93           MOVC    A,@A+DPTR
   \   0000BF   F9           MOV     R1,A
   \   0000C0   C3           CLR     C
   \   0000C1   EA           MOV     A,R2
   \   0000C2   98           SUBB    A,R0
   \   0000C3   EB           MOV     A,R3
   \   0000C4   99           SUBB    A,R1
   \   0000C5   4003         JC      $+5
   \   0000C7   02....       LJMP    ??ZDO_ProcessBindUnbindReq_7 & 0xFFFF
    874                  {
    875                    if ( APSME_BindRequest( pReq->srcEndpoint, pReq->clusterID,
    876                                   &(pReq->dstAddress), pReq->dstEndpoint ) == ZSuccess )
   \   0000CA                ; Setup parameters for call to function APSME_BindRequest
   \   0000CA   85..82       MOV     DPL,?V0 + 2
   \   0000CD   85..83       MOV     DPH,?V0 + 3
   \   0000D0   E0           MOVX    A,@DPTR
   \   0000D1   F5..         MOV     ?V0 + 2,A
   \   0000D3   78..         MOV     R0,#?V0 + 2
   \   0000D5   12....       LCALL   ?PUSH_XSTACK_I_ONE
   \   0000D8   12....       LCALL   ?Subroutine84 & 0xFFFF
   \                     ??CrossCallReturnLabel_343:
   \   0000DB   85..82       MOV     DPL,?V0 + 4
   \   0000DE   85..83       MOV     DPH,?V0 + 5
   \   0000E1   E0           MOVX    A,@DPTR
   \   0000E2   F9           MOV     R1,A
   \   0000E3   12....       LCALL   ??APSME_BindRequest?relay
   \   0000E6   7401         MOV     A,#0x1
   \   0000E8   12....       LCALL   ?DEALLOC_XSTACK8
   \   0000EB   E9           MOV     A,R1
   \   0000EC   706A         JNZ     ??ZDO_ProcessBindUnbindReq_7
    877                    {
    878                      uint16 nwkAddr;
    879          
    880                      // valid entry
    881                      bindStat = ZDP_SUCCESS;
   \   0000EE   E4           CLR     A
   \   0000EF   85..82       MOV     DPL,?XSP + 0
   \   0000F2   85..83       MOV     DPH,?XSP + 1
   \   0000F5   F0           MOVX    @DPTR,A
    882          
    883                      // Notify to save info into NV
    884                      ZDApp_NVUpdate();
   \   0000F6                ; Setup parameters for call to function ZDApp_NVUpdate
   \   0000F6   12....       LCALL   ??ZDApp_NVUpdate?relay
    885          
    886                      // Check for the destination address
    887                      if ( pReq->dstAddress.addrMode == Addr64Bit )
   \   0000F9   85..82       MOV     DPL,?V0 + 8
   \   0000FC   85..83       MOV     DPH,?V0 + 9
   \   0000FF   E0           MOVX    A,@DPTR
   \   000100   6403         XRL     A,#0x3
   \   000102   7054         JNZ     ??ZDO_ProcessBindUnbindReq_7
    888                      {
    889                        if ( APSME_LookupNwkAddr( pReq->dstAddress.addr.extAddr, &nwkAddr ) == FALSE )
   \   000104                ; Setup parameters for call to function APSME_LookupNwkAddr
   \   000104   7401         MOV     A,#0x1
   \   000106   12....       LCALL   ?XSTACK_DISP0_8
   \   000109   AC82         MOV     R4,DPL
   \   00010B   AD83         MOV     R5,DPH
   \   00010D   EE           MOV     A,R6
   \   00010E   FA           MOV     R2,A
   \   00010F   EF           MOV     A,R7
   \   000110   FB           MOV     R3,A
   \   000111   12....       LCALL   ??APSME_LookupNwkAddr?relay
   \   000114   E9           MOV     A,R1
   \   000115   7041         JNZ     ??ZDO_ProcessBindUnbindReq_7
    890                        {
    891                          ZDP_NwkAddrReq( pReq->dstAddress.addr.extAddr, ZDP_ADDR_REQTYPE_SINGLE, 0, 0 );
   \   000117                ; Setup parameters for call to function ZDP_NwkAddrReq
   \   000117   7D00         MOV     R5,#0x0
   \   000119   7C00         MOV     R4,#0x0
   \   00011B   7900         MOV     R1,#0x0
   \   00011D   EE           MOV     A,R6
   \   00011E   FA           MOV     R2,A
   \   00011F   EF           MOV     A,R7
   \   000120   FB           MOV     R3,A
   \   000121   12....       LCALL   ??ZDP_NwkAddrReq?relay
   \   000124   8032         SJMP    ??ZDO_ProcessBindUnbindReq_7
    892                        }
    893                      }
    894                    }
    895                  }
    896                }
    897                else // Unbind_req
    898                {
    899                  if ( APSME_UnBindRequest( pReq->srcEndpoint, pReq->clusterID,
    900                                 &(pReq->dstAddress), pReq->dstEndpoint ) == ZSuccess )
   \                     ??ZDO_ProcessBindUnbindReq_6:
   \   000126                ; Setup parameters for call to function APSME_UnBindRequest
   \   000126   85..82       MOV     DPL,?V0 + 2
   \   000129   85..83       MOV     DPH,?V0 + 3
   \   00012C   E0           MOVX    A,@DPTR
   \   00012D   F5..         MOV     ?V0 + 2,A
   \   00012F   78..         MOV     R0,#?V0 + 2
   \   000131   12....       LCALL   ?PUSH_XSTACK_I_ONE
   \   000134   12....       LCALL   ?Subroutine84 & 0xFFFF
   \                     ??CrossCallReturnLabel_344:
   \   000137   12....       LCALL   ??APSME_UnBindRequest?relay
   \   00013A   7401         MOV     A,#0x1
   \   00013C   12....       LCALL   ?DEALLOC_XSTACK8
   \   00013F   E9           MOV     A,R1
   \   000140   700D         JNZ     ??ZDO_ProcessBindUnbindReq_8
    901                  {
    902                    bindStat = ZDP_SUCCESS;
   \   000142   E4           CLR     A
   \   000143   85..82       MOV     DPL,?XSP + 0
   \   000146   85..83       MOV     DPH,?XSP + 1
   \   000149   F0           MOVX    @DPTR,A
    903          
    904                    // Notify to save info into NV
    905                    ZDApp_NVUpdate();
   \   00014A                ; Setup parameters for call to function ZDApp_NVUpdate
   \   00014A   12....       LCALL   ??ZDApp_NVUpdate?relay
   \   00014D   8009         SJMP    ??ZDO_ProcessBindUnbindReq_7
    906                  }
    907                  else
    908                    bindStat = ZDP_NO_ENTRY;
   \                     ??ZDO_ProcessBindUnbindReq_8:
   \   00014F   7488         MOV     A,#-0x78
   \                     ??ZDO_ProcessBindUnbindReq_2:
   \   000151   85..82       MOV     DPL,?XSP + 0
   \   000154   85..83       MOV     DPH,?XSP + 1
   \   000157   F0           MOVX    @DPTR,A
    909                }
    910              }
    911            }
    912          
    913            // Send back a response message
    914            ZDP_SendData( &(inMsg->TransSeq), &(inMsg->srcAddr),
    915                         (inMsg->clusterID | ZDO_RESPONSE_BIT), 1, &bindStat,
    916                         inMsg->SecurityUse );
   \                     ??ZDO_ProcessBindUnbindReq_7:
   \   000158                ; Setup parameters for call to function ZDP_SendData
   \   000158   E5..         MOV     A,?V0 + 6
   \   00015A   240E         ADD     A,#0xe
   \   00015C   F582         MOV     DPL,A
   \   00015E   E5..         MOV     A,?V0 + 7
   \   000160   12....       LCALL   ??Subroutine214_0 & 0xFFFF
   \                     ??CrossCallReturnLabel_326:
   \   000163   12....       LCALL   ?PUSH_XSTACK_I_ONE
   \   000166   7401         MOV     A,#0x1
   \   000168   12....       LCALL   ?XSTACK_DISP0_8
   \   00016B   8582..       MOV     ?V0 + 0,DPL
   \   00016E   8583..       MOV     ?V0 + 1,DPH
   \   000171   78..         MOV     R0,#?V0 + 0
   \   000173   12....       LCALL   ?PUSH_XSTACK_I_TWO
   \   000176   85..82       MOV     DPL,?V0 + 10
   \   000179   85..83       MOV     DPH,?V0 + 11
   \   00017C   12....       LCALL   ?Subroutine68 & 0xFFFF
   \                     ??CrossCallReturnLabel_105:
   \   00017F   4480         ORL     A,#0x80
   \   000181   F5..         MOV     ?V0 + 1,A
   \   000183   78..         MOV     R0,#?V0 + 0
   \   000185   12....       LCALL   ?PUSH_XSTACK_I_TWO
   \   000188   7901         MOV     R1,#0x1
   \   00018A   E5..         MOV     A,?V0 + 6
   \   00018C   2402         ADD     A,#0x2
   \   00018E   FC           MOV     R4,A
   \   00018F   E5..         MOV     A,?V0 + 7
   \   000191   3400         ADDC    A,#0x0
   \   000193   FD           MOV     R5,A
   \   000194   E5..         MOV     A,?V0 + 6
   \   000196   240F         ADD     A,#0xf
   \   000198   FA           MOV     R2,A
   \   000199   E5..         MOV     A,?V0 + 7
   \   00019B   12....       LCALL   ??Subroutine209_0 & 0xFFFF
   \                     ??CrossCallReturnLabel_307:
   \   00019E   12....       LCALL   ?DEALLOC_XSTACK8
    917          }
   \   0001A1   740C         MOV     A,#0xc
   \   0001A3                REQUIRE ?Subroutine185
   \   0001A3                ; // Fall through to label ?Subroutine185

   \                                 In  segment BANKED_CODE, align 1, keep-with-next
   \                     ?Subroutine185:
   \   000000   12....       LCALL   ?DEALLOC_XSTACK8
   \   000003   7F0E         MOV     R7,#0xe
   \   000005   02....       LJMP    ?BANKED_LEAVE_XDATA

   \                                 In  segment BANKED_CODE, align 1, keep-with-next
   \                     ??Subroutine209_0:
   \   000000   3400         ADDC    A,#0x0
   \   000002   12....       LCALL   ?Subroutine151 & 0xFFFF
   \                     ??CrossCallReturnLabel_309:
   \   000005   22           RET

   \                                 In  segment BANKED_CODE, align 1, keep-with-next
   \                     ?Subroutine151:
   \   000000   FB           MOV     R3,A
   \   000001                REQUIRE ??Subroutine210_0
   \   000001                ; // Fall through to label ??Subroutine210_0

   \                                 In  segment BANKED_CODE, align 1, keep-with-next
   \                     ??Subroutine210_0:
   \   000000   12....       LCALL   ??ZDP_SendData?relay
   \   000003   7405         MOV     A,#0x5
   \   000005   22           RET

   \                                 In  segment BANKED_CODE, align 1, keep-with-next
   \                     ?Subroutine84:
   \   000000   EE           MOV     A,R6
   \   000001   FC           MOV     R4,A
   \   000002   EF           MOV     A,R7
   \   000003   FD           MOV     R5,A
   \   000004   85..82       MOV     DPL,?V0 + 0
   \   000007   85..83       MOV     DPH,?V0 + 1
   \   00000A                REQUIRE ??Subroutine217_0
   \   00000A                ; // Fall through to label ??Subroutine217_0

   \                                 In  segment BANKED_CODE, align 1, keep-with-next
   \                     ?Subroutine107:
   \   000000   F5..         MOV     ?V0 + 8,A
   \   000002   EF           MOV     A,R7
   \   000003   3400         ADDC    A,#0x0
   \   000005   F5..         MOV     ?V0 + 9,A
   \   000007   85..82       MOV     DPL,?V0 + 8
   \   00000A   F583         MOV     DPH,A
   \   00000C   22           RET

   \                                 In  segment BANKED_CODE, align 1, keep-with-next
   \                     ?Subroutine108:
   \   000000   F5..         MOV     ?V0 + 4,A
   \   000002   EF           MOV     A,R7
   \   000003   3400         ADDC    A,#0x0
   \   000005   F5..         MOV     ?V0 + 5,A
   \   000007   85..82       MOV     DPL,?V0 + 4
   \   00000A   F583         MOV     DPH,A
   \   00000C   22           RET

   \                                 In  segment BANKED_CODE, align 1, keep-with-next
   \                     ?Subroutine101:
   \   000000   F5..         MOV     ?V0 + 0,A
   \   000002   EF           MOV     A,R7
   \   000003                REQUIRE ??Subroutine237_0
   \   000003                ; // Fall through to label ??Subroutine237_0

   \                                 In  segment BANKED_CODE, align 1, keep-with-next
   \                     ??Subroutine237_0:
   \   000000   3400         ADDC    A,#0x0
   \   000002   F5..         MOV     ?V0 + 1,A
   \   000004   22           RET
    918          
    919          /*********************************************************************
    920           * @fn      ZDO_UpdateAddrManager
    921           * @brief   Update the Address Manager.
    922           * @param   nwkAddr - network address
    923           * @param   extAddr - extended address
    924           */

   \                                 In  segment BANKED_CODE, align 1, keep-with-next
   \                     ?Subroutine166:
   \   000000   12....       LCALL   ?DEALLOC_XSTACK8
   \   000003                REQUIRE ??Subroutine191_0
   \   000003                ; // Fall through to label ??Subroutine191_0

   \                                 In  segment BANKED_CODE, align 1, keep-with-next
    925          void ZDO_UpdateAddrManager( uint16 nwkAddr, uint8 *extAddr )
   \                     ZDO_UpdateAddrManager:
    926          {
   \   000000   C082         PUSH    DPL
   \   000002   C083         PUSH    DPH
   \   000004                ; Saved register size: 2
   \   000004                ; Auto size: 13
   \   000004   74F3         MOV     A,#-0xd
   \   000006   12....       LCALL   ?ALLOC_XSTACK8
    927            AddrMgrEntry_t addrEntry;
    928          
    929            // Update the address manager
    930            addrEntry.user = ADDRMGR_USER_DEFAULT;
   \   000009   E4           CLR     A
   \   00000A   85..82       MOV     DPL,?XSP + 0
   \   00000D   85..83       MOV     DPH,?XSP + 1
   \   000010   F0           MOVX    @DPTR,A
    931            addrEntry.nwkAddr = nwkAddr;
   \   000011   7401         MOV     A,#0x1
   \   000013   12....       LCALL   ?XSTACK_DISP0_8
   \   000016   12....       LCALL   ?Subroutine26 & 0xFFFF
    932            AddrMgrExtAddrSet( addrEntry.extAddr, extAddr );
   \                     ??CrossCallReturnLabel_40:
   \   000019                ; Setup parameters for call to function AddrMgrExtAddrSet
   \   000019   7403         MOV     A,#0x3
   \   00001B   12....       LCALL   ?XSTACK_DISP0_8
   \   00001E   12....       LCALL   ?Subroutine118 & 0xFFFF
    933            AddrMgrEntryUpdate( &addrEntry );
    934          }
   \                     ??CrossCallReturnLabel_174:
   \   000021   740D         MOV     A,#0xd
   \   000023   02....       LJMP    ?Subroutine166 & 0xFFFF

   \                                 In  segment BANKED_CODE, align 1, keep-with-next
   \                     ?Subroutine118:
   \   000000   AA82         MOV     R2,DPL
   \   000002   AB83         MOV     R3,DPH
   \   000004   12....       LCALL   ??AddrMgrExtAddrSet?relay
   \   000007                ; Setup parameters for call to function AddrMgrEntryUpdate
   \   000007                ; Setup parameters for call to function AddrMgrEntryUpdate
   \   000007   85..82       MOV     DPL,?XSP + 0
   \   00000A   85..83       MOV     DPH,?XSP + 1
   \   00000D   AA82         MOV     R2,DPL
   \   00000F   AB83         MOV     R3,DPH
   \   000011   12....       LCALL   ??AddrMgrEntryUpdate?relay
   \   000014   22           RET
    935          
    936          /*********************************************************************
    937           * @fn      ZDO_ProcessServerDiscReq
    938           * @brief   Process the Server_Discovery_req message.
    939           * @param   inMsg  - incoming message (request)
    940           */

   \                                 In  segment BANKED_CODE, align 1, keep-with-next
    941          void ZDO_ProcessServerDiscReq( zdoIncomingMsg_t *inMsg )
   \                     ZDO_ProcessServerDiscReq:
    942          {
   \   000000   74F6         MOV     A,#-0xa
   \   000002   12....       LCALL   ?BANKED_ENTER_XDATA
   \   000005                ; Saved register size: 10
   \   000005                ; Auto size: 0
   \   000005   12....       LCALL   ?Subroutine51 & 0xFFFF
    943            uint16 serverMask = BUILD_UINT16( inMsg->asdu[0], inMsg->asdu[1] );
    944            uint16 matchMask = serverMask & ZDO_Config_Node_Descriptor.ServerMask;
   \                     ??CrossCallReturnLabel_268:
   \   000008   F8           MOV     R0,A
   \   000009   90....       MOV     DPTR,#(ZDO_Config_Node_Descriptor + 8)
   \   00000C   E0           MOVX    A,@DPTR
   \   00000D   58           ANL     A,R0
   \   00000E   F5..         MOV     ?V0 + 0,A
   \   000010   A3           INC     DPTR
   \   000011   E0           MOVX    A,@DPTR
   \   000012   59           ANL     A,R1
   \   000013   F5..         MOV     ?V0 + 1,A
    945          
    946            if ( matchMask )
   \   000015   E5..         MOV     A,?V0 + 0
   \   000017   7002         JNZ     ??ZDO_ProcessServerDiscReq_0
   \   000019   E5..         MOV     A,?V0 + 1
   \                     ??ZDO_ProcessServerDiscReq_0:
   \   00001B   601F         JZ      ??ZDO_ProcessServerDiscReq_1
    947            {
    948              ZDP_ServerDiscRsp( inMsg->TransSeq, &(inMsg->srcAddr), ZSUCCESS,
    949                          ZDAppNwkAddr.addr.shortAddr, matchMask, inMsg->SecurityUse );
   \   00001D                ; Setup parameters for call to function ZDP_ServerDiscRsp
   \   00001D   78..         MOV     R0,#?V0 + 0
   \   00001F   12....       LCALL   ?PUSH_XSTACK_I_TWO
   \   000022   90....       MOV     DPTR,#ZDAppNwkAddr
   \   000025   12....       LCALL   ?PUSH_XSTACK8_X_TWO
   \   000028   12....       LCALL   ?Subroutine104 & 0xFFFF
    950            }
   \                     ??CrossCallReturnLabel_251:
   \   00002B   FD           MOV     R5,A
   \   00002C   7C00         MOV     R4,#0x0
   \   00002E   12....       LCALL   ?Subroutine145 & 0xFFFF
   \                     ??CrossCallReturnLabel_194:
   \   000031   12....       LCALL   ?Subroutine97 & 0xFFFF
   \                     ??CrossCallReturnLabel_372:
   \   000034   12....       LCALL   ??ZDP_ServerDiscRsp?relay
   \   000037   7404         MOV     A,#0x4
   \   000039   12....       LCALL   ?DEALLOC_XSTACK8
    951          }
   \                     ??ZDO_ProcessServerDiscReq_1:
   \   00003C   02....       LJMP    ??Subroutine194_0 & 0xFFFF

   \                                 In  segment BANKED_CODE, align 1, keep-with-next
   \                     ?Subroutine51:
   \   000000   EA           MOV     A,R2
   \   000001   FE           MOV     R6,A
   \   000002   EB           MOV     A,R3
   \   000003   FF           MOV     R7,A
   \   000004                REQUIRE ??Subroutine199_0
   \   000004                ; // Fall through to label ??Subroutine199_0
    952          
    953          /*********************************************************************
    954           * Call Back Functions from APS  - API
    955           */
    956          
    957          /*********************************************************************
    958           * @fn          ZDO_EndDeviceTimeoutCB
    959           * @brief       This function handles the binding timer for the End
    960           *              Device Bind command.
    961           */

   \                                 In  segment BANKED_CODE, align 1, keep-with-next
    962          void ZDO_EndDeviceTimeoutCB( void )
   \                     ZDO_EndDeviceTimeoutCB:
    963          {
   \   000000   74F6         MOV     A,#-0xa
   \   000002   12....       LCALL   ?BANKED_ENTER_XDATA
   \   000005                ; Saved register size: 10
   \   000005                ; Auto size: 2
   \   000005   74FE         MOV     A,#-0x2
   \   000007   12....       LCALL   ?ALLOC_XSTACK8
    964          #if defined ( REFLECTOR )
    965            byte stat;
    966            if ( ZDO_EDBind )
   \   00000A   90....       MOV     DPTR,#ZDO_EDBind
   \   00000D   E0           MOVX    A,@DPTR
   \   00000E   7002         JNZ     ??ZDO_EndDeviceTimeoutCB_0
   \   000010   A3           INC     DPTR
   \   000011   E0           MOVX    A,@DPTR
   \                     ??ZDO_EndDeviceTimeoutCB_0:
   \   000012   7003         JNZ     $+5
   \   000014   02....       LJMP    ??ZDO_EndDeviceTimeoutCB_1 & 0xFFFF
    967            {
    968              stat = ZDO_EDBind->status;
    969          
    970              // Send the response message to the first sent
    971              ZDO_SendEDBindRsp( ZDO_EDBind->SrcTransSeq, &(ZDO_EDBind->SrcAddr),
    972                                  stat, ZDO_EDBind->SecurityUse );
   \   000017   90....       MOV     DPTR,#ZDO_EDBind
   \   00001A   E0           MOVX    A,@DPTR
   \   00001B   2415         ADD     A,#0x15
   \   00001D   12....       LCALL   ?Subroutine66 & 0xFFFF
   \                     ??CrossCallReturnLabel_347:
   \   000020   FA           MOV     R2,A
   \   000021   90....       MOV     DPTR,#ZDO_EDBind
   \   000024   E0           MOVX    A,@DPTR
   \   000025   2416         ADD     A,#0x16
   \   000027   08           INC     R0
   \   000028   12....       LCALL   ??Subroutine218_0 & 0xFFFF
   \                     ??CrossCallReturnLabel_345:
   \   00002B   85..82       MOV     DPL,?XSP + 0
   \   00002E   85..83       MOV     DPH,?XSP + 1
   \   000031   F0           MOVX    @DPTR,A
   \   000032   90....       MOV     DPTR,#ZDO_EDBind
   \   000035   E0           MOVX    A,@DPTR
   \   000036   2401         ADD     A,#0x1
   \   000038   FC           MOV     R4,A
   \   000039   A3           INC     DPTR
   \   00003A   E0           MOVX    A,@DPTR
   \   00003B   3400         ADDC    A,#0x0
   \   00003D   FD           MOV     R5,A
   \   00003E   90....       MOV     DPTR,#ZDO_EDBind
   \   000041   12....       LCALL   ??Subroutine212_0 & 0xFFFF
   \                     ??CrossCallReturnLabel_316:
   \   000044   C0E0         PUSH    A
   \   000046   7401         MOV     A,#0x1
   \   000048   12....       LCALL   ?XSTACK_DISP0_8
   \   00004B   D0E0         POP     A
   \   00004D   F0           MOVX    @DPTR,A
   \   00004E                ; Setup parameters for call to function ZDP_SendData
   \   00004E   EA           MOV     A,R2
   \   00004F   F5..         MOV     ?V0 + 0,A
   \   000051   78..         MOV     R0,#?V0 + 0
   \   000053   12....       LCALL   ?PUSH_XSTACK_I_ONE
   \   000056   7401         MOV     A,#0x1
   \   000058   12....       LCALL   ?XSTACK_DISP0_8
   \   00005B   8582..       MOV     ?V0 + 0,DPL
   \   00005E   8583..       MOV     ?V0 + 1,DPH
   \   000061   78..         MOV     R0,#?V0 + 0
   \   000063   12....       LCALL   ?PUSH_XSTACK_I_TWO
   \   000066   75..20       MOV     ?V0 + 0,#0x20
   \   000069   75..80       MOV     ?V0 + 1,#-0x80
   \   00006C   78..         MOV     R0,#?V0 + 0
   \   00006E   12....       LCALL   ?PUSH_XSTACK_I_TWO
   \   000071   7901         MOV     R1,#0x1
   \   000073   7406         MOV     A,#0x6
   \   000075   12....       LCALL   ?XSTACK_DISP0_8
   \   000078   AA82         MOV     R2,DPL
   \   00007A   AB83         MOV     R3,DPH
   \   00007C   12....       LCALL   ??Subroutine210_0 & 0xFFFF
   \                     ??CrossCallReturnLabel_311:
   \   00007F   12....       LCALL   ?DEALLOC_XSTACK8
   \   000082                ; Setup parameters for call to function HalLcdWriteString
   \   000082   7901         MOV     R1,#0x1
   \   000084   7A..         MOV     R2,#(`?<Constant "End Device Bind">` & 0xff)
   \   000086   7B..         MOV     R3,#((`?<Constant "End Device Bind">` >> 8) & 0xff)
   \   000088   12....       LCALL   ??HalLcdWriteString?relay
   \   00008B   85..82       MOV     DPL,?XSP + 0
   \   00008E   85..83       MOV     DPH,?XSP + 1
   \   000091   E0           MOVX    A,@DPTR
   \   000092   7902         MOV     R1,#0x2
   \   000094   7006         JNZ     ??ZDO_EndDeviceTimeoutCB_2
   \   000096                ; Setup parameters for call to function HalLcdWriteString
   \   000096   7A..         MOV     R2,#(`?<Constant "Success Sent">` & 0xff)
   \   000098   7B..         MOV     R3,#((`?<Constant "Success Sent">` >> 8) & 0xff)
   \   00009A   8004         SJMP    ??ZDO_EndDeviceTimeoutCB_3
   \                     ??ZDO_EndDeviceTimeoutCB_2:
   \   00009C                ; Setup parameters for call to function HalLcdWriteString
   \   00009C   7A..         MOV     R2,#(`?<Constant "Timeout">` & 0xff)
   \   00009E   7B..         MOV     R3,#((`?<Constant "Timeout">` >> 8) & 0xff)
   \                     ??ZDO_EndDeviceTimeoutCB_3:
   \   0000A0   12....       LCALL   ??HalLcdWriteString?relay
    973          
    974              ZDO_RemoveEndDeviceBind();
   \   0000A3   90....       MOV     DPTR,#ZDO_EDBind
   \   0000A6   E0           MOVX    A,@DPTR
   \   0000A7   7002         JNZ     ??ZDO_EndDeviceTimeoutCB_4
   \   0000A9   A3           INC     DPTR
   \   0000AA   E0           MOVX    A,@DPTR
   \                     ??ZDO_EndDeviceTimeoutCB_4:
   \   0000AB   602F         JZ      ??ZDO_EndDeviceTimeoutCB_1
   \   0000AD   90....       MOV     DPTR,#ZDO_EDBind
   \   0000B0   E0           MOVX    A,@DPTR
   \   0000B1   2410         ADD     A,#0x10
   \   0000B3   12....       LCALL   ?Subroutine43 & 0xFFFF
    975            }
   \                     ??CrossCallReturnLabel_78:
   \   0000B6   7001         JNZ     ??ZDO_EndDeviceTimeoutCB_5
   \   0000B8   EB           MOV     A,R3
   \                     ??ZDO_EndDeviceTimeoutCB_5:
   \   0000B9   6003         JZ      ??ZDO_EndDeviceTimeoutCB_6
   \   0000BB                ; Setup parameters for call to function osal_mem_free
   \   0000BB   12....       LCALL   ??osal_mem_free?relay
   \                     ??ZDO_EndDeviceTimeoutCB_6:
   \   0000BE   90....       MOV     DPTR,#ZDO_EDBind
   \   0000C1   E0           MOVX    A,@DPTR
   \   0000C2   2413         ADD     A,#0x13
   \   0000C4   12....       LCALL   ?Subroutine43 & 0xFFFF
   \                     ??CrossCallReturnLabel_79:
   \   0000C7   7001         JNZ     ??ZDO_EndDeviceTimeoutCB_7
   \   0000C9   EB           MOV     A,R3
   \                     ??ZDO_EndDeviceTimeoutCB_7:
   \   0000CA   6003         JZ      ??ZDO_EndDeviceTimeoutCB_8
   \   0000CC                ; Setup parameters for call to function osal_mem_free
   \   0000CC   12....       LCALL   ??osal_mem_free?relay
   \                     ??ZDO_EndDeviceTimeoutCB_8:
   \   0000CF                ; Setup parameters for call to function osal_mem_free
   \   0000CF   90....       MOV     DPTR,#ZDO_EDBind
   \   0000D2   12....       LCALL   ??Subroutine221_0 & 0xFFFF
   \                     ??CrossCallReturnLabel_361:
   \   0000D5   90....       MOV     DPTR,#ZDO_EDBind
   \   0000D8   E4           CLR     A
   \   0000D9   F0           MOVX    @DPTR,A
   \   0000DA   A3           INC     DPTR
   \   0000DB   F0           MOVX    @DPTR,A
    976          #endif  // REFLECTOR
    977          }
   \                     ??ZDO_EndDeviceTimeoutCB_1:
   \   0000DC   02....       LJMP    ?Subroutine182 & 0xFFFF

   \                                 In  segment BANKED_CODE, align 1, keep-with-next
   \                     ?Subroutine66:
   \   000000   F8           MOV     R0,A
   \   000001                REQUIRE ??Subroutine218_0
   \   000001                ; // Fall through to label ??Subroutine218_0

   \                                 In  segment BANKED_CODE, align 1, keep-with-next
   \                     ??Subroutine218_0:
   \   000000   12....       LCALL   ??Subroutine227_0 & 0xFFFF
   \                     ??CrossCallReturnLabel_393:
   \   000003   22           RET

   \                                 In  segment BANKED_CODE, align 1, keep-with-next
   \                     ?Subroutine43:
   \   000000   12....       LCALL   ?Subroutine131 & 0xFFFF
   \                     ??CrossCallReturnLabel_434:
   \   000003   EA           MOV     A,R2
   \   000004   22           RET

   \                                 In  segment BANKED_CODE, align 1, keep-with-next
   \                     ?Subroutine156:
   \   000000   F8           MOV     R0,A
   \   000001                REQUIRE ??Subroutine226_0
   \   000001                ; // Fall through to label ??Subroutine226_0

   \                                 In  segment BANKED_CODE, align 1, keep-with-next
   \                     ??Subroutine226_0:
   \   000000   A3           INC     DPTR
   \   000001   E0           MOVX    A,@DPTR
   \   000002   12....       LCALL   ?Subroutine164 & 0xFFFF
   \                     ??CrossCallReturnLabel_405:
   \   000005   22           RET

   \                                 In  segment BANKED_CODE, align 1, keep-with-next
   \                     ?Subroutine164:
   \   000000   3400         ADDC    A,#0x0
   \   000002   02....       LJMP    ?Subroutine171 & 0xFFFF

   \                                 In  segment BANKED_CODE, align 1, keep-with-next
   \                     ??Subroutine227_0:
   \   000000   12....       LCALL   ??Subroutine226_0 & 0xFFFF
   \                     ??CrossCallReturnLabel_397:
   \   000003   E0           MOVX    A,@DPTR
   \   000004   22           RET

   \                                 In  segment BANKED_CODE, align 1, keep-with-next
   \                     ?Subroutine131:
   \   000000   12....       LCALL   ?Subroutine156 & 0xFFFF
   \                     ??CrossCallReturnLabel_395:
   \   000003                REQUIRE ??Subroutine233_0
   \   000003                ; // Fall through to label ??Subroutine233_0
    978          
    979          /*********************************************************************
    980           * Optional Management Messages
    981           */
    982          
    983          /*********************************************************************
    984           * @fn          ZDO_ProcessMgmtLqiReq
    985           * @brief       This function handles parsing the incoming Management
    986           *              LQI request and generate the response.
    987           *   Note:      This function will limit the number of items returned
    988           *              to ZDO_MAX_LQI_ITEMS items.
    989           * @param       inMsg - incoming message (request)
    990          
    991           */

   \                                 In  segment BANKED_CODE, align 1, keep-with-next
    992          void ZDO_ProcessMgmtLqiReq( zdoIncomingMsg_t *inMsg )
   \                     ZDO_ProcessMgmtLqiReq:
    993          {
   \   000000   74E8         MOV     A,#-0x18
   \   000002   12....       LCALL   ?BANKED_ENTER_XDATA
   \   000005                ; Saved register size: 24
   \   000005                ; Auto size: 37
   \   000005   74DB         MOV     A,#-0x25
   \   000007   12....       LCALL   ?ALLOC_XSTACK8
   \   00000A   8A..         MOV     ?V0 + 14,R2
   \   00000C   8B..         MOV     ?V0 + 15,R3
    994            byte x;
    995            byte index;
    996            byte numItems;
    997            byte maxItems;
    998            ZDP_MgmtLqiItem_t* table = NULL;
   \   00000E   75..00       MOV     ?V0 + 10,#0x0
   \   000011   75..00       MOV     ?V0 + 11,#0x0
    999            ZDP_MgmtLqiItem_t* item;
   1000            neighborEntry_t    entry;
   1001            byte aItems;
   1002            associated_devices_t *aDevice;
   1003            AddrMgrEntry_t  nwkEntry;
   1004            uint8 StartIndex = inMsg->asdu[0];
   \   000014   12....       LCALL   ?Subroutine54 & 0xFFFF
   \                     ??CrossCallReturnLabel_318:
   \   000017   F5..         MOV     ?V0 + 3,A
   1005          
   1006            // Get the number of neighbor items
   1007            NLME_GetRequest( nwkNumNeighborTableEntries, 0, &maxItems );
   \   000019                ; Setup parameters for call to function NLME_GetRequest
   \   000019   85..82       MOV     DPL,?XSP + 0
   \   00001C   85..83       MOV     DPH,?XSP + 1
   \   00001F   AC82         MOV     R4,DPL
   \   000021   AD83         MOV     R5,DPH
   \   000023   7A00         MOV     R2,#0x0
   \   000025   7B00         MOV     R3,#0x0
   \   000027   799C         MOV     R1,#-0x64
   \   000029   12....       LCALL   ??NLME_GetRequest?relay
   1008          
   1009            // Get the number of associated items
   1010            aItems = (uint8)AssocCount( PARENT, CHILD_FFD_RX_IDLE );
   \   00002C                ; Setup parameters for call to function AssocCount
   \   00002C   7A04         MOV     R2,#0x4
   \   00002E   7900         MOV     R1,#0x0
   \   000030   12....       LCALL   ??AssocCount?relay
   \   000033   EA           MOV     A,R2
   \   000034   F5..         MOV     ?V0 + 4,A
   1011          
   1012            // Total number of items
   1013            maxItems += aItems;
   \   000036   85..82       MOV     DPL,?XSP + 0
   \   000039   85..83       MOV     DPH,?XSP + 1
   \   00003C   E0           MOVX    A,@DPTR
   \   00003D   25..         ADD     A,?V0 + 4
   \   00003F   F0           MOVX    @DPTR,A
   1014          
   1015            // Start with the supplied index
   1016            if ( maxItems > StartIndex )
   \   000040   FA           MOV     R2,A
   \   000041   E5..         MOV     A,?V0 + 3
   \   000043   C3           CLR     C
   \   000044   9A           SUBB    A,R2
   \   000045   4003         JC      $+5
   \   000047   02....       LJMP    ??ZDO_ProcessMgmtLqiReq_0 & 0xFFFF
   1017            {
   1018              numItems = maxItems - StartIndex;
   \   00004A   E0           MOVX    A,@DPTR
   \   00004B   C3           CLR     C
   \   00004C   95..         SUBB    A,?V0 + 3
   \   00004E   F5..         MOV     ?V0 + 1,A
   1019          
   1020              // limit the size of the list
   1021              if ( numItems > ZDO_MAX_LQI_ITEMS )
   \   000050   C3           CLR     C
   \   000051   9404         SUBB    A,#0x4
   \   000053   4003         JC      ??ZDO_ProcessMgmtLqiReq_1
   1022                numItems = ZDO_MAX_LQI_ITEMS;
   \   000055   75..03       MOV     ?V0 + 1,#0x3
   1023          
   1024              // Allocate the memory to build the table
   1025              table = (ZDP_MgmtLqiItem_t*)osal_mem_alloc( (short)
   1026                        ( numItems * sizeof( ZDP_MgmtLqiItem_t ) ) );
   \                     ??ZDO_ProcessMgmtLqiReq_1:
   \   000058                ; Setup parameters for call to function osal_mem_alloc
   \   000058   E5..         MOV     A,?V0 + 1
   \   00005A   75F01A       MOV     B,#0x1a
   \   00005D   A4           MUL     AB
   \   00005E   FA           MOV     R2,A
   \   00005F   ABF0         MOV     R3,B
