###############################################################################
#                                                                             #
# IAR C/C++ Compiler V7.51A/W32 for 8051                27/Jul/2010  10:05:04 #
# Copyright 2004-2009 IAR Systems AB.                                         #
#                                                                             #
#    Core               =  plain                                              #
#    Code model         =  banked                                             #
#    Data model         =  large                                              #
#    Calling convention =  xdata reentrant                                    #
#    Constant location  =  data_rom                                           #
#    Dptr setup         =  1,16                                               #
#    Source file        =  D:\R.D Dept\程式開發\TI Zigbee                     #
#                          Z-Stack\ZStack-CC2530-2.3.0-1.4.0\ZStack-CC2530-2. #
#                          3.0-1.4.0\ZStack-CC2530-2.3.0-1.4.0\Components\sta #
#                          ck\zdo\ZDConfig.c                                  #
#    Command line       =  -f "D:\R.D Dept\程式開發\TI Zigbee                 #
#                          Z-Stack\ZStack-CC2530-2.3.0-1.4.0\ZStack-CC2530-2. #
#                          3.0-1.4.0\ZStack-CC2530-2.3.0-1.4.0\Projects\zstac #
#                          k\Samples\GenericApp\CC2530DB\..\..\..\Tools\CC253 #
#                          0DB\f8wEndev.cfg" (-DCPU32MHZ -DROOT=__near_func   #
#                          -DBLINK_LEDS) -f "D:\R.D Dept\程式開發\TI Zigbee   #
#                          Z-Stack\ZStack-CC2530-2.3.0-1.4.0\ZStack-CC2530-2. #
#                          3.0-1.4.0\ZStack-CC2530-2.3.0-1.4.0\Projects\zstac #
#                          k\Samples\GenericApp\CC2530DB\..\..\..\Tools\CC253 #
#                          0DB\f8wConfig.cfg" (-DSECURE=0                     #
#                          -DZG_SECURE_DYNAMIC=0 -DREFLECTOR                  #
#                          -DDEFAULT_CHANLIST=0x00000800                      #
#                          -DZDAPP_CONFIG_PAN_ID=0xFFFF                       #
#                          -DNWK_START_DELAY=100 -DEXTENDED_JOINING_RANDOM_MA #
#                          SK=0x007F -DBEACON_REQUEST_DELAY=100               #
#                          -DBEACON_REQ_DELAY_MASK=0x00FF                     #
#                          -DROUTE_EXPIRY_TIME=30 -DAPSC_ACK_WAIT_DURATION_PO #
#                          LLED=3000 -DNWK_INDIRECT_MSG_TIMEOUT=7             #
#                          -DMAX_RREQ_ENTRIES=8 -DAPSC_MAX_FRAME_RETRIES=3    #
#                          -DNWK_MAX_DATA_RETRIES=2                           #
#                          -DMAX_POLL_FAILURE_RETRIES=2 -DMAX_BCAST=9         #
#                          -DAPS_MAX_GROUPS=16 -DMAX_RTG_ENTRIES=40           #
#                          -DNWK_MAX_BINDING_ENTRIES=4                        #
#                          -DMAX_BINDING_CLUSTER_IDS=4 "-DDEFAULT_KEY={0x01,  #
#                          0x03, 0x05, 0x07, 0x09, 0x0B, 0x0D, 0x0F, 0x00,    #
#                          0x02, 0x04, 0x06, 0x08, 0x0A, 0x0C, 0x0D}"         #
#                          -DMAC_MAX_FRAME_SIZE=116 "-DCONST=const __code"    #
#                          -DGENERIC=__generic -DRFD_RCVC_ALWAYS_ON=TRUE      #
#                          -DPOLL_RATE=1000 -DQUEUED_POLL_RATE=100            #
#                          -DRESPONSE_POLL_RATE=100) -DREJOIN_POLL_RATE=440   #
#                          "D:\R.D Dept\程式開發\TI Zigbee                    #
#                          Z-Stack\ZStack-CC2530-2.3.0-1.4.0\ZStack-CC2530-2. #
#                          3.0-1.4.0\ZStack-CC2530-2.3.0-1.4.0\Components\sta #
#                          ck\zdo\ZDConfig.c" -D NWK_AUTO_POLL -D ZTOOL_P1    #
#                          -D MT_TASK -D MT_SYS_FUNC -D MT_ZDO_FUNC -D        #
#                          LCD_SUPPORTED=DEBUG -D xPOWER_SAVING -lC "D:\R.D   #
#                          Dept\程式開發\TI Zigbee Z-Stack\ZStack-CC2530-2.3. #
#                          0-1.4.0\ZStack-CC2530-2.3.0-1.4.0\ZStack-CC2530-2. #
#                          3.0-1.4.0\Projects\zstack\Samples\GenericApp\CC253 #
#                          0DB\EndDeviceEB\List\" -lA "D:\R.D                 #
#                          Dept\程式開發\TI Zigbee Z-Stack\ZStack-CC2530-2.3. #
#                          0-1.4.0\ZStack-CC2530-2.3.0-1.4.0\ZStack-CC2530-2. #
#                          3.0-1.4.0\Projects\zstack\Samples\GenericApp\CC253 #
#                          0DB\EndDeviceEB\List\" --diag_suppress             #
#                          Pe001,Pa010 -o "D:\R.D Dept\程式開發\TI Zigbee     #
#                          Z-Stack\ZStack-CC2530-2.3.0-1.4.0\ZStack-CC2530-2. #
#                          3.0-1.4.0\ZStack-CC2530-2.3.0-1.4.0\Projects\zstac #
#                          k\Samples\GenericApp\CC2530DB\EndDeviceEB\Obj\"    #
#                          -e --require_prototypes --debug --core=plain       #
#                          --dptr=16,1 --data_model=large                     #
#                          --code_model=banked --calling_convention=xdata_ree #
#                          ntrant --place_constants=data_rom                  #
#                          --nr_virtual_regs 16 -I "D:\R.D Dept\程式開發\TI   #
#                          Zigbee Z-Stack\ZStack-CC2530-2.3.0-1.4.0\ZStack-CC #
#                          2530-2.3.0-1.4.0\ZStack-CC2530-2.3.0-1.4.0\Project #
#                          s\zstack\Samples\GenericApp\CC2530DB\" -I "D:\R.D  #
#                          Dept\程式開發\TI Zigbee Z-Stack\ZStack-CC2530-2.3. #
#                          0-1.4.0\ZStack-CC2530-2.3.0-1.4.0\ZStack-CC2530-2. #
#                          3.0-1.4.0\Projects\zstack\Samples\GenericApp\CC253 #
#                          0DB\..\SOURCE\" -I "D:\R.D Dept\程式開發\TI        #
#                          Zigbee Z-Stack\ZStack-CC2530-2.3.0-1.4.0\ZStack-CC #
#                          2530-2.3.0-1.4.0\ZStack-CC2530-2.3.0-1.4.0\Project #
#                          s\zstack\Samples\GenericApp\CC2530DB\..\..\..\ZMAI #
#                          N\TI2530DB\" -I "D:\R.D Dept\程式開發\TI Zigbee    #
#                          Z-Stack\ZStack-CC2530-2.3.0-1.4.0\ZStack-CC2530-2. #
#                          3.0-1.4.0\ZStack-CC2530-2.3.0-1.4.0\Projects\zstac #
#                          k\Samples\GenericApp\CC2530DB\..\..\..\..\..\COMPO #
#                          NENTS\MT\" -I "D:\R.D Dept\程式開發\TI Zigbee      #
#                          Z-Stack\ZStack-CC2530-2.3.0-1.4.0\ZStack-CC2530-2. #
#                          3.0-1.4.0\ZStack-CC2530-2.3.0-1.4.0\Projects\zstac #
#                          k\Samples\GenericApp\CC2530DB\..\..\..\..\..\COMPO #
#                          NENTS\HAL\INCLUDE\" -I "D:\R.D Dept\程式開發\TI    #
#                          Zigbee Z-Stack\ZStack-CC2530-2.3.0-1.4.0\ZStack-CC #
#                          2530-2.3.0-1.4.0\ZStack-CC2530-2.3.0-1.4.0\Project #
#                          s\zstack\Samples\GenericApp\CC2530DB\..\..\..\..\. #
#                          .\COMPONENTS\HAL\TARGET\CC2530EB\" -I "D:\R.D      #
#                          Dept\程式開發\TI Zigbee Z-Stack\ZStack-CC2530-2.3. #
#                          0-1.4.0\ZStack-CC2530-2.3.0-1.4.0\ZStack-CC2530-2. #
#                          3.0-1.4.0\Projects\zstack\Samples\GenericApp\CC253 #
#                          0DB\..\..\..\..\..\COMPONENTS\OSAL\MCU\CCSOC\" -I  #
#                          "D:\R.D Dept\程式開發\TI Zigbee                    #
#                          Z-Stack\ZStack-CC2530-2.3.0-1.4.0\ZStack-CC2530-2. #
#                          3.0-1.4.0\ZStack-CC2530-2.3.0-1.4.0\Projects\zstac #
#                          k\Samples\GenericApp\CC2530DB\..\..\..\..\..\COMPO #
#                          NENTS\OSAL\INCLUDE\" -I "D:\R.D Dept\程式開發\TI   #
#                          Zigbee Z-Stack\ZStack-CC2530-2.3.0-1.4.0\ZStack-CC #
#                          2530-2.3.0-1.4.0\ZStack-CC2530-2.3.0-1.4.0\Project #
#                          s\zstack\Samples\GenericApp\CC2530DB\..\..\..\..\. #
#                          .\COMPONENTS\STACK\AF\" -I "D:\R.D                 #
#                          Dept\程式開發\TI Zigbee Z-Stack\ZStack-CC2530-2.3. #
#                          0-1.4.0\ZStack-CC2530-2.3.0-1.4.0\ZStack-CC2530-2. #
#                          3.0-1.4.0\Projects\zstack\Samples\GenericApp\CC253 #
#                          0DB\..\..\..\..\..\COMPONENTS\STACK\NWK\" -I       #
#                          "D:\R.D Dept\程式開發\TI Zigbee                    #
#                          Z-Stack\ZStack-CC2530-2.3.0-1.4.0\ZStack-CC2530-2. #
#                          3.0-1.4.0\ZStack-CC2530-2.3.0-1.4.0\Projects\zstac #
#                          k\Samples\GenericApp\CC2530DB\..\..\..\..\..\COMPO #
#                          NENTS\STACK\SEC\" -I "D:\R.D Dept\程式開發\TI      #
#                          Zigbee Z-Stack\ZStack-CC2530-2.3.0-1.4.0\ZStack-CC #
#                          2530-2.3.0-1.4.0\ZStack-CC2530-2.3.0-1.4.0\Project #
#                          s\zstack\Samples\GenericApp\CC2530DB\..\..\..\..\. #
#                          .\COMPONENTS\STACK\SAPI\" -I "D:\R.D               #
#                          Dept\程式開發\TI Zigbee Z-Stack\ZStack-CC2530-2.3. #
#                          0-1.4.0\ZStack-CC2530-2.3.0-1.4.0\ZStack-CC2530-2. #
#                          3.0-1.4.0\Projects\zstack\Samples\GenericApp\CC253 #
#                          0DB\..\..\..\..\..\COMPONENTS\STACK\SYS\" -I       #
#                          "D:\R.D Dept\程式開發\TI Zigbee                    #
#                          Z-Stack\ZStack-CC2530-2.3.0-1.4.0\ZStack-CC2530-2. #
#                          3.0-1.4.0\ZStack-CC2530-2.3.0-1.4.0\Projects\zstac #
#                          k\Samples\GenericApp\CC2530DB\..\..\..\..\..\COMPO #
#                          NENTS\STACK\ZDO\" -I "D:\R.D Dept\程式開發\TI      #
#                          Zigbee Z-Stack\ZStack-CC2530-2.3.0-1.4.0\ZStack-CC #
#                          2530-2.3.0-1.4.0\ZStack-CC2530-2.3.0-1.4.0\Project #
#                          s\zstack\Samples\GenericApp\CC2530DB\..\..\..\..\. #
#                          .\COMPONENTS\ZMAC\F8W\" -I "D:\R.D                 #
#                          Dept\程式開發\TI Zigbee Z-Stack\ZStack-CC2530-2.3. #
#                          0-1.4.0\ZStack-CC2530-2.3.0-1.4.0\ZStack-CC2530-2. #
#                          3.0-1.4.0\Projects\zstack\Samples\GenericApp\CC253 #
#                          0DB\..\..\..\..\..\COMPONENTS\ZMAC\" -I "D:\R.D    #
#                          Dept\程式開發\TI Zigbee Z-Stack\ZStack-CC2530-2.3. #
#                          0-1.4.0\ZStack-CC2530-2.3.0-1.4.0\ZStack-CC2530-2. #
#                          3.0-1.4.0\Projects\zstack\Samples\GenericApp\CC253 #
#                          0DB\..\..\..\..\..\COMPONENTS\SERVICES\SADDR\" -I  #
#                          "D:\R.D Dept\程式開發\TI Zigbee                    #
#                          Z-Stack\ZStack-CC2530-2.3.0-1.4.0\ZStack-CC2530-2. #
#                          3.0-1.4.0\ZStack-CC2530-2.3.0-1.4.0\Projects\zstac #
#                          k\Samples\GenericApp\CC2530DB\..\..\..\..\..\COMPO #
#                          NENTS\SERVICES\SDATA\" -I "D:\R.D                  #
#                          Dept\程式開發\TI Zigbee Z-Stack\ZStack-CC2530-2.3. #
#                          0-1.4.0\ZStack-CC2530-2.3.0-1.4.0\ZStack-CC2530-2. #
#                          3.0-1.4.0\Projects\zstack\Samples\GenericApp\CC253 #
#                          0DB\..\..\..\..\..\COMPONENTS\MAC\INCLUDE\" -I     #
#                          "D:\R.D Dept\程式開發\TI Zigbee                    #
#                          Z-Stack\ZStack-CC2530-2.3.0-1.4.0\ZStack-CC2530-2. #
#                          3.0-1.4.0\ZStack-CC2530-2.3.0-1.4.0\Projects\zstac #
#                          k\Samples\GenericApp\CC2530DB\..\..\..\..\..\COMPO #
#                          NENTS\MAC\HIGH_LEVEL\" -I "D:\R.D                  #
#                          Dept\程式開發\TI Zigbee Z-Stack\ZStack-CC2530-2.3. #
#                          0-1.4.0\ZStack-CC2530-2.3.0-1.4.0\ZStack-CC2530-2. #
#                          3.0-1.4.0\Projects\zstack\Samples\GenericApp\CC253 #
#                          0DB\..\..\..\..\..\COMPONENTS\MAC\LOW_LEVEL\srf04\ #
#                          " -I "D:\R.D Dept\程式開發\TI Zigbee               #
#                          Z-Stack\ZStack-CC2530-2.3.0-1.4.0\ZStack-CC2530-2. #
#                          3.0-1.4.0\ZStack-CC2530-2.3.0-1.4.0\Projects\zstac #
#                          k\Samples\GenericApp\CC2530DB\..\..\..\..\..\COMPO #
#                          NENTS\MAC\LOW_LEVEL\srf04\SINGLE_CHIP\" -I         #
#                          "C:\IAR Systems\Embedded Workbench 5.3\8051\INC\"  #
#                          -I "C:\IAR Systems\Embedded Workbench              #
#                          5.3\8051\INC\CLIB\" -Ohz                           #
#    List file          =  D:\R.D Dept\程式開發\TI Zigbee                     #
#                          Z-Stack\ZStack-CC2530-2.3.0-1.4.0\ZStack-CC2530-2. #
#                          3.0-1.4.0\ZStack-CC2530-2.3.0-1.4.0\Projects\zstac #
#                          k\Samples\GenericApp\CC2530DB\EndDeviceEB\List\ZDC #
#                          onfig.lst                                          #
#    Object file        =  D:\R.D Dept\程式開發\TI Zigbee                     #
#                          Z-Stack\ZStack-CC2530-2.3.0-1.4.0\ZStack-CC2530-2. #
#                          3.0-1.4.0\ZStack-CC2530-2.3.0-1.4.0\Projects\zstac #
#                          k\Samples\GenericApp\CC2530DB\EndDeviceEB\Obj\ZDCo #
#                          nfig.r51                                           #
#                                                                             #
#                                                                             #
###############################################################################

D:\R.D Dept\程式開發\TI Zigbee Z-Stack\ZStack-CC2530-2.3.0-1.4.0\ZStack-CC2530-2.3.0-1.4.0\ZStack-CC2530-2.3.0-1.4.0\Components\stack\zdo\ZDConfig.c
      1          /**************************************************************************************************
      2            Filename:       ZDConfig.c
      3            Revised:        $Date: 2008-02-12 16:32:50 -0800 (Tue, 12 Feb 2008) $
      4            Revision:       $Revision: 16393 $
      5          
      6            Description:    This file contains the configuration attributes for the Zigbee Device Object.
      7                            These are references to Configuration items that MUST be defined in ZDApp.c.
      8                            The names mustn't change.
      9          
     10            Copyright 2004-2007 Texas Instruments Incorporated. All rights reserved.
     11          
     12            Should you have any questions regarding your right to use this Software,
     13            contact Texas Instruments Incorporated at www.TI.com. 
     14          **************************************************************************************************/
     15          
     16          /*********************************************************************
     17           * INCLUDES
     18           */
     19          #include "ZComdef.h"
     20          #include "AF.h"
     21          #include "ZDObject.h"
     22          #include "ZDConfig.h"
     23          
     24           /*********************************************************************
     25           * MACROS
     26           */
     27          
     28          /*********************************************************************
     29           * CONSTANTS
     30           */
     31          
     32          /*********************************************************************
     33           * TYPEDEFS
     34           */
     35          
     36          /*********************************************************************
     37           * GLOBAL VARIABLES
     38           */

   \                                 In  segment XDATA_Z, align 1, keep-with-next
     39          NodeDescriptorFormat_t ZDO_Config_Node_Descriptor;
   \                     ZDO_Config_Node_Descriptor:
   \   000000                DS 13
   \   00000D                REQUIRE __INIT_XDATA_Z

   \                                 In  segment XDATA_Z, align 1, keep-with-next
     40          NodePowerDescriptorFormat_t ZDO_Config_Power_Descriptor;
   \                     ZDO_Config_Power_Descriptor:
   \   000000                DS 2
   \   000002                REQUIRE __INIT_XDATA_Z
     41          
     42          /*********************************************************************
     43           * EXTERNAL VARIABLES
     44           */
     45          
     46          /*********************************************************************
     47           * EXTERNAL FUNCTIONS
     48           */
     49          
     50          /*********************************************************************
     51           * LOCAL FUNCTIONS
     52           */
     53          
     54          /*********************************************************************
     55           * LOCAL VARIABLES
     56           */
     57          
     58          /*********************************************************************
     59           * @fn      ZDConfig_InitDescriptors()
     60           *
     61           * @brief   Setup the ZDO descriptors 
     62           *             Node, Power
     63           *
     64           * @param   none
     65           *
     66           * @return  none
     67           */

   \                                 In  segment BANKED_CODE, align 1, keep-with-next
     68          void ZDConfig_InitDescriptors( void )
   \                     ZDConfig_InitDescriptors:
     69          {
   \   000000   C082         PUSH    DPL
   \   000002   C083         PUSH    DPH
   \   000004                ; Saved register size: 2
   \   000004                ; Auto size: 0
     70            ZDConfig_UpdateNodeDescriptor();
   \   000004                ; Setup parameters for call to function ZDConfig_UpdateNodeDescriptor
   \   000004   12....       LCALL   ??ZDConfig_UpdateNodeDescriptor?relay
     71            ZDConfig_UpdatePowerDescriptor();
   \   000007                ; Setup parameters for call to function ZDConfig_UpdatePowerDescriptor
   \   000007   12....       LCALL   ??ZDConfig_UpdatePowerDescriptor?relay
     72          }
   \   00000A   80..         SJMP    ??Subroutine1_0

   \                                 In  segment BANKED_CODE, align 1, keep-with-next
   \                     ??Subroutine1_0:
   \   000000   D083         POP     DPH
   \   000002   D082         POP     DPL
   \   000004   02....       LJMP    ?BRET
     73          
     74          /*********************************************************************
     75           * @fn      ZDConfig_UpdateNodeDescriptor()
     76           *
     77           * @brief   Update the ZDO Node Descriptor 
     78           *
     79           * @param   none
     80           *
     81           * @return  none
     82           */

   \                                 In  segment BANKED_CODE, align 1, keep-with-next
     83          void ZDConfig_UpdateNodeDescriptor( void )
   \                     ZDConfig_UpdateNodeDescriptor:
     84          {
   \   000000   C082         PUSH    DPL
   \   000002   C083         PUSH    DPH
   \   000004                ; Saved register size: 2
   \   000004                ; Auto size: 0
     85            // Build the Node Descriptor
     86            if ( ZG_BUILD_COORDINATOR_TYPE && ZG_DEVICE_COORDINATOR_TYPE )
     87              ZDO_Config_Node_Descriptor.LogicalType = NODETYPE_COORDINATOR;
     88            else if ( ZSTACK_ROUTER_BUILD )
     89              ZDO_Config_Node_Descriptor.LogicalType = NODETYPE_ROUTER;
     90            else if ( ZSTACK_END_DEVICE_BUILD )
     91              ZDO_Config_Node_Descriptor.LogicalType = NODETYPE_DEVICE;
     92            
     93            ZDO_Config_Node_Descriptor.ComplexDescAvail = FALSE;      // set elsewhere
     94            ZDO_Config_Node_Descriptor.UserDescAvail = FALSE;         // set elsewhere
     95            ZDO_Config_Node_Descriptor.Reserved = 0;                  // Reserved
   \   000004   7402         MOV     A,#0x2
   \   000006   90....       MOV     DPTR,#ZDO_Config_Node_Descriptor
   \   000009   F0           MOVX    @DPTR,A
     96            ZDO_Config_Node_Descriptor.APSFlags = 0;                  // NO APS flags
     97            ZDO_Config_Node_Descriptor.FrequencyBand = NODEFREQ_2400; // Frequency Band
   \   00000A   7440         MOV     A,#0x40
   \   00000C   90....       MOV     DPTR,#(ZDO_Config_Node_Descriptor + 1)
   \   00000F   F0           MOVX    @DPTR,A
     98            
     99            // MAC Capabilities
    100            if ( ZSTACK_ROUTER_BUILD )
    101            {
    102              ZDO_Config_Node_Descriptor.CapabilityFlags 
    103                        = (CAPINFO_DEVICETYPE_FFD | CAPINFO_POWER_AC | CAPINFO_RCVR_ON_IDLE);
    104              
    105              if ( ZG_BUILD_COORDINATOR_TYPE && ZG_DEVICE_COORDINATOR_TYPE )
    106                ZDO_Config_Node_Descriptor.CapabilityFlags |= CAPINFO_ALTPANCOORD;
    107            }
    108            else if ( ZSTACK_END_DEVICE_BUILD )
    109            {
    110              ZDO_Config_Node_Descriptor.CapabilityFlags = (CAPINFO_DEVICETYPE_RFD
    111            #if ( RFD_RCVC_ALWAYS_ON == TRUE)
    112                      | CAPINFO_RCVR_ON_IDLE
    113            #endif
    114                  );
   \   000010   7408         MOV     A,#0x8
   \   000012   90....       MOV     DPTR,#(ZDO_Config_Node_Descriptor + 2)
   \   000015   F0           MOVX    @DPTR,A
    115            }
    116            
    117            // Manufacturer Code - *YOU FILL IN*
    118            ZDO_Config_Node_Descriptor.ManufacturerCode[0] = 0;
   \   000016   E4           CLR     A
   \   000017   90....       MOV     DPTR,#(ZDO_Config_Node_Descriptor + 3)
   \   00001A   F0           MOVX    @DPTR,A
    119            ZDO_Config_Node_Descriptor.ManufacturerCode[1] = 0;
   \   00001B   90....       MOV     DPTR,#(ZDO_Config_Node_Descriptor + 4)
   \   00001E   F0           MOVX    @DPTR,A
    120            
    121            // Maximum Buffer Size
    122            ZDO_Config_Node_Descriptor.MaxBufferSize = MAX_BUFFER_SIZE;
   \   00001F   7450         MOV     A,#0x50
   \   000021   90....       MOV     DPTR,#(ZDO_Config_Node_Descriptor + 5)
   \   000024   F0           MOVX    @DPTR,A
    123          
    124            // Maximum Incoming Transfer Size Field
    125            ZDO_Config_Node_Descriptor.MaxInTransferSize[0] = LO_UINT16( MAX_TRANSFER_SIZE );
   \   000025   90....       MOV     DPTR,#(ZDO_Config_Node_Descriptor + 6)
   \   000028   F0           MOVX    @DPTR,A
    126            ZDO_Config_Node_Descriptor.MaxInTransferSize[1] = HI_UINT16( MAX_TRANSFER_SIZE );
   \   000029   E4           CLR     A
   \   00002A   90....       MOV     DPTR,#(ZDO_Config_Node_Descriptor + 7)
   \   00002D   F0           MOVX    @DPTR,A
    127            
    128            // Maximum Outgoing Transfer Size Field
    129            ZDO_Config_Node_Descriptor.MaxOutTransferSize[0] = LO_UINT16( MAX_TRANSFER_SIZE );
   \   00002E   7450         MOV     A,#0x50
   \   000030   90....       MOV     DPTR,#(ZDO_Config_Node_Descriptor + 10)
   \   000033   F0           MOVX    @DPTR,A
    130            ZDO_Config_Node_Descriptor.MaxOutTransferSize[1] = HI_UINT16( MAX_TRANSFER_SIZE );
   \   000034   E4           CLR     A
   \   000035   90....       MOV     DPTR,#(ZDO_Config_Node_Descriptor + 11)
   \   000038   F0           MOVX    @DPTR,A
    131            
    132            // Server Mask
    133            ZDO_Config_Node_Descriptor.ServerMask = 0;
   \   000039   90....       MOV     DPTR,#(ZDO_Config_Node_Descriptor + 8)
   \   00003C   F0           MOVX    @DPTR,A
   \   00003D   A3           INC     DPTR
   \   00003E   F0           MOVX    @DPTR,A
    134            
    135            // Descriptor Capability Field - extended active endpoint list and 
    136            // extended simple descriptor are not supported.
    137            ZDO_Config_Node_Descriptor.DescriptorCapability = 0;
   \   00003F   90....       MOV     DPTR,#(ZDO_Config_Node_Descriptor + 12)
   \   000042                REQUIRE ?Subroutine0
   \   000042                ; // Fall through to label ?Subroutine0
    138          }

   \                                 In  segment BANKED_CODE, align 1, keep-with-next
   \                     ?Subroutine0:
   \   000000   F0           MOVX    @DPTR,A
   \   000001                REQUIRE ??Subroutine1_0
   \   000001                ; // Fall through to label ??Subroutine1_0
    139          
    140          /*********************************************************************
    141           * @fn      ZDConfig_UpdatePowerDescriptor()
    142           *
    143           * @brief   Update the ZDO Power Descriptor 
    144           *
    145           * @param   none
    146           *
    147           * @return  none
    148           */

   \                                 In  segment BANKED_CODE, align 1, keep-with-next
    149          void ZDConfig_UpdatePowerDescriptor( void )
   \                     ZDConfig_UpdatePowerDescriptor:
    150          {
   \   000000   C082         PUSH    DPL
   \   000002   C083         PUSH    DPH
   \   000004                ; Saved register size: 2
   \   000004                ; Auto size: 0
    151            // Build the Power Descriptor  
    152            if ( ZSTACK_ROUTER_BUILD )
    153            {
    154              ZDO_Config_Power_Descriptor.PowerMode = NODECURPWR_RCVR_ALWAYS_ON;
    155              ZDO_Config_Power_Descriptor.AvailablePowerSources = NODEAVAILPWR_MAINS;
    156              ZDO_Config_Power_Descriptor.CurrentPowerSource = NODEAVAILPWR_MAINS;
    157              ZDO_Config_Power_Descriptor.CurrentPowerSourceLevel = NODEPOWER_LEVEL_100;
    158            }
    159            else if ( ZSTACK_END_DEVICE_BUILD )
    160            {
    161              if ( zgPollRate )
   \   000004   90....       MOV     DPTR,#ZDO_Config_Power_Descriptor
   \   000007   E0           MOVX    A,@DPTR
   \   000008   54F0         ANL     A,#0xf0
   \   00000A   F8           MOV     R0,A
   \   00000B   A3           INC     DPTR
   \   00000C   E0           MOVX    A,@DPTR
   \   00000D   F9           MOV     R1,A
   \   00000E   90....       MOV     DPTR,#zgPollRate
   \   000011   E0           MOVX    A,@DPTR
   \   000012   7002         JNZ     ??ZDConfig_UpdatePowerDescriptor_0
   \   000014   A3           INC     DPTR
   \   000015   E0           MOVX    A,@DPTR
   \                     ??ZDConfig_UpdatePowerDescriptor_0:
   \   000016   6004         JZ      ??ZDConfig_UpdatePowerDescriptor_1
    162                ZDO_Config_Power_Descriptor.PowerMode = NODECURPWR_RCVR_AUTO;
   \   000018   7401         MOV     A,#0x1
   \   00001A   8002         SJMP    ??ZDConfig_UpdatePowerDescriptor_2
    163              else
    164                ZDO_Config_Power_Descriptor.PowerMode = NODECURPWR_RCVR_STIM;
   \                     ??ZDConfig_UpdatePowerDescriptor_1:
   \   00001C   7402         MOV     A,#0x2
   \                     ??ZDConfig_UpdatePowerDescriptor_2:
   \   00001E   48           ORL     A,R0
   \   00001F   90....       MOV     DPTR,#ZDO_Config_Power_Descriptor
   \   000022   F0           MOVX    @DPTR,A
   \   000023   A3           INC     DPTR
   \   000024   E9           MOV     A,R1
   \   000025   F0           MOVX    @DPTR,A
    165                
    166              ZDO_Config_Power_Descriptor.AvailablePowerSources = NODEAVAILPWR_RECHARGE;
    167              ZDO_Config_Power_Descriptor.CurrentPowerSource = NODEAVAILPWR_RECHARGE;
    168              ZDO_Config_Power_Descriptor.CurrentPowerSourceLevel = NODEPOWER_LEVEL_66;
   \   000026   90....       MOV     DPTR,#ZDO_Config_Power_Descriptor
   \   000029   E0           MOVX    A,@DPTR
   \   00002A   540F         ANL     A,#0xf
   \   00002C   F8           MOV     R0,A
   \   00002D   7420         MOV     A,#0x20
   \   00002F   48           ORL     A,R0
   \   000030   F0           MOVX    @DPTR,A
   \   000031   A3           INC     DPTR
   \   000032   7482         MOV     A,#-0x7e
   \   000034   80..         SJMP    ?Subroutine0
    169            }
    170          }

   \                                 In  segment BANK_RELAYS, align 1
   \                     ??ZDConfig_InitDescriptors?relay:
   \   000000   12....       LCALL   ?BDISPATCH
   \   000003   ......       DC24    ZDConfig_InitDescriptors

   \                                 In  segment BANK_RELAYS, align 1
   \                     ??ZDConfig_UpdateNodeDescriptor?relay:
   \   000000   12....       LCALL   ?BDISPATCH
   \   000003   ......       DC24    ZDConfig_UpdateNodeDescriptor

   \                                 In  segment BANK_RELAYS, align 1
   \                     ??ZDConfig_UpdatePowerDescriptor?relay:
   \   000000   12....       LCALL   ?BDISPATCH
   \   000003   ......       DC24    ZDConfig_UpdatePowerDescriptor
    171          
    172          /*********************************************************************
    173          *********************************************************************/
    174          
    175          

   Maximum stack usage in bytes:

     Function                       ISTACK PSTACK XSTACK
     --------                       ------ ------ ------
     ZDConfig_InitDescriptors           2      0      0
       -> ZDConfig_UpdateNodeDescriptor
                                        4      0      0
       -> ZDConfig_UpdatePowerDescriptor
                                        4      0      0
     ZDConfig_UpdateNodeDescriptor      2      0      0
     ZDConfig_UpdatePowerDescriptor     2      0      0


   Segment part sizes:

     Function/Label                         Bytes
     --------------                         -----
     ZDO_Config_Node_Descriptor               13
     ZDO_Config_Power_Descriptor               2
     ZDConfig_InitDescriptors                 12
     ??Subroutine1_0                           7
     ZDConfig_UpdateNodeDescriptor            66
     ?Subroutine0                              1
     ZDConfig_UpdatePowerDescriptor           54
     ??ZDConfig_InitDescriptors?relay          6
     ??ZDConfig_UpdateNodeDescriptor?relay     6
     ??ZDConfig_UpdatePowerDescriptor?relay    6

 
 140 bytes in segment BANKED_CODE
  18 bytes in segment BANK_RELAYS
  15 bytes in segment XDATA_Z
 
 158 bytes of CODE  memory
  15 bytes of XDATA memory

Errors: none
Warnings: none
